:020000040800F2
:10000000B8160020D500000871630008514F0008A1
:1000100000000000000000000000000000000000E0
:100020000000000000000000000000000B8D000830
:100030000000000000000000316F000881AA0008E5
:10004000E7000008E70000087F750008E7000008E7
:10005000E7000008CF1A0008DF1A0008F11A0008AC
:10006000E7000008E7000008E7000008391800086A
:10007000E7000008E7000008E7000008E7000008C4
:10008000E7000008E7000008E700000800000000A3
:10009000E7000008E7000008E7000008E7000008A4
:1000A000E7000008E7000008E7000008E700000894
:1000B000E70000081975000800000000E7000008CC
:1000C0000348854600F0A8FD0048004755D20008C7
:1000D000B81600200448804704480047FEE7FEE7C2
:1000E000FEE7FEE7FEE7FEE715AB0008C1000008EB
:1000F00030B50B46014600202022012409E00D46C0
:10010000D5409D4205D31D469540491B2546954047
:1001100040191546521E002DF1DC30BD70B500248B
:100120002546002801DA01244042002901DA012590
:100130004942FFF7DDFFAC4200D04042002C00D026
:10014000494270BDF0B51FB40646002082B0054696
:100150004024019100901BE0019922460F46304651
:1001600000F024FC049A059B801A994110D3104694
:100170001946224600F00AFC361A8F4101972246A2
:1001800001200021009F00F001FC38184D41009033
:100190002046641E0028DFDC019B00982946324679
:1001A00007B0F0BDF0B51FB486B0002000900190FC
:1001B00002900698069980B204900798090C0204F0
:1001C0000014114307900027089D099806913E46A8
:1001D0003C4603900398A9B20204000C03900498D3
:1001E0002D0C154348430021224600F0CFFBC719D0
:1001F000714110340E46402CECDB3846029A00F078
:10020000C5FB009A019B801800905941029801910A
:10021000103002904028CCDB00980BB0F0BD0346B4
:100220000B439B0703D009E008C9121F08C0042A2A
:10023000FAD203E00B780370401C491C521EF9D21D
:100240007047D2B201E00270401C491EFBD27047D9
:100250000022F6E710B513460A4604461946FFF792
:10026000F0FF204610BD421C0178401C0029FBD144
:10027000801A704710B5002200E0521C835C8C5C31
:10028000A34201D1002BF8D1D8B2E1B2401A10BD7F
:1002900030B505460020034600E05B1C934205D2C2
:1002A000EC5CC85C201A01D1002CF6D130BD0321D2
:1002B000001D401E037812021A43491EF9D510464C
:1002C0007047F8B502464A40D40F42004B0052082E
:1002D0005B089A4202D20246084611464A0023D0E1
:1002E000C30D4A00DDB2120EAD1A202D35DA4902D7
:1002F0000126490AF6058A19002C00D05242202115
:100300004F1B1146B9402A411018C20D9A4221D004
:10031000002C17D0012D08DCDA05801AD20F8019C5
:10032000D207DBB200F06EFBF8BDDA05801A0123BC
:1003300040001B06C01880185A428018CA0F10438C
:10034000490007E04908C2071143DA05801A8019FD
:100350004008801800F04EFBF8BD61000122511AE0
:10036000001BF7E70122D2075140AAE70122D2077A
:100370005040A6E7024670B54A40D30FDB07400065
:100380002DD04A002AD0010E140E000212020919C3
:10039000400A520A8418E50104465443000A120A2E
:1003A0002E045043A4194219200CC543AA18120C5C
:1003B0000125AD03521C521912047F39240400D0C8
:1003C000521C104301D44000491EC2B20C06C009A1
:1003D0002018401C4008802A02D003E0002070BD95
:1003E00040084000002900DA0020184370BD70B5B5
:1003F00002464A40D50F40004A00ED074008520827
:10040000002814D0002A12D0C40DD30D41020120BF
:10041000C0055202490A520AE41A091812187D341A
:10042000914201D3641C00E04900002C01DA002055
:1004300070BD0023914201D3891A0343400849004B
:100440000028F7D100290AD0914202D10121C90721
:1004500005E0914201D2012101E00121C943E005FB
:10046000C018401900F0C6FA70BD0000F0B507468C
:100470000846584087B0C00F049048000E46590007
:1004800040084908BC1A884105D2384631461E4604
:1004900017460B4602465800400810434CD0300D1A
:1004A000039040055900400D490D0590401A0290F7
:1004B000402872DA18030121000B09050843019056
:1004C00004980092002805D00199524200208841EA
:1004D00000920190029840210A1A0199009800F0B8
:1004E00055FA05460C466B4607CB00F070FAC0196A
:1004F0007141039A0E0D0023D71756401A467A40D1
:10050000164344D0049A002A2DD0029A012A039A55
:1005100015DC1205C01A914101263605001C7141F7
:10052000D20F059ED2070093019202962A462346D7
:1005300000F0AEFA07B0F0BD38463146FAE71605CE
:10054000224A0F46B218C01AB74101210905001C02
:100550004F4100187F41114618187941E20F1043AE
:100560006D19644113E0E2076D0815436408C20782
:100570001443039A01261205C01A91413605001C46
:100580007141CE07400830434908C01851412A46FE
:10059000234600F070FACDE7FFE7049801224000FF
:1005A000C117121A00238B4104983146C417381A18
:1005B000A141EEE730B40124E407634030BC55E7C5
:1005C00030B40124E407614030BC4FE70000E0FF95
:1005D000F0B51FB488B00B990998002448400999D8
:1005E000C00F490049080991C0070B9900904900C4
:1005F00049080B9109990898A64608431CD00B9905
:100600000A98084318D0099801244000420D480078
:10061000410D099824050003000B204309900B9815
:100620000003000B20430B9050181C494018002277
:1006300001901446104605E0002001460DB0F0BDC3
:10064000032801DA034600E003239C46C11A0AAEE0
:100650000AE05F0008ADED5B4F00F75B7D430027CC
:10066000AA187C41491C5B1E6145F2DD410004ABC8
:100670005A522104120C0A43240C401C0828DFDBC8
:10068000019802900099704601910090059B049A90
:100690000799069800F0FCF9D0E700000DFCFFFF79
:1006A000F0B50C465C4085B0E40FE40703944C00C1
:1006B00000266408590094464908024602962243DF
:1006C00021D062460A431ED06200570D4A000E0335
:1006D0002303550D012402462C492405781B1B0BCE
:1006E000360B401823432643614600901C46501A9F
:1006F000B44103D30098401C009002E09218009887
:100700005B41002803DA0020014605B0F0BD00205F
:10071000012109050746864611E064461D46141B63
:10072000B54106D36546521BB341744607430C439B
:10073000A646CD0740084908284392185B41054664
:100740000D43EAD11046184313D060461946504075
:100750007140084306D06046101AB34106D2012208
:10076000002306E000220123DB0702E00122D2433E
:100770005310009874460105381C6141029C039D8A
:100780000019694100F077F9BFE70000FD030000A0
:1007900070B54B005B0803430BD04B005C0D00268B
:1007A00033466542B341D417AD1AA34102DB0020A2
:1007B000014670BD12053018514170BDC217C10FFE
:1007C000504010B54018CA079623002100F01AF9CE
:1007D00010BD10B500229623114600F013F910BD8C
:1007E0000EB5C217C10F5040CA0740180021054B73
:1007F0000293019200910A460B4600F049F903B0BA
:1008000000BD0000330400000EB50549029100212F
:1008100000910A460B46019100F03AF903B000BD81
:1008200033040000C20F410040020123400ADB05EF
:10083000D207090EC0187F2901DA002070479629D7
:1008400003DC9623591AC84001E096398840002AF3
:10085000F4D040427047410040020122400AD205D4
:10086000090E80187F2901DA00207047962903DCE1
:100870009622511AC8407047963988407047000048
:1008800070B5CD0F4A0009030123090B1B0519435D
:100890000B4BED070024520D9A4201DA002070BD87
:1008A000074B34339A4203DC9A1A00F07FF802E0D7
:1008B0000449511888402C43F1D0404270BD0000DB
:1008C000FF030000CDFBFFFF4A0009030123090BD2
:1008D0001B051943094B10B5520D9A4201DA00204D
:1008E00010BD064B34339A4203DC9A1A00F05EF8CE
:1008F00010BD03495118884010BD0000FF030000DF
:10090000CDFBFFFFC20FD207400040080BD0C10D46
:100910000723DB01C91840020905400A1143C20838
:1009200040071143704700200146704710B5002969
:1009300004DB0124E40740428C412146002B04DB08
:100940001C460123DB075242A341994200D1904249
:1009500010BD0000CB0FDB07490010B54908024667
:100960000A4307D00A0D07240903E401090B121BEF
:10097000002A01DC002010BDC900440F0C43C10057
:10098000E018D205801800F035F810BD10B5202A07
:1009900004DB0146203A9140002010BD9140202305
:1009A0009C1A0346E3401943904010BD10B5202A1D
:1009B00004DB0846203AD040002110BD0B46D3404E
:1009C000D0402024A21A91400843194610BD10B50A
:1009D000202A06DBCB170846203A1041C1170B43EB
:1009E00006E00B461341D0402024A21A9140084350
:1009F000194610BD002904DA401C490001D1400805
:100A00004000704770B40024050C05D11024000488
:100A100002D1002921D01124050E01D10002083491
:100A2000050F01D10001241D850F01D18000A41CF8
:100A3000002801DB4000641C002908D020252E1B63
:100A40000D46F540A14000D001212943084301068D
:100A50001B1B000ADB1D02D5002070BC7047DB05A4
:100A6000181880180029F8DA401C4900F5D170BC2C
:100A700040084000704710B5002B08DA0024401CE5
:100A8000614192185B411A4301D14008400010BDFA
:100A9000F0B51FB482B005460C0003D008460AF03A
:100AA000C9FD02E00AF0C6FD203002460090214652
:100AB0002846FFF76BFF049B059A04460F46184330
:100AC0001143084314D0184610431BD0009840210E
:100AD0000A1A18460599FFF769FF05460E46009A5F
:100AE00005990498FFF752FF084305D0012004E060
:100AF0002046394607B0F0BD0020C11705430E431C
:100B00002C43374300990E986305401A7905E40A8F
:100B100000220C43FD0A0A3002D500200146E9E715
:100B20000105101969410C9C0D9D00196941FFF7E1
:100B3000A2FFDFE7F8B50546480040080C46284309
:100B400004D06000184A400D904201DD2846F8BDEF
:100B500015493539884210DC88420BDB290D20030A
:100B600008432903014305D0E00F1049C00741188D
:100B70000020F8BD00200146F8BD161A4020821B57
:100B800028462146FFF702FF0746009128462146E6
:100B90003246FFF70BFF3A46009BFFF76CFF3246E9
:100BA000FFF7F4FEF8BD0000330400000000F03F42
:100BB0004A0009030123090B1B0519430A4B10B511
:100BC000520D9A4202DA0020014610BD064B343322
:100BD0009A4203DC9A1AFFF7E9FE10BD034BD218C4
:100BE000FFF7D4FE10BD0000FF030000CDFBFFFFA8
:100BF00010B5002904DB0124E40740428C41214662
:100C0000002B04DB1C460123DB075242A3418B422D
:100C100000D1824210BD0000064C0125064E05E0C1
:100C2000E36807CC2B430C3C98471034B442F7D30D
:100C3000FFF74AFAE8F4000808F5000870B58C18C8
:100C40000578401C6B075B0F01D10378401C2A110B
:100C500006D10278401C03E006780E70401C491C47
:100C60005B1EF9D12B0705D40023521E0DD40B7047
:100C7000491CFAE70378401CCB1A921C03E01D784C
:100C80000D70491C5B1C521EF9D5A142D8D300201F
:100C900070BD000038B50446064805490068FFF7F6
:100CA00027FA604300E0401E00900028FBD138BDC9
:100CB00040420F0054000020F8B5044600688168E7
:100CC0008907890F012902D10168C90722D18168EA
:100CD000114A10261140012500290ED181682943AF
:100CE00081600120FFF7D6FF01F0C6FE07460CE049
:100CF00001F0C2FEC01B0A2807D9A06D3043A065D1
:100D0000E06D2843E0650120F8BD20680068C0431D
:100D1000C007EDD10020F8BD17000080F0B589B004
:100D20000C4607461022002168460CF0C9FA6946B5
:100D3000224608460BF02BF9684600788726010604
:100D4000684600290FDA00214318425C5B785200A4
:100D5000DB091A434254491C0F29F5DBC17B0246CB
:100D6000490071400DE000214318425C5B7852005D
:100D7000DB091A434254491C0F29F5DBC17B0246AB
:100D80004900D173E21DF9325169102912D001785E
:100D900009061BD500214518435C6D785B00ED0901
:100DA0002B434354491C0F29F5DBC17B0346490003
:100DB000714019E000216218FF3201325378455C1E
:100DC000491C6B4053701029F5DB26E000214518C3
:100DD000435C6D785B00ED092B434354491C0F299C
:100DE000F5DBC17B03464900D973E11D55698023BA
:100DF000FA316B54002500E05D5453695B1C53616C
:100E0000102BF9D300216218FF3201325378455C70
:100E1000491C6B4053701029F5DB00216218104605
:100E2000FF32E0300132437C5278491C5340437416
:100E30001029F3DB21461022F13104A80CF028FA26
:100E40002246394604A80BF0A2F810220021684679
:100E50000CF036FA09B0F0BD10B50446102200219E
:100E6000F1300CF02DFAFF20002115300151F02255
:100E700020460CF025FA10BD0B4610B50246102195
:100E800018460BF0AFF810BDF0B50446FF308BB03C
:100E90000F4601300890E11D4069FA310091103988
:100EA00015460791002843D010210E1AAE4200D3F8
:100EB00016460099B2B2401839460CF0E9F9089884
:100EC000089940698019486110283AD3B54238D052
:100ED000002162181046FF32E0300132437C527824
:100EE000491C534043741029F3DB079922460846F6
:100EF0000BF04DF8BF19AD1B1AE000202118E031AE
:100F00004A7C3B5C401C5A404A741028F6DB102295
:100F100002A807990CF0BCF902A9224608460BF07A
:100F200036F8102202A907980CF0B2F9103D1037DC
:100F3000102DE2D8AAB2394600980CF0A9F9089809
:100F400045610BB0F0BD0000F7B523498022497A16
:100F5000214B511ACDB2197A5B7A8026F31A0A46D0
:100F6000DEB2871E491C0124C9B2761E3B000AF07E
:100F700090FB09060C060C120C06062B3000164BD3
:100F8000AA4224D2154CA05403E0134BB24215DB05
:100F90001DE019720DE0104EAD1EAA4217DA0F4B7C
:100FA000985401985854491CC8B202991954401CCD
:100FB0003072002408480121C17108E0074CA05498
:100FC00001986054491CE4E7034BAA42F6D320463B
:100FD000FEBD0220FEBD000050010020B60C002026
:100FE00010B586B014216846FFF732F90D48C26A81
:100FF00001210A43C262C06A0B4C084005901020D0
:101000000090002002900320019103906946204641
:1010100001F064FC01221021204601F026FD06B0FB
:1010200010BD00000010024000040050FEB506F0A4
:10103000ABFA00F0ABFE00F0D1FEFFF7D1FF334872
:101040000078012855D132A00068019031A0002716
:1010500000683E46029000F0F1F87D25ED002E4C30
:1010600002E07F1C642F12D0012301AA80212B48AB
:10107000009501F015FE0028F3D1012301AA80217B
:101080002648009501F00CFE002803D007E0002060
:101090006060F2E70120606021A009F0C1FE606895
:1010A000002826D100F0ECF802E0761C642E12D065
:1010B000022302AA88212048009501F0F1FD0028B2
:1010C000F3D1022302AA88211B48009501F0E8FD14
:1010D000002803D007E000206060F2E70220606093
:1010E00016A009F09DFE6068002802D119A009F041
:1010F00097FE06480078022805D100F08FFE00F028
:10110000ADFE09F031FD0CF00BFBFEBDCE00002062
:10111000E7000000F32D00005C000020A403002085
:10112000205573652053656E736F72206973205369
:10113000544832300A0D0000F0030020202055737F
:10114000652053656E736F72206973205354483362
:10115000310A0D002020494943206973206E6F74C5
:1011600020636F6E6E6563740A0D0000F8B52D4F35
:10117000044600222021384601F077FC00F070FB85
:10118000606000221021384601F06FFC012003F05E
:1011900007FB254D288001221021384601F065FC0F
:1011A00003F0BEFB28882149098848432049FEF7FF
:1011B000B5FFFFF703FBA06001210520090300072D
:1011C00001F04EFC1B4E2060307801281ED168686B
:1011D000002802D0012804D00CE01748206160618B
:1011E0001AE007F0ABFB009007F028FB01460098DF
:1011F000616120616868022808D107F0A5FC0090B1
:1012000007F024FC014600986161206130780228D3
:1012100002D10AF023F9688001222021384601F02A
:1012200024FCF8BD000400505C0000206A0000208F
:10123000FF0F0000CE00002000CCCC4510B50E48BA
:101240000C4901600D4941600121C160002101612B
:101250008161C1610162F0218160FE21416101F083
:1012600039FC002801D000F07DFC0021024801F08B
:1012700009FC10BD00540040A40300202E11B10051
:101280001CB513A00068019013481249016013496E
:1012900041600121C160002101618161C161016280
:1012A000F0218160FE21416101F014FC002801D091
:1012B00000F058FC0021084801F0E4FB7D20C0004C
:1012C0000090022301AA8821034801F0E9FC1CBD1B
:1012D0002032000000540040F00300202E11B10025
:1012E00001780448024A4368D154012101707047D3
:1012F0002F080020C400002010B503480CF080FD2A
:1013000002490020087010BDE1120008C40000204E
:1013100010B51248017801290ED100210170104B3F
:1013200042689C5C012C08D00D2C09D00A2C07D0F7
:101330007F2A0DD0521C426010BD4160062009E09A
:10134000002AF9D09954416005480CF0D7F810BD37
:10135000416004200BF0BCFD10BD0000C400002063
:101360002F0800203EB50D4C6946E2780A70227DB8
:101370008A70C870606B09F053FC0190E06B0290BA
:10138000E07D69464870207C06F0EFFE218CE06B22
:101390004143081AA16D4018A0653EBD50010020D0
:1013A000FFB5044689B0002003900890069021897B
:1013B0001646002915D00190626904922069002A1E
:1013C00004D000290FD00A4692B20392002900D01F
:1013D0000E46E168884215D3039A61688018081A9E
:1013E00011E00220E7E722686568135C471CAF4202
:1013F00002D3451B6D1C00E03D46525D1202921C5B
:101400009A18E1E700200199751807950C994D434A
:10141000854201D2002102E00799FEF769FEC8B2B9
:101420000199884208D9217FCA0700D10698069001
:10143000880701D5019800E00698002E6AD004992B
:10144000491908186168884264D8002798E0039811
:1014500008186168884200D3401A20612189002958
:1014600011D121680E546168401C814200D8401A95
:101470002268310A11546168401C814200D8401A28
:101480006169891C616161680D1AB54200D33546F6
:10149000B5420DD0B54202D2217F002908D0002DDF
:1014A0006AD0217FCA0730D02189002913D019E0E2
:1014B00039460A9A71438918226810182A46FEF79D
:1014C000AEFE60694019606107990895002089B2F5
:1014D000751B039140E02368FF22811E5A54216846
:1014E000401E0A54606940196061002008902189FB
:1014F000354600292AD1206805702168280A4870DD
:1015000061690220891C616120E089071ED521895B
:10151000002902D000200DB0F0BD2168821E8D543C
:101520002268290A431ED15439460A9A7143891800
:10153000226810182A46FEF772FE60694019606141
:101540000895A069751B401CA061D4E70199691832
:1015500089B2039100212161002D0DD0089A0A99CA
:101560003B46891822687343101859182A46FEF71B
:1015700056FE606940196061A069401C7F1CA06133
:101580000C982169874200D261E7019808186168C8
:10159000884200D3401A21684018BCE710B5029C6D
:1015A00001600021C160016141614260816103818C
:1015B0000477A00703D5002B01D0481E10BD0020E2
:1015C00010BD0000F0B503890022002B09D00023D4
:1015D00000240C804469002C58D00289002A02D0D3
:1015E0000DE00223F4E7C26804684668A55C571C56
:1015F000B74200D3921B521CA25C1202AA1894B2EA
:101600000C80027FD50729D0920727D4204A944224
:1016100002D10289002A0AD0C468026994421DD905
:101620000289002A1AD045682C1B944216D24468BD
:10163000C2684569A21AAA1A42610022C2600289E0
:10164000002A0AD10268012C157802D86442641C71
:1016500000E00124125D1202AA180A80C5684468DD
:10166000EA18A24200D3121B06680F889219466935
:10167000FF18F61B466106D009886918C918A142EF
:1016800000D3091BC1608169491E81611046F0BD0C
:10169000FFFF0000F0B503890022002B0AD00027CD
:1016A00000230B804369002B42D00389C268002BC2
:1016B00002D00DE00227F3E705684468531CAE5CD6
:1016C000A342134600D31B1B5B1CEB5C1B02F318ED
:1016D0009CB20C80037FDD0723D09B0721D4154BE0
:1016E0009C4202D10389002B0AD0C46803699C4242
:1016F00017D90389002B14D045682C1B9C4210D2AB
:1017000000221B041B0C0BD143680468012B02D878
:101710005B425B1C00E00123E35C24781B021B1985
:101720000B80D1194268914200D3891A00680A18C7
:101730001046F0BDFFFF0000FFB5002085B000900F
:101740000546064601900024770007980121C05BFA
:10175000A14008422FD028190C2203905043089A28
:101760001258002A27D0059A002A01D1490722D011
:101770000899411808200291085602110007011724
:10178000069840B206F023FF002814D00298407A51
:1017900001010E980818C068002804D00198401C68
:1017A000C0B2019007E0009A0F99039888540098FE
:1017B000401CC0B20090641CE4B2102CC5D310359C
:1017C000761CEDB2F6B2102DBDD3109901980870B9
:1017D000009809B0F0BD000030B587B0142168460C
:1017E000FEF736FD03200190002002900320400305
:1017F000104C0090E06A01210843E062E06A084072
:10180000059005206946000701F068F8E06A400885
:101810004000E062606B0125AD052843606300F085
:1018200077FD00F085FD00F07BFD606BA8436063F1
:1018300007B030BD0010024010B50CF083FA10BDA7
:1018400010B5046863608368102B036803D0996047
:101850000068C26010BD9A600068C16010BD0000E1
:1018600070B500F0E9F8442000F0F0F81C4D28466F
:1018700000F09DFF00F0E0F8BE2000F0E7F800F077
:10188000B3F8044600F0B0F8052813D1502C11D15C
:1018900000F0D2F8442000F0D9F8284600F087FF85
:1018A00000F0CAF8BE2000F0D1F800F09DF8044620
:1018B00000F09AF8000200B2204308D5C043401C53
:1018C000FEF78EFF0022074BFEF782FE05E0FEF7D3
:1018D00087FF0322D243FEF75BFFFFF73BF870BDA3
:1018E000EE0200000000B0BF00B50A4887B0C26A2F
:1018F00002210A43C262C06A084005900820009095
:1019000000200190012002906946034800F0E6FFA4
:1019100007B000BD001002400004005000B50A48A6
:1019200087B0C26A02210A43C262C06A03910840BA
:10193000059008200090012001906946034800F0BE
:10194000CDFF07B000BD00000010024000040050B1
:1019500070B50024FFF7C8FF134D04E0641CE4B227
:10196000012000F0A5F80821284601F079F80028A8
:1019700002D0642CF2D310E0642C0ED2002404E0D8
:10198000641CE4B2012000F093F80821284601F01D
:1019900067F8002803D0F02C04D3012070BDF02C90
:1019A000EED3FAE7002070BD0004005010B5FFF739
:1019B000B5FF0C4C00220821204601F056F80A2001
:1019C00000F076F8FFF790FF0821204601F048F874
:1019D000012805D000222D2000F06AF8104610BD25
:1019E0000122F8E70004005070B500252C46FFF7EF
:1019F000DDFFA0402843641CE4B2C5B2082CF6D336
:101A0000284670BD10B5FFF789FF094C0022082158
:101A1000204601F02AF8074800F04AF80122082180
:101A2000204601F022F80F2000F042F810BD00001F
:101A300000040050EE02000010B5FFF7E3FFFFF7CF
:101A400087FFCC2000F002F810BD000070B50546FD
:101A5000FFF764FF154E0024E807C00F6D0800284B
:101A60000ED000220821304600F0FFFF082000F0D1
:101A70001FF801220821304600F0F7FF3A200DE060
:101A800000220821304600F0F0FF462000F010F858
:101A900001220821304600F0E8FF022000F008F89B
:101AA000641CE4B2082CD7D370BD000000040050C1
:101AB00006E00021491CC9B20429FBD3401E80B2B4
:101AC0000028F6D1704710B502F0CAFF10BD10B55E
:101AD000012000F0F7FE022000F0F4FE10BD10B56A
:101AE000042000F0EFFE082000F0ECFE10BD000026
:101AF00010B5102000F0E6FE202000F0E3FE4020AC
:101B000000F0E0FE802000F0DDFEFF20013000F05C
:101B1000D9FE0120400200F0D5FE0120800200F035
:101B2000D1FE0120C00200F0CDFE0120000300F034
:101B3000C9FE0120400300F0C5FE08494869400481
:101B400006D5074A012010608003486100F0B6FE08
:101B50000120C00300F0B6FE10BD000000040140EB
:101B600070000020FEE7000010B5084900224A611D
:101B700007494B684C1523434B604B6808242343AB
:101B80004B60C009C001026010BD00007404002059
:101B90000020024010B5214A00219069C305204869
:101BA00004D54169022319434161911593699B054D
:101BB00005D54369012423434361630219439369B3
:101BC0005B0505D54369082423434361E3011943B9
:101BD00093691B0505D543690424234343616302CC
:101BE000194393699B0405D543691024234343613A
:101BF0006302194393699B0304D5446920231C4362
:101C0000446119439369DB0305D5436940242343A9
:101C10004361A0020143916110BD00000020024019
:101C20007404002070B5054600F026FF0646184CE7
:101C30000AE0681C08D0002D04D000F01DFF801BB6
:101C4000A84201D9032070BDA069C007F1D1A069E5
:101C5000800701D50220A061A069C00511D4A06948
:101C600080050ED4A06940050BD4A069000508D4F6
:101C7000A069800405D4A069800302D4A069C003D0
:101C800003D5FFF787FF012070BD002070BD000065
:101C90000020024010B5044600F0F2FD0849002083
:101CA00011C1012008600749054800F085FD0028A2
:101CB00003D005A009F0B4F8FBE700F0B9FD10BDB2
:101CC00098030020200000206572726F7220696EF8
:101CD000204572617365206F7065726174696F6E03
:101CE0000A0D0000F8B516460F460446002500F020
:101CF000C7FD0DE0A8003A582146022000F0A2FDE1
:101D0000002803D005A009F08BF8FBE7241D6D1C0B
:101D1000B542EFDB00F08CFDF8BD00006572726F1C
:101D20007220696E205772697465206F70657261E8
:101D300074696F6E0A0D000070B50D46044600F020
:101D40009FFD21462A46022000F07CFD002803D09A
:101D500003A009F065F8FBE700F06AFD70BD000024
:101D60006572726F7220696E205772697465206F98
:101D70007065726174696F6E0A0D00000168024837
:101D800041604068704700002000002000B587B027
:101D900014216846FEF75CFA0D48C26A02210A4324
:101DA000C262C06A0291084005900A480190490346
:101DB0006A460948009102F059FD002202210720DD
:101DC00001F074F8072001F067F807B000BD0000CB
:101DD00000100240000021100004005000B587B040
:101DE00014216846FEF734FA0B48C16A01221143F8
:101DF000C162C06A1103104000910590002001905B
:101E0000022002900320039005206A46000702F09A
:101E10002DFD07B000BD00000010024000B587B0E6
:101E200014216846FEF714FA0B48C16A01221143D7
:101E3000C162C06A9102104000910590002001909B
:101E4000022002900320039005206A46000702F05A
:101E50000DFD07B000BD00000010024000B587B0C6
:101E600014216846FEF7F4F90A48C16A01221143B9
:101E7000C162C06A5102104000910590002002909A
:101E800003200390019205206A46000702F0EEFC51
:101E900007B000BD001002400649800009580648FE
:101EA000091803D0C14203D00020704701207047B9
:101EB0000220704770E40008702FFCFF10B5094A3B
:101EC0000021CB00D458844207D89B189B688342DA
:101ED00003D9C8008018007910BD491CC9B2152962
:101EE000EFD3FEE7F4DE0008F8B5054604464035BA
:101EF000287D0026012808D00120287520688168E7
:101F00008907890F01290ED101E00220F8BD01687F
:101F1000C90708D0A06D20210843A0650126002034
:101F200028753046F8BDA16DFF220132914302228F
:101F30001143A165C1688907890F0091C1688908AB
:101F40008900C1602068816892071143816000F0B8
:101F500093FD07460EE000F08FFDC01B0A2809D94B
:101F6000A06D0221884310210843A0650020287538
:101F70000120F8BD206880680028ECDB2068C1687B
:101F8000009A1143C160A06D80088000401CA065CC
:101F9000C5E70000F8B506460D464036317D0129FB
:101FA0000DD00121317501688A68520709D5816D0C
:101FB000202211438165002030750120F8BD0220E8
:101FC000F8BD174B6A68D80547109A42154C8A6AC3
:101FD0002B6812D05B035B0B1A438A6229684903A2
:101FE00005D5A1680143A1600A20FEF753FE2868C9
:101FF000800312D5A06838430EE05B035B0B9A4365
:102000008A622968490302D5A1688143A1602868D2
:10201000800302D5A068B843A06000203075F8BDE9
:1020200001100000002701400068006C70470000AC
:1020300070B5040006D0A06D264600254036002865
:1020400002D006E0012070BDE5653575204600F040
:10205000D1F8A06DC00603D421688868400705D573
:10206000A06D10210843A0653575EBE7A06DFF2238
:102070000132904302221043A06588688207920FC4
:102080005A48012A02D10A68D2072BD10323626879
:102090009B079A4205D05B429A4202D05B009A426B
:1020A00009D10A69920092080A6121680A69636885
:1020B0001A430A610CE00A69920092080A61816879
:1020C0000F229204914381608168626811438160AC
:1020D0002168CA6818239A43CA602168CA68A3683D
:1020E0001A43CA6081680122520691438160816867
:1020F000228F52061143816020688168C90004D490
:10210000816801221207114381602068C168384A42
:102110001140C1602169E068022923D000210843F1
:10212000216A226B4903520011430843616B084343
:10213000A16989030843E169C90308432168CA68A2
:102140001043C860A06A0146FF39C23905D0E16A70
:1021500008432168CA681043C860606A01210128E9
:1021600002D00BE00421DAE7206A002823D0A06D1A
:1021700020221043A065E06D0843E065206C012833
:1021800020681FD00169C90703D0016949084900C7
:10219000016120684169C908C9004161206841693D
:1021A000E26B11434161E565A06D80088000401C31
:1021B000A065002070BD2068C26801231B041A437B
:1021C000C260DBE70269FF239B009A43026120683B
:1021D0000269636CE66C1A43A36C33431A430261D1
:1021E000206802690A430261D3E70000002701402A
:1021F0001902FEFF7047F8B5044640692546403590
:102200000E4608280BD02068C068C00709D0A06D12
:1022100020210843A065002028750120F8BD08276B
:1022200000E00C2700F028FC009011E0701C0FD09B
:10223000002E05D000F020FC0099401AB04207D9CA
:10224000A06D04210843A065002028750320F8BD77
:10225000206800683842E9D0A06D01214902084396
:10226000A0652068C16809058A0F0C21002A1AD1CF
:10227000226A002A17D10268120714D58268530710
:102280000122002B08DB43688B434360A06D1302DF
:1022900098431043A06506E0A06D20231843A06575
:1022A000E06D1043E065A069002801D1206801605D
:1022B0000020F8BD70B504462168002089684907F0
:1022C00021D425464035297D01291CD001212975BD
:1022D000E169012904D02046FEF7EEFC002811D167
:1022E000A16D0A4A1140FF2201321143A16500216C
:1022F000E165297522681C21116021688A68042320
:102300001A438A6070BD022070BD0000FEF1FFFF1D
:10231000024841684908490041607047005801403F
:1023200002484168042291434160704700580140CF
:1023300002484168022291434160704700580140C1
:1023400070B50024024620325179022903D00421BD
:10235000C16301243CE001680B680E25AB430B60B0
:1023600001680B685B085B000B601A4B01689942BF
:1023700001D1012121E0174B1433994201D11021E1
:102380001BE0144B2833994201D1891515E0114BFC
:102390003C33994201D189140FE00E4B50339942DE
:1023A00002D10121090408E00A4B6433994202D1A9
:1023B0000121090501E001210906064B083B59608E
:1023C0000121517100211171816B002900D08847D2
:1023D000204670BD08000240F8B504469D480168DB
:1023E0009C4A9C4E9B4F0832206813041C363037A1
:1023F000904201D108221EE0B04201D180221AE0B1
:10240000B84202D10122D20215E0924A44329042EF
:1024100002D10122D2030EE08E4A5832904201D1FD
:102420001A4608E08B4A6C32904202D10122D20552
:1024300001E00122D20625461140203500293BD07B
:102440000168090738D50168082291430160814974
:1024500020680831884201D108201EE0B04201D135
:1024600080201AE0B84202D10120C00215E079496B
:102470004431884202D10120C0030EE07549583131
:10248000884201D1184608E072496C31884202D175
:102490000120C00501E00120C0066E494860E06BE4
:1024A00001210843E0630420687100202871616BFA
:1024B000002901D02046884766480168654A20689F
:1024C00008321315904201D104221EE0B04201D11E
:1024D00040221AE0B84201D11A4616E05D4A443261
:1024E000904202D1012292030FE05A4A58329042A0
:1024F00002D10122920408E0564A6C32904202D185
:102500000122920501E001229206114238D00168B1
:10251000490735D50168890603D4026804218A4336
:1025200002604C4920680831884201D104201EE035
:10253000B04201D140201AE0B84201D1184616E05D
:1025400044494431884202D1012080030FE04149CF
:102550005831884202D10120800408E03D496C31A5
:10256000884202D10120800501E00120800639491E
:10257000486005206871216B002901D020468847FA
:1025800034480168334A206808325315904201D11B
:1025900002221EE0B04201D120221AE0B84201D14D
:1025A0001A4616E02B4A4432904202D101225203CD
:1025B0000FE0284A5832904202D10122520408E02A
:1025C000244A6C32904202D10122520501E00122DC
:1025D000520611423CD00168890739D50168890645
:1025E00003D401680222914301601A49206808312E
:1025F000884201D102201EE0B04201D120201AE021
:10260000B84201D1184616E012494431884202D13D
:10261000012040030FE00F495831884202D10120C8
:10262000400408E00B496C31884202D1012040058A
:1026300001E00120400607494860E06BE0630120AB
:10264000687100202871E16A002901D0204688477E
:10265000F8BD00000000024070B5002805D0034618
:1026600020335979002902D003E0012070BD0021F8
:10267000197102215971046822683749C5680A40F6
:10268000816846692943056935432943856929439A
:10269000C5692943056A2943114321602F492F4CFD
:1026A00002687831A24206D18A6A120912018A624E
:1026B0008A6A406849E0294C1434A24207D18A6AE8
:1026C000F024A2438A628A6A406800013DE0234CFC
:1026D0002834A24208D18A6A0F242402A2438A62C3
:1026E0008A6A4068000230E01C4C3C34A24208D1A7
:1026F0008A6A0F242403A2438A628A6A406800031C
:1027000023E0164C5034A24208D18A6A0F242404D4
:10271000A2438A628A6A8088000416E00F4C6434FF
:10272000A24208D18A6A0F242405A2438A628A6AD7
:102730008088000509E08A4209D18A6A0F242406AC
:10274000A2438A628A6A0079000602438A620120F3
:102750005871002070BD00000FC0FFFF080002404C
:10276000F8B5044620300579012D1ED001250571EC
:102770000226467120680768AF4307602046FFF7CE
:102780005FF8206801683143016020680168042215
:10279000114301602068016808221143016020682C
:1027A0000168294301600020F8BD0220F8BD01B591
:1027B0000098FFF788F908BDF8B51A4E0546307C39
:1027C0000F46012807D0012030741748FFF72AFA76
:1027D000010002D021E00220F8BD0020C043386093
:1027E0006C6814E02046FFF7BFF90F48FFF71AFAAC
:1027F00001460E48426808239A43426042684315E6
:102800009A434260002901D03C6006E08034A86809
:102810006A68C0018018A042E4D8002030740846DD
:10282000F8BD00007404002050C3000000200240E6
:1028300003484168022211434160002070470000B4
:1028400000200240F8B50C4C1646207C0F460128AB
:1028500008D0012020740948FFF7E4F9002500287A
:1028600002D006E00220F8BD65613E600348FFF734
:10287000D9F92574F8BD00007404002050C300008D
:102880000948416889070CD54168C90703D0074941
:10289000C1600749C1600749016107490161002022
:1028A000704701207047000000200240EFCDAB8947
:1028B00005040302BFAE9D8C1615141310B501F06C
:1028C000FFFF10BD10B504494A69024202D04861B9
:1028D000FFF7F4FF10BD000000040140F8B500232D
:1028E0000124A7E027469F403A4070D04D68022D52
:1028F00001D0122D14D1DD08AD002D1800952D6AE0
:102900005E07AC46F50E0F26AE46AE406546B543B3
:10291000AC460E697546AE4065462E43009D2E625C
:102920004D68012D05D0022D03D0112D01D0122D9F
:1029300016D185680326AC465D00AE46AE406546BE
:10294000B543AC46CE687546AE4065462E438660BC
:1029500046680D79BE43ED06ED0F9D403543456059
:1029600006685F000325BD40AE46AE430D79B44610
:10297000AE07B60FBE4065462E430660C668754674
:10298000AE438D68BD403543C5604D68ED0050D500
:102990002B4D6E6B26436E639E082A4DB60075194B
:1029A000AC46AD689E07360F0F27B740BD430527DD
:1029B0003F07B84201D100271AE0234FB84201D1A6
:1029C000012715E0214FB84202D1022710E030E084
:1029D0001F4FB84201D103270AE01E4FB84201D170
:1029E000042705E01C4FB84201D1052700E0062767
:1029F000B7402F436546AF60184D2E684F68964329
:102A0000FF0300D516432E606E684F689643BF03E0
:102A100000D516436E60AE684F689643FF0200D53E
:102A20001643AE60EE684F689643BF0200D516436A
:102A3000EE605B1C0A681546DD4000D052E7F8BD29
:102A40000010024000000140000400500008005047
:102A5000000C005000100050001C00500004014009
:102A60000069084000D001207047002A01D0816130
:102A7000704781627047000001480068704700009D
:102A80005800002070B5024640325378202B1CD1EC
:102A90001378012B19D00123137024245470046877
:102AA00025689D432560046825681E03B54325609D
:102AB000046825680D4325600068016819430160BA
:102AC000202050700020107070BD022070BD406C3E
:102AD0007047000070B5040006D025464035687880
:102AE0000026002802D005E0012070BD2E7020468F
:102AF00000F062F9242068702068016849084900E4
:102B000001600F2160680906884321680861216817
:102B10008A680120C00382438A60E1680129A168B4
:102B200008D021229202114322689160E1680229B3
:102B300002D005E00143F7E701212268C902516094
:102B400021684A680F4B1A434A602168CA68824369
:102B5000CA60616920690843A169090208432168C4
:102B6000C860216AE069084321680860206801683C
:102B70000122114301606664202068702663AE70F4
:102B8000002070BD00800002FFB5054604464035B8
:102B9000687881B020287ED1287801287BD0012058
:102BA0002870FFF769FF0746012200901923D1031F
:102BB000204602F02DFA00283FD122206870102014
:102BC000A870002666640398606204986085666356
:102BD000618D09208002FF2903D9FF222285009000
:102BE00034E0618D2185009036E02046029902F0A4
:102BF000FDF936E002F030FA002803D0606C0428BA
:102C000047D01AE02068416A606A421C6262017023
:102C1000208D401E80B22085618D491E618500286F
:102C20001FD1608D00281CD00097002280212046F3
:102C30000A9B02F0EDF9002802D0032005B0F0BD98
:102C4000608DFF2805D9FF222285009601231B06EF
:102C5000CBE7608D20850096208D0123C2B25B06F4
:102C6000C3E7608D0A9900283A462046C2D102F097
:102C70002FFA0028C2D121682020C86121684A6843
:102C8000064B1A404A606870AE702E700020D5E77F
:102C900001E00120D2E70220D0E7000000E800FEBA
:102CA000FFB5054604464035687881B020287ED1BE
:102CB000287801287BD001202870FFF7DDFE074629
:102CC000012200901923D103204602F0A1F9002827
:102CD0003FD1212068701020A870002666640398F8
:102CE0006062049860856663618D01204003FF295E
:102CF00003D9FF222285009034E0618D2185009068
:102D000036E02046029902F071F936E002F007FA47
:102D1000002803D0606C042847D01AE0606A411C88
:102D20006162017820688162608D401E6085208D1F
:102D3000401E0004000C20851FD1608D00281CD08F
:102D400000970022802120460A9B02F061F90028AA
:102D500002D0032005B0F0BD608DFF2805D9FF2209
:102D60002285009601231B06CBE7608D2085009607
:102D7000208D0123C2B25B06C3E7608D0A9900284B
:102D80003A462046C2D102F0A3F90028C2D12168F8
:102D90002020C86121684A68064B1A404A60687062
:102DA000AE702E700020D5E701E00120D2E70220AE
:102DB000D0E7000000E800FE30B58FB00820059095
:102DC00040020A9005A800F09FF91948C26A022142
:102DD0000A43C262C26A0A400E92C26A0A43C262CF
:102DE000C26A0A400E92816B01225205114381632F
:102DF00040200090122001900020029003200D4DF1
:102E000001240390694604942846FFF767FD80205B
:102E10000090694604942846FFF760FD01220021D6
:102E2000172000F043F8172000F036F80FB030BD3F
:102E3000001002400004005002480168491C016073
:102E4000704700005800002010B5064801680222B3
:102E500011430160032000F007F800F007F800209C
:102E600010BD0000002002400020704710B5084847
:102E7000816B02041143816300F02CF800F022F80A
:102E80000448016808221143016000F013F810BDE6
:102E90000010024000200240C106C90E01208840F7
:102EA000014908607047000000E100E010B503F040
:102EB00061FA10BD024801680215114301607047B4
:102EC00000700040024801684215114301607047DC
:102ED0000070004002480168102291430160704771
:102EE00000700040094B1A689208920002431A6071
:102EF0000748026904239A430261012903D040BFB5
:102F000020BF20BF704730BF7047000000700040F6
:102F100000ED00E00A4B1A689208920002431A6022
:102F200008480369042213430361012906D040BF06
:102F300020BF20BF016991430161704730BFF9E7AD
:102F40000070004000ED00E0F8B566490746012535
:102F50000020ED03624B634A4031102F6FD011DC2B
:102F6000012F77D0022F6CD0042F6BD0082F24D1E3
:102F7000C9680324240321407BD0BD026C10A94200
:102F80007CD0A0E00326584C3604202F0BD0402FD5
:102F900035D0FF3F012F10D1C968314069D07C0482
:102FA000A1426BD096E00B690969012731403F04CB
:102FB000B94203D1990559E02846F8BD01256D04B1
:102FC000A94203D19907F8D54848F8BDB142FCD1D0
:102FD00011688903F9D5116803200005014001201B
:102FE0000005091A09D0091A05D0814201D14048CB
:102FF000F8BD2046F8BD3F48F8BD3F48F8BDC96858
:103000000125AD06294006D0A942F7D1916889076C
:10301000F4D53A48F8BD11688901FBD5D068D1686C
:103020008002374D000F2D5C0802810FD068491CCB
:10303000C0030AD41068C00605D5204606E045E066
:1030400008E023E030E0184600E02E486843FDF732
:103050004FF8F8BDCC68A407A40F0CD0022C0DD0FB
:10306000012C10D0032CF4D1096989050029A3DBB8
:10307000F8BD16E002E000F0D1F9F9E71168490760
:10308000F6D51846F4E700F0D9F9F1E7CC680C263C
:10309000344006D0082CF1D0042CF4D00C2CE3D012
:1030A000E6E700F0ABF9E3E7CC680326B60234406C
:1030B000F7D00127FF02BC42E0D07A109442E2D060
:1030C000B442D1D0D4E7A142DDD0D1E7916B49021F
:1030D000E7D4CDE7012212049142D4D0C8E7000022
:1030E0000024F4000010024000093D008890000018
:1030F00020A1070040420F0080841E00006CDC020B
:103100001CE0000800127A00F8B5044600785E4D15
:10311000800672D55C4E0027403EB06BC00004D4E0
:10312000B06BA9050843B063012758480168C90579
:1031300011D40168821511430160FFF79DFC0090D6
:1031400005E0FFF799FC0099401A642837D84F48EA
:103150000068C005F5D532680321090560680A409A
:103160000140914208D08103890F032904D13168BD
:10317000890301D50120F8BD2A69032109040A4009
:1031800022D0084090421FD0207880061CD52869A4
:103190002A6988430121C9040A432A612A698A43AA
:1031A0002A612861C0050FD5FFF766FC009008E092
:1031B000FFF762FC0099411A3548814201D903208A
:1031C000F8BD28698005F3D561688803800F03285E
:1031D00005D132680005824301400A433260286904
:1031E000032261681204114008432861002F04D0B3
:1031F000B06B012109078843B0632078C00705D070
:10320000E868A168800880000843E86020788007AB
:1032100005D5E8680C218843E1680843E860207818
:10322000400706D5E86803218902884321690843DD
:10323000E8602078000706D5E86803210903884381
:1032400061690843E8602088C00506D5E868032165
:1032500009048843A1690843E8602078400606D540
:10326000E868012189068843216A0843E8602078DC
:10327000000606D5E868032189048843E16908430C
:10328000E8600020F8BD00004010024000700040DF
:1032900088130000F8B5054653480E460068C0077D
:1032A000C00FB0420AD25048016849084900314372
:1032B00001600068C007C00FB0426FD128784B4C46
:1032C000800705D5E068F0218843A9680843E060DD
:1032D0002878C00752D06868022817D0032818D071
:1032E0002168012818D08905002957DAE168890882
:1032F00089000143E160FFF7BFFB696807460229C7
:1033000012D003291CD0012926D033E0216889037B
:10331000EAE721688901E7E74907E5E7FFF7ACFB42
:10332000C11B3348814223D8E0680007800F022880
:10333000F4D123E0FFF7A0FBC11B2D48814217D831
:10334000E0680007800F0328F4D117E0FFF794FB33
:10335000C11B274881420BD8E0680007800F012875
:10336000F4D10BE0FFF788FBC11B2148814201D952
:103370000320F8BDE0680007800FF3D11A48016808
:10338000C907C90FB1420BD9016849084900314347
:1033900001600068C007C00FB04201D00120F8BD35
:1033A0002878400706D5E068072109028843E968C4
:1033B0000843E0602878000707D5E0680721C902C4
:1033C00088432969C9000843E06000F037F8E168E4
:1033D000084A0906090F515CC840074908600320E4
:1033E000FFF742FD0020F8BD00200240001002401F
:1033F000881300000CE00008540000200448054930
:103400000068C968044A4905490F515CC8407047C3
:10341000540000200010024025E00008044805493F
:103420000068C968044A8904490F515CC840704764
:10343000540000200010024025E0000810B5184A92
:10344000D1680C20084004280BD0082810D00C2884
:1034500010D050680004410F0120C003491C88406F
:1034600010BD1068C00601D50E4810BD0E4810BD35
:103470000E4810BD88020E4B000F185C0902D3687D
:10348000890F491CDB0301D5084A05E01268D20602
:1034900001D5044A00E0044A5043FCF729FE10BD60
:1034A0000010024000093D000024F40000127A00E0
:1034B0001CE00008F8B504460078FF4DC0074CD06A
:1034C000E8680007800F022807D0E8680007800F2F
:1034D000032809D1E868C00306D5286880033CD5D5
:1034E0006068002875D038E00120626800048242DC
:1034F00003D129680143296011E0052301211B0440
:1035000089049A422A6802D10A432A60F1E7824379
:103510002A602A6802400092286888432860606810
:1035200000280DD0FFF7A8FA0646E44F04E0FFF7A5
:10353000A3FA801BB8427DD828688003F7D50CE039
:10354000FFF79AFA0646DD4F04E0FFF795FA801B75
:10355000B842F0D828688003F7D42078800741D596
:10356000E8681F270007800F3F02012807D0E8689E
:103570000007800F032809D1E868C00306D4286833
:10358000400717D5E068012823D113E0E068002840
:1035900017D029680922914301432960FFF76CFA8B
:1035A000064604E0FFF768FA801B0228C3D82868A3
:1035B0004007F7D568682169B84309020843686085
:1035C00010E02868400840002860FFF755FA0646DA
:1035D00005E090E0FFF750FA801B0228ABD828687E
:1035E0004007F7D42078C00676D5E868B44E0007C7
:1035F000800F0BD0E06900285DD02868FF210131E1
:1036000008432860FFF738FA074644E02868800539
:1036100002D5E06900286ED0606A6968314088424E
:1036200012D903F041FF0028AED16868616AB04347
:10363000084300E0E4E068606868218C0002000A4A
:103640000906084368600FE06968B1430143696097
:103650006868218C0002000A090608436860606AF5
:1036600003F022FF00288FD1606A410B0120C003C4
:10367000491C8840E968934A0906090F515CC84013
:10368000914908600320FFF7EFFB25E0FFF7F4F90D
:10369000C01B02288AD828688005F7D56868616A47
:1036A000B043084368606868218C0002000A09067C
:1036B0000843686010E02968FF20013081432960D9
:1036C000FFF7DAF9064604E0FFF7D6F9801B022877
:1036D00084D828688005F7D420787C4E000723D54D
:1036E00060690028306910D0012108433061FFF77C
:1036F000C3F9074605E009E1FFF7BEF9C01B022840
:103700007ED830698007F7D50EE040084000306170
:10371000FFF7B2F9074604E0FFF7AEF9C01B022835
:103720006ED830698007F7D42078400761D5A86B40
:103730000027C00005D4A86B012109070843A8632E
:10374000012763480168C90511D401688215114336
:103750000160FFF791F9009005E0FFF78DF90099FE
:10376000401A64284CD85A480068C005F5D5FF2097
:10377000A2680130824203D131690143316111E015
:1037800001218902002A07D005231B029A4203D196
:1037900032690A433261EFE732698243326130694C
:1037A00088433061A06800280ED0FFF765F90090CB
:1037B00006E0FFF761F90099411A404881421FD89D
:1037C00030698005F5D50DE0FFF756F9009006E069
:1037D000FFF752F90099411A3848814210D83069F0
:1037E0008005F5D4002F04D0A96B01200007814388
:1037F000A9632078800630D53649A0694A1400E0D4
:103800007DE0002816D0AB6801200343AB606B6BF2
:1038100003436B63086A10430862FFF72DF90646FD
:1038200004E0FFF729F9801B022868D8A868800700
:10383000F7D512E0A86840084000A860086A9043E5
:103840000862FFF719F9064604E0FFF715F9801B37
:10385000022854D8A8688007F7D4A06A002853D05B
:10386000E9680907890F032950D001263606022886
:10387000286805D0B0432860FFF7FEF8044640E012
:10388000B0432860FFF7F8F8074604E0FFF7F4F8C4
:10389000C01B022833D828688001F7D4216BE06A66
:1038A000EA680843616BFD231B049A4311430843F4
:1038B000E860286830430FE00010024088130000E1
:1038C00000E000000CE0000854000020401002401E
:1038D00000700040000001402860FFF7CDF804466A
:1038E00004E0FFF7C9F8001B022808D82868800107
:1038F000F7D509E0FFF7C0F8001B022801D9032023
:10390000F8BD28688001F5D40020F8BD0120F8BD7D
:1039100030B5014620310A78012A15D001220A70FB
:1039200002234B700468CA236362046853236362F2
:1039300003689C6820252C439C600068FF23436239
:103940004A700020087030BD022030BD10B507F06D
:1039500089F910BDF8B505460446203528780128B8
:103960001DD001202870022068702268CA20506291
:10397000226853205062FF2001300026FF27814239
:103980001CD121688A6882438A602068816801228C
:10399000120391438160FFF76FF8009009E0022065
:1039A000F8BDFFF769F80099411A7D20C0008142F7
:1039B0001BD82068C068C007F3D020E02068816869
:1039C0000122520291438160206881681201914373
:1039D0008160FFF751F800900DE0FFF74DF8009976
:1039E000411A7D20C000814205D92068476203202A
:1039F00068702E70F8BD2068C0688007EDD520681B
:103A00004762012068702E700020F8BD10B5006874
:103A10000B464068C021C94301400002000ECC049F
:103A2000D870E40E5C708C06A40E0904490F9C70DB
:103A30001970002A0AD103F073FDD870587803F08A
:103A40006FFD5870987803F06BFD9870002010BDE2
:103A500030B50B460168896A5960016809694904F3
:103A6000490C9960006804680F48214601408802AB
:103A70004D04800E18706D0E49065D70490E9970E8
:103A80006102490E40242140D970002A0AD103F076
:103A900047FD1870587803F043FD5870987803F08C
:103AA0003FFD9870002030BD7F7F7F0070B504001F
:103AB00005D0254620356878002802D006E0012090
:103AC00070BD00202870204600F042F80220687087
:103AD0002168CA204862216853204862204603F0CA
:103AE00032FDFF210028206803D041620420687065
:103AF000E5E78268154B1A40826022689068636827
:103B0000A669184323693343184390602268E0682C
:103B100010612068026923891B041A43026120682E
:103B2000C26880239A43C2602068C26C92089200E7
:103B3000C264E269606902432068C36C1A43C264CC
:103B40002068416201206870002070BDBFFF8FFFB8
:103B500000B597B00420009000200A90FF200130AB
:103B600002906846FFF7A6FC002801D0FDF7FAFF97
:103B700020200E90C0020F900EA8FFF7C5FA002873
:103B800001D0FDF7EFFF08480169012292041143BB
:103B90000161002211460220FFF788F90220FFF799
:103BA0007BF917B000BD000040100240FEB506468C
:103BB0000446203630780B46012842D00120307070
:103BC0000220707020681D46002720358068002A7A
:103BD00039D0400655D5187803F0A2FC287803F0B8
:103BE0009FFC19789878090408435978DA78090213
:103BF000120411430843297809060843D969084388
:103C00005969084305469969586808430090216836
:103C1000CA204862216853204862FF205A6A013056
:103C2000802182424AD1226893688343936022684C
:103C3000D0680840FF388238D060FEF71DFF019041
:103C400029E00220FEBD400600D4DF70187803F0A2
:103C50006FFC0204587803F06BFC00020243987872
:103C600003F066FC0243D87800040243287803F08E
:103C70005FFC00060243D8690243586902431546B7
:103C8000C1E7DF70AAE7FEF7F7FE0199411A7D2030
:103C9000C00081422AD82068C068C007F3D02068DD
:103CA000C56121680098486420688168FF2201325C
:103CB0001143816020688168120130E020688268C9
:103CC00001235B029A4382602068C2680A401D4952
:103CD0005118C160FEF7D0FE01900EE0FEF7CCFE59
:103CE0000199411A7D20C000814206D92168FF2038
:103CF0004862032070703770FEBD2068C06880077E
:103D0000ECD5206805622168009888642068816885
:103D1000012252021143816020688168120111431F
:103D2000816009480268012149040A4302608268EF
:103D30000A4382602168FF2048620120707037705A
:103D40000020FEBD7FFDFFFF00040140F8B50546E1
:103D50000446203528780B46012815D0012028700C
:103D6000022068705878002A10D003F0D9FB9878A8
:103D700003F0D6FBD8789E7800040643587819786B
:103D800000024903084316E00220F8BDC10603D52E
:103D9000EF2108400A305870D87803F0C9FB0604B8
:103DA000587803F0C5FB00020643987803F0C0FB87
:103DB00006431878400306432168CA2048622168F8
:103DC00053204862204603F0BEFB0027002811D193
:103DD00010480640206846602068C16880229143F0
:103DE000C1602068806880060CD4204600F08CF802
:103DF000002807D02168FF204862042068702F70D7
:103E00000120F8BD2168FF204862012068702F70F2
:103E10000020F8BD3FFFFF00F8B5064604462036F7
:103E200030780D4601280ED00120307002207070CD
:103E3000206800278068002A07D040061AD5287815
:103E400003F06EFB17E00220F8BD400600D4EF70CF
:103E5000287803F06DFB0204687803F069FB000228
:103E60000243A87803F064FB0243E87800040243AD
:103E700000920BE0EF702978A8780904084369786C
:103E8000EA78090212041143084300902168CA200D
:103E90004862216853204862204603F054FB002802
:103EA0001FD118490098084021680860206881687F
:103EB00001229204914381602969E86808432168DE
:103EC0008A68104388602068C16880229143C1607D
:103ED0002068806880060CD4204600F015F8002881
:103EE00007D02168FF2048620420707037700120DD
:103EF000F8BD2168FF2048620120707037700020F3
:103F0000F8BD00007F7F7F0070B504460068C1687F
:103F1000A0229143C160FEF7AFFD7D260546F60065
:103F200006E0FEF7A9FD401BB04201D9032070BD99
:103F30002068C0688006F4D5002070BD70B504000C
:103F400006D025464035687C0026002802D005E0D2
:103F5000012070BD2E74204600F032F802206874F3
:103F600020680168402291430160A168606822696D
:103F70000843E16811430843616901220843A169CC
:103F8000520211400843E1690843216A0843A16ACB
:103F9000084321680860A0690421000C0840616A98
:103FA0000843216848602168E06A08612068C169A7
:103FB00092009143C161666501206874002070BD64
:103FC0007047F8B504460027684607802646403605
:103FD000707C012802D0707C22287ED100290CD070
:103FE000002A0AD0002B08D0307C012875D001208F
:103FF0003074707C012802D003E00120F8BD32202B
:1040000070746765A263A387E3872163A386E38651
:10401000A764E7640125A06A6D03A84207D1206860
:104020000168A94301602068016829430160206894
:104030000168490603D4016840221143016001214F
:10404000FF20E268C90205308A42616866D1002912
:1040500004D081420CD1E08E012809D1206B216867
:104060000088C860206B801C2063E08E401EE086C4
:10407000E08E002843D1A06AA84246D1206801689A
:1040800001221203114301603FE02068C068A16B68
:104090000880A06B801CA063B0E0002202212046B3
:1040A000069B04F0D9FD00287DD1206B2168008893
:1040B000C860206B801C2063E08E401EE086E08E8E
:1040C000002808D1A06AA84205D120680168012211
:1040D000120311430160002200E0CCE001212046E0
:1040E000069B04F0B9FD00287FD12068C068A16B51
:1040F0000880A06B801CA063E08F401EE087E08EEC
:104100000028CAD1606800287BD100220121204606
:10411000069B04F0A1FD002867D1B6E7002904D072
:1041200081420BD1E08E012808D1206B411C216314
:1041300021680078C860E08E401EE086E08E00288E
:1041400045D1A06AA84205D1206801680122120366
:1041500011430160002201212046069B04F07CFDF2
:10416000002842D12068C068A16B087046E0002298
:1041700002212046069B04F06FFD002835D1206BFC
:10418000411C216321680078C860E08E401EE086F3
:10419000E08E00280AD1A06AA84207D120680268F0
:1041A0000121090300E020E00A430260002201210E
:1041B0002046069B04F050FD002816D12068C268F6
:1041C000A06B411CA1630270E08F401EE087E08E6F
:1041D0000028CCD16068002813D10022012120469C
:1041E000069B04F039FD002802D00320F8BD08E04A
:1041F0002068C168A06B421CA2630170E08F401E62
:10420000E087A06AA8420FD1002201212046069B28
:1042100004F022FD002802D0606D02210EE020682B
:10422000C068694608800888012280212046069BD4
:1042300004F012FD002804D0606D20210843606561
:10424000D3E701207074A06AA84211D12068816868
:10425000C943C9060CD4616D02221143616501682E
:10426000A943016020680168294301603774C4E6EE
:1042700037740020BAE70220B8E770B5040005D013
:1042800025462035687D002802D006E0012070BD5B
:1042900000202875204600F00AF802206875211DCC
:1042A000206806F087FC01206875002070BD70470B
:1042B000014660310A7A012A0DD001220A722422B5
:1042C0004A720068026802231A4302602020487282
:1042D000002008727047022070470000FEB50546B6
:1042E00004466035287A00269446012811D001231F
:1042F0002B7224206872206802689A430260276843
:10430000B8680322120590430843B860002902D020
:1043100015E00220FEBD60460091019021686A46CA
:10432000928848681027B843104348602068416865
:104330006A4609029279090A12061143416020680F
:10434000016819430160FEF797FB09490091034694
:10435000012100228905204607F04FF8002801D0EE
:10436000032601E020206872002028723046FEBD3E
:10437000FFFFFF0170477047F8B502680446D06937
:1043800011680607360F07D1830605D58B0603D5BE
:10439000204606F0A7FEF8BD95682023002E65D0C4
:1043A000EE07F60FFF2721370F4037435ED0C707D0
:1043B00006D0CF0504D501271762E26E3A43E266C4
:1043C000820708D5EA0706D0276802223A62E26E21
:1043D00004273A43E266420708D5EA0706D0256873
:1043E00004222A62E26E02252A43E266020709D508
:1043F0000A461A40324305D0236808221A62E36E47
:104400001343E366E26E002AC5D0800604D5880611
:1044100002D5204606F066FEE06E000703D4206851
:10442000806840061CD5204606F044FE206881685E
:10443000490611D5826840218A438260606E002857
:104440000AD01D498163606EFDF77AFF0028A2D073
:10445000606E816B8847F8BD2046FFF78CFFF8BD82
:104460002046FFF788FF0020E066F8BD2646C70219
:104470006036002F0ADA6D0208D5012000051062AF
:104480007372B3722046FFF775FFF8BD050605D5B8
:104490000D0603D5204606F07DFFF8BD4006FCD58D
:1044A0004806FAD52046146840218C431460737284
:1044B00000F03EF9F8BD00001DB0000870B5040022
:1044C00005D025466035687A002802D006E0012034
:1044D00070BD00202872204600F026F82420687263
:1044E00020680168490849000160606A002802D01C
:1044F000204606F0FDFC204606F034FE0128E7D0F9
:10450000206841680922D202914341602068816895
:104510002A229143816020680168012211430160D1
:10452000204606F04BFD70BD70B5264C0546E06A8E
:104530008AB001263043E062E06A30400990E06AC8
:104540003043E062E06A30400990A06BB104084358
:10455000A06324216846FBF77BFE04200090400204
:1045600004906846FEF7D0FD206B30432063206B3B
:104570003040099009F014FC144C134820600021CD
:104580001020E160A0606161A161E1618020216291
:104590002061052060602046FEF75EF82C6601224F
:1045A00011460B20A562FEF781FC0B20FEF774FC80
:1045B000012211461D20FEF779FC1D20FEF76CFC40
:1045C0000AB070BD0010024080000240400600208A
:1045D000F0B5034660339C7A202C44D100290BD0DF
:1045E000002A09D0012584682D03AC4206D1066952
:1045F000002E03D1CE0701D00120F0BD1E7A012E7E
:1046000031D001261E724165014640310A834A833A
:10461000FF27AC4204D10269002A12D1134A0EE0EE
:104620007F22002C08D001252D07AC420AD1046955
:10463000002C04D03F2202E00469002C01D08A83C0
:1046400000E08F830021C16622229A7219720168EC
:104650008A6832438A6000680168FF222132114370
:1046600001600020F0BD0220F0BD0000FF0100004D
:1046700010B5044607488168002904D0E06E002880
:1046800001D104488847012202492046FFF7A0FFD4
:1046900010BD0000A4000020F8B5054604466035B2
:1046A000687A20283BD100290BD0002A09D00123A9
:1046B000A0681B03984206D12069002803D1C807CF
:1046C00001D00120F8BD287A012828D001202872C5
:1046D00020464030E164028242820026E6662120C4
:1046E0006872216E0F48C862216E0F480863216E00
:1046F0000E484863206E134686632768E16C3A468D
:104700002832206EFEF72CF82168402008622E72B5
:10471000206881688022114381600020F8BD02205A
:10472000F8BD00007BB00008ABB0000831B0000855
:1047300002484068002800D000477047A4000020CD
:104740007047000010B51248017800291ED10122DF
:10475000027011480F49016000210164C161D30753
:104760008161436082638160C160016207234162AD
:10477000C3630261C1620422426101630748416B65
:104780004215114341630448FDF752FC10BD00007F
:10479000A000002000240140E0050020001002409D
:1047A0007CB51E49064609780020002934D01C48F3
:1047B0004168C9430907FBD41A4C606B651528434F
:1047C000606300211848FDF78FFB184800901848D7
:1047D000019069461448FDF7DDFBA014019069467D
:1047E00000961148FDF7D6FB0F48FDF763FD002149
:1047F000C9430D48FDF7FFFC0B48FDF715FC0A49BE
:1048000080B20A68936802263343936009680322E2
:104810000A60616BA94361637CBD0000A0000020B9
:104820000070004000100240E0050020FFFF07007C
:1048300001100000014600200A0A00D00820084AA2
:10484000114201D004221043064A114201D0022233
:104850001043054A114201D001210843704700006E
:10486000F0F00000CCCC0000AAAA000038B50B2361
:104870001B07C518114B0FD01C152D1B18D02D1B55
:1048800019D0A542DD6A05D108242543DD62DB6A23
:10489000234007E08024F8E7DC6A01252C43DC6232
:1048A000DB6A2B40009311601146FEF717F838BD04
:1048B000DD6A0224E9E7DD6A0424E6E7001002402D
:1048C00010B5FFF7B7FF810002484058002800D01C
:1048D000804710BD8C04002070B51C4615460E465E
:1048E0000846FFF7A7FF0A49002C0DD080000C50A6
:1048F000304601F0D7FC044600222946FEF7D6FADE
:104900002046FEF7C9FA70BD002280000A5070BD33
:104910008C04002010B5D2B2FEF7A7F810BD00003D
:1049200070B500241148FFF73BFF114D01000CD07A
:104930001048114A008B5043FBF7DAFB80B20E4956
:104940002880884203D9FE240DE000202880E12041
:10495000C000864207D3301AFE2148434B2109018B
:10496000FBF7C6FBC4B2204670BD00000000024445
:104970006A0000206000F81FB80B000003494A6974
:104980000869496A50404840704700004000F81FDD
:1049900070B51148FFF704FF104C01001AD0208BAE
:1049A0000F4A5043FBF7A4FB05460E48FFF7F8FEFD
:1049B00068430B49FBF79CFB618B0522401A1203ED
:1049C0005043E28B511AFBF7A9FB0F214902401813
:1049D00080B270BD0025E8E7000002446000F81FC7
:1049E000B80B0000000004480F494B6A0A69D2184E
:1049F000120EC2714B6A0A69D218120C82710A8AAD
:104A00008B8CD218120A42710A7C8B8CD2180271DC
:104A10004A69120EC2704A69120C82708A8A120A9E
:104A20004270097D017070474000F81F10B50A4CB4
:104A3000607800280ED1FFF785FE0848006880479F
:104A400000F0DCF900F090F806F0D8F9FCF7EEFA87
:104A50000120607010BD0000A0000020A4DF00084D
:104A600070B5410EC0017D220023FBF76BFB0546AC
:104A700000F072F8044600E000BF00F06DF8001B83
:104A8000A842F9D370BD000070B505460C4600225F
:104A90002048FEF7DDFF002229461E486668FEF723
:104AA000B5FF002221461B48FEF7D2FF6068B042E6
:104AB000F1D1E878184A01465043C01C83088807A2
:104AC00026D0164968783D220646504302463C3AB5
:104AD0007000801EC1408807D10F8918800F4910CF
:104AE000081AC018A978401E08180D493C224843EE
:104AF0006178E123514322781B015A438918A27837
:104B000010180818074A61688002511A401870BDD1
:104B10000549D7E7CC040020B5050000A0AA9900FC
:104B200080510100FF0300005055440003207047EE
:104B300001480068704700001805002000B587B0E4
:104B4000694605A8FFF7A0FF0249096807B0401AA7
:104B500000BD00001805002000B587B0694605A813
:104B6000FFF792FF07B000BD10B5084C2078002871
:104B70000AD100F04BF8FF2101310548FEF7EAFEAB
:104B800000F074F80120207010BD000064000020C7
:104B9000CC04002010B50C4C0021042000F0CEFD08
:104BA00021688868C0040ED5C868C0050BD5C868E0
:104BB00080221040FF388238C86004499002486162
:104BC0002046FEF7C3FE10BDCC04002000040140C7
:104BD00070B50446FFF7B2FF211A0B4D0220285E84
:104BE000C01C814201D9002100E00121042000F015
:104BF000A5FD00F07BFD012802D10220285E241AC9
:104C0000204600F03FF870BD6400002010B5144944
:104C1000144886B0002412C01F2101608460046122
:104C20001149446141600838FEF740FF6946CC7580
:104C30000120487588750875002205A90948FFF705
:104C400085F8009401940494002269460548039471
:104C5000FFF7E2F80348FEF75BFE06B010BD000068
:104C600000280040CC040020FF03000010B5044CD5
:104C70002046211D1830FFF707FF206010BD0000FF
:104C800018050020F0B587B0044614223F4901A85A
:104C9000FBF7C5FA3D485038406E009000F07EF8B2
:104CA0003B4802993B4A401AA105890D081887B272
:104CB000A10A68468078534202E08918401C80B2FD
:104CC0009942FAD26A461579E122120102E0891A64
:104CD0006D1CADB29142FAD26A46547902E0641C6E
:104CE000A4B23C393C29FAD2927951188EB20121F2
:104CF000890203E07A1A761C97B2B6B28F42F9D2D3
:104D000003E03C3E641CB6B2A4B23C2EF9D203E0F0
:104D10003C3C6D1CA4B2ADB23C2CF9D203E0183D72
:104D2000401CADB280B2182DF9D26946C978890706
:104D300069464A7827D01849491E515C814202D2FF
:104D4000FBF7D6F908461249CA1B10492C394A60AC
:104D5000052252068A618E704C700A460D70203210
:104D600010706846C079C8700020C861FF22486191
:104D70000132C8604A620861024608462438FEF7DC
:104D800015FF07B0F0BD04490C31D5E71C05002024
:104D9000FF03000080AEFEFF2DE0000810B50648BE
:104DA0000168C86880221040FF388238C86051000E
:104DB0000148FEF7CFFD10BDCC04002010B57D21C9
:104DC00006F04FFC4906C009084310BD10B5410E5E
:104DD000C0017D220023FBF7B5F910BD01B582B0FB
:104DE0000020C0430090012301AA02A90248FFF756
:104DF000E8F8684680880EBD3405002010B51C48D0
:104E00001A4901601C4A1B4B0021126803E052083A
:104E1000491C072901D29A42F9D84A078B07D20FB9
:104E2000DB0F52011B011A43C90700D008210A43B6
:104E3000C2610021816001614161FF22C1600532D0
:104E400081624260012201625202826141620B482A
:104E5000416B8214114341630548FFF76FF8002846
:104E600001D0FCF77FFE00F045F810BD0030014096
:104E70003405002080969800540000200010024065
:104E800070B586B014216846FBF7E2F905260125C6
:104E9000022436076A468021304601950294FFF7C6
:104EA000E5FC002280213046FFF734FD6A464021B0
:104EB00030460294FFF7DAFC002240213046FFF72B
:104EC00029FD6A46202130460294FFF7CFFC0022DC
:104ED00020213046FFF71EFDA4036A4621463046D6
:104EE0000295FFF7C3FC012221463046FFF712FD71
:104EF00006B070BD30B585B014216846FBF7A8F93F
:104F00000220019002900320039000200524240732
:104F100004906A4620212046FFF7A8FC6A464021FB
:104F20002046FFF7A3FC6A4680212046FFF79EFC3F
:104F300001210191CD0302916A4629462046FFF7DF
:104F400095FC012229462046FFF7E4FC05B030BD60
:104F500000BFFDE701688A69D243920701D40022AD
:104F60008A6200688169C943C90703D08169012247
:104F70001143816170470000F7B5044600680E4692
:104F80008069C043C0062CD42027254640352068C0
:104F90008069C04380060FD5701CF8D0002E05D064
:104FA000FDF76AFD0299401AB042F0D96F700020F7
:104FB000A87028700320FEBD21681020C8612068F9
:104FC000C7612046FFF7C6FF20684168064A1140C6
:104FD0004160042060646F700020A8702870012078
:104FE000FEBD0020FEBD000000E800FE70B50568B3
:104FF000049C68688905890D1204044E1143194305
:10500000304021430143696070BD0000009800FCFE
:10501000F8B51C4617460E46054611E0601C0FD039
:10502000002C05D0FDF728FD0699401AA04207D9AB
:105030002020403568700020A87028700320F8BD3B
:10504000286881693046884304D00020B842E5D002
:105050000020F8BD0120F9E7F7B500272026054616
:10506000044640352AE02046029A0199FFF784FF62
:10507000002801D00120FEBD20688069C043800661
:105080000BD42068C66120684168104A1140416015
:1050900067646E70AF702F70ECE70198002806D03F
:1050A000FDF7EAFC0299411A0198814206D9606C29
:1050B000304360646E702F700320FEBD20688069ED
:1050C000C0434007CFD40020FEBD000000E800FE32
:1050D00070B516460D4604461AE03246294620466B
:1050E000FFF74AFF002801D0012070BD002D04D039
:1050F000FDF7C2FC801BA8420AD9616C2020014345
:105100006164403460700020A0702070032070BD86
:1051100020688069C0438006DFD4002070BD70B570
:1051200016460D4604461CE0324629462046FFF747
:1051300023FF002801D0012070BD681C11D0002D74
:1051400004D0FDF799FC801BA8420AD9616C20208D
:1051500001436164403460700020A070207003201F
:1051600070BD20688069C0438007DDD4002070BD19
:1051700010B507A1095C07A005F052FE0C480021FC
:10518000017102214171002100F006FA10BD0000FA
:105190004142430073776974636820746F20636CC5
:1051A00061737320256320646F6E650A0D00000033
:1051B0007C00002010B50BA005F032FE0028FAD1CB
:1051C00002F0E2F9002000F021F90949094805F050
:1051D00033FD09484168074805F096FD01F06EFE71
:1051E00010BD00004A4F494E45440A0D0000000022
:1051F000BD6E0008CC05002068000020F8B5304CDA
:105200006160E06002F0C0F92EA005F009FE32A056
:1052100005F006FE36A005F003FE08F001FB07F0DE
:1052200039FF274601201837387037483549016063
:105230003649416036498160E0682146006808319E
:1052400008600322304800F0CBFA2F4D02200C35C5
:105250002870606800782871284600F075FD0720E6
:105260002870606880782871284600F06DFD00265F
:105270002E702E71284600F067FD60682546407844
:10528000583528752348FCF779FD002804D002F032
:105290007BF900F063F8F8BD7E700220E87201200F
:1052A000A0701E491C48086005F08EFA02F06CF9E7
:1052B00011211848FCF740FD19A005F0B1FDF8BD1B
:1052C000CC0000200A0D4C534E35302044657669E1
:1052D00063650A0D00000000496D61676520566531
:1052E0007273696F6E3A2076312E350A0D00000018
:1052F0004672657175656E63792042616E643A200D
:1053000000000000D5620008C0090020D962000832
:1053100031630008808F0108307500006C000020A8
:10532000506C6561736520736574207468652070C6
:105330006172616D6574657273206F72207265733E
:1053400065742044657669636520746F20617070B0
:105350006C79206368616E67650A0D0070B5234D36
:10536000002029782E46183E86B0012928D0204CEE
:10537000032121706060204600F0E6FC04202070CC
:10538000E8686060204600F0DFFC052020702846B9
:1053900028306060204600F0D7FC062020702846A8
:1053A00038306060204600F0CFFC01202070207172
:1053B000204600F0C9FCF0684069804706B070BD27
:1053C00069460870094801AD801C01900E300290BA
:1053D000083003907068C07808741ECD04481C38EB
:1053E0001EC0684600F0EEFDE8E70000E400002083
:1053F000CC0900200EB501216846017000F028FCA0
:1054000068460079012800D000200EBDFEB5064692
:10541000002468462746047000F01AFC68460079AC
:10542000B04223D03100124E124D02D002291DD1BC
:105430000DE000281AD16846077100F085FC0028AD
:1054400003D1F068816900200FE02C460EE00028AF
:1054500000D02C46022069460871684600F074FCB2
:105460000028F2D1F0688169022088472046FEBDFD
:10547000CC000020FFFFFFFF70B5044602790168F1
:10548000407908F031FA2FA005F0CAFC0028FAD1C3
:10549000617930A005F0C4FC0028F9D1002507E0AF
:1054A0002068415D2CA005F0BBFC0028F8D16D1CE4
:1054B0002079A842F4DC26A005F0B2FC0028FAD13D
:1054C0002168274D0878012802D004281ED117E052
:1054D000207904281AD148788A7800041202C97801
:1054E000104308432861052803D21EA005F098FC4C
:1054F0000CE0012129707D21C9004843686008E063
:105500002079022802D14878FF2812D02878012873
:105510000ED105F059F91C491C4805F08DFB1B48BC
:10552000696805F0F1FB194805F000FC00202870BF
:1055300070BDBFF34F8F17491548C860BFF34F8F39
:1055400000BFFDE75265636569766520646174613B
:105550000A0D000025643A00253032780000000072
:10556000680000205444432073657474696E67209A
:105570006D757374206265206D6F7265207468614B
:105580006E2034530A0D0000BD6E0008CC050020CB
:105590000400FA0500ED00E070B586B00E46044642
:1055A00007F07AFB0025ED43002822D1207904A9D9
:1055B00000F00CFE024600211548002A04D06A467D
:1055C0001170029191811FE0002E15D001226946D1
:1055D0000A7062790A7122798A812168029108220F
:1055E0006946CA73007D8873684600F09BFA0028FC
:1055F00000D0284606B070BD6A46117061791171FD
:105600002179918121680291007D9073ECE700007F
:105610002401002010B50B480168002904D000F0D7
:1056200014F800F036F810BD4068002804D000F0EF
:1056300013F800F02FF810BD00F006F800F028F87D
:1056400010BD0000E0010020704710B501210020CE
:10565000FDF748FC10BD000010B5EFF3108472B6E2
:10566000FFF70EFC08484068804708F041F80748FB
:10567000016804221143016084F310880121084667
:10568000FDF748FC10BD0000A4DF000800700040DA
:105690007047704710B5EFF3108472B61148016877
:1056A00001221143016001684907FCD5016801220C
:1056B00012061143016001688901FCD5C16803220B
:1056C0001143C160C1680907890F0329FAD1FFF7A7
:1056D00011FC05480068804708F022F884F3108820
:1056E00010BD000000100240A4DF0008EFF310819D
:1056F00072B607480268002A01D0002005E0406821
:10570000002801D0012000E0022081F310887047BA
:10571000E001002010B5EFF3108272B6064B0029AD
:105720005C6803D0012903D1044300E084435C603A
:1057300082F3108810BD0000E001002010B5EFF3E7
:10574000108272B6064B00291C6803D0012903D1D0
:10575000044300E084431C6082F3108810BD000005
:10576000E0010020F8B5174605460A461948069C90
:10577000089E0799447183711C0AC4711C0C047241
:105780001B0E437281720B0AC3720B0C0373090E5A
:105790004173D4B2C4731048FBF75EFB39460E4820
:1057A000FBF76AFB10220B490B48FBF76DFB224607
:1057B00029460948FBF768FB0749C81FFD38FBF776
:1057C000ADFA064C601CFAF772FD2178000208431E
:1057D0003060F8BDBC0100201C100020180F002014
:1057E000F8B50E46050017467ED028680028FBD085
:1057F00068680028F8D0A8680028F5D0104602F0A4
:1058000015FF002871D0764C00212666E5652246FA
:1058100027741A3211706174A163217601266676AD
:10582000E1746165A1650B216A46117038466946CD
:1058300002F0EBFE002800D0012020750821684608
:1058400001706946207C02F0E0FE664D052128705B
:10585000684601706946207C02F0D7FE68700C2112
:10586000684601706946207C02F0CFFEE8600D2199
:10587000684601706946207C02F0C7FE28610E214F
:10588000684601706946207C02F0BFFE68610F2106
:10589000684601706946207C02F0B7FEA8611021BD
:1058A000684601706946207C02F0AFFEE861132172
:1058B000684601706946207C02F0A7FE2F4620371B
:1058C00078701421684601706946207C02F09DFEC4
:1058D00068621521684601706946207C02F095FED9
:1058E00038721A21684601E076E077E00170694677
:1058F000207C02F08AFE38731B21684601706946DD
:10590000207C02F082FE78731C2168460170694693
:10591000207C02F07AFE28631D21684601706946EA
:10592000207C02F072FE68630021207C02F077FE8A
:105930003E700A2206216A60284629723838426081
:105940000172E968C1602969016169694161A969F8
:105950008161E969C1612030067002F0D9FE2846F4
:105960002149383005F068F97D212846C9003830D2
:1059700005F0CAF928461D49683005F05DF928464A
:105980001B497C3005F058F928461A49903005F03B
:1059900053F928461849CC3005F04EF905F03AF98C
:1059A0006063284615494C300160154981601549EE
:1059B0000161154941601549154DC160A9688847C5
:1059C000E869804707F0D6FFA674296E30468847FD
:1059D000686B80470020F8BD0320F8BD0A20F8BDA1
:1059E00050010020F00D00204D6400084D6E0008AD
:1059F000596D0008D56D00080D640008316C000871
:105A000095660008696B00081D6D0008C96B0008E9
:105A1000A4DF0008F8B504461D4617460E460D489B
:105A2000FBF71AFA39460B48FBF726FAF2B2214681
:105A30000848FBF729FA0749C81FFD38FBF76EF93C
:105A4000054C601CFAF733FC2178000208432860FB
:105A5000F8BD00001C100020180F0020FFB585B015
:105A60000F46044607ADF02200211D480E9E07F0A8
:105A700027FC1B4A1021204606F0B4FA1022002110
:105A8000684607F01DFC0121684601700622394670
:105A90006C46401C07F0FCFB02222946E01D07F083
:105AA000F7FB0F4A6846089906F071FA10220021A8
:105AB000684607F005FC0221684601700622394657
:105AC000601C07F0E5FB02222946E01D07F0E0FB21
:105AD000034A3146684606F05AFA09B0F0BD0000A4
