:020000040800F2
:10000000A8150020D50000080D480008F1390008A7
:1000100000000000000000000000000000000000E0
:10002000000000000000000000000000D76A000887
:100030000000000000000000415300083584000863
:10004000E7000008E7000008075A0008E70000087A
:10005000E7000008C7130008D7130008E7130008DB
:10006000E7000008E7000008E7000008E7000008D4
:10007000E7000008E7000008E7000008E7000008C4
:10008000E7000008E7000008E700000800000000A3
:10009000E7000008E7000008E7000008E7000008A4
:1000A000E7000008E7000008E7000008E700000894
:1000B000E70000089959000800000000E700000868
:1000C0000348854600F052FD0048004745A7000858
:1000D000A81500200448804704480047FEE7FEE7D3
:1000E000FEE7FEE7FEE7FEE7C9840008C10000085E
:1000F00030B50B46014600202022012409E00D46C0
:10010000D5409D4205D31D469540491B2546954047
:1001100040191546521E002DF1DC30BD70B500248B
:100120002546002801DA01244042002901DA012590
:100130004942FFF7DDFFAC4200D04042002C00D026
:10014000494270BDF0B51FB40646002082B0054696
:100150004024019100901BE0019922460F46304651
:1001600000F0CEFB049A059B801A994110D31046EB
:100170001946224600F0B4FB361A8F4101972246F9
:1001800001200021009F00F0ABFB38184D4100908A
:100190002046641E0028DFDC019B00982946324679
:1001A00007B0F0BDF0B51FB486B0002000900190FC
:1001B00002900698069980B204900798090C0204F0
:1001C0000014114307900027089D099806913E46A8
:1001D0003C4603900398A9B20204000C03900498D3
:1001E0002D0C154348430021224600F079FBC71926
:1001F000714110340E46402CECDB3846029A00F078
:100200006FFB009A019B8018009059410298019160
:10021000103002904028CCDB00980BB0F0BD0346B4
:100220000B439B0703D009E008C9121F08C0042A2A
:10023000FAD203E00B780370401C491C521EF9D21D
:100240007047D2B201E00270401C491EFBD27047D9
:100250000022F6E710B513460A4604461946FFF792
:10026000F0FF204610BD421C0178401C0029FBD144
:10027000801A704730B505460020034600E05B1C3D
:10028000934205D2EC5CC85C201A01D1002CF6D157
:1002900030BD0321001D401E037812021A43491E7F
:1002A000F9D510467047F8B502464A40D40F4200CF
:1002B0004B0052085B089A4202D202460846114699
:1002C0004A0023D0C30D4A00DDB2120EAD1A202D14
:1002D00035DA49020126490AF6058A19002C00D0B0
:1002E000524220214F1B1146B9402A411018C20D1D
:1002F0009A4221D0002C17D0012D08DCDA05801A93
:10030000D20F8019D207DBB200F026FBF8BDDA0568
:10031000801A012340001B06C01880185A4280181A
:10032000CA0F1043490007E04908C2071143DA0524
:10033000801A80194008801800F006FBF8BD6100A3
:100340000122511A001BF7E70122D2075140AAE708
:100350000122D2075040A6E7024670B54A40D30FAB
:10036000DB0740002DD04A002AD0010E140E0002F7
:1003700012020919400A520A8418E501044654433E
:10038000000A120A2E045043A4194219200CC54336
:10039000AA18120C0125AD03521C521912047F3900
:1003A000240400D0521C104301D44000491EC2B2A4
:1003B0000C06C0092018401C4008802A02D003E027
:1003C000002070BD40084000002900DA00201843DA
:1003D00070BD0000F0B507460846584087B0C00F12
:1003E000049048000E46590040084908BC1A88414C
:1003F00005D2384631461E4617460B46024658007F
:10040000400810434CD0300D039040055900400D7A
:10041000490D0590401A0290402872DA1803012114
:10042000000B09050843019004980092002805D0AC
:100430000199524200208841009201900298402187
:100440000A1A0199009800F04BFA05460C466B46D3
:1004500007CB00F066FAC0197141039A0E0D002314
:10046000D71756401A467A40164344D0049A002AB9
:100470002DD0029A012A039A15DC1205C01A914167
:1004800001263605001C7141D20F059ED20700934C
:10049000019202962A46234600F0A4FA07B0F0BD66
:1004A00038463146FAE71605224A0F46B218C01AF6
:1004B000B74101210905001C4F4100187F41114639
:1004C00018187941E20F10436D19644113E0E207F7
:1004D0006D0815436408C2071443039A01261205E8
:1004E000C01A91413605001C7141CE0740083043C7
:1004F0004908C01851412A46234600F066FACDE764
:10050000FFE7049801224000C117121A00238B4113
:1005100004983146C417381AA141EEE730B40124DB
:10052000E407634030BC55E730B40124E407614080
:1005300030BC4FE70000E0FFF0B51FB488B00B9966
:100540000998002448400999C00F490049080991B9
:10055000C0070B990090490049080B910999089828
:10056000A64608431CD00B990A98084318D009984E
:1005700001244000420D4800410D09982405000364
:10058000000B204309900B980003000B20430B90B5
:1005900050181C494018002201901446104605E0EE
:1005A000002001460DB0F0BD032801DA034600E04B
:1005B00003239C46C11A0AAE0AE05F0008ADED5B5A
:1005C0004F00F75B7D430027AA187C41491C5B1E46
:1005D0006145F2DD410004AB5A522104120C0A437A
:1005E000240C401C0828DFDB01980290009970461B
:1005F00001910090059B049A0799069800F0F2F982
:10060000D0E700000DFCFFFFF0B50C465C4085B064
:10061000E40FE40703944C00002664085900944654
:10062000490802460296224321D062460A431ED060
:100630006200570D4A000E032303550D01240246A4
:100640002C492405781B1B0B360B401823432643EB
:10065000614600901C46501AB44103D30098401CD8
:10066000009002E0921800985B41002803DA002015
:10067000014605B0F0BD0020012109050746864668
:1006800011E064461D46141BB54106D36546521B56
:10069000B341744607430C43A646CD0740084908BA
:1006A000284392185B4105460D43EAD11046184392
:1006B00013D06046194650407140084306D060464A
:1006C000101AB34106D20122002306E000220123C2
:1006D000DB0702E00122D243531000987446010563
:1006E000381C6141029C039D0019694100F06DF9BD
:1006F000BFE70000FD03000070B54B005B0803433B
:100700000BD04B005C0D002633466542B341D41735
:10071000AD1AA34102DB0020014670BD120530185E
:10072000514170BDC217C10F504010B54018CA07E3
:100730009623002100F010F910BD10B50022962379
:10074000114600F009F910BD0EB5C217C10F504097
:10075000CA0740180021054B0293019200910A46F6
:100760000B4600F03FF903B000BD00003304000069
:100770000EB505490291002100910A460B460191F0
:1007800000F030F903B000BD33040000C20F410097
:1007900040020123400ADB05D207090EC0187F2959
:1007A00001DA00207047962903DC9623591AC840C5
:1007B00001E096398840002AF4D04042704700009A
:1007C00070B5CD0F4A0009030123090B1B0519431E
:1007D0000B4BED070024520D9A4201DA002070BD48
:1007E000074B34339A4203DC9A1A00F089F802E08E
:1007F0000449511888402C43F1D0404270BD00009C
:10080000FF030000CDFBFFFF4A0009030123090B92
:100810001B051943094B10B5520D9A4201DA00200D
:1008200010BD064B34339A4203DC9A1A00F068F884
:1008300010BD03495118884010BD0000FF0300009F
:10084000CDFBFFFFC20FD207400040080BD0C10D07
:100850000723DB01C91840020905400A1143C208F9
:1008600040071143704700200146704710B500292A
:1008700004DB0124E40740428C412146002B04DBC9
:100880001C460123DB075242A341994200D190420A
:1008900010BD0000CB0FDB07490010B54908024628
:1008A0000A4307D00A0D07240903E401090B121BB0
:1008B000002A01DC002010BDC900440F0C43C10018
:1008C000E018D205801800F03FF810BD0122D207D1
:1008D000002800DB101A002900DB511A8142704702
:1008E00010B5202A04DB0146203A9140002010BDBB
:1008F000914020239C1A0346E3401943904010BDC9
:1009000010B5202A04DB0846203AD040002110BD53
:100910000B46D340D0402024A21A914008431946E8
:1009200010BD10B5202A06DBCB170846203A10412F
:10093000C1170B4306E00B461341D0402024A21AF6
:1009400091400843194610BD002904DA401C4900B3
:1009500001D140084000704770B40024050C05D157
:100960001024000402D1002921D01124050E01D148
:1009700000020834050F01D10001241D850F01D1AB
:100980008000A41C002801DB4000641C002908D062
:1009900020252E1B0D46F540A14000D00121294302
:1009A000084301061B1B000ADB1D02D5002070BC9A
:1009B0007047DB05181880180029F8DA401C490038
:1009C000F5D170BC40084000704710B5002B08DA24
:1009D0000024401C614192185B411A4301D1400838
:1009E000400010BDF0B51FB482B005460C0003D026
:1009F000084608F0B9F802E008F0B6F820300246E0
:100A0000009021462846FFF76BFF049B059A044699
:100A10000F4618431143084314D0184610431BD007
:100A2000009840210A1A18460599FFF769FF054604
:100A30000E46009A05990498FFF752FF084305D027
:100A4000012004E02046394607B0F0BD0020C11760
:100A500005430E432C43374300990E986305401A13
:100A60007905E40A00220C43FD0A0A3002D5002071
:100A70000146E9E70105101969410C9C0D9D00191B
:100A80006941FFF7A2FFDFE7F8B5054648004008D7
:100A90000C46284304D06000184A400D904201DD06
:100AA0002846F8BD15493539884210DC88420BDBF1
:100AB000290D200308432903014305D0E00F104905
:100AC000C00741180020F8BD00200146F8BD161AE5
:100AD0004020821B28462146FFF702FF074600916F
:100AE000284621463246FFF70BFF3A46009BFFF7A8
:100AF0006CFF3246FFF7F4FEF8BD0000330400003F
:100B00000000F03F4A0009030123090B1B051943AC
:100B10000A4B10B5520D9A4202DA0020014610BD70
:100B2000064B34339A4203DC9A1AFFF7E9FE10BDF4
:100B3000034BD218FFF7D4FE10BD0000FF030000E6
:100B4000CDFBFFFF10B5002904DB0124E407404280
:100B50008C412146002B04DB1C460123DB0752425B
:100B6000A3418B4200D1824210BD0000064C0125FA
:100B7000064E05E0E36807CC2B430C3C9847103445
:100B8000B442F7D3FFF7A0FA10C8000830C8000835
:100B900070B58C180578401C6B075B0F01D103788A
:100BA000401C2A1106D10278401C03E006780E7022
:100BB000401C491C5B1EF9D12B0705D40023521E93
:100BC0000DD40B70491CFAE70378401CCB1A921C19
:100BD00003E01D780D70491C5B1C521EF9D5A14223
:100BE000D8D3002070BD000038B50446064805493A
:100BF0000068FFF77DFA604300E0401E0090002887
:100C0000FBD138BD40420F003C000020F8B504463F
:100C1000006881688907890F012902D10168C90725
:100C200022D18168114A10261140012500290ED1D8
:100C30008168294381600120FFF7D6FF00F04EFF55
:100C400007460CE000F04AFFC01B0A2807D9A06D38
:100C50003043A065E06D2843E0650120F8BD2068C1
:100C60000068C043C007EDD10020F8BD1700008028
:100C7000F0B589B00C46074610220021684609F0FD
:100C80009BFD69462246084608F010FC684600783D
:100C900087260106684600290FDA00214318425CC6
:100CA0005B785200DB091A434254491C0F29F5DBDB
:100CB000C17B0246490071400DE000214318425CAF
:100CC0005B785200DB091A434254491C0F29F5DBBB
:100CD000C17B02464900D173E21DF93251691029E6
:100CE00012D0017809061BD500214518435C6D78A8
:100CF0005B00ED092B434354491C0F29F5DBC17BF5
:100D000003464900714019E000216218FF320132A8
:100D10005378455C491C6B4053701029F5DB26E085
:100D200000214518435C6D785B00ED092B4343546B
:100D3000491C0F29F5DBC17B03464900D973E11D2E
:100D400055698023FA316B54002500E05D545369E6
:100D50005B1C5361102BF9D300216218FF32013262
:100D60005378455C491C6B4053701029F5DB00211A
:100D700062181046FF32E0300132437C5278491C41
:100D8000534043741029F3DB21461022F13104A8AB
:100D900009F0FAFC2246394604A808F087FB102225
:100DA0000021684609F008FD09B0F0BD10B5044601
:100DB00010220021F13009F0FFFCFF200021153046
:100DC0000151F022204609F0F7FC10BD0B4610B58A
:100DD00002461021184608F093FB10BDF0B50446FA
:100DE000FF308BB00F4601300890E11D4069FA31A9
:100DF0000091103915460791002843D010210E1A92
:100E0000AE4200D316460099B2B24018394609F0F6
:100E1000BBFC0898089940698019486110283AD3AA
:100E2000B54238D0002162181046FF32E03001325E
:100E3000437C5278491C534043741029F3DB0799D3
:100E40002246084608F032FBBF19AD1B1AE000200D
:100E50002118E0314A7C3B5C401C5A404A741028FF
:100E6000F6DB102202A8079909F08EFC02A922469F
:100E7000084608F01BFB102202A9079809F084FC21
:100E8000103D1037102DE2D8AAB23946009809F06B
:100E90007BFC089845610BB0F0BD0000F7B5234915
:100EA0008022497A214B511ACDB2197A5B7A802679
:100EB000F31A0A46DEB2871E491C0124C9B2761E07
:100EC0003B0007F080FE09060C060C120C06062BF0
:100ED0003000164BAA4224D2154CA05403E0134B09
:100EE000B24215DB1DE019720DE0104EAD1EAA4294
:100EF00017DA0F4B985401985854491CC8B20299FC
:100F00001954401C3072002408480121C17108E0C6
:100F1000074CA05401986054491CE4E7034BAA42D3
:100F2000F6D32046FEBD0220FEBD000004010020D5
:100F3000660C002010B586B014216846FFF788F9CA
:100F40000D48C26A01210A43C262C06A05240840F2
:100F500005900220009000200290032001912407B8
:100F600003906946204600F0EBFC01220221204656
:100F700000F0ADFD06B010BD0010024010B5FFF747
:100F8000D9FF10BD70B5044600F0EEF8052636070F
:100F9000206300220221304600F099FD012002F07A
:100FA000E1F8074D288001220221304600F08FFD34
:100FB00028880005000F203420752888607570BDD2
:100FC0004400002010B50AF029F90AF0BDF910BD5F
:100FD00070B5144E0025144C0DE000F065FA216840
:100FE000012870540CD00D280FD00A280DD07F296D
:100FF00013D0491C216002F0FDFC0128EDD070BD2A
:101000000620256008F074FF70BD0029F3D07554E8
:10101000044809F0E7FC2560EDE70420256008F0AE
:1010200067FFE8E7330900208C0000203EB50D4C37
:101030006946E2780A70227D8A70C870606B07F09A
:1010400073FA0190E06B0290E07D69464870207C65
:1010500004F009FD218CE06B4143081AA16D401892
:10106000A0653EBD04010020FFB5002085B00090C2
:101070000546064601900024770007980121C05BD1
:10108000A14008422FD028190C2203905043089AFF
:101090001258002A27D0059A002A01D1490722D0E8
:1010A00008994118082002910856021100070117FB
:1010B000069840B204F0DBFE002814D00298407A73
:1010C00001010E980818C068002804D00198401C3F
:1010D000C0B2019007E0009A0F99039888540098D5
:1010E000401CC0B20090641CE4B2102CC5D3103573
:1010F000761CEDB2F6B2102DBDD310990198087090
:10110000009809B0F0BD000030B587B014216846E2
:10111000FFF79EF803200190002002900320400377
:10112000104C0090E06A01210843E062E06A084048
:10113000059005206946000700F002FCE06A4008BF
:101140004000E062606B0125AD052843606300F05C
:10115000CFFB00F0DDFB00F0D3FB606BA8436063C6
:1011600007B030BD0010024010B500F0E1F8442097
:1011700000F0E8F800F0DCF8BE2000F0E3F800F042
:10118000AFF8044600F0ACF8000200B22043064C71
:1011900001D5C043401CFFF7D7FA2246FFF7ACFA4F
:1011A000FFF778FB10BD0000FCFFFFFF00B50A4809
:1011B00087B0C26A02210A43C262C06A0840059031
:1011C0000820009003200190002002906946034807
:1011D00000F0B6FB07B000BD001002400004005054
:1011E00000B50A4887B0C26A02210A43C262C06AD7
:1011F00008400590082000900020019001200290F6
:101200006946034800F09CFB07B000BD0010024097
:101210000004005000B50A4887B0C26A02210A43A0
:10122000C262C06A03910840059008200090012026
:1012300001906946034800F083FB07B000BD000041
:10124000001002400004005070B50024FFF7C8FFF2
:10125000134D04E0641CE4B2012000F0A5F808215D
:10126000284600F02FFC002802D0642CF2D310E0B6
:10127000642C0ED2002404E0641CE4B2012000F0CF
:1012800093F80821284600F01DFC002803D0F02C1C
:1012900004D3012070BDF02CEED3FAE7002070BD1E
:1012A0000004005010B5FFF7B5FF0C4C00220821D8
:1012B000204600F00CFC0A2000F076F8FFF790FFC3
:1012C0000821204600F0FEFB012805D000222D2039
:1012D00000F06AF8104610BD0122F8E70004005043
:1012E00070B500252C46FFF7DDFFA0402843641CA5
:1012F000E4B2C5B2082CF6D3284670BD10B5FFF78E
:1013000089FF094C00220821204600F0E0FB074835
:1013100000F04AF801220821204600F0D8FB0F20F7
:1013200000F042F810BD000000040050EE02000082
:1013300010B5FFF7E3FFFFF787FFCC2000F002F8BE
:1013400010BD000070B50546FFF764FF154E002480
:10135000E807C00F6D0800280ED000220821304693
:1013600000F0B5FB082000F01FF8012208213046EC
:1013700000F0ADFB3A200DE000220821304600F0DD
:10138000A6FB462000F010F801220821304600F0AC
:101390009EFB022000F008F8641CE4B2082CD7D3AE
:1013A00070BD00000004005006E00021491CC9B2D5
:1013B0000429FBD3401E80B20028F6D1704710B537
:1013C00002F04CF810BD10B5012000F0ADFA02207B
:1013D00000F0AAFA10BD10B5042000F0A5FA08200C
:1013E00000F0A2FA10BD10B5102000F09DFA2020E8
:1013F00000F09AFA402000F097FA802000F094FA6A
:10140000FF20013000F090FA0120400200F08CFA39
:101410000120800200F088FA0120C00200F084FA66
:101420000120000300F080FA0120400300F07CFA64
:101430000120800300F078FA0120C00300F074FA64
:1014400010BDFEE70649800009580648091803D078
:10145000C14203D00020704701207047022070472E
:10146000A8B90008702FFCFF10B5094A0021CB0075
:10147000D458844207D89B189B68834203D9C8007C
:101480008018007910BD491CC9B21529EFD3FEE7B9
:10149000C8B400080349884201D30E2070470A20CF
:1014A000704700002021F636EFF3108172B6054B2D
:1014B000D81F5A68F938105C521CD2B281F31088D8
:1014C0005A607047B8060020F8B505460446403516
:1014D000287D0026012808D0012028752068816811
:1014E0008907890F01290ED101E00220F8BD0168AA
:1014F000C90708D0A06D20210843A065012600205F
:1015000028753046F8BDA16DFF22013291430222B9
:101510001143A165C1688907890F0091C1688908D5
:101520008900C1602068816892071143816000F0E2
:10153000D5FA07460EE000F0D1FAC01B0A2809D9F7
:10154000A06D0221884310210843A0650020287562
:101550000120F8BD206880680028ECDB2068C168A5
:10156000009A1143C160A06D80088000401CA065F6
:10157000C5E70000F8B506460D464036317D012925
:101580000DD00121317501688A68520709D5816D36
:10159000202211438165002030750120F8BD022012
:1015A000F8BD174B6A68D80547109A42154C8A6AED
:1015B0002B6812D05B035B0B1A438A6229684903CC
:1015C00005D5A1680143A1600A20FFF70DFB28683B
:1015D000800312D5A06838430EE05B035B0B9A438F
:1015E0008A622968490302D5A1688143A1602868FD
:1015F000800302D5A068B843A06000203075F8BD14
:1016000001100000002701400068006C70470000D6
:1016100070B5040006D0A06D26460025403600288F
:1016200002D006E0012070BDE5653575204600F06A
:10163000D1F8A06DC00603D421688868400705D59D
:10164000A06D10210843A0653575EBE7A06DFF2262
:101650000132904302221043A06588688207920FEE
:101660005A48012A02D10A68D2072BD103236268A3
:101670009B079A4205D05B429A4202D05B009A4295
:1016800009D10A69920092080A6121680A696368AF
:101690001A430A610CE00A69920092080A618168A3
:1016A0000F229204914381608168626811438160D6
:1016B0002168CA6818239A43CA602168CA68A36867
:1016C0001A43CA6081680122520691438160816891
:1016D000228F52061143816020688168C90004D4BA
:1016E000816801221207114381602068C168384A6D
:1016F0001140C1602169E068022923D0002108431C
:10170000216A226B4903520011430843616B08436D
:10171000A16989030843E169C90308432168CA68CC
:101720001043C860A06A0146FF39C23905D0E16A9A
:1017300008432168CA681043C860606A0121012813
:1017400002D00BE00421DAE7206A002823D0A06D44
:1017500020221043A065E06D0843E065206C01285D
:1017600020681FD00169C90703D0016949084900F1
:10177000016120684169C908C90041612068416967
:10178000E26B11434161E565A06D80088000401C5B
:10179000A065002070BD2068C26801231B041A43A5
:1017A000C260DBE70269FF239B009A430261206865
:1017B0000269636CE66C1A43A36C33431A430261FB
:1017C000206802690A430261D3E700000027014054
:1017D0001902FEFF7047F8B50446406925464035BA
:1017E0000E4608280BD02068C068C00709D0A06D3D
:1017F00020210843A065002028750120F8BD082796
:1018000000E00C2700F06AF9009011E0701C0FD086
:10181000002E05D000F062F90099401AB04207D9B5
:10182000A06D04210843A065002028750320F8BDA1
:10183000206800683842E9D0A06D012149020843C0
:10184000A0652068C16809058A0F0C21002A1AD1F9
:10185000226A002A17D10268120714D5826853073A
:101860000122002B08DB43688B434360A06D130209
:1018700098431043A06506E0A06D20231843A0659F
:10188000E06D1043E065A069002801D12068016087
:101890000020F8BD70B5044621680020896849071A
:1018A00021D425464035297D01291CD001212975E7
:1018B000E169012904D02046FFF7A8F9002811D1D9
:1018C000A16D0A4A1140FF2201321143A165002196
:1018D000E165297522681C21116021688A6804234A
:1018E0001A438A6070BD022070BD0000FEF1FFFF48
:1018F000024841684908490041607047005801406A
:1019000002484168042291434160704700580140F9
:1019100002484168022291434160704700580140EB
:1019200010B501F001FD10BD10B504494A6902422D
:1019300002D04861FFF7F4FF10BD00000004014031
:10194000F8B500230124A7E027469F403A4070D015
:101950004D68022D01D0122D14D1DD08AD002D18D7
:1019600000952D6A5E07AC46F50E0F26AE46AE40DA
:101970006546B543AC460E697546AE4065462E4396
:10198000009D2E624D68012D05D0022D03D0112D32
:1019900001D0122D16D185680326AC465D00AE46F7
:1019A000AE406546B543AC46CE687546AE4065462A
:1019B0002E43866046680D79BE43ED06ED0F9D40CF
:1019C0003543456006685F000325BD40AE46AE4323
:1019D0000D79B446AE07B60FBE4065462E4306608D
:1019E000C6687546AE438D68BD403543C5604D68D9
:1019F000ED0050D52B4D6E6B26436E639E082A4D2D
:101A0000B6007519AC46AD689E07360F0F27B74074
:101A1000BD4305273F07B84201D100271AE0234FF5
:101A2000B84201D1012715E0214FB84202D1022767
:101A300010E030E01F4FB84201D103270AE01E4FEB
:101A4000B84201D1042705E01C4FB84201D1052757
:101A500000E00627B7402F436546AF60184D2E685B
:101A60004F689643FF0300D516432E606E684F689B
:101A70009643BF0300D516436E60AE684F68964329
:101A8000FF0200D51643AE60EE684F689643BF0272
:101A900000D51643EE605B1C0A681546DD4000D099
:101AA00052E7F8BD00100240000001400004005061
:101AB00000080050000C005000100050001C0050A6
:101AC000000401400069084000D001207047002A4E
:101AD00001D0816170478162704700000148006851
:101AE000704700004000002002480168491C016066
:101AF000704700004000002010B50648016802222F
:101B000011430160032000F007F800F007F80020FF
:101B100010BD0000002002400020704710B50848AA
:101B2000816B02041143816300F03AF800F030F851
:101B30000448016808221143016000F021F810BD3B
:101B40000010024000200240C106C90E012088405A
:101B5000014908607047000000E100E0054909689C
:101B6000C206D20E01209040014201D001207047F0
:101B70000020704700E200E010B502F049FE10BD01
:101B8000024801680215114301607047007000406F
:101B9000024801684215114301607047007000401F
:101BA00002480168102291430160704700700040B4
:101BB000094B1A689208920002431A6007480269AA
:101BC00004239A430261012903D040BF20BF20BFF4
:101BD000704730BF704700000070004000ED00E02B
:101BE0000A4B1A689208920002431A600848036977
:101BF000042213430361012906D040BF20BF20BF48
:101C0000016991430161704730BFF9E700700040FE
:101C100000ED00E0F8B56649074601250020ED0318
:101C2000624B634A4031102F6FD011DC012F77D007
:101C3000022F6CD0042F6BD0082F24D1C968032445
:101C4000240321407BD0BD026C10A9427CD0A0E0CF
:101C50000326584C3604202F0BD0402F35D0FF3FA1
:101C6000012F10D1C968314069D07C04A1426BD0EA
:101C700096E00B690969012731403F04B94203D15D
:101C8000990559E02846F8BD01256D04A94203D104
:101C90009907F8D54848F8BDB142FCD111688903CD
:101CA000F9D5116803200005014001200005091A3B
:101CB00009D0091A05D0814201D14048F8BD20461B
:101CC000F8BD3F48F8BD3F48F8BDC9680125AD06DD
:101CD000294006D0A942F7D191688907F4D53A483E
:101CE000F8BD11688901FBD5D068D1688002374DF5
:101CF000000F2D5C0802810FD068491CC0030AD474
:101D00001068C00605D5204606E045E008E023E05F
:101D100030E0184600E02E486843FEF7E9F9F8BDC8
:101D2000CC68A407A40F0CD0022C0DD0012C10D02D
:101D3000032CF4D1096989050029A3DBF8BD16E05D
:101D400002E000F0D1F9F9E711684907F6D5184625
:101D5000F4E700F0D9F9F1E7CC680C26344006D05E
:101D6000082CF1D0042CF4D00C2CE3D0E6E700F0E2
:101D7000ABF9E3E7CC680326B6023440F7D001277D
:101D8000FF02BC42E0D07A109442E2D0B442D1D0FB
:101D9000D4E7A142DDD0D1E7916B4902E7D4CDE78A
:101DA000012212049142D4D0C8E700000024F400BC
:101DB0000010024000093D008890000020A10700AB
:101DC00040420F0080841E00006CDC02F0B5000869
:101DD00000127A00F8B5044600785E4D800672D590
:101DE0005C4E0027403EB06BC00004D4B06BA90528
:101DF0000843B063012758480168C90511D4016838
:101E0000821511430160FFF769FE009005E0FFF7BE
:101E100065FE0099401A642837D84F480068C0050D
:101E2000F5D532680321090560680A4001409142F6
:101E300008D08103890F032904D13168890301D5B2
:101E40000120F8BD2A69032109040A4022D0084074
:101E500090421FD0207880061CD528692A698843C3
:101E60000121C9040A432A612A698A432A61286137
:101E7000C0050FD5FFF732FE009008E0FFF72EFEF9
:101E80000099411A3548814201D90320F8BD2869DB
:101E90008005F3D561688803800F032805D1326877
:101EA0000005824301400A433260286903226168C9
:101EB0001204114008432861002F04D0B06B0121A7
:101EC00009078843B0632078C00705D0E868A16897
:101ED000800880000843E8602078800705D5E8681E
:101EE0000C218843E1680843E8602078400706D564
:101EF000E86803218902884321690843E860207863
:101F0000000706D5E868032109038843616908438F
:101F1000E8602088C00506D5E868032109048843E5
:101F2000A1690843E8602078400606D5E8680121E9
:101F300089068843216A0843E8602078000606D5B0
:101F4000E868032189048843E1690843E8600020C8
:101F5000F8BD0000401002400070004088130000EF
:101F6000F8B5054653480E460068C007C00FB0429A
:101F70000AD25048016849084900314301600068AD
:101F8000C007C00FB0426FD128784B4C800705D5F1
:101F9000E068F0218843A9680843E0602878C0071A
:101FA00052D06868022817D0032818D02168012869
:101FB00018D08905002957DAE168890889000143AA
:101FC000E160FFF78BFD69680746022912D00329FB
:101FD0001CD0012926D033E021688903EAE7216873
:101FE0008901E7E74907E5E7FFF778FDC11B3348BB
:101FF000814223D8E0680007800F0228F4D123E053
:10200000FFF76CFDC11B2D48814217D8E06800071F
:10201000800F0328F4D117E0FFF760FDC11B2748AC
:1020200081420BD8E0680007800F0128F4D10BE053
:10203000FFF754FDC11B2148814201D90320F8BD9F
:10204000E0680007800FF3D11A480168C907C90F7B
:10205000B1420BD901684908490031430160006869
:10206000C007C00FB04201D00120F8BD287840075A
:1020700006D5E068072109028843E9680843E06063
:102080002878000707D5E0680721C9028843296935
:10209000C9000843E06000F037F8E168084A090623
:1020A000090F515CC840074908600320FFF734FD61
:1020B0000020F8BD002002400010024088130000FC
:1020C000E0B500083C000020044805490068C968E4
:1020D000044A4905490F515CC84070473C00002044
:1020E00000100240F9B50008044805490068C968B5
:1020F000044A8904490F515CC84070473C000020E5
:1021000000100240F9B5000810B5184AD1680C203B
:10211000084004280BD0082810D00C2810D0506894
:102120000004410F0120C003491C884010BD106805
:10213000C00601D50E4810BD0E4810BD0E4810BD9A
:1021400088020E4B000F185C0902D368890F491CE6
:10215000DB0301D5084A05E01268D20601D5044A1E
:1021600000E0044A5043FDF7C3FF10BD00100240D9
:1021700000093D000024F40000127A00F0B50008C8
:10218000F8B504460078FF4DC0074CD0E86800075A
:10219000800F022807D0E8680007800F032809D1C4
:1021A000E868C00306D5286880033CD5606800282D
:1021B00075D038E0012062680004824203D12968AA
:1021C0000143296011E0052301211B0489049A427F
:1021D0002A6802D10A432A60F1E782432A602A680A
:1021E00002400092286888432860606800280DD06B
:1021F000FFF774FC0646E44F04E0FFF76FFC801B1A
:10220000B8427DD828688003F7D50CE0FFF766FC5C
:102210000646DD4F04E0FFF761FC801BB842F0D8B2
:1022200028688003F7D42078800741D5E8681F2705
:102230000007800F3F02012807D0E8680007800FE1
:10224000032809D1E868C00306D42868400717D5D9
:10225000E068012823D113E0E068002817D029683E
:102260000922914301432960FFF738FC064604E048
:10227000FFF734FC801B0228C3D828684007F7D535
:1022800068682169B84309020843686010E028685B
:10229000400840002860FFF721FC064605E090E07A
:1022A000FFF71CFC801B0228ABD828684007F7D436
:1022B0002078C00676D5E868B44E0007800F0BD0B2
:1022C000E06900285DD02868FF21013108432860BB
:1022D000FFF704FC074644E02868800502D5E06962
:1022E00000286ED0606A69683140884212D903F0D4
:1022F0001BFB0028AED16868616AB043084300E068
:10230000E4E068606868218C0002000A090608435E
:1023100068600FE06968B143014369606868218CB7
:102320000002000A090608436860606A03F0FCFACC
:1023300000288FD1606A410B0120C003491C8840EE
:10234000E968934A0906090F515CC8409149086041
:102350000320FFF7E1FB25E0FFF7C0FBC01B0228CD
:102360008AD828688005F7D56868616AB043084351
:1023700068606868218C0002000A090608436860EA
:1023800010E02968FF20013081432960FFF7A6FB98
:10239000064604E0FFF7A2FB801B022884D82868C9
:1023A0008005F7D420787C4E000723D5606900288B
:1023B000306910D0012108433061FFF78FFB0746D9
:1023C00005E009E1FFF78AFBC01B02287ED83069CF
:1023D0008007F7D50EE0400840003061FFF77EFB34
:1023E000074604E0FFF77AFBC01B02286ED830696D
:1023F0008007F7D42078400761D5A86B0027C0007C
:1024000005D4A86B012109070843A8630127634885
:102410000168C90511D40168821511430160FFF7F5
:102420005DFB009005E0FFF759FB0099401A642816
:102430004CD85A480068C005F5D5FF20A268013085
:10244000824203D131690143316111E001218902E6
:10245000002A07D005231B029A4203D132690A439E
:102460003261EFE73269824332613069884330611B
:10247000A06800280ED0FFF731FB009006E0FFF7C0
:102480002DFB0099411A404881421FD830698005D0
:10249000F5D50DE0FFF722FB009006E0FFF71EFBED
:1024A0000099411A3848814210D830698005F5D426
:1024B000002F04D0A96B012000078143A963207875
:1024C000800630D53649A0694A1400E07DE0002836
:1024D00016D0AB6801200343AB606B6B03436B63A7
:1024E000086A10430862FFF7F9FA064604E0FFF7AE
:1024F000F5FA801B022868D8A8688007F7D512E093
:10250000A86840084000A860086A90430862FFF786
:10251000E5FA064604E0FFF7E1FA801B022854D8EA
:10252000A8688007F7D4A06A002853D0E968090793
:10253000890F032950D0012636060228286805D0C5
:10254000B0432860FFF7CAFA044640E0B043286071
:10255000FFF7C4FA074604E0FFF7C0FAC01B0228E1
:1025600033D828688001F7D4216BE06AEA68084311
:10257000616BFD231B049A4311430843E8602868FC
:1025800030430FE0001002408813000000E000001C
:10259000E0B500083C000020401002400070004000
:1025A000000001402860FFF799FA044604E0FFF7B5
:1025B00095FA001B022808D828688001F7D509E0A1
:1025C000FFF78CFA001B022801D90320F8BD286808
:1025D0008001F5D40020F8BD0120F8BD30B50146DA
:1025E00020310A78012A15D001220A7002234B708B
:1025F0000468CA23636204685323636203689C68A7
:1026000020252C439C600068FF2343624A70002011
:10261000087030BD022030BD10B505F0A7FF10BD19
:10262000F8B5054604462035287801281DD001203C
:102630002870022068702268CA20506222685320E5
:102640005062FF2001300026FF2781421CD1216803
:102650008A6882438A60206881680122120391435C
:102660008160FFF73BFA009009E00220F8BDFFF718
:1026700035FA0099411A7D20C00081421BD820689C
:10268000C068C007F3D020E02068816801225202B0
:102690009143816020688168120191438160FFF756
:1026A0001DFA00900DE0FFF719FA0099411A7D20FC
:1026B000C000814205D920684762032068702E70EF
:1026C000F8BD2068C0688007EDD52068476201200A
:1026D00068702E700020F8BDF0B50C46FF219C46B6
:1026E0000131254640268F051D4B20358A4204D1F5
:1026F00061620168C869496C05E0012149026162B3
:102700000168086A896C8202920E22704204520E9D
:1027100062704206520EA270020C49043240490C0B
:10272000E27061608100890E2970014639401840CD
:10273000E1616061604600280FD1207803F034F930
:102740002070607803F030F96070A07803F02CF905
:10275000A070287803F028F928700020F0BD000050
:102760008080808010B500680B464068C021C94356
:1027700001400002000ECC04D870E40E5C708C06A0
:10278000A40E0904490F9C701970002A0AD103F0A5
:102790000BF9D870587803F007F95870987803F05F
:1027A00003F99870002010BD30B50B460168896AA6
:1027B0005960016809694904490C99600068046816
:1027C0000F482146014088024D04800E18706D0E9E
:1027D00049065D70490E99706102490E40242140FE
:1027E000D970002A0AD103F0DFF81870587803F086
:1027F000DBF85870987803F0D7F89870002030BD57
:102800007F7F7F0070B5040005D0254620356878AD
:10281000002802D006E0012070BD0020287020466C
:1028200000F042F8022068702168CA2048622168DE
:1028300053204862204603F0CAF8FF210028206890
:1028400003D0416204206870E5E78268154B1A40A6
:102850008260226890686368A669184323693343DD
:10286000184390602268E06810612068026923893B
:102870001B041A4302612068C26880239A43C26025
:102880002068C26C92089200C264E26960690243E7
:102890002068C36C1A43C2642068416201206870DA
:1028A000002070BDBFFF8FFF00B597B004200090DF
:1028B00000200A90FF20013002906846FFF760FC7C
:1028C000002801D0FEF7BDFD20200E90C0020F9021
:1028D0000EA8FFF77FFA002801D0FEF7B2FD0848E6
:1028E0000169012292041143016100221146022074
:1028F000FFF742F90220FFF727F917B000BD0000EB
:1029000040100240FEB506460446203630780B469D
:10291000012842D0012030700220707020681D46CE
:10292000002720358068002A39D0400655D5187810
:1029300003F03AF8287803F037F819789878090402
:1029400008435978DA7809021204114308432978B8
:1029500009060843D9690843596908430546996936
:102960005868084300902168CA20486221685320B3
:102970004862FF205A6A0130802182424AD122688F
:102980009368834393602268D0680840FF38823898
:10299000D060FFF7A3F8019029E00220FEBD4006B9
:1029A00000D4DF70187803F007F80204587803F0B9
:1029B00003F800020243987802F0FEFF0243D87841
:1029C00000040243287802F0F7FF00060243D869AA
:1029D0000243586902431546C1E7DF70AAE7FFF7D3
:1029E0007DF80199411A7D20C00081422AD82068D3
:1029F000C068C007F3D02068C561216800984864AA
:102A000020688168FF22013211438160206881685B
:102A1000120130E02068826801235B029A438260E1
:102A20002068C2680A401D495118C160FFF756F876
:102A300001900EE0FFF752F80199411A7D20C00085
:102A4000814206D92168FF204862032070703770E8
:102A5000FEBD2068C0688007ECD52068056221684B
:102A600000988864206881680122520211438160C5
:102A700020688168120111438160094802680121C0
:102A800049040A43026082680A4382602168FF2089
:102A900048620120707037700020FEBD7FFDFFFF8F
:102AA00000040140F8B505460446203528780B4659
:102AB000012815D001202870022068705878002A5B
:102AC00010D002F071FF987802F06EFFD8789E78EF
:102AD000000406435878197800024903084316E0B9
:102AE0000220F8BDC10603D5EF2108400A30587016
:102AF000D87802F061FF0604587802F05DFF00020A
:102B00000643987802F058FF0643187840030643BE
:102B10002168CA204862216853204862204602F09A
:102B200056FF0027002811D1104806402068466053
:102B30002068C16880229143C16020688068800657
:102B40000CD4204600F08CF8002807D02168FF2024
:102B50004862042068702F700120F8BD2168FF20B2
:102B60004862012068702F700020F8BD3FFFFF0011
:102B7000F8B506460446203630780D4601280ED0BA
:102B80000120307002207070206800278068002AC1
:102B900007D040061AD5287802F006FF17E0022079
:102BA000F8BD400600D4EF70287802F005FF02045B
:102BB000687802F001FF00020243A87802F0FCFEF0
:102BC0000243E8780004024300920BE0EF7029789A
:102BD000A878090408436978EA78090212041143C5
:102BE000084300902168CA20486221685320486247
:102BF000204602F0ECFE00281FD11849009808403A
:102C000021680860206881680122920491438160F4
:102C10002969E868084321688A6810438860206849
:102C2000C16880229143C1602068806880060CD40E
:102C3000204600F015F8002807D02168FF204862E0
:102C40000420707037700120F8BD2168FF204862B1
:102C50000120707037700020F8BD00007F7F7F007A
:102C600070B504460068C168A0229143C160FEF7B8
:102C700035FF7D260546F60006E0FEF72FFF401BD8
:102C8000B04201D9032070BD2068C0688006F4D529
:102C9000002070BD70B5040006D025464035687C24
:102CA0000026002802D005E0012070BD2E742046C9
:102CB00000F032F8022068742068016840229143D5
:102CC0000160A168606822690843E1681143084314
:102CD000616901220843A169520211400843E16978
:102CE0000843216A0843A16A084321680860A06973
:102CF0000421000C0840616A08432168486021688B
:102D0000E06A08612068C16992009143C16166650B
:102D100001206874002070BD7047F8B50446002794
:102D20006846078026464036707C012802D0707CB9
:102D300022287ED100290CD0002A0AD0002B08D0EE
:102D4000307C012875D001203074707C012802D0BD
:102D500003E00120F8BD322070746765A263A38789
:102D6000E3872163A386E386A764E7640125A06A5D
:102D70006D03A84207D120680168A943016020685B
:102D800001682943016020680168490603D401688D
:102D90004022114301600121FF20E268C902053091
:102DA0008A42616866D1002904D081420CD1E08E4C
:102DB000012809D1206B21680088C860206B801C25
:102DC0002063E08E401EE086E08E002843D1A06A9A
:102DD000A84246D120680168012212031143016014
:102DE0003FE02068C068A16B0880A06B801CA063D6
:102DF000B0E0002202212046069B03F013FE0028CB
:102E00007DD1206B21680088C860206B801C206306
:102E1000E08E401EE086E08E002808D1A06AA8421D
:102E200005D12068016801221203114301600022CC
:102E300000E0CCE001212046069B03F0F3FD0028D2
:102E40007FD12068C068A16B0880A06B801CA06344
:102E5000E08F401EE087E08E0028CAD1606800281D
:102E60007BD1002201212046069B03F0DBFD0028D8
:102E700067D1B6E7002904D081420BD1E08E01284A
:102E800008D1206B411C216321680078C860E08E66
:102E9000401EE086E08E002845D1A06AA84205D1F8
:102EA0002068016801221203114301600022012100
:102EB0002046069B03F0B6FD002842D12068C0687A
:102EC000A16B087046E0002202212046069B03F019
:102ED000A9FD002835D1206B411C216321680078B1
:102EE000C860E08E401EE086E08E00280AD1A06A0D
:102EF000A84207D1206802680121090300E020E010
:102F00000A430260002201212046069B03F08AFD4D
:102F1000002816D12068C268A06B411CA163027012
:102F2000E08F401EE087E08E0028CCD1606800284A
:102F300013D1002201212046069B03F073FD0028D7
:102F400002D00320F8BD08E02068C168A06B421CD5
:102F5000A2630170E08F401EE087A06AA8420FD1F3
:102F6000002201212046069B03F05CFD002802D0D0
:102F7000606D02210EE02068C068694608800888FC
:102F8000012280212046069B03F04CFD002804D03E
:102F9000606D202108436065D3E701207074A06A4A
:102FA000A84211D120688168C943C9060CD4616D5B
:102FB0000222114361650168A9430160206801682C
:102FC000294301603774C4E637740020BAE7022051
:102FD000B8E7014660310A7A012A0DD001220A724F
:102FE00024224A720068026802231A4302602020E9
:102FF000487200200872704702207047FEB50546EF
:1030000004466035287A00269446012811D0012311
:103010002B7224206872206802689A430260276835
:10302000B8680322120590430843B860002902D013
:1030300015E00220FEBD60460091019021686A46BD
:10304000928848681027B843104348602068416858
:103050006A4609029279090A120611434160206802
:10306000016819430160FEF739FD094900910346E3
:10307000012100228905204605F0F2FC002801D03C
:10308000032601E020206872002028723046FEBD31
:10309000FFFFFF0170B5040005D025466035687A52
:1030A000002802D006E0012070BD002028722046D2
:1030B00000F026F824206872206801684908490059
:1030C0000160606A002802D0204605F01BFB204604
:1030D00005F0AEFB0128E7D0206841680922D20242
:1030E00091434160206881682A2291438160206871
:1030F0000168012211430160204605F069FB70BDA3
:1031000010B508F0E3F810BD10B512480178002999
:103110001ED10122027011480F4901600021016493
:10312000C161D3078161436082638160C1600162D4
:1031300007234162C3630261C162042242610163E9
:103140000748416B4215114341630448FEF760FA9A
:1031500010BD000070000020002401405804002031
:10316000001002407CB51E4906460978002000295F
:1031700034D01C484168C9430907FBD41A4C606B22
:1031800065152843606300211848FEF79DF918482B
:1031900000901848019069461448FEF7EBF9A01416
:1031A0000190694600961148FEF7E4F90F48FEF7D2
:1031B00071FB0021C9430D48FEF70DFB0B48FEF7DC
:1031C00023FA0A4980B20A6893680226334393605F
:1031D000096803220A60616BA94361637CBD00003A
:1031E00070000020007000400010024058040020D1
:1031F000FFFF07000110000010B501210020FEF7BD
:10320000D7FC10BD10B5EFF3108472B600F088FB48
:103210000A4840688047FDF7C9FF09480168042251
:10322000114301600748016820229143016084F343
:10323000108801210846FEF7D3FC10BD78B50008C0
:10324000007000400048004010B5EFF3108472B6E3
:103250001048016801221143016001684907FCD54B
:103260000168012212061143016001688901FCD541
:10327000C16803221143C160C1680907890F03298E
:10328000FAD100F087FB04480068804784F3108877
:1032900010BD00000010024078B500080146002073
:1032A0000A0A00D00820084A114201D00422104323
:1032B000064A114201D002221043054A114201D0B0
:1032C0000121084370470000F0F00000CCCC000062
:1032D000AAAA000038B50B231B07C518114B0FD045
:1032E0001C152D1B18D02D1B19D0A542DD6A05D148
:1032F00008242543DD62DB6A234007E08024F8E7E9
:10330000DC6A01252C43DC62DB6A2B4000931160F0
:103310001146FEF715FB38BDDD6A0224E9E7DD6AD8
:103320000424E6E70010024010B5FFF7B7FF810064
:1033300002484058002800D0804710BD58030020A4
:1033400070B51C4615460E460846FFF7A7FF002C31
:103350000DD0074980000C50304601F055F9044665
:1033600000222946FEF708FC2046FEF7EDFB70BD63
:103370005803002010B5D2B2FEF7A9FB10BD000023
:1033800070B500240E48FFF7EDFE0E4E0E4D010005
:1033900013D00E483246008B5043FCF7A9FEB042D2
:1033A00001D9FE2409E0A84207D3401BFE2148436F
:1033B0004B210901FCF79CFEC4B2204670BD000001
:1033C00000000244B80B0000080700006000F81F6E
:1033D00003494A690869496A5040484070470000FB
:1033E0004000F81F0F494B6A0A69D218120EC271C9
:1033F0004B6A0A69D218120C82710A8A8B8CD21815
:10340000120A42710A7C8B8CD21802714A69120E20
:10341000C2704A69120C82708A8A120A4270097D4F
:10342000017070474000F81F10B50A4C6078002802
:103430000ED1FFF769FE08480068804700F02EFAB9
:1034400000F0A0F807F0EAFEFDF798FD012060709B
:1034500010BD00007000002078B5000870B5410E66
:10346000C0017D220023FCF76DFE054600F082F8C6
:10347000044600E000BF00F07DF8001BA842F9D32D
:1034800070BD000070B505460C4600222048FFF7CD
:103490008BF9002229461E486668FFF763F900226F
:1034A00021461B48FFF780F96068B042F1D1E87807
:1034B000184A01465043C01C8308880726D0164985
:1034C00068783D220646504302463C3A7000801E12
:1034D000C1408807D10F8918800F4910081AC018F9
:1034E000A978401E08180D493C2248436178E12321
:1034F000514322781B015A438918A27810180818E2
:10350000074A61688002511A401870BD0549D7E723
:1035100098030020B5050000A0AA99008051010081
:10352000FF030000505544000320704710B5084CBD
:10353000084A206800210B46101A8B4105DA00F07A
:103540007BF800F06FF800F0A7F8206810BD0000CD
:10355000E403002000004EED00B587B0694605A8E1
:10356000FFF790FF0249096807B0401A00BD00004C
:10357000E403002000B587B0694605A8FFF782FF85
:1035800007B000BD10B5064C2078002807D100F028
:1035900053F800F047F800F07FF80120207010BDCC
:1035A0004600002010B50C4C012001F009F82168FC
:1035B0008868C0040ED5C868C0050BD5C8688022CD
:1035C0001040FF388238C8600449900248612046A4
:1035D000FFF722F810BD000098030020000401400E
:1035E00070B50446FFF7B8FF211A0D4D0220285E82
:1035F000C01C814203D9012000F0E2FF02E001205B
:1036000000F0D2FF00F0E8FF002805D1012000F013
:10361000D7FF0220285E241A204600F049F870BD2A
:103620004600002010B5FF2101310248FEF7F8FFE7
:1036300010BD00009803002010B51449144886B04E
:10364000002412C01F21016084600461114944619B
:1036500041600838FFF7D6F86946CC7501204875F7
:1036600088750875002205A90948FFF71BFA009420
:10367000019404940022694605480394FFF778FA00
:103680000348FEF7ABFF06B010BD00000028004065
:1036900098030020FF03000010B5044C2046211DB4
:1036A0001830FFF7EFFE206010BD0000E40300209B
:1036B000F0B587B0044614223F4901A8FCF7AFFDDE
:1036C0003D485038406E009000F07EF83B4802992B
:1036D0003B4A401AA105890D081887B2A10A68461D
:1036E0008078534202E08918401C80B29942FAD295
:1036F0006A461579E122120102E0891A6D1CADB209
:103700009142FAD26A46547902E0641CA4B23C3970
:103710003C29FAD2927951188EB20121890203E034
:103720007A1A761C97B2B6B28F42F9D203E03C3EC9
:10373000641CB6B2A4B23C2EF9D203E03C3C6D1C32
:10374000A4B2ADB23C2CF9D203E0183D401CADB29E
:1037500080B2182DF9D26946C978890769464A7836
:1037600027D01849491E515C814202D2FCF7C0FCA7
:1037700008461249CA1B10492C394A6005225206D4
:103780008A618E704C700A460D7020321070684647
:10379000C079C8700020C861FF2248610132C8604A
:1037A0004A620861024608462438FFF7ABF807B0C2
:1037B000F0BD04490C31D5E7E8030020FF03000009
:1037C00080AEFEFF01B6000810B506480168C86863
:1037D00080221040FF388238C86051000148FEF74F
:1037E0001FFF10BD9803002010B57D2105F0D3F90F
:1037F0004906C009084310BD10B5410EC0017D2225
:103800000023FCF79FFC10BD30B5194C87B06078E1
:1038100000282BD10220FEF7A1F9012826D16070E3
:10382000694605A8FFF72EFE12490546FF22084605
:10383000002301322438FEF74FFF0E4818230146BB
:10384000203109780278594351183C22514342787B
:1038500089183C225143827880888918064A890257
:10386000101A0918681A61880818608007B030BDFE
:1038700046000020BC030020FF03000001B582B019
:103880000020C0430090012301AA02A90248FFF7CB
:1038900044FA684680880EBD0004002010B51C481C
:1038A0001A4901601C4A1B4B0021126803E05208B0
:1038B000491C072901D29A42F9D84A078B07D20F2F
:1038C000DB0F52011B011A43C90700D008210A432C
:1038D000C2610021816001614161FF22C160053246
:1038E00081624260012201625202826141620B48A0
:1038F000416B8214114341630548FFF7CBF900285F
:1039000001D0FDF79EFD00F045F810BD00300140EC
:1039100000040020809698003C0000200010024027
:1039200070B586B014216846FCF792FC0526012587
:10393000022436076A468021304601950294FFF73B
:10394000C9FC002280213046FFF714FD6A46402161
:1039500030460294FFF7BEFC002240213046FFF7BC
:1039600009FD6A46202130460294FFF7B3FC00228D
:1039700020213046FFF7FEFCA4036A46214630466C
:103980000295FFF7A7FC012221463046FFF7F2FC23
:1039900006B070BD30B585B014216846FCF758FC00
:1039A00002200190029003200390002005242407A8
:1039B00004906A4620212046FFF78CFC6A4640218D
:1039C0002046FFF787FC6A4680212046FFF782FCED
:1039D00001210191CD0302916A4629462046FFF755
:1039E00079FC012229462046FFF7C4FC05B030BD12
:1039F00000BFFDE7EFF3108172B6054805C88242AB
:103A000001D0012000E0002081F310887047000001
:103A1000B8060020F8B5174605460A461948069C20
:103A2000089E0799447183711C0AC4711C0C0472AE
:103A30001B0E437281720B0AC3720B0C0373090EC7
:103A40004173D4B2C4731048FDF7B0F939460E483B
:103A5000FDF7BCF910220B490B48FDF7BFF92246D0
:103A600029460948FDF7BAF90749C81FFD38FDF78F
:103A7000FFF8064C601CFCF70CFC217800020843A0
:103A80003060F8BD70010020CC0F0020C80E00206F
:103A9000F8B50E46050017467ED028680028FBD0F2
:103AA00068680028F8D0A8680028F5D0104602F011
:103AB0000DFA002871D0764C00212666E565224675
:103AC00027741A3211706174A1632176012666761B
:103AD000E1746165A1650B216A461170384669463B
:103AE00002F0E3F9002800D0012020750821684683
:103AF00001706946207C02F0D8F9664D05212870D6
:103B0000684601706946207C02F0CFF968700C218C
:103B1000684601706946207C02F0C7F9E8600D2113
:103B2000684601706946207C02F0BFF928610E21C9
:103B3000684601706946207C02F0B7F968610F2180
:103B4000684601706946207C02F0AFF9A861102137
:103B5000684601706946207C02F0A7F9E8611321EC
:103B6000684601706946207C02F09FF92F46203795
:103B700078701421684601706946207C02F095F93E
:103B800068621521684601706946207C02F08DF953
:103B900038721A21684601E076E077E001706946E4
:103BA000207C02F082F938731B2168460170694657
:103BB000207C02F07AF978731C216846017069460E
:103BC000207C02F072F928631D2168460170694665
:103BD000207C02F06AF968630021207C02F06FF912
:103BE0003E700A2206216A602846297238384260EF
:103BF0000172E968C1602969016169694161A96966
:103C00008161E969C1612030067002F075FE2846C5
:103C10002149383004F094FC7D212846C900383011
:103C200004F0F6FC28461D49683004F089FC28465B
:103C30001B497C3004F084FC28461A49903004F07B
:103C40007FFC28461849CC3004F07AFC04F066FC6E
:103C50006063284615494C3001601549816015495B
:103C60000161154941601549154DC160A968884732
:103C7000E869804707F02EF8A674296E3046884719
:103C8000686B80470020F8BD0320F8BD0A20F8BD0E
:103C900004010020A00D00208D4800086952000892
:103CA00081510008E15100085548000859500008AA
:103CB000BD4A0008914F000845510008F14F000827
:103CC00078B50008F8B504461D4617460E460D485F
:103CD000FDF76CF839460B48FDF778F8F2B221464B
:103CE0000848FDF77BF80749C81FFD38FCF7C0FFFF
:103CF000054C601CFCF7CDFA2178000208432860CF
:103D0000F8BD0000CC0F0020C80E0020FFB585B024
:103D10000F46044607ADF02200211D480E9E06F016
:103D20004BFD1B4A1021204605F0EAFB1022002122
:103D3000684606F041FD01216846017006223946B9
:103D40006C46401C06F020FD02222946E01D06F0CC
:103D50001BFD0F4A6846089905F0A8FB10220021B8
:103D6000684606F029FD02216846017006223946A0
:103D7000601C06F009FD02222946E01D06F004FD44
:103D8000034A3146684605F091FB09B0F0BD0000DA
:103D9000D80E0020F8B517460E4605461C46F02200
:103DA00000210B4806F008FD094A1021384605F0AD
:103DB000A7FB074A2146284605F078FB102E06D3BC
:103DC00021462846024A1031103005F06FFBF8BD3D
:103DD000D80E0020F0B5044687B0022004900020E1
:103DE00006460190002C78D04248816BCA0701D169
:103DF000C80602D5012007B0F0BD00206946087250
:103E0000014614223C4806F0D7FC3B480121417092
:103E1000384841732278002A04D0012A0AD0032AA4
:103E200026D118E001736B461A7A0126D206D20E0B
:103E3000403207E0E27B02736B461A7A0126D20613
:103E4000D20E80321A7222790192A26800920E2557
:103E5000A78965570CE001736B461A7AE0231A4371
:103E60006B461A726268012600920A2527896557F7
:103E700001216A46117521490691097B91751D48FA
:103E800005A9007C02F011F8A84200D3054668B2EB
:103E9000002E1FD0174D2979002910D169460873CB
:103EA00006980422007B887303A9287C02F018FD81
:103EB000002812D011496846007B203948703B46E3
:103EC00002A8009A019904F0B7F90490002806D0DE
:103ED0000020687104988EE7FFE703208BE706480F
:103EE00021780170034801221A30017811430170D2
:103EF000F0E7000004010020980E0020880D00204B
:103F0000F8B500250446002818D0394927783748E5
:103F10000E463836027C3B0004F055FE1E12141784
:103F2000191B1E2023252729303B394246484A4C7D
:103F30004E50525654585A5C5E6062640320F8BD7D
:103F4000407C00E0C07820714DE00079FBE7C06C58
:103F500000E0006D606046E02648FBE72548103031
:103F6000F8E7807CEFE7C07CEDE7192012E02049FC
:103F70002039486C896CA160606034E01C492039AC
:103F800008467C30C96F40686160A0602BE0172054
:103F900000E0162069460870104601F086FFD9E758
:103FA000134820300078CEE7C868D3E70869D1E726
:103FB0004869CFE78869CDE7C869CBE77078C2E781
:103FC0004878C0E73078BEE70878BCE7806AC1E788
:103FD000C06ABFE7406ABDE74868BBE7087AB2E756
:103FE000486BB7E702252846F8BD00000401002011
:103FF000680D0020480A0020F0B5002489B007466B
:10400000002806D0934D288FC00704D0012009B0A6
:10401000F0BD0320FBE7914E3A7830462030029005
:10402000407B03908B488C49007C130004F0CBFD4F
:104030001E102124272A2D333C41F744819894A453
:10404000ABAEB1B4B7BAC9E5D6FAFDF7F4F3F2F7FF
:1040500038796874002804D0012804D0022802D1DD
:1040600002E0486B8047F3E00020687101F0B8F887
:10407000EEE03879E870EBE038792871E8E07868AC
:10408000E864E5E078682865E2E07968002972D0A4
:104090001022734805E079680029F8D07048102292
:1040A000103006F071FBD3E03879A874096E8847A8
:1040B000CEE03879E874CBE0397A6A461171039919
:1040C0005171062201A902F00BFC002853D063486D
:1040D000BA682038796882644164687C022827D1F4
:1040E000E878002824D05D4F0298F0370097082127
:1040F0004156327A7368287C01F0C1FE687D3870C1
:10410000706A786002983A46407B3874E87C78742C
:104110000120F874B8742C323946287C02F0A8FBD0
:1041200000287DD0B87CF16802F070FCF87CE87360
:104130008EE0397A6A46117103995171062201A9FC
:1041400002F0CEFB00286BD04448BB6820387A6868
:104150008021C2670B507BE079680691012102E063
:104160007968069100216A46117706A901F082FC60
:10417000002855D06CE053E03879411E0E294FD805
:104180000299087064E07868F06061E078683061F6
:104190005EE0786870615BE07868B06158E07868EC
:1041A000F06155E03A7969460A71052201A902F0E9
:1041B00097FB002834D06846017928483830417090
:1041C00046E039796A461171042201A902F088FBA0
:1041D000002825D068460079707039E03A79694640
:1041E0000A71082201A902F07BFB002818D068465A
:1041F00001791A48383001702AE039796A4611711C
:10420000072201A902F06CFB002809D0684600795A
:1042100030701DE018E011E00AE006E002E016E070
:10422000032415E07868A86212E07868E8620FE07D
:104230000A48796838304160716009E00748397987
:1042400038300172317203E07868706300E0022454
:104250002046DCE60401002078B50008680D002047
:10426000480A0020F0B50446022085B00090002CDA
:1042700036D04748008FC00718D10C22002145488E
:1042800006F09AFA434E01207070414D20780827BD
:104290001A35002806D001285DD0022866D00328F0
:1042A00050D16BE03A48018FC90602D5012005B014
:1042B000F0BD6168002913D0A168002910D0E16821
:1042C00000290DD0217C00290AD06A46117330489C
:1042D0001E2203A9007C02F003FB002802D00AE0A2
:1042E0000320E4E71F2168460174294804A9007CE3
:1042F00001F0DBFD20742878694638432870207867
:104300003070234E60683064A0687064E068B06408
:10431000207C707600203076087102F0EDFA307E55
:104320006946401C088102A9307C01F07FFB1A49D4
:10433000002348701A46194601A803F07DFF00903B
:10434000002806D01249002048712878F72108403B
:1043500028700098ABE7287800223843287020782E
:10436000307011460220FCF799FDE8E7307028789C
:1043700038432870A08804F015F8E0E730702878FA
:1043800038432870227BA088A16804F035F8D6E76E
:1043900004010020AC0E0020680D0020FEB508AF1F
:1043A00070CF6F4670C700F001F8FEBDFFB50D4637
:1043B000002681B01F460124F0223146294806F02C
:1043C000FBF9284A1021039805F09AF826480A9923
:1043D00041718771390AC171390C0172390E41720C
:1043E0000B9981720B991F4F090AC1720B99090C25
:1043F00001730B99090E4173203F18E01A48194ABE
:10440000C473641C1146A4B2203905F04FF8002093
:104410003118019A3B5C525C401C5A400C9B80B2A4
:104420005A541028F4D3103D1036ADB2F6B2102D08
:10443000E4D2002D13D00B4A0B481146C473203927
:1044400005F034F8002008E0019A3118525C3B5C1A
:104450005A400C9B401C5A5480B2A842F4D305B079
:10446000F0BD0000D80E002080010020F3B52B48DD
:1044700087B00E46427869460A710078284C087663
:10448000207A617A4018C5B2002E32D000216846E9
:10449000017221794172206B2049039038394A78A2
:1044A000684602741D4F09784174183F397B817446
:1044B00020463030009006AB01AA02A9207C01F012
:1044C000A6FA397B68468175017941750921017524
:1044D000E07C002802D00A206946087505A9207CE6
:1044E00001F0E3FCC0B27070A84205D3401B3070ED
:1044F00006E0032009B0F0BD30700025257265721A
:104500006846042141562A46079804F0DBFA002841
:1045100001D00020EEE70820ECE70000A00D00200D
:104520000401002038B504466846054D04700B228E
:104530006946287C02F0D4F9002800D02C7538BDDB
:104540000401002010B502790168407906F074FB7F
:1045500010BD000030B58FB004460D466846FCF72C
:1045600011FD022060710020287008A82168007DDC
:10457000087008A82168407D48700C98FCF706F97F
:104580002168887007490C98FBF7E6FEFCF7FEF8F7
:104590000A21FBF7C3FD2068C170042020710FB011
:1045A00030BD000000002041EFF3108172B6034AD5
:1045B0001368034381F3108813607047A40100203F
:1045C000EFF3108172B6034A1368834381F31088B6
:1045D00013607047A4010020014800687047000084
:1045E000A401002010B507480068002802D0FEF79B
:1045F00003FE10BDFEF706FEFEF726FEFFF704F9E8
:1046000010BD0000A4010020FF220132811A904257
:104610000CD009DC08280DD008DC012808D00228BD
:1046200006D0042802D105E00F22120207207047AD
:104630000520704706207047024908650120183997
:1046400048707047A8000020F0B5054640788BB050
:10465000002823D12878002801D0012802D128463B
:1046600006F0FCFA554C2278012A02D1A089401CA0
:10467000A081687B012811D1E978514EE0290FD043
:104680003046103041712A7B0271A968006806F03B
:104690007BF8F06801693046103088470BB0F0BDF8
:1046A000002001270221002A0BD0AA68127862702C
:1046B000130004F088FA08263236383A4E54710551
:1046C000ECE72A7B042AE9D1AA681378012BE5D10B
:1046D0005378012BE2D19378012BDFD1D278012AD4
:1046E000DCD1374AE023B070103253711171A081D0
:1046F000A073E073207427706770684601700771BB
:1047000008E0A0812070684601737068417A6846AD
:10471000017403A8FFF770FCC0E72948103001714D
:10472000BCE7B77048E0B07046E02548297B103000
:104730000171026804211170012106E0AA68036872
:10474000525C521C5A54491CC9B202798A42F5D8AB
:10475000A4E76846077606A8FFF784FD9EE7A081D8
:1047600005462070684601707068417A684601719C
:10477000FFF742FC68460576114803212030079078
:10478000083008900830099008A8017206A8FFF7C1
:1047900069FD0520307081E7287B03280CD168462D
:1047A0000176A868817842780802104341BA6846C9
:1047B000818306A8FFF756FD67706FE7200A002087
:1047C0009000002010B501780E4A0123002902D084
:1047D000012914D107E04078002801D013700EE0C1
:1047E000022010700BE04178002908D106490C78AE
:1047F000012C04D18B73047ACC73407A0874537003
:1048000010BD000090000020200A0020704700002A
:104810008307FF22DB0E9A408907090E9940002882
:104820000BDA0007000F0838830808489B001818A7
:10483000C36993430B43C3617047830804489B00DB
:104840001B181868904308431860704700ED00E09B
:1048500000E400E010B50B4803F024FF0A4841795A
:10486000002905D001218173816B0422914381636A
:10487000407C022805D1044810221A3001781143E7
:10488000017010BD6C0E002004010020F8B5002757
:10489000874803F007FF874D874C2878C10673D5FA
:1048A000A16B4A0604D54022914349084900A163FF
:1048B0007F490207D4310026002A01DBC20711D04C
:1048C0007B4AC0325378022B02D04B78022B09D19D
:1048D000A36B5B085B00A3632672637B5371167145
:1048E0000127966062793A43714F503F002A31D1D7
:1048F000020702D4C10703D12CE00A78002A06D0AF
:104900003978A27A91420ED9810712D41DE0227E15
:104910008A724978002903D0617E8A4210D214E05D
:10492000A662A6720CE0800703D42672206B401C9E
:104930002063A6726078002802D1A06A401CA062A1
:10494000A06B40084000A06304E0EF2108402870FD
:1049500000F08AFC2878800717D55548C0300179C7
:10496000012903D0617B227B91420ED9A673667127
:104970006178002902D1A16A491CA162617B417161
:10498000A06B40084000A0634FE0A07B00284CD003
:10499000208FC00649D4A673607B217B884231D228
:1049A00008282FD8401C6073C0070DD0202168460E
:1049B0000170397B3E4F8170703F79784170694654
:1049C000207C01F072FA787003F0B0FB002814D05C
:1049D00037480921C03041702672A16B490849004F
:1049E000A16366710671617B417131497039497803
:1049F00081706078002815D017E02878EF210840F2
:104A0000287012E00121207C01F059FAA06B4008C7
:104A10004000A063264826726671C0300671617B33
:104A20004171E6E7A06A401CA062A06B810702D535
:104A300002218843A06300280ED07D21C9001C48B4
:104A400003F0E6FD1A4803F0F5FD287880072ED51F
:104A5000607C02281DD01EE02878C00708D0E06DD9
:104A600001681348C0308847287840084000287003
:104A70002878000708D5E06D81680D48D430884754
:104A80002878F721084028702878EF2108402870FE
:104A9000DBE700F0A5FB2878400704D4E06D41680F
:104AA0000348A83088472878F92108402870F8BDC5
:104AB000D80D00201E01002004010020FFB506468D
:104AC000002097B00C4611900146099005460C90C5
:104AD000FE48079010300E90002013901290FC4872
:104AE00001711838C2811A9A0274FA4AD27B427450
:104AF000C170817041718160017341738174416142
:104B00000170F548406B8047F148683803F0CAFDF2
:104B10003078694608704109601E0290201FEF4FEF
:104B20001491109001291CD003297DD005297BD038
:104B300007297AD039460120F831487000F042FD4B
:104B4000E44810221A30017811430170E348012132
:104B5000503003F05DFDE148503003F06BFD1BB0B9
:104B6000F0BDDC48C178002903D0D94901201839AB
:104B70004EE1D8480299DA4D826C89B26B1C701CE8
:104B8000FFF708F9684600782870109809AB81B2E1
:104B9000D048826C2846FFF795F828192038417FC5
:104BA000027F09021143827FC07F12040A4300067C
:104BB00009991043884249D1C448C64E103000902C
:104BC000C24BF28B691CB06CFFF7A0F868792979A9
:104BD00000020843A97909040143F164287AE979BC
:104BE00000020843697A09040143A87A00060843D1
:104BF0003065E87A4106490F00077970000F387276
:104C0000287BB84D0007000F286101D101202861E1
:104C10007D21C9004843286140186861B0480D30C3
:104C200004906846113C01E015E096E1047504A982
:104C3000307C00F004FFA6490020143148700120A8
:104C4000F070A64818304078687079E7A0480721CE
:104C50001430417074E7797B684681739C489D4F9E
:104C6000183801796846417309210173F87C0028DE
:104C700002D00A206946087303A9387C01F015F9AF
:104C800021460D3909B2002900DA0021814200D9FC
:104C90006BE7B178707809020143F0788D4A00041F
:104CA00008433179090601430691126D05209142AE
:104CB000884917D04D6A0CE02A6806998A4207D1C4
:104CC00001211391291D079110310E916F6A0AE09D
:104CD000AD6A002DF0D10B217D481838417000F0ED
:104CE00071FC3CE7CF6A315C6A461170401C0B9145
:104CF000335C401C305C02020807000F08300A9049
:104D000030191A432038017F0C9B1943437F1B0243
:104D10000B43817FC07F09041943000608430C90B0
:104D2000D01B81B20122D20309A80D91914212D267
:104D30007F180197029001211098009181B23046AE
:104D4000069B079AFEF766FE09990C9888421AD1CD
:104D50000120129017E009B2012279181204891873
:104D600015910191029010980122009281B2304673
:104D7000069B079AFEF74EFE09990C98884202D1CD
:104D80000120159F1290112069460873514803A90C
:104D9000007C01F08AF80D99884205D84C480A2118
:104DA0001838417047619AE71298002877D0484830
:104DB000002118384170139A82700B9A444BD20626
:104DC000D20F42718160017347614248597001639B
:104DD0004172139800280CD018460221183801702F
:104DE000696AB94203D1002901D0082176E76F62D0
:104DF0001FE0149805280DD03648354900228271ED
:104E000018390A70C06AB84211D100280FD00820A2
:104E1000487064E72F482E4A01218171183A1170B9
:104E2000C06AB84203D1002801D00120119029485E
:104E3000C76227480078012802D10B98800602D566
:104E40002449002008720A98201A001F002852DD09
:104E50000A9D0A986D1C611B091F305CC9B20F9135
:104E60001B491839C87000280B9819D0000707D0C3
:104E70001A980821C3B2681EC2B2304600F0F8FB8F
:104E800001200090164C019702947019069B0E9A0F
:104E90000F99FFF783FA1198002825D04FE05AE0C8
:104EA000000702D00120119049E00D480121029035
:104EB000019700917019069B079A0F99FFF76EFAF8
:104EC0001A980021C3B206480F9A1CE0480A002035
:104ED000980E00200401002078B50008880D0020FD
:104EE000670B0020680D0020264884600F9901732D
:104EF000012141730CE00B98000706D01A98082195
:104F0000C3B230460A9A00F0B3FB1198002816D1BC
:104F10000B98800606D51B490120183108711839F5
:104F2000887408E017490020183108711648417B41
:104F3000007B814203D91348143803F0B3FB1249B4
:104F400002221A3108781043FB221040119A920075
:104F500010430870F4E50C21BEE6711C22460B4894
:104F600005F012FC07480321017000214170074938
:104F7000816002990173044802211A3002780A43C1
:104F80000270DDE5800E002004010020670B002088
:104F900070B5144C607C022803D01348406B8047E6
:104FA00001E000F01DF911480E4DE27B01461A3573
:104FB000102614316379002A05D00622002B00D078
:104FC00042704A700AE00522002B00D042704A70FD
:104FD000606D03F0A9FAA16E884202D328783043AD
:104FE000287070BD0401002078B50008980E0020DC
:104FF00070B5164C607C022803D01548406B804782
:1050000001E000F0EDF81348104DE27B01461A353F
:10501000102614316379002A08D00422002B00D016
:1050200042704A70607C02280BD170BD0322002BB5
:1050300000D042704A70606D03F076FAA16E88422B
:10504000F3D328783043287070BD0000040100209D
:1050500078B50008980E0020FEB503F05FFA364CD4
:105060000646607C022803D03448406B804701E04C
:1050700000F0B6F8304DA0781A35002700282AD065
:105080002F48616E03F0C4FA2D4803F0D3FA607C18
:1050900002280ED02A48A16E143003F0B9FA28482D
:1050A000143003F0C7FA607C022802D0607900282F
:1050B00020D012206946087202A9207C00F0F5FE7B
:1050C000A16E41181E48503003F0A2FA1C4850301F
:1050D00003F0B0FA0EE01A4804217C304770143017
:1050E00041702878002801D101202870C0B2102119
:1050F000084328702878000704D5114890300078BC
:10510000002815D0E775607DA07569460870E078C5
:1051100048700196207C01F0BFFB6665607900282D
:1051200005D107487C304770A07A401CA072FEBDB4
:105130000120E075E7E700000401002078B50008D1
:105140001C0E002010B50B48407C022803D00A48F2
:10515000406B804701E000F043F8084902204870A6
:1051600014314870034810221A300178114301703D
:1051700010BD00000401002078B50008980E002042
:1051800070B5144803F08EFA134C0021114DE173F1
:10519000607D283528702846BC384278EA70407B0C
:1051A0002874E07C6874A974E974607C022802D1D8
:1051B0000A48806B8047074A207C68321146403994
:1051C00001F056FB0348B438C168A87C01F01EFC0E
:1051D00070BD00001C0E00200401002078B50008FE
:1051E00070B5144803F05EFA124D134C2835607DFB
:1051F0002E462870F03E706A68602846D038407BA2
:105200002874E07C68740120E874617C022900D075
:105210000020084AA874543211462C39207C01F031
:1052200027FB002805D0A87CF16801F0EFFBE87CA3
:10523000E07370BD300E0020040100203EB5012453
:1052400068460470FEF75CFE002805D168460179C7
:105250000448012901D004703EBD0321017044704F
:105260003EBD0000900000201FB5194803F01AFA57
:10527000184C1021A06B8843A06320461A30007898
:10528000000721D51248A430007800281CD101F075
:1052900033FB207E6946401C888103A9207C00F0F6
:1052A000C5FB0B49A0394870002069460871217977
:1052B0000246C9010A4369460A7203460246009043
:1052C00002A901A800F03EF802F030FF1FBD000067
:1052D000080E00200401002010B5034803F0E2F995
:1052E000FFF7ACFF10BD0000F4090020F0B5064642
:1052F00000242046002E01D0002A1ED10020F0BD3F
:10530000355DAF1E3B0003F05EFC09161416061255
:10531000140E16061600641C1554E4B2401CC0B2EC
:10532000335D135400E01554401CC0B203E0A41CCC
:1053300000E0641CE4B2641CE4B28C42E0D3F0BD33
:1053400070470000F0B50C4687B0844600219848AD
:105350000C9D069181831E1E1746417100D10025C8
:10536000EAB202706146934D0978297001210091DB
:1053700061460978490908D002293FD004293BD069
:1053800007297DD0022007B0F0BD00990446818333
:10539000681C0822616C05F002FAA08B0822083014
:1053A00080B2A0832818216C05F0F9F9A08B083091
:1053B000A0838148C06980470146E083A08B06AB8B
:1053C0002954401C80B2090A2954401CA083C1B250
:1053D0007848A26CFEF776FCA08B06992954401CF5
:1053E00080B20A0A2A54401C80B20A0C2A54401C7B
:1053F00080B2090E2954D7E001214171C1780029FA
:1054000069D0012269460A7321786948CA09694648
:105410004A736A4A006B0490507808751078487592
:1054200010462030007B887561481346303000906C
:10543000303803A9007C521C00F0E9FA8101207881
:10544000BF22104008435A4920708979002905D0AD
:10545000574A002191712021084320705448016D62
:1054600054480A0A417082700A0CC270090E017118
:10547000217841714E49098D8171090AC17100E09D
:1054800088E04B49FF30097AFF3040184849082529
:105490004A7A4A49823905F077F94548017A407AD3
:1054A0000818C1B24248002E01721FD00278002AAB
:1054B0001CD0C279002A22D00F291DD820783D4A5D
:1054C000030940181B010007000F034323705371A9
:1054D00000203B4C07E0072055E7235C53556D1C2B
:1054E000401CEDB280B28842F7D308E03048002972
:1054F00005D0C279002A02D0314E017000272C4C11
:1055000000202F4AE07180322D48FFF7EFFE6072D5
:10551000002801D00120E071002E14D0217800294C
:1055200011D0244847556D1CEDB2002F27D0A36A37
:10553000002240190092019302901E4A236D103AF6
:105540003046FEF733FF207806AB2918A1830020F0
:105550006E46A26A0DC6174A1648203A236DFEF71A
:1055600059FA144AA18B06985054030A52185370E2
:10557000030C000E9370D070091DA18316E0002269
:105580002272A36A401900920A4A01930290203ABB
:10559000236DD5E7002B09D00446002A06D0681CED
:1055A000314605F0F1F82078401CA0830020EAE69F
:1055B00004010020680A002078B50008680D00206A
:1055C000660C002010B50C484022816B11438163AA
:1055D0004079002801D0FFF73DF9074912221A311E
:1055E0000878104308700121044803F011F80348BB
:1055F00003F020F810BD000004010020D80D0020A9
:1056000030B419480178012908D018481749C068F2
:10561000891CC268084630BC0E3010471349847B91
:10562000103101230A68012C07D04478012C11D0D5
:10563000042C00D1437030BC7047002484730324D1
:105640000C71052414700C68C27B62700968027CBE
:105650008A70EFE702230B7183891B0A13700968B4
:10566000007B4870E7E70000200A0020900000203F
:10567000FFB505468BB0A84816460C46099024E1B4
:10568000285D641C801EE4B2030003F09CFA090646
:10569000115E6AA1AED6EFEDEC00A0490020487083
:1056A000285D0872641CE0B22A5C4A72401C4AE021
:1056B00000206946087708A90870694608720873CF
:1056C0002819401E0490301B401C08759448924FC6
:1056D00002798A750999203F0A7B69464A757A786A
:1056E000CA753A780A76099908AB0A7869464A7603
:1056F00003AA02A90192009107AA04A9007C01F063
:105700008EF80090C043400709D16846007F78704A
:1057100008A8007838706846017A09980170002757
:1057200006E0002203200099FBF7B8FB7F1CFFB2C4
:1057300068460521007BFAF7DBFCB842F1D86846E1
:10574000007B2018401EC4B2BFE0285D7449641C71
:105750000122C87282400A840022E4B21146042069
:10576000B1E0285D4006410F68464170285D641C29
:105770000107090F68460170E0B2295C401CC0B205
:1057800001912A5C401C12021143C0B201912A5CB3
:10579000401C12041143C4B20846642148430190DE
:1057A0005F486946007C01F06EF80146C843400737
:1057B0000BD168460278099802725748019A20383E
:1057C00042626846427809984270002205207AE0D9
:1057D0005348FF21006E002804D00068002801D043
:1057E0008047014606200E9A6DE0285D69460874E0
:1057F000641CE0B20391295C401CC0B200912A5C99
:10580000401C12021143C0B200912A5C401C1204D9
:10581000114364225143009100210191C0B22A5CDE
:10582000401C6946C4B20A723D4803A9007C01F0DD
:1058300007F800220146072045E0285D641C0007A8
:10584000000FE4B2002800D101207D21C9004843A7
:1058500031497D222039D200086180180022486138
:10586000114608202FE033E034E0FFE7285D0021F7
:105870006A46641C11705170E4B2810601D50121A1
:105880005170C10601D5012111700007000F907001
:1058900023481146007C01F01AF8401C15D06846D8
:1058A0000178099801736846417809984173684600
:1058B00080781C49085CFAF740FF1749002220391C
:1058C000086311460920FBF7E9FAB44200D2D7E693
:1058D0000FB0F0BD285D69460870641CE0B2295C19
:1058E000401CC0B201912A5C401C12021143C0B29C
:1058F00001912A5C401C12041143C4B20846642181
:105900004843019006486946007C00F0C5FA002231
:1059100001460A20D7E70000880D0020AC0E0020C9
:105920000401002084B9000870B517490023CA6833
:105930001206120F18D18A6B154CD500134A02D5E6
:105940001268224009E08E6B01252D072E438E63DD
:1059500012688E6B2240AE438E63A24204D10321B3
:105960008903884200D101230A4801684908490097
:10597000194301600068C007C00F984201D00120A0
:1059800070BD002070BD000000100240007000409B
:10599000001800000020024010B5024805F0CCFBC2
:1059A00010BD0000C407002001090A22000751436E
:1059B000000F4018C0B27047002102E00A38C0B2A0
:1059C000491C0A28FAD20907090E0843704770B526
:1059D00004460068C168490613D40021C943C16068
:1059E000FCF77CF87D260546F60006E0FCF776F825
:1059F000401BB04201D9032070BD2068C06840063A
:105A0000F4D5002070BD10B5FDF7CCFD10BD70B50C
:105A10001C46049B15460E46062801D0002070BD8A
:105A200022462946304600F057FA70BD10B50628C8
:105A300001D0002010BD084600F08AFA10BD10B554
:105A4000062802D1084600F0A3FA10BD70B514462E
:105A50000D46062801D0D0B270BD1A462146284610
:105A600000F0D0FA70BD10B5062802D1084600F04B
:105A7000D1FA10BD10B5062801D0002010BD08468F
:105A800000F0E4FA10BD30B502460168C07A0C237C
:105A900058430930095C50680B01C45A00250C3387
:105AA000C550507A002809D0907A012805D1106994
:105AB00001466143081A5168C85030BDD06800F0F3
:105AC000F7F8844200D92046917A002902D1117A50
:105AD000002903D011694843401AECE75068C550CB
