:020000040800F2
:10000000D0150020D5000008615900081D480008DF
:1000100000000000000000000000000000000000E0
:10002000000000000000000000000000637E0008E7
:100030000000000000000000F1640008D59A0008EC
:10004000E7000008E70000083F6B0008E700000831
:10005000E700000803180008131800082518000816
:10006000E7000008E7000008E70000086D15000839
:10007000E7000008E7000008E7000008E7000008C4
:10008000E7000008E7000008E700000800000000A3
:10009000E7000008E7000008E7000008E7000008A4
:1000A000E7000008E7000008E7000008E700000894
:1000B000E7000008D96A000800000000E700000817
:1000C0000348854600F056FD0048004789C00008F7
:1000D000D01500200448804704480047FEE7FEE7AB
:1000E000FEE7FEE7FEE7FEE7699B0008C1000008A7
:1000F00030B50B46014600202022012409E00D46C0
:10010000D5409D4205D31D469540491B2546954047
:1001100040191546521E002DF1DC30BD70B500248B
:100120002546002801DA01244042002901DA012590
:100130004942FFF7DDFFAC4200D04042002C00D026
:10014000494270BDF0B51FB40646002082B0054696
:100150004024019100901BE0019922460F46304651
:1001600000F0D2FB049A059B801A994110D31046E7
:100170001946224600F0B8FB361A8F4101972246F5
:1001800001200021009F00F0AFFB38184D41009086
:100190002046641E0028DFDC019B00982946324679
:1001A00007B0F0BDF0B51FB486B0002000900190FC
:1001B00002900698069980B204900798090C0204F0
:1001C0000014114307900027089D099806913E46A8
:1001D0003C4603900398A9B20204000C03900498D3
:1001E0002D0C154348430021224600F07DFBC71922
:1001F000714110340E46402CECDB3846029A00F078
:1002000073FB009A019B801800905941029801915C
:10021000103002904028CCDB00980BB0F0BD0346B4
:100220000B439B0703D009E008C9121F08C0042A2A
:10023000FAD203E00B780370401C491C521EF9D21D
:100240007047D2B201E00270401C491EFBD27047D9
:100250000022F6E710B513460A4604461946FFF792
:10026000F0FF204610BD421C0178401C0029FBD144
:10027000801A704710B5002200E0521C835C8C5C31
:10028000A34201D1002BF8D1D8B2E1B2401A10BD7F
:1002900030B505460020034600E05B1C934205D2C2
:1002A000EC5CC85C201A01D1002CF6D130BD0321D2
:1002B000001D401E037812021A43491EF9D510464C
:1002C0007047F8B502464A40D40F42004B0052082E
:1002D0005B089A4202D20246084611464A0023D0E1
:1002E000C30D4A00DDB2120EAD1A202D35DA4902D7
:1002F0000126490AF6058A19002C00D05242202115
:100300004F1B1146B9402A411018C20D9A4221D004
:10031000002C17D0012D08DCDA05801AD20F8019C5
:10032000D207DBB200F01CFBF8BDDA05801A01230E
:1003300040001B06C01880185A428018CA0F10438C
:10034000490007E04908C2071143DA05801A8019FD
:100350004008801800F0FCFAF8BD61000122511A33
:10036000001BF7E70122D2075140AAE70122D2077A
:100370005040A6E7024670B54A40D30FDB07400065
:100380002DD04A002AD0010E140E000212020919C3
:10039000400A520A8418E50104465443000A120A2E
:1003A0002E045043A4194219200CC543AA18120C5C
:1003B0000125AD03521C521912047F39240400D0C8
:1003C000521C104301D44000491EC2B20C06C009A1
:1003D0002018401C4008802A02D003E0002070BD95
:1003E00040084000002900DA0020184370BD0000DA
:1003F000F0B507460846584087B0C00F0490480043
:100400000E46590040084908BC1A884105D23846B2
:1004100031461E4617460B46024658004008104318
:100420004CD0300D039040055900400D490D05900A
:10043000401A0290402872DA18030121000B0905C6
:100440000843019004980092002805D00199524277
:100450000020884100920190029840210A1A0199D7
:10046000009800F041FA05460C466B4607CB00F0B9
:100470005CFAC0197141039A0E0D0023D71756403C
:100480001A467A40164344D0049A002A2DD0029A84
:10049000012A039A15DC1205C01A9141012636057E
:1004A000001C7141D20F059ED20700930192029663
:1004B0002A46234600F09AFA07B0F0BD3846314686
:1004C000FAE71605224A0F46B218C01AB7410121B1
:1004D0000905001C4F4100187F4111461818794149
:1004E000E20F10436D19644113E0E2076D081543F4
:1004F0006408C2071443039A01261205C01A9141E9
:100500003605001C7141CE07400830434908C01829
:1005100051412A46234600F05CFACDE7FFE70498F4
:1005200001224000C117121A00238B410498314662
:10053000C417381AA141EEE730B40124E407634040
:1005400030BC55E730B40124E407614030BC4FE7CC
:100550000000E0FFF0B51FB488B00B9909980024A3
:1005600048400999C00F490049080991C0070B99F3
:100570000090490049080B9109990898A64608433C
:100580001CD00B990A98084318D009980124400000
:10059000420D4800410D099824050003000B20433B
:1005A00009900B980003000B20430B9050181C4936
:1005B0004018002201901446104605E00020014634
:1005C0000DB0F0BD032801DA034600E003239C468A
:1005D000C11A0AAE0AE05F0008ADED5B4F00F75BA1
:1005E0007D430027AA187C41491C5B1E6145F2DD52
:1005F000410004AB5A522104120C0A43240C401C43
:100600000828DFDB01980290009970460191009064
:10061000059B049A0799069800F0E8F9D0E70000D6
:100620000DFCFFFFF0B50C465C4085B0E40FE4071D
:1006300003944C0000266408590094464908024679
:100640000296224321D062460A431ED06200570D13
:100650004A000E032303550D012402462C492405AC
:10066000781B1B0B360B4018234326436146009032
:100670001C46501AB44103D30098401C009002E07D
:10068000921800985B41002803DA0020014605B06B
:10069000F0BD0020012109050746864611E06446A9
:1006A0001D46141BB54106D36546521BB341744623
:1006B00007430C43A646CD07400849082843921833
:1006C0005B4105460D43EAD11046184313D06046FE
:1006D000194650407140084306D06046101AB34195
:1006E00006D20122002306E000220123DB0702E0FC
:1006F0000122D2435310009874460105381C614111
:10070000029C039D0019694100F063F9BFE70000F6
:10071000FD03000070B54B005B0803430BD04B009A
:100720005C0D002633466542B341D417AD1AA34190
:1007300002DB0020014670BD12053018514170BD2A
:10074000C217C10F504010B54018CA0796230021A8
:1007500000F006F910BD10B500229623114600F0F6
:10076000FFF810BD0EB5C217C10F5040CA074018A0
:100770000021054B0293019200910A460B4600F0BE
:1007800035F903B000BD0000330400000EB5054983
:100790000291002100910A460B46019100F026F9D2
:1007A00003B000BD33040000C20F4100400201232A
:1007B000400ADB05D207090EC0187F2901DA0020A4
:1007C0007047962903DC9623591AC84001E09639F0
:1007D0008840002AF4D040427047000070B5CD0F29
:1007E0004A0009030123090B1B0519430B4BED07B5
:1007F0000024520D9A4201DA002070BD074B3433B9
:100800009A4203DC9A1A00F07FF802E0044951187A
:1008100088402C43F1D0404270BD0000FF0300002F
:10082000CDFBFFFF4A0009030123090B1B051943F8
:10083000094B10B5520D9A4201DA002010BD064B4B
:1008400034339A4203DC9A1A00F05EF810BD034973
:100850005118884010BD0000FF030000CDFBFFFFD2
:10086000C20FD207400040080BD0C10D0723DB01A7
:10087000C91840020905400A1143C2084007114344
:10088000704700200146704710B5002904DB0124A1
:10089000E40740428C412146002B04DB1C46012327
:1008A000DB075242A341994200D1904210BD0000A3
:1008B000CB0FDB07490010B5490802460A4307D0B1
:1008C0000A0D07240903E401090B121B002A01DCAD
:1008D000002010BDC900440F0C43C100E018D20530
:1008E000801800F035F810BD10B5202A04DB014651
:1008F000203A9140002010BD914020239C1A0346CD
:10090000E3401943904010BD10B5202A04DB08468F
:10091000203AD040002110BD0B46D340D0402024C7
:10092000A21A91400843194610BD10B5202A06DBD3
:10093000CB170846203A1041C1170B4306E00B467F
:100940001341D0402024A21A91400843194610BDFB
:10095000002904DA401C490001D1400840007047DA
:1009600070B40024050C05D11024000402D1002924
:1009700021D01124050E01D100020834050F01D148
:100980000001241D850F01D18000A41C002801DB7B
:100990004000641C002908D020252E1B0D46F54080
:1009A000A14000D001212943084301061B1B000A76
:1009B000DB1D02D5002070BC7047DB0518188018BD
:1009C0000029F8DA401C4900F5D170BC400840000D
:1009D000704710B5002B08DA0024401C61419218C2
:1009E0005B411A4301D14008400010BDF0B51FB46F
:1009F00082B005460C0003D0084609F055FD02E020
:100A000009F052FD20300246009021462846FFF7AB
:100A10006BFF049B059A04460F4618431143084395
:100A200014D0184610431BD0009840210A1A1846CB
:100A30000599FFF769FF05460E46009A0599049847
:100A4000FFF752FF084305D0012004E02046394655
:100A500007B0F0BD0020C11705430E432C433743B8
:100A600000990E986305401A7905E40A00220C43A8
:100A7000FD0A0A3002D500200146E9E701051019F8
:100A800069410C9C0D9D00196941FFF7A2FFDFE74A
:100A9000F8B50546480040080C46284304D06000DD
:100AA000184A400D904201DD2846F8BD15493539F8
:100AB000884210DC88420BDB290D20030843290300
:100AC000014305D0E00F1049C00741180020F8BDD0
:100AD00000200146F8BD161A4020821B28462146F8
:100AE000FFF702FF07460091284621463246FFF7EE
:100AF0000BFF3A46009BFFF76CFF3246FFF7F4FE10
:100B0000F8BD0000330400000000F03F4A00090374
:100B10000123090B1B0519430A4B10B5520D9A42CC
:100B200002DA0020014610BD064B34339A4203DC42
:100B30009A1AFFF7E9FE10BD034BD218FFF7D4FE57
:100B400010BD0000FF030000CDFBFFFF10B5002922
:100B500004DB0124E40740428C412146002B04DBE6
:100B60001C460123DB075242A3418B4200D1824243
:100B700010BD0000064C0125064E05E0E36807CCD9
:100B80002B430C3C98471034B442F7D3FFF79CFA40
:100B9000C0E20008E0E2000870B58C180578401C3F
:100BA0006B075B0F01D10378401C2A1106D1027834
:100BB000401C03E006780E70401C491C5B1EF9D1F6
:100BC0002B0705D40023521E0DD40B70491CFAE7E5
:100BD0000378401CCB1A921C03E01D780D70491C51
:100BE0005B1C521EF9D5A142D8D3002070BD000075
:100BF00038B50446064805490068FFF779FA6043AE
:100C000000E0401E00900028FBD138BD40420F009C
:100C100044000020F8B50446006881688907890F00
:100C2000012902D10168C90722D18168114A102621
:100C30001140012500290ED18168294381600120DE
:100C4000FFF7D6FF01F074FD07460CE001F070FDE0
:100C5000C01B0A2807D9A06D3043A065E06D28436A
:100C6000E0650120F8BD20680068C043C007EDD1F1
:100C70000020F8BD17000080F0B589B00C4607468B
:100C80001022002168460BF035FA694622460846D4
:100C90000AF0B7F8684600788726010668460029FA
:100CA0000FDA00214318425C5B785200DB091A43DB
:100CB0004254491C0F29F5DBC17B024649007140B3
:100CC0000DE000214318425C5B785200DB091A43B7
:100CD0004254491C0F29F5DBC17B02464900D17300
:100CE000E21DF9325169102912D0017809061BD58D
:100CF00000214518435C6D785B00ED092B4343549C
:100D0000491C0F29F5DBC17B03464900714019E0FE
:100D100000216218FF3201325378455C491C6B4058
:100D200053701029F5DB26E000214518435C6D78EF
:100D30005B00ED092B434354491C0F29F5DBC17BB4
:100D400003464900D973E11D55698023FA316B547C
:100D5000002500E05D5453695B1C5361102BF9D3EF
:100D600000216218FF3201325378455C491C6B4008
:100D700053701029F5DB002162181046FF32E03075
:100D80000132437C5278491C534043741029F3DBF1
:100D900021461022F13104A80BF094F9224639467D
:100DA00004A80AF02EF81022002168460BF0A2F9E0
:100DB00009B0F0BD10B5044610220021F1300BF04F
:100DC00099F9FF20002115300151F02220460BF047
:100DD00091F910BD0B4610B50246102118460AF0D5
:100DE0003BF810BDF0B50446FF308BB00F46013024
:100DF0000890E11D4069FA310091103915460791BC
:100E0000002843D010210E1AAE4200D31646009996
:100E1000B2B2401839460BF055F908980899406964
:100E20008019486110283AD3B54238D000216218A1
:100E30001046FF32E0300132437C5278491C534067
:100E400043741029F3DB07992246084609F0D9FFBD
:100E5000BF19AD1B1AE000202118E0314A7C3B5C31
:100E6000401C5A404A741028F6DB102202A8079949
:100E70000BF028F902A92246084609F0C2FF102209
:100E800002A907980BF01EF9103D1037102DE2D87B
:100E9000AAB2394600980BF015F9089845610BB0D5
:100EA000F0BD0000F7B523498022497A214B511A41
:100EB000CDB2197A5B7A8026F31A0A46DEB2871E13
:100EC000491C0124C9B2761E3B0009F01CFB09062F
:100ED0000C060C120C06062B3000164BAA4224D22C
:100EE000154CA05403E0134BB24215DB1DE0197200
:100EF0000DE0104EAD1EAA4217DA0F4B9854019820
:100F00005854491CC8B202991954401C307200242C
:100F100008480121C17108E0074CA05401986054B1
:100F2000491CE4E7034BAA42F6D32046FEBD02204B
:100F3000FEBD000038010020CE0B002010B586B0A9
:100F400014216846FFF784F90D48C26A01210A435B
:100F5000C262C06A0B4C084005901020009000202F
:100F600002900320019103906946204601F012FB94
:100F700001221021204601F0D4FB06B010BD000074
:100F8000001002400004005010B5FFF7D7FF00F03A
:100F900097FD00F0BDFD0BF0DDFA10BD70B5194EE8
:100FA000044600222021304601F0BBFB00F0F2FA9B
:100FB000606000221021304601F0B3FB012003F0F5
:100FC00055F8114D288001221021304601F0A9FB6F
:100FD00003F00CF928880D49098848430C49FFF7AC
:100FE0009DF8FFF7ADFBA060012105200903000774
:100FF00001F092FB206001222021304601F091FB9C
:1010000070BD0000000400504C000020540000207F
:10101000FF0F000001780448024A4368D1540121BF
:101020000170704747070020AC00002010B503484E
:101030000BF000FE02490020087010BD15100008DA
:10104000AC00002010B51248017801290ED1002112
:101050000170104B42689C5C012C08D00D2C09D00B
:101060000A2C07D07F2A0DD0521C426010BD41606F
:10107000062009E0002AF9D09954416005480BF098
:1010800057F910BD416004200AF03CFE10BD00007D
:10109000AC000020470700203EB50D4C6946E278C1
:1010A0000A70227D8A70C870606B08F08DFD019017
:1010B000E06B0290E07D69464870207C05F06EFE92
:1010C000218CE06B4143081AA16D4018A0653EBD1C
:1010D00038010020FFB5044689B000200390089035
:1010E000069021891646002915D001906269049264
:1010F0002069002A04D000290FD00A4692B2039238
:10110000002900D00E46E168884215D3039A616831
:101110008018081A11E00220E7E722686568135C6E
:10112000471CAF4202D3451B6D1C00E03D46525D9B
:101130001202921C9A18E1E7002001997518079590
:101140000C994D43854201D2002102E00799FEF738
:10115000CFFFC8B20199884208D9217FCA0700D1C0
:1011600006980690880701D5019800E00698002EA1
:101170006AD00499491908186168884264D8002720
:1011800098E0039808186168884200D3401A2061EB
:101190002189002911D121680E546168401C8142C7
:1011A00000D8401A2268310A11546168401C8142FB
:1011B00000D8401A6169891C616161680D1AB542E5
:1011C00000D33546B5420DD0B54202D2217F002969
:1011D00008D0002D6AD0217FCA0730D0218900298C
:1011E00013D019E039460A9A7143891822681018F9
:1011F0002A46FFF714F8606940196061079908955D
:10120000002089B2751B039140E02368FF22811EF4
:101210005A542168401E0A546069401960610020D8
:1012200008902189354600292AD120680570216857
:10123000280A487061690220891C616120E08907E1
:101240001ED52189002902D000200DB0F0BD2168F3
:10125000821E8D542268290A431ED15439460A9AA7
:1012600071438918226810182A46FEF7D8FF606972
:10127000401960610895A069751B401CA061D4E706
:101280000199691889B2039100212161002D0DD0C7
:10129000089A0A993B46891822687343101859180E
:1012A0002A46FEF7BCFF606940196061A069401CD6
:1012B0007F1CA0610C982169874200D261E70198E8
:1012C00008186168884200D3401A21684018BCE7BA
:1012D00010B5029C01600021C16001614161426062
:1012E000816103810477A00703D5002B01D0481E3C
:1012F00010BD002010BD0000F0B503890022002BB6
:1013000009D0002300240C804469002C58D00289A5
:10131000002A02D00DE00223F4E7C26804684668A0
:10132000A55C571CB74200D3921B521CA25C120250
:10133000AA1894B20C80027FD50729D0920727D42F
:10134000204A944202D10289002A0AD0C468026964
:1013500094421DD90289002A1AD045682C1B944258
:1013600016D24468C2684569A21AAA1A42610022CC
:10137000C2600289002A0AD10268012C157802D8BD
:101380006442641C00E00124125D1202AA180A8063
:10139000C5684468EA18A24200D3121B06680F8889
:1013A00092194669FF18F61B466106D0098869182C
:1013B000C918A14200D3091BC1608169491E81611E
:1013C0001046F0BDFFFF0000F0B503890022002B9E
:1013D0000AD0002700230B804369002B42D00389E9
:1013E000C268002B02D00DE00227F3E705684468CD
:1013F000531CAE5CA342134600D31B1B5B1CEB5C6F
:101400001B02F3189CB20C80037FDD0723D09B07DF
:1014100021D4154B9C4202D10389002B0AD0C46809
:1014200003699C4217D90389002B14D045682C1BF3
:101430009C4210D200221B041B0C0BD14368046891
:10144000012B02D85B425B1C00E00123E35C2478A3
:101450001B021B190B80D1194268914200D3891AD3
:1014600000680A181046F0BDFFFF0000FFB500201D
:1014700085B0009005460646019000247700079845
:101480000121C05BA14008422FD028190C220390F3
:101490005043089A1258002A27D0059A002A01D1F1
:1014A000490722D0089941180820029108560211D4
:1014B00000070117069840B205F07FFE002814D0FF
:1014C0000298407A01010E980818C068002804D0DC
:1014D0000198401CC0B2019007E0009A0F99039850
:1014E00088540098401CC0B20090641CE4B2102CD8
:1014F000C5D31035761CEDB2F6B2102DBDD31099C0
:1015000001980870009809B0F0BD000030B587B0B0
:1015100014216846FEF79CFE0320019000200290F3
:1015200003204003104C0090E06A01210843E06270
:10153000E06A0840059005206946000701F02AF896
:10154000E06A40084000E062606B0125AD05284379
:10155000606300F039FD00F047FD00F03DFD606B79
:10156000A843606307B030BD0010024010B50BF017
:1015700003FB10BD10B5046863608368102B03681B
:1015800003D099600068C26010BD9A600068C160B5
:1015900010BD000070B500F0E9F8442000F0F0F84C
:1015A0001C4D284600F05FFF00F0E0F8BE2000F080
:1015B000E7F800F0B3F8044600F0B0F8052813D1BE
:1015C000502C11D100F0D2F8442000F0D9F8284670
:1015D00000F049FF00F0CAF8BE2000F0D1F800F09A
:1015E0009DF8044600F09AF8000200B2204308D5A6
:1015F000C043401CFFF7B6F80022074BFEF7AAFFD6
:1016000005E0FFF7AFF80322D243FFF783F8FFF7B7
:101610004FF970BDEE0200000000B0BF00B50A48EF
:1016200087B0C26A02210A43C262C06A08400590BC
:101630000820009000200190012002906946034894
:1016400000F0A8FF07B000BD0010024000040050E9
:1016500000B50A4887B0C26A02210A43C262C06A62
:1016600003910840059008200090012001906946F0
:10167000034800F08FFF07B000BD000000100240DB
:101680000004005070B50024FFF7C8FF134D04E0BC
:10169000641CE4B2012000F0A5F80821284601F0FE
:1016A0003BF8002802D0642CF2D310E0642C0ED258
:1016B000002404E0641CE4B2012000F093F8082147
:1016C000284601F029F8002803D0F02C04D301208B
:1016D00070BDF02CEED3FAE7002070BD000400507E
:1016E00010B5FFF7B5FF0C4C00220821204601F091
:1016F00018F80A2000F076F8FFF790FF082120463E
:1017000001F00AF8012805D000222D2000F06AF827
:10171000104610BD0122F8E70004005070B5002506
:101720002C46FFF7DDFFA0402843641CE4B2C5B29D
:10173000082CF6D3284670BD10B5FFF789FF094C79
:1017400000220821204600F0ECFF074800F04AF88C
:1017500001220821204600F0E4FF0F2000F042F8AB
:1017600010BD000000040050EE02000010B5FFF7AD
:10177000E3FFFFF787FFCC2000F002F810BD000068
:1017800070B50546FFF764FF154E0024E807C00F4B
:101790006D0800280ED000220821304600F0C1FF5D
:1017A000082000F01FF801220821304600F0B9FFA0
:1017B0003A200DE000220821304600F0B2FF46201A
:1017C00000F010F801220821304600F0AAFF0220A4
:1017D00000F008F8641CE4B2082CD7D370BD0000F8
:1017E0000004005006E00021491CC9B20429FBD3C3
:1017F000401E80B20028F6D1704710B502F096FD69
:1018000010BD10B5012000F0B9FE022000F0B6FEB8
:1018100010BD10B5042000F0B1FE082000F0AEFEAF
:1018200010BD000010B5102000F0A8FE202000F030
:10183000A5FE402000F0A2FE802000F09FFEFF20C9
:10184000013000F09BFE0120400200F097FE0120D5
:10185000800200F093FE0120C00200F08FFE012004
:10186000000300F08BFE0120400300F087FE0849D2
:101870004869400406D5074A01201060800348618A
:1018800000F078FE0120C00300F078FE10BD0000DB
:10189000000401405C000020FEE7000010B508498C
:1018A00000224A6107494B684C1523434B604B6843
:1018B000082423434B60C009C001026010BD000032
:1018C0008C0300200020024010B5214A00219069BD
:1018D000C305204804D5416902231943416191158C
:1018E00093699B0505D54369012423434361630242
:1018F000194393695B0505D5436908242343436174
:10190000E301194393691B0505D543690424234367
:1019100043616302194393699B0405D5436910240D
:10192000234343616302194393699B0304D54469CC
:1019300020231C43446119439369DB0305D54369A4
:10194000402423434361A0020143916110BD000084
:10195000002002408C03002070B5054600F0E8FE30
:101960000646184C0AE0681C08D0002D04D000F090
:10197000DFFE801BA84201D9032070BDA069C0070B
:10198000F1D1A069800701D50220A061A069C0053E
:1019900011D4A06980050ED4A06940050BD4A069BC
:1019A000000508D4A069800405D4A069800302D48E
:1019B000A069C00303D5FFF787FF012070BD002099
:1019C00070BD00000020024010B5044600F0B4FDD8
:1019D0000849002011C1012008600749054800F0AE
:1019E00047FD002803D005A008F0EEF9FBE700F062
:1019F0007BFD10BD80030020200000206572726F07
:101A00007220696E204572617365206F7065726126
:101A100074696F6E0A0D0000F8B516460F4604464D
:101A2000002500F089FD0DE0A8003A58214602206B
:101A300000F064FD002803D005A008F0C5F9FBE71D
:101A4000241D6D1CB542EFDB00F04EFDF8BD00001B
:101A50006572726F7220696E205772697465206FAB
:101A60007065726174696F6E0A0D000070B50D4685
:101A7000044600F061FD21462A46022000F03EFDAA
:101A8000002803D003A008F09FF9FBE700F02CFD2D
:101A900070BD00006572726F7220696E20577269A6
:101AA0007465206F7065726174696F6E0A0D000055
:101AB0000168024841604068704700002000002033
:101AC00000B587B014216846FEF7C2FB0D48C26A14
:101AD00002210A43C262C06A0291084005900A4886
:101AE000019049036A460948009102F025FB002253
:101AF0000221072000F05CFE072000F04FFE07B037
:101B000000BD000000100240000021100004005041
:101B100000B587B014216846FEF79AFB0B48C16AEE
:101B200001221143C162C06A110310400091059067
:101B300000200190022002900320039005206A46B5
:101B4000000702F0F9FA07B000BD000000100240E3
:101B50000649800009580648091803D0C14203D03D
:101B60000020704701207047022070478CD2000887
:101B7000702FFCFF10B5094A0021CB00D4588442D5
:101B800007D89B189B68834203D9C8008018007946
:101B900010BD491CC9B21529EFD3FEE728CD0008B6
:101BA000F8B5054604464035287D0026012808D0B2
:101BB00001202875206881688907890F01290ED1C5
:101BC00001E00220F8BD0168C90708D0A06D2021FE
:101BD0000843A0650126002028753046F8BDA16D98
:101BE000FF220132914302221143A165C168890796
:101BF000890F0091C16889088900C16020688168E7
:101C000092071143816000F093FD07460EE000F05B
:101C10008FFDC01B0A2809D9A06D0221884310211D
:101C20000843A065002028750120F8BD2068806861
:101C30000028ECDB2068C168009A1143C160A06DE8
:101C400080088000401CA065C5E70000F8B5064686
:101C50000D464036317D01290DD0012131750168D5
:101C60008A68520709D5816D2022114381650020C1
:101C700030750120F8BD0220F8BD174B6A68D80501
:101C800047109A42154C8A6A2B6812D05B035B0B93
:101C90001A438A622968490305D5A1680143A160F6
:101CA0000A20FEF7A5FF2868800312D5A0683843F4
:101CB0000EE05B035B0B9A438A622968490302D5F5
:101CC000A1688143A1602868800302D5A068B84359
:101CD000A06000203075F8BD011000000027014011
:101CE0000068006C7047000070B5040006D0A06D5D
:101CF000264600254036002802D006E0012070BDAF
:101D0000E5653575204600F0D1F8A06DC00603D416
:101D100021688868400705D5A06D10210843A0659B
:101D20003575EBE7A06DFF2201329043022210438C
:101D3000A06588688207920F5A48012A02D10A6872
:101D4000D2072BD1032362689B079A4205D05B42DE
:101D50009A4202D05B009A4209D10A699200920825
:101D60000A6121680A6963681A430A610CE00A691A
:101D7000920092080A6181680F2292049143816067
:101D800081686268114381602168CA6818239A4398
:101D9000CA602168CA68A3681A43CA6081680122C0
:101DA0005206914381608168228F520611438160FF
:101DB00020688168C90004D4816801221207114398
:101DC00081602068C168384A1140C1602169E068BB
:101DD000022923D000210843216A226B49035200C3
:101DE00011430843616B0843A16989030843E16912
:101DF000C90308432168CA681043C860A06A014645
:101E0000FF39C23905D0E16A08432168CA68104326
:101E1000C860606A0121012802D00BE00421DAE7E2
:101E2000206A002823D0A06D20221043A065E06D19
:101E30000843E065206C012820681FD00169C907AC
:101E400003D0016949084900016120684169C90856
:101E5000C900416120684169E26B11434161E56558
:101E6000A06D80088000401CA065002070BD206827
:101E7000C26801231B041A43C260DBE70269FF2327
:101E80009B009A43026120680269636CE66C1A4306
:101E9000A36C33431A430261206802690A4302615A
:101EA000D3E70000002701401902FEFF7047F8B594
:101EB00004464069254640350E4608280BD0206868
:101EC000C068C00709D0A06D20210843A06500208C
:101ED00028750120F8BD082700E00C2700F028FC39
:101EE000009011E0701C0FD0002E05D000F020FCF7
:101EF0000099401AB04207D9A06D04210843A0659B
:101F0000002028750320F8BD206800683842E9D019
:101F1000A06D012149020843A0652068C168090538
:101F20008A0F0C21002A1AD1226A002A17D10268CE
:101F3000120714D5826853070122002B08DB43687F
:101F40008B434360A06D130298431043A06506E0E5
:101F5000A06D20231843A065E06D1043E065A069E3
:101F6000002801D1206801600020F8BD70B504464A
:101F7000216800208968490721D425464035297DFC
:101F800001291CD001212975E169012904D02046CD
:101F9000FEF740FE002811D1A16D0A4A1140FF2230
:101FA00001321143A1650021E165297522681C21D8
:101FB000116021688A6804231A438A6070BD022078
:101FC00070BD0000FEF1FFFF02484168490849006A
:101FD0004160704700580140024841680422914323
:101FE0004160704700580140024841680222914315
:101FF000416070470058014070B50024024620320D
:102000005179022903D00421C16301243CE0016815
:102010000B680E25AB430B6001680B685B085B0027
:102020000B601A4B0168994201D1012121E0174B45
:102030001433994201D110211BE0144B28339942EB
:1020400001D1891515E0114B3C33994201D1891416
:102050000FE00E4B5033994202D10121090408E0F0
:102060000A4B6433994202D10121090501E00121A3
:102070000906064B083B596001215171002111717D
:10208000816B002900D08847204670BD08000240BF
:10209000F8B504469D4801689C4A9C4E9B4F083207
:1020A000206813041C363037904201D108221EE00C
:1020B000B04201D180221AE0B84202D10122D202FC
:1020C00015E0924A4432904202D10122D2030EE03E
:1020D0008E4A5832904201D11A4608E08B4A6C323F
:1020E000904202D10122D20501E00122D20625460A
:1020F0001140203500293BD00168090738D5016817
:10210000082291430160814920680831884201D149
:1021100008201EE0B04201D180201AE0B84202D16E
:102120000120C00215E079494431884202D10120E2
:10213000C0030EE075495831884201D1184608E0C5
:1021400072496C31884202D10120C00501E00120B2
:10215000C0066E494860E06B01210843E06304203B
:10216000687100202871616B002901D020468847E2
:1021700066480168654A206808321315904201D10B
:1021800004221EE0B04201D140221AE0B84201D13F
:102190001A4616E05D4A4432904202D1012292036F
:1021A0000FE05A4A5832904202D10122920408E0CC
:1021B000564A6C32904202D10122920501E001227E
:1021C0009206114238D00168490735D50168890661
:1021D00003D4026804218A4302604C492068083114
:1021E000884201D104201EE0B04201D140201AE013
:1021F000B84201D1184616E044494431884202D120
:10220000012080030FE041495831884202D101206A
:10221000800408E03D496C31884202D101208005EC
:1022200001E0012080063949486005206871216B72
:10223000002901D02046884734480168334A206885
:1022400008325315904201D102221EE0B04201D162
:1022500020221AE0B84201D11A4616E02B4A443235
:10226000904202D1012252030FE0284A5832904294
:1022700002D10122520408E0244A6C32904202D179
:102280000122520501E00122520611423CD00168B0
:10229000890739D50168890603D401680222914370
:1022A00001601A4920680831884201D102201EE0ED
:1022B000B04201D120201AE0B84201D1184616E000
:1022C00012494431884202D1012040030FE00F49F6
:1022D0005831884202D10120400408E00B496C319A
:1022E000884202D10120400501E001204006074953
:1022F0004860E06BE0630120687100202871E16AAA
:10230000002901D020468847F8BD000000000240A7
:1023100070B5002805D0034620335979002902D032
:1023200003E0012070BD0021197102215971046878
:1023300022683749C5680A408168466929430569AA
:102340003543294385692943C5692943056A2943DA
:10235000114321602F492F4C02687831A24206D1E7
:102360008A6A120912018A628A6A406849E0294C25
:102370001434A24207D18A6AF024A2438A628A6A8C
:10238000406800013DE0234C2834A24208D18A6A0B
:102390000F242402A2438A628A6A4068000230E065
:1023A0001C4C3C34A24208D18A6A0F242403A24365
:1023B0008A628A6A4068000323E0164C5034A242C5
:1023C00008D18A6A0F242404A2438A628A6A808818
:1023D000000416E00F4C6434A24208D18A6A0F242C
:1023E0002405A2438A628A6A8088000509E08A423D
:1023F00009D18A6A0F242406A2438A628A6A007974
:10240000000602438A6201205871002070BD00005E
:102410000FC0FFFF08000240F8B5044620300579E0
:10242000012D1ED00125057102264671206807681E
:10243000AF4307602046FFF79DF8206801683143ED
:10244000016020680168042211430160206801686E
:1024500008221143016020680168294301600020BF
:10246000F8BD0220F8BD01B50098FFF7C6F908BD18
:10247000F8B51A4E0546307C0F46012807D00120DA
:1024800030741748FFF768FA010002D021E00220FB
:10249000F8BD0020C04338606C6814E02046FFF7A8
:1024A000FDF90F48FFF758FA01460E484268082325
:1024B0009A434260426843159A434260002901D022
:1024C0003C6006E08034A8686A68C0018018A042B9
:1024D000E4D8002030740846F8BD00008C030020CA
:1024E00050C300000020024003484168022211430B
:1024F000416000207047000000200240F8B50C4CFD
:102500001646207C0F46012808D001202074094877
:10251000FFF722FA0025002802D006E00220F8BDCD
:1025200065613E600348FFF717FA2574F8BD0000A7
:102530008C03002050C300000948416889070CD56E
:102540004168C90703D00749C1600749C16007490D
:1025500001610749016100207047012070470000B8
:1025600000200240EFCDAB8905040302BFAE9D8C75
:102570001615141310B501F009FE10BD10B504496D
:102580004A69024202D04861FFF7F4FF10BD000023
:1025900000040140F8B500230124A7E027469F402E
:1025A0003A4070D04D68022D01D0122D14D1DD08B3
:1025B000AD002D1800952D6A5E07AC46F50E0F266E
:1025C000AE46AE406546B543AC460E697546AE4074
:1025D00065462E43009D2E624D68012D05D0022DCB
:1025E00003D0112D01D0122D16D185680326AC46DB
:1025F0005D00AE46AE406546B543AC46CE68754616
:10260000AE4065462E43866046680D79BE43ED06B2
:10261000ED0F9D403543456006685F000325BD40D2
:10262000AE46AE430D79B446AE07B60FBE40654622
:102630002E430660C6687546AE438D68BD4035437F
:10264000C5604D68ED0050D52B4D6E6B26436E6313
:102650009E082A4DB6007519AC46AD689E07360F28
:102660000F27B740BD4305273F07B84201D10027D8
:102670001AE0234FB84201D1012715E0214FB8429B
:1026800002D1022710E030E01F4FB84201D10327EA
:102690000AE01E4FB84201D1042705E01C4FB842A2
:1026A00001D1052700E00627B7402F436546AF60FC
:1026B000184D2E684F689643FF0300D516432E60D1
:1026C0006E684F689643BF0300D516436E60AE68D0
:1026D0004F689643FF0200D51643AE60EE684F6820
:1026E0009643BF0200D51643EE605B1C0A68154690
:1026F000DD4000D052E7F8BD00100240000001406C
:102700000004005000080050000C00500010005061
:10271000001C0050000401400069084000D0012066
:102720007047002A01D081617047816270470000C4
:102730000148006870470000480000200248016816
:10274000491C0160704700004800002010B5064891
:102750000168022211430160032000F007F800F035
:1027600007F8002010BD0000002002400020704744
:1027700010B50848816B02041143816300F02CF806
:1027800000F022F80448016808221143016000F0BB
:1027900013F810BD0010024000200240C106C90E0F
:1027A00001208840014908607047000000E100E016
:1027B00010B503F0D7F810BD0248016802151143A7
:1027C00001607047007000400248016842151143E3
:1027D0000160704700700040024801681022914378
:1027E0000160704700700040094B1A68920892001F
:1027F00002431A600748026904239A4302610129CF
:1028000003D040BF20BF20BF704730BF70470000DB
:102810000070004000ED00E00A4B1A689208920038
:1028200002431A6008480369042213430361012923
:1028300006D040BF20BF20BF0169914301617047AE
:1028400030BFF9E70070004000ED00E0F8B56649E0
:10285000074601250020ED03624B634A4031102FEB
:102860006FD011DC012F77D0022F6CD0042F6BD0EA
:10287000082F24D1C9680324240321407BD0BD0242
:102880006C10A9427CD0A0E00326584C3604202FBF
:102890000BD0402F35D0FF3F012F10D1C9683140F8
:1028A00069D07C04A1426BD096E00B6909690127CD
:1028B00031403F04B94203D1990559E02846F8BD9B
:1028C00001256D04A94203D19907F8D54848F8BD00
:1028D000B142FCD111688903F9D5116803200005C4
:1028E000014001200005091A09D0091A05D08142CA
:1028F00001D14048F8BD2046F8BD3F48F8BD3F48EB
:10290000F8BDC9680125AD06294006D0A942F7D116
:1029100091688907F4D53A48F8BD11688901FBD55B
:10292000D068D1688002374D000F2D5C0802810FFE
:10293000D068491CC0030AD41068C00605D52046DB
:1029400006E045E008E023E030E0184600E02E48CD
:102950006843FDF7CDFBF8BDCC68A407A40F0CD0ED
:10296000022C0DD0012C10D0032CF4D1096989055B
:102970000029A3DBF8BD16E002E000F0D1F9F9E789
:1029800011684907F6D51846F4E700F0D9F9F1E7E0
:10299000CC680C26344006D0082CF1D0042CF4D09E
:1029A0000C2CE3D0E6E700F0ABF9E3E7CC680326B4
:1029B000B6023440F7D00127FF02BC42E0D07A10C3
:1029C0009442E2D0B442D1D0D4E7A142DDD0D1E7E5
:1029D000916B4902E7D4CDE7012212049142D4D091
:1029E000C8E700000024F4000010024000093D0088
:1029F0008890000020A1070040420F0080841E0044
:102A0000006CDC0250CE000800127A00F8B50446D3
:102A100000785E4D800672D55C4E0027403EB06B5C
:102A2000C00004D4B06BA9050843B063012758481F
:102A30000168C90511D40168821511430160FFF7CF
:102A400077FE009005E0FFF773FE0099401A6428B6
:102A500037D84F480068C005F5D53268032109050D
:102A600060680A400140914208D08103890F032920
:102A700004D13168890301D50120F8BD2A690321F9
:102A800009040A4022D0084090421FD020788006D6
:102A90001CD528692A6988430121C9040A432A618F
:102AA0002A698A432A612861C0050FD5FFF740FED5
:102AB000009008E0FFF73CFE0099411A354881423A
:102AC00001D90320F8BD28698005F3D56168880322
:102AD000800F032805D132680005824301400A4374
:102AE000326028690322616812041140084328619A
:102AF000002F04D0B06B012109078843B063207810
:102B0000C00705D0E868A168800880000843E86035
:102B10002078800705D5E8680C218843E1680843E0
:102B2000E8602078400706D5E868032189028843D9
:102B300021690843E8602078000706D5E86803218A
:102B40000903884361690843E8602088C00506D509
:102B5000E868032109048843A1690843E8602078F4
:102B6000400606D5E868012189068843216A0843A2
:102B7000E8602078000606D5E868032189048843C8
:102B8000E1690843E8600020F8BD00004010024001
:102B90000070004088130000F8B5054653480E4603
:102BA0000068C007C00FB0420AD250480168490807
:102BB0004900314301600068C007C00FB0426FD1C7
:102BC00028784B4C800705D5E068F0218843A96838
:102BD0000843E0602878C00752D06868022817D000
:102BE000032818D02168012818D08905002957DA50
:102BF000E168890889000143E160FFF799FD696890
:102C00000746022912D003291CD0012926D033E01F
:102C100021688903EAE721688901E7E74907E5E7D1
:102C2000FFF786FDC11B3348814223D8E0680007C7
:102C3000800F0228F4D123E0FFF77AFDC11B2D4855
:102C4000814217D8E0680007800F0328F4D117E00D
:102C5000FFF76EFDC11B274881420BD8E0680007D3
:102C6000800F0128F4D10BE0FFF762FDC11B214862
:102C7000814201D90320F8BDE0680007800FF3D13D
:102C80001A480168C907C90FB1420BD90168490840
:102C90004900314301600068C007C00FB04201D055
:102CA0000120F8BD2878400706D5E0680721090211
:102CB0008843E9680843E0602878000707D5E068A2
:102CC0000721C90288432969C9000843E06000F070
:102CD00037F8E168084A0906090F515CC8400749FE
:102CE00008600320FFF742FD0020F8BD00200240ED
:102CF000001002408813000040CE0008440000206D
:102D0000044805490068C968044A4905490F515CEF
:102D1000C8407047440000200010024059CE00080F
:102D2000044805490068C968044A8904490F515C90
:102D3000C8407047440000200010024059CE0008EF
:102D400010B5184AD1680C20084004280BD0082878
:102D500010D00C2810D050680004410F0120C0038F
:102D6000491C884010BD1068C00601D50E4810BD32
:102D70000E4810BD0E4810BD88020E4B000F185CA7
:102D80000902D368890F491CDB0301D5084A05E015
:102D90001268D20601D5044A00E0044A5043FDF708
:102DA000A7F910BD0010024000093D000024F40006
:102DB00000127A0050CE0008F8B504460078FF4DA6
:102DC000C0074CD0E8680007800F022807D0E868E9
:102DD0000007800F032809D1E868C00306D52868DA
:102DE00080033CD56068002875D038E00120626817
:102DF0000004824203D129680143296011E00523C0
:102E000001211B0489049A422A6802D10A432A60DC
:102E1000F1E782432A602A680240009228688843CA
:102E20002860606800280DD0FFF782FC0646E44F5A
:102E300004E0FFF77DFC801BB8427DD82868800342
:102E4000F7D50CE0FFF774FC0646DD4F04E0FFF712
:102E50006FFC801BB842F0D828688003F7D4207834
:102E6000800741D5E8681F270007800F3F0201282F
:102E700007D0E8680007800F032809D1E868C0037D
:102E800006D42868400717D5E068012823D113E04D
:102E9000E068002817D0296809229143014329607E
:102EA000FFF746FC064604E0FFF742FC801B0228C1
:102EB000C3D828684007F7D568682169B843090274
:102EC0000843686010E02868400840002860FFF769
:102ED0002FFC064605E090E0FFF72AFC801B022845
:102EE000ABD828684007F7D42078C00676D5E868C4
:102EF000B44E0007800F0BD0E06900285DD0286831
:102F0000FF21013108432860FFF712FC074644E027
:102F10002868800502D5E06900286ED0606A69687B
:102F20003140884212D903F09FFD0028AED1686875
:102F3000616AB043084300E0E4E068606868218C9F
:102F40000002000A0906084368600FE06968B1439F
:102F5000014369606868218C0002000A0906084381
:102F60006860606A03F080FD00288FD1606A410BC1
:102F70000120C003491C8840E968934A0906090FEB
:102F8000515CC840914908600320FFF7EFFB25E042
:102F9000FFF7CEFBC01B02288AD828688005F7D52A
:102FA0006868616AB043084368606868218C000201
:102FB000000A09060843686010E02968FF20013014
:102FC00081432960FFF7B4FB064604E0FFF7B0FB3E
:102FD000801B022884D828688005F7D420787C4E8E
:102FE000000723D560690028306910D0012108430B
:102FF0003061FFF79DFB074605E009E1FFF798FB0D
:10300000C01B02287ED830698007F7D50EE0400843
:1030100040003061FFF78CFB074604E0FFF788FBB8
:10302000C01B02286ED830698007F7D4207840078B
:1030300061D5A86B0027C00005D4A86B0121090742
:103040000843A863012763480168C90511D40168D2
:10305000821511430160FFF76BFB009005E0FFF75D
:1030600067FB0099401A64284CD85A480068C0058C
:10307000F5D5FF20A2680130824203D131690143B6
:10308000316111E001218902002A07D005231B02CA
:103090009A4203D132690A433261EFE732698243CF
:1030A0003261306988433061A06800280ED0FFF794
:1030B0003FFB009006E0FFF73BFB0099411A4048B8
:1030C00081421FD830698005F5D50DE0FFF730FB50
:1030D000009006E0FFF72CFB0099411A3848814226
:1030E00010D830698005F5D4002F04D0A96B0120D9
:1030F00000078143A9632078800630D53649A0694E
:103100004A1400E07DE0002816D0AB68012003439C
:10311000AB606B6B03436B63086A10430862FFF795
:1031200007FB064604E0FFF703FB801B022868D874
:10313000A8688007F7D512E0A86840084000A8609A
:10314000086A90430862FFF7F3FA064604E0FFF7C7
:10315000EFFA801B022854D8A8688007F7D4A06A29
:10316000002853D0E9680907890F032950D00126A8
:1031700036060228286805D0B0432860FFF7D8FA41
:10318000044640E0B0432860FFF7D2FA074604E067
:10319000FFF7CEFAC01B022833D828688001F7D485
:1031A000216BE06AEA680843616BFD231B049A43C4
:1031B00011430843E860286830430FE000100240E4
:1031C0008813000000E0000040CE0008440000200A
:1031D0004010024000700040000001402860FFF7EE
:1031E000A7FA044604E0FFF7A3FA001B022808D858
:1031F00028688001F7D509E0FFF79AFA001B02283A
:1032000001D90320F8BD28688001F5D40020F8BD5D
:103210000120F8BD30B5014620310A78012A15D0C9
:1032200001220A7002234B700468CA236362046897
:103230005323636203689C6820252C439C600068CC
:10324000FF2343624A700020087030BD022030BD69
:1032500010B506F0DBFC10BDF8B505460446203578
:10326000287801281DD0012028700220687022686B
:10327000CA205062226853205062FF20013000268D
:10328000FF2781421CD121688A6882438A602068B6
:1032900081680122120391438160FFF749FA00908F
:1032A00009E00220F8BDFFF743FA0099411A7D209A
:1032B000C00081421BD82068C068C007F3D020E05E
:1032C00020688168012252029143816020688168F0
:1032D000120191438160FFF72BFA00900DE0FFF798
:1032E00027FA0099411A7D20C000814205D9206843
:1032F0004762032068702E70F8BD2068C0688007A0
:10330000EDD520684762012068702E700020F8BD5E
:1033100010B500680B464068C021C9430140000257
:10332000000ECC04D870E40E5C708C06A40E090468
:10333000490F9C701970002A0AD103F0D1FBD87094
:10334000587803F0CDFB5870987803F0C9FB98705B
:10335000002010BD30B50B460168896A59600168CC
:1033600009694904490C9960006804680F482146BE
:10337000014088024D04800E18706D0E49065D7084
:10338000490E99706102490E40242140D970002AEB
:103390000AD103F0A5FB1870587803F0A1FB587010
:1033A000987803F09DFB9870002030BD7F7F7F00F0
:1033B00070B5040005D0254620356878002802D075
:1033C00006E0012070BD00202870204600F042F881
:1033D000022068702168CA20486221685320486230
:1033E000204603F090FBFF210028206803D04162B3
:1033F00004206870E5E78268154B1A4082602268F5
:1034000090686368A6691843236933431843906042
:103410002268E06810612068026923891B041A434E
:1034200002612068C26880239A43C2602068C26C2F
:1034300092089200C264E269606902432068C36C2A
:103440001A43C2642068416201206870002070BD88
:10345000BFFF8FFF00B597B00420009000200A90B6
:10346000FF20013002906846FFF7A6FC002801D03B
:10347000FEF712FA20200E90C0020F900EA8FFF760
:10348000C5FA002801D0FEF707FA084801690122B1
:10349000920411430161002211460220FFF788F9CE
:1034A0000220FFF77BF917B000BD0000401002407A
:1034B000FEB506460446203630780B46012842D039
:1034C000012030700220707020681D4600272035D2
:1034D0008068002A39D0400655D5187803F000FBE3
:1034E000287803F0FDFA1978987809040843597888
:1034F000DA780902120411430843297809060843BF
:10350000D9690843596908430546996958680843C9
:1035100000902168CA204862216853204862FF2039
:103520005A6A0130802182424AD1226893688343DB
:1035300093602268D0680840FF388238D060FFF777
:10354000F7F8019029E00220FEBD400600D4DF70AC
:10355000187803F0CDFA0204587803F0C9FA000293
:103560000243987803F0C4FA0243D8780004024377
:10357000287803F0BDFA00060243D869024358696F
:1035800002431546C1E7DF70AAE7FFF7D1F80199BA
:10359000411A7D20C00081422AD82068C068C00737
:1035A000F3D02068C561216800984864206881686C
:1035B000FF2201321143816020688168120130E0EE
:1035C0002068826801235B029A4382602068C26897
:1035D0000A401D495118C160FFF7AAF801900EE09A
:1035E000FFF7A6F80199411A7D20C000814206D953
:1035F0002168FF204862032070703770FEBD20688C
:10360000C0688007ECD5206805622168009888644E
:10361000206881680122520211438160206881681C
:1036200012011143816009480268012149040A43DB
:10363000026082680A4382602168FF20486201209C
:10364000707037700020FEBD7FFDFFFF0004014059
:10365000F8B505460446203528780B46012815D0D4
:1036600001202870022068705878002A10D003F0DA
:1036700037FA987803F034FAD8789E780004064335
:103680005878197800024903084316E00220F8BD73
:10369000C10603D5EF2108400A305870D87803F0EE
:1036A00027FA0604587803F023FA000206439878B4
:1036B00003F01EFA06431878400306432168CA2027
:1036C0004862216853204862204603F01CFA002714
:1036D000002811D110480640206846602068C16863
:1036E00080229143C1602068806880060CD4204607
:1036F00000F08CF8002807D02168FF2048620420E1
:1037000068702F700120F8BD2168FF2048620120F9
:1037100068702F700020F8BD3FFFFF00F8B5064627
:103720000446203630780D4601280ED00120307036
:1037300002207070206800278068002A07D04006A9
:103740001AD5287803F0CCF917E00220F8BD40061E
:1037500000D4EF70287803F0CBF90204687803F006
:10376000C7F900020243A87803F0C2F90243E878DF
:103770000004024300920BE0EF702978A878090456
:1037800008436978EA78090212041143084300905B
:103790002168CA204862216853204862204603F00D
:1037A000B2F900281FD11849009808402168086024
:1037B0002068816801229204914381602969E86848
:1037C000084321688A68104388602068C1688022A5
:1037D0009143C1602068806880060CD4204600F0C8
:1037E00015F8002807D02168FF2048620420707077
:1037F00037700120F8BD2168FF20486201207070F9
:1038000037700020F8BD00007F7F7F0070B5044650
:103810000068C168A0229143C160FEF789FF7D2640
:103820000546F60006E0FEF783FF401BB04201D9D3
:10383000032070BD2068C0688006F4D5002070BDEC
:1038400070B5040006D025464035687C0026002867
:1038500002D005E0012070BD2E74204600F032F841
:103860000220687420680168402291430160A168C9
:10387000606822690843E1681143084361690122D5
:103880000843A169520211400843E1690843216AD3
:103890000843A16A084321680860A0690421000C5C
:1038A0000840616A0843216848602168E06A08614D
:1038B0002068C16992009143C16166650120687406
:1038C000002070BD7047F8B50446002768460780A1
:1038D00026464036707C012802D0707C22287ED19A
:1038E00000290CD0002A0AD0002B08D0307C0128F7
:1038F00075D001203074707C012802D003E00120D3
:10390000F8BD322070746765A263A387E3872163E3
:10391000A386E386A764E7640125A06A6D03A84235
:1039200007D120680168A943016020680168294324
:10393000016020680168490603D4016840221143F0
:1039400001600121FF20E268C90205308A426168F6
:1039500066D1002904D081420CD1E08E012809D122
:10396000206B21680088C860206B801C2063E08E7B
:10397000401EE086E08E002843D1A06AA84246D1CE
:103980002068016801221203114301603FE02068B2
:10399000C068A16B0880A06B801CA063B0E000220F
:1039A00002212046069B04F003FA00287DD1206BFB
:1039B00021680088C860206B801C2063E08E401E58
:1039C000E086E08E002808D1A06AA84205D12068D0
:1039D00001680122120311430160002200E0CCE0E3
:1039E00001212046069B04F0E3F900287FD12068DE
:1039F000C068A16B0880A06B801CA063E08F401E94
:103A0000E087E08E0028CAD1606800287BD10022C0
:103A100001212046069B04F0CBF9002867D1B6E7C8
:103A2000002904D081420BD1E08E012808D1206BFF
:103A3000411C216321680078C860E08E401EE0864A
:103A4000E08E002845D1A06AA84205D1206801680F
:103A50000122120311430160002201212046069B2E
:103A600004F0A6F9002842D12068C068A16B087054
:103A700046E0002202212046069B04F099F9002826
:103A800035D1206B411C216321680078C860E08E2D
:103A9000401EE086E08E00280AD1A06AA84207D125
:103AA000206802680121090300E020E00A43026067
:103AB000002201212046069B04F07AF9002816D145
:103AC0002068C268A06B411CA1630270E08F401E99
:103AD000E087E08E0028CCD16068002813D1002256
:103AE00001212046069B04F063F9002802D0032040
:103AF000F8BD08E02068C168A06B421CA263017099
:103B0000E08F401EE087A06AA8420FD10022012169
:103B10002046069B04F04CF9002802D0606D02217B
:103B20000EE02068C068694608800888012280216C
:103B30002046069B04F03CF9002804D0606D20214B
:103B400008436065D3E701207074A06AA84211D1D0
:103B500020688168C943C9060CD4616D02221143F3
:103B600061650168A943016020680168294301601B
:103B70003774C4E637740020BAE70220B8E701467C
:103B800060310A7A012A0DD001220A7224224A7277
:103B90000068026802231A43026020204872002055
:103BA0000872704702207047FEB50546044660352E
:103BB000287A00269446012811D001232B72242054
:103BC0006872206802689A4302602768B868032216
:103BD000120590430843B860002902D015E0022086
:103BE000FEBD60460091019021686A46928848684F
:103BF0001027B84310434860206841686A460902AC
:103C00009279090A1206114341602068016819433C
:103C10000160FEF78DFD0949009103460121002254
:103C20008905204606F0BDFB002801D0032601E0EF
:103C300020206872002028723046FEBDFFFFFF0181
:103C400070477047F8B502680446D06911680607E6
:103C5000360F07D1830605D58B0603D5204606F01F
:103C600015FAF8BD95682023002E65D0EE07F60FF3
:103C7000FF2721370F4037435ED0C70706D0CF0557
:103C800004D501271762E26E3A43E266820708D53F
:103C9000EA0706D0276802223A62E26E04273A4316
:103CA000E266420708D5EA0706D0256804222A62A0
:103CB000E26E02252A43E266020709D50A461A4047
:103CC000324305D0236808221A62E36E1343E36689
:103CD000E26E002AC5D0800604D5880602D52046AB
:103CE00006F0D4F9E06E000703D42068806840062F
:103CF0001CD5204606F0B2F920688168490611D526
:103D0000826840218A438260606E00280AD01D4983
:103D10008163606EFEF770F90028A2D0606E816B3F
:103D20008847F8BD2046FFF78CFFF8BD2046FFF717
:103D300088FF0020E066F8BD2646C7026036002FE7
:103D40000ADA6D0208D50120000510627372B372A1
:103D50002046FFF775FFF8BD050605D50D0603D50E
:103D6000204606F0EBFAF8BD4006FCD54806FAD529
:103D70002046146840218C431460737200F03EF9B1
:103D8000F8BD0000C59F000870B5040005D02546A9
:103D90006035687A002802D006E0012070BD00205E
:103DA0002872204600F026F82420687220680168F6
:103DB000490849000160606A002802D0204606F0E8
:103DC0006BF8204606F0A2F90128E7D02068416888
:103DD0000922D20291434160206881682A229143DE
:103DE000816020680168012211430160204606F0CD
:103DF000B9F870BD70B5264C0546E06A8AB0012658
:103E00003043E062E06A30400990E06A3043E062AB
:103E1000E06A30400990A06BB1040843A0632421FC
:103E20006846FCF715FA04200090400204906846AA
:103E3000FEF7ECFD206B30432063206B304009908F
:103E400008F0C8FE144C1348206000211020E160E7
:103E5000A0606161A161E161802021622061052093
:103E600060602046FEF754FA2C66012211460B20B2
:103E7000A562FEF79DFC0B20FEF790FC0122114687
:103E80001D20FEF795FC1D20FEF788FC0AB070BDD2
:103E9000001002408000024058050020F0B50346A3
:103EA00060339C7A202C44D100290BD0002A09D001
:103EB000012584682D03AC4206D10669002E03D18A
:103EC000CE0701D00120F0BD1E7A012E31D001268F
:103ED0001E724165014640310A834A83FF27AC4286
:103EE00004D10269002A12D1134A0EE07F22002C6D
:103EF00008D001252D07AC420AD10469002C04D05A
:103F00003F2202E00469002C01D08A8300E08F8305
:103F10000021C16622229A72197201688A683243AE
:103F20008A6000680168FF2221321143016000208D
:103F3000F0BD0220F0BD0000FF01000010B50446F6
:103F400007488168002904D0E06E002801D10448A8
:103F50008847012202492046FFF7A0FF10BD00005C
:103F60008C000020F8B5054604466035687A2028A4
:103F70003BD100290BD0002A09D00123A0681B03E4
:103F8000984206D12069002803D1C80701D001203A
:103F9000F8BD287A012828D0012028722046403018
:103FA000E164028242820026E66621206872216E68
:103FB0000F48C862216E0F480863216E0E4848639F
:103FC000206E134686632768E16C3A462832206EDD
:103FD000FEF722FA2168402008622E72206881686C
:103FE0008022114381600020F8BD0220F8BD00004E
:103FF00023A0000853A00008D99F00080248406889
:10400000002800D0004770478C0000207047000057
:1040100010B51248017800291ED101220270114802
:104020000F49016000210164C161D30781614360D0
:1040300082638160C160016207234162C3630261E0
:10404000C1620422426101630748416B421511437A
:1040500041630448FDF748FE10BD000088000020C1
:1040600000240140F8040020001002407CB51E49E5
:10407000064609780020002934D01C484168C9430D
:104080000907FBD41A4C606B651528436063002157
:104090001848FDF785FD18480090184801906946BA
:1040A0001448FDF7D3FDA01401906946009611480D
:1040B000FDF7CCFD0F48FDF759FF0021C9430D481E
:1040C000FDF7F5FE0B48FDF70BFE0A4980B20A68C2
:1040D0009368022633439360096803220A60616B88
:1040E000A94361637CBD000088000020007000408F
:1040F00000100240F8040020FFFF0700011000003C
:10410000014600200A0A00D00820084A114201D0C6
:1041100004221043064A114201D002221043054AEC
:10412000114201D00121084370470000F0F0000067
:10413000CCCC0000AAAA000038B50B231B07C51879
:10414000114B0FD01C152D1B18D02D1B19D0A542BB
:10415000DD6A05D108242543DD62DB6A234007E0E0
:104160008024F8E7DC6A01252C43DC62DB6A2B4003
:10417000009311601146FEF70DFA38BDDD6A022486
:10418000E9E7DD6A0424E6E70010024010B5FFF716
:10419000B7FF810002484058002800D0804710BD7A
:1041A000A403002070B51C4615460E460846FFF7CE
:1041B000A7FF0A49002C0DD080000C50304601F0BA
:1041C00069FB044600222946FEF7F2FA2046FEF774
:1041D000E5FA70BD002280000A5070BDA4030020E3
:1041E00010B5D2B2FEF79DFA10BD000070B50024E4
:1041F0001148FFF73BFF114D01000CD01048114A48
:10420000008B5043FBF774FF80B20E492880884230
:1042100003D9FE240DE000202880E120C000864262
:1042200007D3301AFE2148434B210901FBF760FFF9
:10423000C4B2204670BD00000000024454000020BB
:104240006000F81FB80B000003494A690869496A11
:1042500050404840704700004000F81F70B51148BA
:10426000FFF704FF104C01001AD0208B0F4A504377
:10427000FBF73EFF05460E48FFF7F8FE68430B4983
:10428000FBF736FF618B0522401A12035043E28B85
:10429000511AFBF743FF0F214902401880B270BD4D
:1042A0000025E8E7000002446000F81FB80B00009A
:1042B000000004480F494B6A0A69D218120EC271F5
:1042C0004B6A0A69D218120C82710A8A8B8CD21836
:1042D000120A42710A7C8B8CD21802714A69120E42
:1042E000C2704A69120C82708A8A120A4270097D71
:1042F000017070474000F81F10B50A4C6078002824
:104300000ED1FFF785FE08480068804700F0DCF911
:1043100000F090F805F046FDFCF736FE01206070D5
:1043200010BD000088000020D8CD000870B5410EF7
:10433000C0017D220023FBF705FF054600F072F85F
:10434000044600E000BF00F06DF8001BA842F9D35E
:1043500070BD000070B505460C4600222048FEF7EF
:10436000F9FF002229461E486668FEF7D1FF0022A9
:1043700021461B48FEF7EEFF6068B042F1D1E878B5
:10438000184A01465043C01C8308880726D01649A6
:1043900068783D220646504302463C3A7000801E33
:1043A000C1408807D10F8918800F4910081AC0181A
:1043B000A978401E08180D493C2248436178E12342
:1043C000514322781B015A438918A2781018081803
:1043D000074A61688002511A401870BD0549D7E745
:1043E000E4030020B5050000A0AA99008051010057
:1043F000FF03000050554400032070470148006847
:10440000704700003004002000B587B0694605A859
:10441000FFF7A0FF0249096807B0401A00BD00007D
:104420003004002000B587B0694605A8FFF792FF69
:1044300007B000BD10B5084C207800280AD100F064
:104440004BF8FF2101310548FEF706FF00F074F834
:104450000120207010BD00004E000020E403002069
:1044600010B50C4C0021042000F068FC216888681D
:10447000C0040ED5C868C0050BD5C868802210409E
:10448000FF388238C8600449900248612046FEF730
:10449000DFFE10BDE40300200004014070B50446B7
:1044A000FFF7B2FF211A0B4D0220285EC01C81428B
:1044B00001D9002100E00121042000F03FFC00F0C0
:1044C00015FC012802D10220285E241A204600F0A3
:1044D0003FF870BD4E00002010B51449144886B056
:1044E000002412C01F2101608460046111494461ED
:1044F00041600838FEF75CFF6946CC7501204875BD
:1045000088750875002205A90948FFF7A1F80094ED
:10451000019404940022694605480394FFF7FEF8CD
:104520000348FEF777FE06B010BD000000280040EB
:10453000E4030020FF03000010B5044C2046211DB9
:104540001830FFF707FF206010BD00003004002086
:10455000F0B587B0044614223F4901A8FBF75FFE7F
:104560003D485038406E009000F07EF83B4802997C
:104570003B4A401AA105890D081887B2A10A68466E
:104580008078534202E08918401C80B29942FAD2E6
:104590006A461579E122120102E0891A6D1CADB25A
:1045A0009142FAD26A46547902E0641CA4B23C39C2
:1045B0003C29FAD2927951188EB20121890203E086
:1045C0007A1A761C97B2B6B28F42F9D203E03C3E1B
:1045D000641CB6B2A4B23C2EF9D203E03C3C6D1C84
:1045E000A4B2ADB23C2CF9D203E0183D401CADB2F0
:1045F00080B2182DF9D26946C978890769464A7888
:1046000027D01849491E515C814202D2FBF770FD48
:1046100008461249CA1B10492C394A600522520625
:104620008A618E704C700A460D7020321070684698
:10463000C079C8700020C861FF2248610132C8609B
:104640004A620861024608462438FEF731FF07B087
:10465000F0BD04490C31D5E734040020FF0300000D
:1046600080AEFEFF61CE000810B506480168C8683C
:1046700080221040FF388238C86051000148FEF7A0
:10468000EBFD10BDE403002010B57D2105F023FFF4
:104690004906C009084310BD10B5410EC0017D2276
:1046A0000023FBF74FFD10BD01B582B00020C043D1
:1046B0000090012301AA02A90248FFF704F9684605
:1046C00080880EBD4C04002010B51C481A490160BA
:1046D0001C4A1B4B0021126803E05208491C0729A1
:1046E00001D29A42F9D84A078B07D20FDB0F520149
:1046F0001B011A43C90700D008210A43C2610021E7
:10470000816001614161FF22C160053281624260C6
:10471000012201625202826141620B48416B8214A4
:10472000114341630548FFF78BF8002801D0FDF7DE
:10473000B3F800F045F810BD003001404C040020F3
:1047400080969800440000200010024070B586B0AA
:1047500014216846FBF77CFD052601250224360757
:104760006A468021304601950294FFF7E5FC00225D
:1047700080213046FFF734FD6A46402130460294DE
:10478000FFF7DAFC002240213046FFF729FD6A4698
:10479000202130460294FFF7CFFC00222021304632
:1047A000FFF71EFDA4036A46214630460295FFF737
:1047B000C3FC012221463046FFF712FD06B070BD52
:1047C00030B585B014216846FBF742FD0220019008
:1047D00002900320039000200524240704906A46D9
:1047E00020212046FFF7A8FC6A4640212046FFF71B
:1047F000A3FC6A4680212046FFF79EFC012101911F
:10480000CD0302916A4629462046FFF795FC012216
:1048100029462046FFF7E4FC05B030BD00BFFDE7A8
:1048200010B507A1095C07A005F0CEFA0C480021DD
:10483000017102214171002100F0AEF910BD0000AC
:104840004142430073776974636820746F20636C1E
:1048500061737320256320646F6E650A0D0000008C
:104860006400002010B50CA005F0AEFA0028FAD1C3
:1048700002F06AF9002000F025F90A490A4805F01B
:10488000AFF90A480A4940684118074805F010FA8C
:1048900001F0F0FD10BD00004A4F494E45440A0D9D
:1048A0000000000075640008E404002054000020AB
:1048B00012FDFFFFF8B5304C6160E06002F044F992
:1048C0002EA005F081FA32A005F07EFA36A005F0A0
:1048D0007BFA07F0BFFE07F0F7FA204601211830F7
:1048E0000170374835490160364941603649816079
:1048F000E06821460068083108600422304800F072
:104900006FFA2F4D02270C352F70606800782871E0
:10491000284600F019FD072028706068807828710B
:10492000284600F011FD00262E702E71284600F05A
:104930000BFD606858344078244D20752846FDF7FB
:10494000B7F8002804D002F0FFF800F063F8F8BDD3
:104950000948204918304670E7721D48086004F085
:1049600061FF02F0F1F811212846FDF77FF81AA047
:1049700005F02AFAF8BD0000B40000200A0D4C53DF
:104980004E3530204465766963650A0D00000000ED
:10499000496D6167652056657273696F6E3A20765E
:1049A000312E340A0D0000004672657175656E6324
:1049B000792042616E643A2000000000C55800086A
:1049C000D8080020C958000821590008808F010824
:1049D0003075000058000020506C656173652073CD
:1049E00065742074686520706172616D65746572AC
:1049F00073206F72207265736574204465766963F5
:104A00006520746F206170706C79206368616E67D7
:104A1000650A0D0070B5234D002029782E46183EFA
:104A200086B0012928D0204C0321217060602046E7
:104A300000F08AFC04202070E8686060204600F0E6
:104A400083FC05202070284628306060204600F056
:104A50007BFC06202070284638306060204600F03D
:104A600073FC012020702071204600F06DFCF0687E
:104A70004069804706B070BD69460870094801ADBD
:104A8000801C01900E300290083003907068C0784E
:104A900008741ECD04481C381EC0684600F08AFD0C
:104AA000E8E70000CC000020E40800200EB501215A
:104AB0006846017000F0CCFB68460079012800D000
:104AC00000200EBDFEB50646002468462746047049
:104AD00000F0BEFB68460079B04223D03100124E90
:104AE000124D02D002291DD10DE000281AD16846CE
:104AF000077100F029FC002803D1F06881690020CB
:104B00000FE02C460EE0002800D02C46022069461B
:104B10000871684600F018FC0028F2D1F06881693D
:104B2000022088472046FEBDB4000020FFFFFFFFA3
:104B300070B5044602790168407907F0EFFD0FA0D7
:104B400005F042F90028FAD1617910A005F03CF98E
:104B50000028F9D1002507E02068415D0CA005F090
:104B600033F90028F8D16D1C2079A842F4DC06A0A6
:104B700005F02AF90028FAD170BD0000526563657E
:104B800069766520646174610A0D000025643A004D
:104B9000253032780000000070B586B00E4604461D
:104BA00006F094FF0025ED43002822D1207904A9C6
:104BB00000F004FE024600211548002A04D06A468F
:104BC0001170029191811FE0002E15D001226946DB
:104BD0000A7062790A7122798A8121680291082219
:104BE0006946CA73007D8873684600F09BFA002806
:104BF00000D0284606B070BD6A4611706179117107
:104C00002179918121680291007D9073ECE7000089
:104C10000C01002010B50B480168002904D000F0F9
:104C200014F800F036F810BD4068002804D000F0F9
:104C300013F800F02FF810BD00F006F800F028F887
:104C400010BD0000C8010020704710B501210020F0
:104C5000FDF7CAFD10BD000010B5EFF3108472B669
:104C6000FFF774FD08484068804707F05BFC074881
:104C7000016804221143016084F310880121084671
:104C8000FDF7CAFD10BD0000D8CD0008007000403F
:104C90007047704710B5EFF3108472B61148016881
:104CA00001221143016001684907FCD50168012216
:104CB00012061143016001688901FCD5C168032215
:104CC0001143C160C1680907890F0329FAD1FFF7B1
:104CD00077FD05480068804707F03CFC84F31088A6
:104CE00010BD000000100240D8CD0008EFF3108185
:104CF00072B607480268002A01D0002005E040682B
:104D0000002801D0012000E0022081F310887047C4
:104D1000C801002010B5EFF3108272B6064B0029CF
:104D20005C6803D0012903D1044300E084435C6044
:104D300082F3108810BD0000C801002010B5EFF309
:104D4000108272B6064B00291C6803D0012903D1DA
:104D5000044300E084431C6082F3108810BD00000F
:104D6000C8010020F8B5174605460A461948069CB2
:104D7000089E0799447183711C0AC4711C0C04724B
:104D80001B0E437281720B0AC3720B0C0373090E64
:104D90004173D4B2C4731048FCF70CF839460E487E
:104DA000FCF718F810220B490B48FCF71BF82246B9
:104DB00029460948FCF716F80749C81FFD38FBF7D4
:104DC0005BFF064C601CFBF772FA21780002084377
:104DD0003060F8BDA4010020340F0020300E002008
:104DE000F8B50E46050017467ED028680028FBD08F
:104DF00068680028F8D0A8680028F5D0104602F0AE
:104E0000CFFE002871D0764C00212666E56522464B
:104E100027741A3211706174A163217601266676B7
:104E2000E1746165A1650B216A46117038466946D7
:104E300002F0A5FE002800D0012020750821684658
:104E400001706946207C02F09AFE664D05212870AB
:104E5000684601706946207C02F091FE68700C2162
:104E6000684601706946207C02F089FEE8600D21E9
:104E7000684601706946207C02F081FE28610E219F
:104E8000684601706946207C02F079FE68610F2156
:104E9000684601706946207C02F071FEA86110210D
:104EA000684601706946207C02F069FEE8611321C2
:104EB000684601706946207C02F061FE2F4620376B
:104EC00078701421684601706946207C02F057FE14
:104ED00068621521684601706946207C02F04FFE29
:104EE00038721A21684601E076E077E00170694681
:104EF000207C02F044FE38731B216846017069462D
:104F0000207C02F03CFE78731C21684601706946E3
:104F1000207C02F034FE28631D216846017069463A
:104F2000207C02F02CFE68630021207C02F031FE20
:104F30003E700A2206216A6028462972383842608B
:104F40000172E968C1602969016169694161A96902
:104F50008161E969C1612030067002F093FE284644
:104F60002149383004F03CFE7D212846C900383004
:104F700004F09EFE28461D49683004F031FE2846A4
:104F80001B497C3004F02CFE28461A49903004F06E
:104F900027FE28461849CC3004F022FE04F00EFE0D
:104FA0006063284615494C300160154981601549F8
:104FB0000161154941601549154DC160A9688847CF
:104FC000E869804707F0F0FBA674296E30468847F1
:104FD000686B80470020F8BD0320F8BD0A20F8BDAB
:104FE00038010020080D0020055A0008056400085B
:104FF000116300088D630008C5590008E9610008C5
:105000004D5C000821610008D5620008816100083C
:10501000D8CD0008F8B504461D4617460E460D4883
:10502000FBF7C8FE39460B48FBF7D4FEF2B2214627
:105030000848FBF7D7FE0749C81FFD38FBF71CFEE1
:10504000054C601CFBF733F9217800020843286007
:10505000F8BD0000340F0020300E0020FFB585B0F1
:105060000F46044607ADF02200211D480E9E07F0B2
:1050700041F81B4A1021204605F0EEFE10220021C7
:10508000684607F037F80121684601700622394664
:105090006C46401C07F016F802222946E01D07F076
:1050A00011F80F4A6846089905F0ABFE102200215E
:1050B000684607F01FF8022168460170062239464B
:1050C000601C06F0FFFF02222946E01D06F0FAFFF1
:1050D000034A3146684605F094FE09B0F0BD000071
:1050E000400E0020F8B517460E4605461C46F02235
:1050F00000210B4806F0FEFF094A1021384605F052
:10510000ABFE074A2146284605F07BFE102E06D34B
:1051100021462846024A1031103005F072FEF8BDD3
:10512000400E0020F0B5044687B002200490002015
:1051300006460190002C78D04248816BCA0701D105
:10514000C80602D5012007B0F0BD002069460872EC
:10515000014614223C4806F0CDFF3B480121417036
:10516000384841732278002A04D0012A0AD0032A41
:1051700026D118E001736B461A7A0126D206D20EA8
:10518000403207E0E27B02736B461A7A0126D206B0
:10519000D20E80321A7222790192A26800920E25F4
:1051A000A78965570CE001736B461A7AE0231A430E
:1051B0006B461A726268012600920A252789655794
:1051C00001216A46117521490691097B91751D4897
:1051D00005A9007C02F0D3FCA84200D3054668B2C2
:1051E000002E1FD0174D2979002910D16946087368
:1051F00006980422007B887303A9287C02F037FDFF
:10520000002812D011496846007B203948703B467F
:1052100002A8009A019904F03BFA0490002806D0F5
:105220000020687104988EE7FFE703208BE70648AB
:1052300021780170034801221A300178114301706E
:10524000F0E7000038010020000E0020F00C0020E4
:10525000F8B500250446002818D039492778374882
:105260000E463836027C3B0005F04DF91E1214172D
:10527000191B1E2023252729303B394246484A4C1A
:105280004E50525654585A5C5E6062640320F8BD1A
:10529000407C00E0C07820714DE00079FBE7C06CF5
:1052A00000E0006D606046E02648FBE725481030CE
:1052B000F8E7807CEFE7C07CEDE7192012E0204999
:1052C0002039486C896CA160606034E01C49203949
:1052D00008467C30C96F40686160A0602BE01720F1
:1052E00000E0162069460870104602F048FCD9E735
:1052F000134820300078CEE7C868D3E70869D1E7C3
:105300004869CFE78869CDE7C869CBE77078C2E71D
:105310004878C0E73078BEE70878BCE7806AC1E724
:10532000C06ABFE7406ABDE74868BBE7087AB2E7F2
:10533000486BB7E702252846F8BD00003801002079
:10534000D00C0020B0090020F0B5002489B0074639
:10535000002806D0934D288FC00704D0012009B043
:10536000F0BD0320FBE7914E3A78304620300290A2
:10537000407B03908B488C49007C130005F0C3F8F8
:105380001E102124272A2D333C41F744819894A4F0
:10539000ABAEB1B4B7BAC9E5D6FAFDF7F4F3F2F79C
:1053A00038796874002804D0012804D0022802D17A
:1053B00002E0486B8047F3E00020687100F0E6FFF0
:1053C000EEE03879E870EBE038792871E8E0786849
:1053D000E864E5E078682865E2E07968002972D041
:1053E0001022734805E079680029F8D0704810222F
:1053F000103006F067FED3E03879A874096E88474C
:10540000CEE03879E874CBE0397A6A4611710399B5
:105410005171062201A902F02AFC002853D06348EA
:10542000BA682038796882644164687C022827D190
:10543000E878002824D05D4F0298F03700970821C3
:105440004156327A7368287C01F0BFFE687D38705F
:10545000706A786002983A46407B3874E87C7874C9
:105460000120F874B8742C323946287C02F0C7FB4E
:1054700000287DD0B87CF16802F08EFCF87CE873DF
:105480008EE0397A6A46117103995171062201A999
:1054900002F0EDFB00286BD04448BB6820387A68E6
:1054A0008021C2670B507BE079680691012102E000
:1054B0007968069100216A46117706A901F075FC0A
:1054C000002855D06CE053E03879411E0E294FD8A2
:1054D0000299087064E07868F06061E07868306193
:1054E0005EE0786870615BE07868B06158E0786889
:1054F000F06155E03A7969460A71052201A902F086
:10550000B6FB002834D0684601792848383041700D
:1055100046E039796A461171042201A902F0A7FB1D
:10552000002825D068460079707039E03A796946DC
:105530000A71082201A902F09AFB002818D06846D7
:1055400001791A48383001702AE039796A461171B8
:10555000072201A902F08BFB002809D068460079D8
:1055600030701DE018E011E00AE006E002E016E00D
:10557000032415E07868A86212E07868E8620FE01A
:105580000A48796838304160716009E00748397924
:1055900038300172317203E07868706300E00224F1
:1055A0002046DCE638010020D8CD0008D00C0020D1
:1055B000B0090020F0B50446022085B00090002C10
:1055C00036D04748008FC00718D10C22002145482B
:1055D00006F090FD434E01207070414D2078082761
:1055E0001A35002806D001285DD0022866D003288D
:1055F00050D16BE03A48018FC90602D5012005B0B1
:10560000F0BD6168002913D0A168002910D0E168BD
:1056100000290DD0217C00290AD06A461173304838
:105620001E2203A9007C02F022FB002802D00AE01F
:105630000320E4E71F2168460174294804A9007C7F
:1056400002F09DFA20742878694638432870207843
:105650003070234E60683064A0687064E068B064A5
:10566000207C707600203076087102F00BFB307ED3
:105670006946401C088102A9307C01F072FB1A497E
:10568000002348701A46194601A804F001F800905A
:10569000002806D01249002048712878F7210840D8
:1056A00028700098ABE728780022384328702078CB
:1056B000307011460220FBF7F5FBE8E730702878E0
:1056C00038432870A08804F065F8E0E73070287847
:1056D00038432870227BA088A16804F085F8D6E7BB
:1056E00038010020140E0020D00C0020FEB508AFB9
:1056F00070CF6F4670C700F001F8FEBDFFB50D46D4
:10570000002681B01F460124F0223146294806F0C8
:10571000F1FC284A1021039805F09EFB26480A99BF
:1057200041718771390AC171390C0172390E4172A8
:105730000B9981720B991F4F090AC1720B99090CC1
:1057400001730B99090E4173203F18E01A48194A5A
:10575000C473641C1146A4B2203905F052FB00202A
:105760003118019A3B5C525C401C5A400C9B80B241
:105770005A541028F4D3103D1036ADB2F6B2102DA5
:10578000E4D2002D13D00B4A0B481146C4732039C4
:1057900005F037FB002008E0019A3118525C3B5CB1
:1057A0005A400C9B401C5A5480B2A842F4D305B016
:1057B000F0BD0000400E0020B4010020F3B52B48DE
:1057C00087B00E46427869460A710078284C087600
:1057D000207A617A4018C5B2002E32D00021684686
:1057E000017221794172206B2049039038394A783F
:1057F000684602741D4F09784174183F397B8174E3
:1058000020463030009006AB01AA02A9207C01F0AE
:1058100099FA397B684681750179417509210175CD
:10582000E07C002802D00A206946087505A9207C82
:1058300002F0A5F9C0B27070A84205D3401B3070C9
:1058400006E0032009B0F0BD3070002525726572B6
:105850006846042141562A46079804F0D3FD0028E3
:1058600001D00020EEE70820ECE70000080D002042
:105870003801002038B504466846054D04700B22F7
:105880006946287C02F0F3F9002800D02C7538BD59
:1058900038010020FF220132811A90420CD009DC2D
:1058A00008280DD008DC012808D0022806D00428DA
:1058B00002D105E00F221202072070470520704731
:1058C00006207047704700001CB504464078002849
:1058D0001BD106F0FBF8002801D006F0E5F8607B4C
:1058E000012812D1E078E02810D069464871207B69
:1058F0000871A06800900848E1890181217C8172CB
:105900005838C0680169684688471CBD034920466D
:1059100006F0E2F81CBD00000C010020C8080020C1
:1059200010B50446007800280CD0012809D1607811
:10593000002806D106F0CAF8002802D0204606F05A
:10594000BBF810BD6078002802D0FFF763F810BDE7
:105950000248C0684069804710BD0000B4000020C4
:10596000704700008307FF22DB0E9A408907090E6B
:10597000994000280BDA0007000F08388308084810
:105980009B001818C36993430B43C3617047830896
:1059900004489B001B181868904308431860704720
:1059A00000ED00E000E400E0BFF34F8F044903483E
:1059B000C860BFF34F8F00BFFDE700000400FA0589
:1059C00000ED00E010B50B4804F0BCF90A4841793D
:1059D000002905D001218173816B042291438163E9
:1059E000407C022805D1044810221A300178114366
:1059F000017010BDD40D00203801002010B506F054
:105A00002FF910BDF8B500278B4804F09BF98B4D9A
:105A10008B4C2878C1067BD5A16B4A0604D5402261
:105A2000914349084900A16383490207D431002604
:105A3000002A01DBC20711D07F4AC0325378022B03
:105A400002D04B78022B09D1A36B5B085B00A363E8
:105A50002672637B537116710127966062793A430F
:105A6000754F503F002A39D1020702D4C10703D134
:105A700034E00A78002A06D03978A27A914216D901
:105A800081071AD425E0227E8A72497800290BD03A
:105A9000617E8A421DD3BFF34F8F6B496948C8604E
:105AA000BFF34F8F00BFFDE7A662A6720CE0800730
:105AB00003D42672206B401C2063A67260780028F5
:105AC00002D1A06A401CA062A06B40084000A06305
:105AD00004E0EF210840287000F094FC287880074B
