:020000040800F2
:10000000B8190020D5000008614C0008CD3B00085D
:1000100000000000000000000000000000000000E0
:100020000000000000000000000000004F6F00080A
:100030000000000000000000A1570008118A00081D
:10004000E7000008E7000008F75D0008E700000887
:10005000E7000008BB130008CB130008DD130008FD
:10006000E7000008E7000008E7000008E7000008D4
:10007000E7000008E7000008E7000008E7000008C4
:10008000E7000008E7000008E700000800000000A3
:10009000E7000008E7000008E7000008E7000008A4
:1000A000E7000008E7000008E7000008E700000894
:1000B000E7000008895D000800000000E700000874
:1000C0000348854600F048FD00480047C5AB0008DE
:1000D000B81900200448804704480047FEE7FEE7BF
:1000E000FEE7FEE7FEE7FEE7A58A0008C10000087C
:1000F00030B50B46014600202022012409E00D46C0
:10010000D5409D4205D31D469540491B2546954047
:1001100040191546521E002DF1DC30BD70B500248B
:100120002546002801DA01244042002901DA012590
:100130004942FFF7DDFFAC4200D04042002C00D026
:10014000494270BDF0B51FB40646002082B0054696
:100150004024019100901BE0019922460F46304651
:1001600000F0C4FB049A059B801A994110D31046F5
:100170001946224600F0AAFB361A8F410197224603
:1001800001200021009F00F0A1FB38184D41009094
:100190002046641E0028DFDC019B00982946324679
:1001A00007B0F0BDF0B51FB486B0002000900190FC
:1001B00002900698069980B204900798090C0204F0
:1001C0000014114307900027089D099806913E46A8
:1001D0003C4603900398A9B20204000C03900498D3
:1001E0002D0C154348430021224600F06FFBC71930
:1001F000714110340E46402CECDB3846029A00F078
:1002000065FB009A019B801800905941029801916A
:10021000103002904028CCDB00980BB0F0BD0346B4
:100220000B439B0703D009E008C9121F08C0042A2A
:10023000FAD203E00B780370401C491C521EF9D21D
:100240007047D2B201E00270401C491EFBD27047D9
:100250000022F6E710B513460A4604461946FFF792
:10026000F0FF204610BD421C0178401C0029FBD144
:10027000801A704730B505460020034600E05B1C3D
:10028000934205D2EC5CC85C201A01D1002CF6D157
:1002900030BD0321001D401E037812021A43491E7F
:1002A000F9D510467047F8B502464A40D40F4200CF
:1002B0004B0052085B089A4202D202460846114699
:1002C0004A0023D0C30D4A00DDB2120EAD1A202D14
:1002D00035DA49020126490AF6058A19002C00D0B0
:1002E000524220214F1B1146B9402A411018C20D1D
:1002F0009A4221D0002C17D0012D08DCDA05801A93
:10030000D20F8019D207DBB200F01CFBF8BDDA0572
:10031000801A012340001B06C01880185A4280181A
:10032000CA0F1043490007E04908C2071143DA0524
:10033000801A80194008801800F0FCFAF8BD6100AE
:100340000122511A001BF7E70122D2075140AAE708
:100350000122D2075040A6E7024670B54A40D30FAB
:10036000DB0740002DD04A002AD0010E140E0002F7
:1003700012020919400A520A8418E501044654433E
:10038000000A120A2E045043A4194219200CC54336
:10039000AA18120C0125AD03521C521912047F3900
:1003A000240400D0521C104301D44000491EC2B2A4
:1003B0000C06C0092018401C4008802A02D003E027
:1003C000002070BD40084000002900DA00201843DA
:1003D00070BD0000F0B507460846584087B0C00F12
:1003E000049048000E46590040084908BC1A88414C
:1003F00005D2384631461E4617460B46024658007F
:10040000400810434CD0300D039040055900400D7A
:10041000490D0590401A0290402872DA1803012114
:10042000000B09050843019004980092002805D0AC
:100430000199524200208841009201900298402187
:100440000A1A0199009800F041FA05460C466B46DD
:1004500007CB00F05CFAC0197141039A0E0D00231E
:10046000D71756401A467A40164344D0049A002AB9
:100470002DD0029A012A039A15DC1205C01A914167
:1004800001263605001C7141D20F059ED20700934C
:10049000019202962A46234600F09AFA07B0F0BD70
:1004A00038463146FAE71605224A0F46B218C01AF6
:1004B000B74101210905001C4F4100187F41114639
:1004C00018187941E20F10436D19644113E0E207F7
:1004D0006D0815436408C2071443039A01261205E8
:1004E000C01A91413605001C7141CE0740083043C7
:1004F0004908C01851412A46234600F05CFACDE76E
:10050000FFE7049801224000C117121A00238B4113
:1005100004983146C417381AA141EEE730B40124DB
:10052000E407634030BC55E730B40124E407614080
:1005300030BC4FE70000E0FFF0B51FB488B00B9966
:100540000998002448400999C00F490049080991B9
:10055000C0070B990090490049080B910999089828
:10056000A64608431CD00B990A98084318D009984E
:1005700001244000420D4800410D09982405000364
:10058000000B204309900B980003000B20430B90B5
:1005900050181C494018002201901446104605E0EE
:1005A000002001460DB0F0BD032801DA034600E04B
:1005B00003239C46C11A0AAE0AE05F0008ADED5B5A
:1005C0004F00F75B7D430027AA187C41491C5B1E46
:1005D0006145F2DD410004AB5A522104120C0A437A
:1005E000240C401C0828DFDB01980290009970461B
:1005F00001910090059B049A0799069800F0E8F98C
:10060000D0E700000DFCFFFFF0B50C465C4085B064
:10061000E40FE40703944C00002664085900944654
:10062000490802460296224321D062460A431ED060
:100630006200570D4A000E032303550D01240246A4
:100640002C492405781B1B0B360B401823432643EB
:10065000614600901C46501AB44103D30098401CD8
:10066000009002E0921800985B41002803DA002015
:10067000014605B0F0BD0020012109050746864668
:1006800011E064461D46141BB54106D36546521B56
:10069000B341744607430C43A646CD0740084908BA
:1006A000284392185B4105460D43EAD11046184392
:1006B00013D06046194650407140084306D060464A
:1006C000101AB34106D20122002306E000220123C2
:1006D000DB0702E00122D243531000987446010563
:1006E000381C6141029C039D0019694100F063F9C7
:1006F000BFE70000FD03000070B54B005B0803433B
:100700000BD04B005C0D002633466542B341D41735
:10071000AD1AA34102DB0020014670BD120530185E
:10072000514170BDC217C10F504010B54018CA07E3
:100730009623002100F006F910BD10B50022962383
:10074000114600F0FFF810BD0EB5C217C10F5040A2
:10075000CA0740180021054B0293019200910A46F6
:100760000B4600F035F903B000BD00003304000073
:100770000EB505490291002100910A460B460191F0
:1007800000F026F903B000BD33040000C20F4100A1
:1007900040020123400ADB05D207090EC0187F2959
:1007A00001DA00207047962903DC9623591AC840C5
:1007B00001E096398840002AF4D04042704700009A
:1007C00070B5CD0F4A0009030123090B1B0519431E
:1007D0000B4BED070024520D9A4201DA002070BD48
:1007E000074B34339A4203DC9A1A00F07FF802E098
:1007F0000449511888402C43F1D0404270BD00009C
:10080000FF030000CDFBFFFF4A0009030123090B92
:100810001B051943094B10B5520D9A4201DA00200D
:1008200010BD064B34339A4203DC9A1A00F05EF88E
:1008300010BD03495118884010BD0000FF0300009F
:10084000CDFBFFFFC20FD207400040080BD0C10D07
:100850000723DB01C91840020905400A1143C208F9
:1008600040071143704700200146704710B500292A
:1008700004DB0124E40740428C412146002B04DBC9
:100880001C460123DB075242A341994200D190420A
:1008900010BD0000CB0FDB07490010B54908024628
:1008A0000A4307D00A0D07240903E401090B121BB0
:1008B000002A01DC002010BDC900440F0C43C10018
:1008C000E018D205801800F035F810BD10B5202AC8
:1008D00004DB0146203A9140002010BD91402023C6
:1008E0009C1A0346E3401943904010BD10B5202ADE
:1008F00004DB0846203AD040002110BD0B46D3400F
:10090000D0402024A21A91400843194610BD10B5CA
:10091000202A06DBCB170846203A1041C1170B43AB
:1009200006E00B461341D0402024A21A9140084310
:10093000194610BD002904DA401C490001D14008C5
:100940004000704770B40024050C05D11024000449
:1009500002D1002921D01124050E01D10002083452
:10096000050F01D10001241D850F01D18000A41CB9
:10097000002801DB4000641C002908D020252E1B24
:100980000D46F540A14000D001212943084301064E
:100990001B1B000ADB1D02D5002070BC7047DB0565
:1009A000181880180029F8DA401C4900F5D170BCED
:1009B00040084000704710B5002B08DA0024401CA6
:1009C000614192185B411A4301D14008400010BDBB
:1009D000F0B51FB482B005460C0003D0084608F0FD
:1009E00093FB02E008F090FB203002460090214685
:1009F0002846FFF76BFF049B059A04460F461843F1
:100A00001143084314D0184610431BD000984021CE
:100A10000A1A18460599FFF769FF05460E46009A1F
:100A200005990498FFF752FF084305D0012004E020
:100A30002046394607B0F0BD0020C11705430E43DC
:100A40002C43374300990E986305401A7905E40A50
:100A500000220C43FD0A0A3002D500200146E9E7D6
:100A60000105101969410C9C0D9D00196941FFF7A2
:100A7000A2FFDFE7F8B50546480040080C462843CA
:100A800004D06000184A400D904201DD2846F8BDB0
:100A900015493539884210DC88420BDB290D2003CB
:100AA00008432903014305D0E00F1049C00741184E
:100AB0000020F8BD00200146F8BD161A4020821B18
:100AC00028462146FFF702FF0746009128462146A7
:100AD0003246FFF70BFF3A46009BFFF76CFF3246AA
:100AE000FFF7F4FEF8BD0000330400000000F03F03
:100AF0004A0009030123090B1B0519430A4B10B5D2
:100B0000520D9A4202DA0020014610BD064B3433E2
:100B10009A4203DC9A1AFFF7E9FE10BD034BD21884
:100B2000FFF7D4FE10BD0000FF030000CDFBFFFF68
:100B300010B5002904DB0124E40740428C41214622
:100B4000002B04DB1C460123DB075242A3418B42EE
:100B500000D1824210BD0000064C0125064E05E082
:100B6000E36807CC2B430C3C98471034B442F7D3CE
:100B7000FFF7AAFA2CCE00084CCE000870B58C18EE
:100B80000578401C6B075B0F01D10378401C2A11CC
:100B900006D10278401C03E006780E70401C491C08
:100BA0005B1EF9D12B0705D40023521E0DD40B7008
:100BB000491CFAE70378401CCB1A921C03E01D780D
:100BC0000D70491C5B1C521EF9D5A142D8D30020E0
:100BD00070BD000038B50446064805490068FFF7B7
:100BE00087FA604300E0401E00900028FBD138BD2A
:100BF00040420F0044000020F8B5044600688168B8
:100C00008907890F012902D10168C90722D18168AA
:100C1000114A10261140012500290ED1816829436F
:100C200081600120FFF7D6FF01F008F907460CE0CC
:100C300001F004F9C01B0A2807D9A06D3043A06554
:100C4000E06D2843E0650120F8BD20680068C043DE
:100C5000C007EDD10020F8BD17000080F0B589B0C5
:100C60000C46074610220021684609F0E5FF694658
:100C70002246084608F0EAFE684600788726010604
:100C8000684600290FDA00214318425C5B78520065
:100C9000DB091A434254491C0F29F5DBC17B02468C
:100CA000490071400DE000214318425C5B7852001E
:100CB000DB091A434254491C0F29F5DBC17B02466C
:100CC0004900D173E21DF9325169102912D001781F
:100CD00009061BD500214518435C6D785B00ED09C2
:100CE0002B434354491C0F29F5DBC17B03464900C4
:100CF000714019E000216218FF3201325378455CDF
:100D0000491C6B4053701029F5DB26E00021451883
:100D1000435C6D785B00ED092B434354491C0F295C
:100D2000F5DBC17B03464900D973E11D556980237A
:100D3000FA316B54002500E05D5453695B1C53612C
:100D4000102BF9D300216218FF3201325378455C31
:100D5000491C6B4053701029F5DB002162181046C6
:100D6000FF32E0300132437C5278491C53404374D7
:100D70001029F3DB21461022F13104A809F044FFC9
:100D80002246394604A808F061FE10220021684678
:100D900009F052FF09B0F0BD10B504461022002141
:100DA000F13009F049FFFF20002115300151F022F8
:100DB000204609F041FF10BD0B4610B50246102138
:100DC000184608F06DFE10BDF0B50446FF308BB03C
:100DD0000F4601300890E11D4069FA310091103949
:100DE00015460791002843D010210E1AAE4200D3B9
:100DF00016460099B2B24018394609F005FF089826
:100E0000089940698019486110283AD3B54238D012
:100E1000002162181046FF32E0300132437C5278E4
:100E2000491C534043741029F3DB079922460846B6
:100E300008F00CFEBF19AD1B1AE000202118E031AC
:100E40004A7C3B5C401C5A404A741028F6DB102256
:100E500002A8079909F0D8FE02A92246084608F020
:100E6000F5FD102202A9079809F0CEFE103D1037BB
:100E7000102DE2D8AAB23946009809F0C5FE0898AC
:100E800045610BB0F0BD0000F7B523498022497AD7
:100E9000214B511ACDB2197A5B7A8026F31A0A4691
:100EA000DEB2871E491C0124C9B2761E3B0008F041
:100EB0005AF909060C060C120C06062B3000164BCC
:100EC000AA4224D2154CA05403E0134BB24215DBC6
:100ED0001DE019720DE0104EAD1EAA4217DA0F4B3D
:100EE000985401985854491CC8B202991954401C8E
:100EF0003072002408480121C17108E0074CA05459
:100F000001986054491CE4E7034BAA42F6D32046FB
:100F1000FEBD0220FEBD000030010020D6100020E2
:100F200010B586B014216846FFF792F90D48C26AE1
:100F300001210A43C262C06A0B4C08400590102090
:100F40000090002002900320019103906946204602
:100F500000F0A6FE01221021204600F068FF06B036
:100F600010BD0000001002400004005010B5FFF753
:100F7000D7FF00F051FB00F077FB10BD70B50446C1
:100F800000F0FAF8124E606000221021304600F0A6
:100F90004EFF012002F042FA0E4D2880012210215E
:100FA000304600F044FF02F0F9FA28880A4909881F
:100FB00048430A49FFF7B2F8FFF7B4FBA0600121EC
:100FC00005200903000700F02DFF206070BD000020
:100FD000000400504C00002054000020FF0F0000CF
:100FE00010B50AF0EBFB0AF07FFC10BD70B5144E93
:100FF0000025144C0DE000F07FFB2168012870549F
:101000000CD00D280FD00A280DD07F2913D0491CF1
:10101000216002F0DDFD0128EDD070BD06202560C5
:1010200009F0D4FB70BD0029F3D07554044809F0D1
:1010300019FF2560EDE70420256009F0C7FBE8E70C
:101040000B0A0020AC0000203EB50D4C6946E2784A
:101050000A70227D8A70C870606B07F053FD0190A2
:10106000E06B0290E07D69464870207C04F0C8FF88
:10107000218CE06B4143081AA16D4018A0653EBD6C
:1010800030010020FFB5002085B0009005460646DF
:101090000190002477000698C15B0120A040014226
:1010A0002AD028190C210390484307990958002990
:1010B00022D0079941180820029108560211000712
:1010C0000117059840B205F09EF9002814D0029847
:1010D000407A010108980818C068002804D00198D7
:1010E000401CC0B2019007E0009A0E990398885402
:1010F0000098401CC0B20090641CE4B2102CCAD30B
:101100001035761CEDB2F6B2482DC2D30F99019876
:101110000870009809B0F0BD30B587B0142168465A
:10112000FFF796F80320019000200290032040036F
:10113000104C0090E06A01210843E062E06A084038
:10114000059005206946000700F0AAFDE06A400806
:101150004000E062606B0125AD052843606300F04C
:10116000EFFC00F0FDFC00F0F3FC606BA843606353
:1011700007B030BD0010024010B500F0D3F8442095
:1011800000F0DAF8114800F0F3FC00F0CBF8BE20D4
:1011900000F0D2F800F09EF8044600F09BF8000240
:1011A00000B2204308D5C043401CFFF7CDFA00220F
:1011B000074BFFF7C1F905E0FFF7C6FA0322D24358
:1011C000FFF79AFAFFF766FB10BD0000EE02000081
:1011D0000000B0BF00B50A4887B0C26A02210A43C6
:1011E000C262C06A0840059008200090002001906B
:1011F000012002906946034800F052FD07B000BD8F
:10120000001002400004005000B50A4887B0C26ACE
:1012100002210A43C262C06A039108400590082077
:101220000090012001906946034800F039FD07B0A5
:1012300000BD0000001002400004005070B5002402
:10124000FFF7C8FF134D04E0641CE4B2012000F076
:10125000A5F80821284600F0E5FD002802D0642CFE
:10126000F2D310E0642C0ED2002404E0641CE4B23B
:10127000012000F093F80821284600F0D3FD002853
:1012800003D0F02C04D3012070BDF02CEED3FAE78C
:10129000002070BD0004005010B5FFF7B5FF0C4CE6
:1012A00000220821204600F0C2FD0A2000F076F856
:1012B000FFF790FF0821204600F0B4FD012805D07B
:1012C00000222D2000F06AF8104610BD0122F8E738
:1012D0000004005070B500252C46FFF7DDFFA0404C
:1012E0002843641CE4B2C5B2082CF6D3284670BD6E
:1012F00010B5FFF789FF094C00220821204600F0B5
:1013000096FD074800F04AF801220821204600F027
:101310008EFD0F2000F042F810BD000000040050C8
:10132000EE02000010B5FFF7E3FFFFF787FFCC20C8
:1013300000F002F810BD000070B50546FFF764FF2D
:10134000154E0024E807C00F6D0800280ED00022BB
:101350000821304600F06BFD082000F01FF8012244
:101360000821304600F063FD3A200DE000220821FC
:10137000304600F05CFD462000F010F80122082104
:10138000304600F054FD022000F008F8641CE4B27E
:10139000082CD7D370BD00000004005006E00021E7
:1013A000491CC9B20429FBD3401E80B20028F6D1E3
:1013B000704710B502F092F910BD10B5012000F091
:1013C00063FC022000F060FC10BD10B5042000F0AA
:1013D0005BFC082000F058FC10BD000010B5102088
:1013E00000F052FC202000F04FFC402000F04CFCAC
:1013F000802000F049FCFF20013000F045FC012076
:10140000400200F041FC0120800200F03DFC012080
:10141000C00200F039FC0120000300F035FC01207F
:10142000400300F031FC08494869400406D5074AEA
:10143000012010608003486100F022FC0120C003FD
:1014400000F022FC10BD0000000401405C00002000
:10145000FEE7000010B5084900224A6107494B68C1
:101460004C1523434B604B68082423434B60C00951
:10147000C001026010BD0000840300200020024073
:1014800010B5214A00219069C305204804D541695F
:10149000022319434161911593699B0505D5436961
:1014A0000124234343616302194393695B0505D516
:1014B0004369082423434361E301194393691B05EE
:1014C00005D54369042423434361630219439369A7
:1014D0009B0405D5436910242343436163021943E8
:1014E00093699B0304D5446920231C434461194339
:1014F0009369DB0305D54369402423434361A0027C
:101500000143916110BD00000020024084030020CF
:1015100070B5054600F092FC0646184C0AE0681CBF
:1015200008D0002D04D000F089FC801BA84201D90E
:10153000032070BDA069C007F1D1A069800701D563
:101540000220A061A069C00511D4A06980050ED455
:10155000A06940050BD4A069000508D4A0698004E7
:1015600005D4A069800302D4A069C00303D5FFF7A6
:1015700087FF012070BD002070BD000000200240E8
:1015800010B5044600F05EFB0749002011C10120A0
:1015900008600649044800F0F1FA002800D0FEE790
:1015A00000F028FB10BD0000780300202000002080
:1015B00070B50646002400F045FB0A4D0AE0A00085
:1015C00032582946022000F01FFB002800D0FEE719
:1015D000641C2D1D09F006F9A042F0DC00F00AFBA6
:1015E00070BD00000090010870B50D46044600F083
:1015F00029FB21462A46022000F006FB002800D0E5
:10160000FEE700F0F7FA70BD0168024841604068EB
:10161000704700002000002000B587B01421684604
:10162000FEF716FE0D48C26A02210A43C262C06A72
:101630000291084005900A480190032003906A46F1
:101640004903084801F050FF00221146072000F02E
:1016500035FC072000F028FC07B000BD0010024058
:10166000000021100004005000B587B01421684626
:10167000FEF7EEFD0B48C16A01221143C162C06A48
:101680000B211040C902009105900020019002201A
:1016900002900320039005206A46000701F024FF12
:1016A00007B000BD001002400649800009580648F6
:1016B000091803D0C14203D00020704701207047B1
:1016C000022070474CBF0008702FFCFF10B5094A7C
:1016D0000021CB00D458844207D89B189B688342D2
:1016E00003D9C8008018007910BD491CC9B215295A
:1016F000EFD3FEE768BA0008EFF3108172B6054B2E
:10170000D81F5A68F938105C521CD2B281F3108885
:101710005A60704750070020F8B50546044640352A
:10172000287D0026012808D00120287520688168BE
:101730008907890F01290ED101E00220F8BD016857
:10174000C90708D0A06D20210843A065012600200C
:1017500028753046F8BDA16DFF2201329143022267
:101760001143A165C1688907890F0091C168890883
:101770008900C1602068816892071143816000F090
:101780005DFB07460EE000F059FBC01B0A2809D993
:10179000A06D0221884310210843A0650020287510
:1017A0000120F8BD206880680028ECDB2068C16853
:1017B000009A1143C160A06D80088000401CA065A4
:1017C000C5E70000F8B506460D464036317D0129D3
:1017D0000DD00121317501688A68520709D5816DE4
:1017E000202211438165002030750120F8BD0220C0
:1017F000F8BD174B6A68D80547109A42154C8A6A9B
:101800002B6812D05B035B0B1A438A622968490379
:1018100005D5A1680143A1600A20FFF7DBF928681C
:10182000800312D5A06838430EE05B035B0B9A433C
:101830008A622968490302D5A1688143A1602868AA
:10184000800302D5A068B843A06000203075F8BDC1
:1018500001100000002701400068006C7047000084
:1018600070B5040006D0A06D26460025403600283D
:1018700002D006E0012070BDE5653575204600F018
:10188000D1F8A06DC00603D421688868400705D54B
:10189000A06D10210843A0653575EBE7A06DFF2210
:1018A0000132904302221043A06588688207920F9C
:1018B0005A48012A02D10A68D2072BD10323626851
:1018C0009B079A4205D05B429A4202D05B009A4243
:1018D00009D10A69920092080A6121680A6963685D
:1018E0001A430A610CE00A69920092080A61816851
:1018F0000F22920491438160816862681143816084
:101900002168CA6818239A43CA602168CA68A36814
:101910001A43CA608168012252069143816081683E
:10192000228F52061143816020688168C90004D467
:10193000816801221207114381602068C168384A1A
:101940001140C1602169E068022923D000210843C9
:10195000216A226B4903520011430843616B08431B
:10196000A16989030843E169C90308432168CA687A
:101970001043C860A06A0146FF39C23905D0E16A48
:1019800008432168CA681043C860606A01210128C1
:1019900002D00BE00421DAE7206A002823D0A06DF2
:1019A00020221043A065E06D0843E065206C01280B
:1019B00020681FD00169C90703D00169490849009F
:1019C000016120684169C908C90041612068416915
:1019D000E26B11434161E565A06D80088000401C09
:1019E000A065002070BD2068C26801231B041A4353
:1019F000C260DBE70269FF239B009A430261206813
:101A00000269636CE66C1A43A36C33431A430261A8
:101A1000206802690A430261D3E700000027014001
:101A20001902FEFF7047F8B5044640692546403567
:101A30000E4608280BD02068C068C00709D0A06DEA
:101A400020210843A065002028750120F8BD082743
:101A500000E00C2700F0F2F9009011E0701C0FD0AC
:101A6000002E05D000F0EAF90099401AB04207D9DB
:101A7000A06D04210843A065002028750320F8BD4F
:101A8000206800683842E9D0A06D0121490208436E
:101A9000A0652068C16809058A0F0C21002A1AD1A7
:101AA000226A002A17D10268120714D582685307E8
:101AB0000122002B08DB43688B434360A06D1302B7
:101AC00098431043A06506E0A06D20231843A0654D
:101AD000E06D1043E065A069002801D12068016035
:101AE0000020F8BD70B504462168002089684907C8
:101AF00021D425464035297D01291CD00121297595
:101B0000E169012904D02046FFF776F8002811D1B9
:101B1000A16D0A4A1140FF2201321143A165002143
:101B2000E165297522681C21116021688A680423F7
:101B30001A438A6070BD022070BD0000FEF1FFFFF5
:101B40000248416849084900416070470058014017
:101B500002484168042291434160704700580140A7
:101B60000248416802229143416070470058014099
:101B700001B50098FFF71DFC08BD0000F8B51A4E2E
:101B80000546307C0F46012807D0012030741748E5
:101B9000FFF7BEFC010002D021E00220F8BD0020CA
:101BA000C04338606C6814E02046FFF753FC0F48D0
:101BB000FFF7AEFC01460E48426808239A43426094
:101BC000426843159A434260002901D03C6006E018
:101BD0008034A8686A68C0018018A042E4D8002058
:101BE00030740846F8BD00008403002050C3000094
:101BF0000020024003484168022211434160002056
:101C00007047000000200240F8B50C4C1646207CBE
:101C10000F46012808D0012020740948FFF778FCFE
:101C20000025002802D006E00220F8BD65613E6074
:101C30000348FFF76DFC2574F8BD00008403002005
:101C400050C300000948416889070CD54168C9079D
:101C500003D00749C1600749C160074901610749CD
:101C60000161002070470120704700000020024001
:101C7000EFCDAB8905040302BFAE9D8C161514137E
:101C800010B501F05BFC10BD10B504494A69024271
:101C900002D04861FFF7F4FF10BD000000040140CE
:101CA000F8B500230124A7E027469F403A4070D0B2
:101CB0004D68022D01D0122D14D1DD08AD002D1874
:101CC00000952D6A5E07AC46F50E0F26AE46AE4077
:101CD0006546B543AC460E697546AE4065462E4333
:101CE000009D2E624D68012D05D0022D03D0112DCF
:101CF00001D0122D16D185680326AC465D00AE4694
:101D0000AE406546B543AC46CE687546AE406546C6
:101D10002E43866046680D79BE43ED06ED0F9D406B
:101D20003543456006685F000325BD40AE46AE43BF
:101D30000D79B446AE07B60FBE4065462E43066029
:101D4000C6687546AE438D68BD403543C5604D6875
:101D5000ED0050D52B4D6E6B26436E639E082A4DC9
:101D6000B6007519AC46AD689E07360F0F27B74011
:101D7000BD4305273F07B84201D100271AE0234F92
:101D8000B84201D1012715E0214FB84202D1022704
:101D900010E030E01F4FB84201D103270AE01E4F88
:101DA000B84201D1042705E01C4FB84201D10527F4
:101DB00000E00627B7402F436546AF60184D2E68F8
:101DC0004F689643FF0300D516432E606E684F6838
:101DD0009643BF0300D516436E60AE684F689643C6
:101DE000FF0200D51643AE60EE684F689643BF020F
:101DF00000D51643EE605B1C0A681546DD4000D036
:101E000052E7F8BD001002400000014000040050FD
:101E100000080050000C005000100050001C005042
:101E2000000401400069084000D001207047002AEA
:101E300001D08161704781627047000001480068ED
:101E4000704700004800002002480168491C0160FA
:101E5000704700004800002010B5064801680222C3
:101E600011430160032000F007F800F007F800209C
:101E700010BD0000002002400020704710B5084847
:101E8000816B02041143816300F02CF800F022F80A
:101E90000448016808221143016000F013F810BDE6
:101EA0000010024000200240C106C90E01208840F7
:101EB000014908607047000000E100E010B502F041
:101EC000D1FE10BD02480168021511430160704740
:101ED00000700040024801684215114301607047DC
:101EE0000070004002480168102291430160704771
:101EF00000700040094B1A689208920002431A6071
:101F00000748026904239A430261012903D040BFB4
:101F100020BF20BF704730BF7047000000700040F6
:101F200000ED00E00A4B1A689208920002431A6022
:101F300008480369042213430361012906D040BF06
:101F400020BF20BF016991430161704730BFF9E7AD
:101F50000070004000ED00E0F8B566490746012535
:101F60000020ED03624B634A4031102F6FD011DC2B
:101F7000012F77D0022F6CD0042F6BD0082F24D1E3
:101F8000C9680324240321407BD0BD026C10A94200
:101F90007CD0A0E00326584C3604202F0BD0402FD5
:101FA00035D0FF3F012F10D1C968314069D07C0482
:101FB000A1426BD096E00B690969012731403F04CB
:101FC000B94203D1990559E02846F8BD01256D04B1
:101FD000A94203D19907F8D54848F8BDB142FCD1D0
:101FE00011688903F9D5116803200005014001201B
:101FF0000005091A09D0091A05D0814201D14048CB
:10200000F8BD2046F8BD3F48F8BD3F48F8BDC96857
:102010000125AD06294006D0A942F7D1916889076C
:10202000F4D53A48F8BD11688901FBD5D068D1686C
:102030008002374D000F2D5C0802810FD068491CCB
:10204000C0030AD41068C00605D5204606E045E066
:1020500008E023E030E0184600E02E486843FEF731
:1020600047F8F8BDCC68A407A40F0CD0022C0DD003
:10207000012C10D0032CF4D1096989050029A3DBB8
:10208000F8BD16E002E000F0D1F9F9E71168490760
:10209000F6D51846F4E700F0D9F9F1E7CC680C263C
:1020A000344006D0082CF1D0042CF4D00C2CE3D012
:1020B000E6E700F0ABF9E3E7CC680326B60234406C
:1020C000F7D00127FF02BC42E0D07A109442E2D060
:1020D000B442D1D0D4E7A142DDD0D1E7916B49021F
:1020E000E7D4CDE7012212049142D4D0C8E7000022
:1020F0000024F4000010024000093D008890000018
:1021000020A1070040420F0080841E00006CDC020A
:1021100090BB000800127A00F8B5044600785E4DC6
:10212000800672D55C4E0027403EB06BC00004D4E0
:10213000B06BA9050843B063012758480168C90579
:1021400011D40168821511430160FFF777FE0090FA
:1021500005E0FFF773FE0099401A642837D84F480E
:102160000068C005F5D532680321090560680A409A
:102170000140914208D08103890F032904D13168BD
:10218000890301D50120F8BD2A69032109040A4009
:1021900022D0084090421FD0207880061CD52869A4
:1021A0002A6988430121C9040A432A612A698A43AA
:1021B0002A612861C0050FD5FFF740FE009008E0B6
:1021C000FFF73CFE0099411A3548814201D90320AE
:1021D000F8BD28698005F3D561688803800F03285E
:1021E00005D132680005824301400A433260286904
:1021F000032261681204114008432861002F04D0B3
:10220000B06B012109078843B0632078C00705D06F
:10221000E868A168800880000843E86020788007AB
:1022200005D5E8680C218843E1680843E860207818
:10223000400706D5E86803218902884321690843DD
:10224000E8602078000706D5E86803210903884381
:1022500061690843E8602088C00506D5E868032165
:1022600009048843A1690843E8602078400606D540
:10227000E868012189068843216A0843E8602078DC
:10228000000606D5E868032189048843E16908430C
:10229000E8600020F8BD00004010024000700040DF
:1022A00088130000F8B5054653480E460068C0077D
:1022B000C00FB0420AD25048016849084900314372
:1022C00001600068C007C00FB0426FD128784B4C46
:1022D000800705D5E068F0218843A9680843E060DD
:1022E0002878C00752D06868022817D0032818D071
:1022F0002168012818D08905002957DAE168890882
:1023000089000143E160FFF799FD696807460229EA
:1023100012D003291CD0012926D033E0216889037B
:10232000EAE721688901E7E74907E5E7FFF786FD66
:10233000C11B3348814223D8E0680007800F022880
:10234000F4D123E0FFF77AFDC11B2D48814217D855
:10235000E0680007800F0328F4D117E0FFF76EFD57
:10236000C11B274881420BD8E0680007800F012875
:10237000F4D10BE0FFF762FDC11B2148814201D976
:102380000320F8BDE0680007800FF3D11A48016808
:10239000C907C90FB1420BD9016849084900314347
:1023A00001600068C007C00FB04201D00120F8BD35
:1023B0002878400706D5E068072109028843E968C4
:1023C0000843E0602878000707D5E0680721C902C4
:1023D00088432969C9000843E06000F037F8E168E4
:1023E000084A0906090F515CC840074908600320E4
:1023F000FFF742FD0020F8BD00200240001002401F
:102400008813000080BB00084400002004480549F0
:102410000068C968044A4905490F515CC8407047C3
:10242000440000200010024099BB00080448054900
:102430000068C968044A8904490F515CC840704764
:10244000440000200010024099BB000810B5184A53
:10245000D1680C20084004280BD0082810D00C2884
:1024600010D050680004410F0120C003491C88406F
:1024700010BD1068C00601D50E4810BD0E4810BD35
:102480000E4810BD88020E4B000F185C0902D3687D
:10249000890F491CDB0301D5084A05E01268D20602
:1024A00001D5044A00E0044A5043FDF721FE10BD67
:1024B0000010024000093D000024F40000127A00E0
:1024C00090BB0008F8B504460078FF4DC0074CD01B
:1024D000E8680007800F022807D0E8680007800F2F
:1024E000032809D1E868C00306D5286880033CD5D5
:1024F0006068002875D038E00120626800048242DC
:1025000003D129680143296011E0052301211B043F
:1025100089049A422A6802D10A432A60F1E7824379
:102520002A602A6802400092286888432860606810
:1025300000280DD0FFF782FC0646E44F04E0FFF7C9
:102540007DFC801BB8427DD828688003F7D50CE05D
:10255000FFF774FC0646DD4F04E0FFF76FFC801BBD
:10256000B842F0D828688003F7D42078800741D596
:10257000E8681F270007800F3F02012807D0E8689E
:102580000007800F032809D1E868C00306D4286833
:10259000400717D5E068012823D113E0E068002840
:1025A00017D029680922914301432960FFF746FCAF
:1025B000064604E0FFF742FC801B0228C3D82868C7
:1025C0004007F7D568682169B84309020843686085
:1025D00010E02868400840002860FFF72FFC0646FE
:1025E00005E090E0FFF72AFC801B0228ABD82868A2
:1025F0004007F7D42078C00676D5E868B44E0007C7
:10260000800F0BD0E06900285DD02868FF210131E0
:1026100008432860FFF712FC074644E0286880055D
:1026200002D5E06900286ED0606A6968314088424E
:1026300012D903F071FB0028AED16868616AB0431B
:10264000084300E0E4E068606868218C0002000A4A
:102650000906084368600FE06968B1430143696097
:102660006868218C0002000A090608436860606AF5
:1026700003F052FB00288FD1606A410B0120C00398
:10268000491C8840E968934A0906090F515CC84013
:10269000914908600320FFF7EFFB25E0FFF7CEFB31
:1026A000C01B02288AD828688005F7D56868616A47
:1026B000B043084368606868218C0002000A09067C
:1026C0000843686010E02968FF20013081432960D9
:1026D000FFF7B4FB064604E0FFF7B0FB801B0228BF
:1026E00084D828688005F7D420787C4E000723D54D
:1026F00060690028306910D0012108433061FFF77C
:102700009DFB074605E009E1FFF798FBC01B022887
:102710007ED830698007F7D50EE040084000306170
:10272000FFF78CFB074604E0FFF788FBC01B02287D
:102730006ED830698007F7D42078400761D5A86B40
:102740000027C00005D4A86B012109070843A8632E
:10275000012763480168C90511D401688215114336
:102760000160FFF76BFB009005E0FFF767FB009946
:10277000401A64284CD85A480068C005F5D5FF2097
:10278000A2680130824203D131690143316111E015
:1027900001218902002A07D005231B029A4203D196
:1027A00032690A433261EFE732698243326130694C
:1027B00088433061A06800280ED0FFF73FFB0090EF
:1027C00006E0FFF73BFB0099411A404881421FD8C1
:1027D00030698005F5D50DE0FFF730FB009006E08D
:1027E000FFF72CFB0099411A3848814210D8306914
:1027F0008005F5D4002F04D0A96B01200007814388
:10280000A9632078800630D53649A0694A1400E0D3
:102810007DE0002816D0AB6801200343AB606B6BF2
:1028200003436B63086A10430862FFF707FB064621
:1028300004E0FFF703FB801B022868D8A868800724
:10284000F7D512E0A86840084000A860086A9043E5
:102850000862FFF7F3FA064604E0FFF7EFFA801B81
:10286000022854D8A8688007F7D4A06A002853D05B
:10287000E9680907890F032950D001263606022886
:10288000286805D0B0432860FFF7D8FA044640E036
:10289000B0432860FFF7D2FA074604E0FFF7CEFA0C
:1028A000C01B022833D828688001F7D4216BE06A66
:1028B000EA680843616BFD231B049A4311430843F4
:1028C000E860286830430FE00010024088130000E1
:1028D00000E0000080BB00084400002040100240DF
:1028E00000700040000001402860FFF7A7FA04468E
:1028F00004E0FFF7A3FA001B022808D8286880012B
:10290000F7D509E0FFF79AFA001B022801D9032046
:10291000F8BD28688001F5D40020F8BD0120F8BD7D
:1029200030B5014620310A78012A15D001220A70FB
:1029300002234B700468CA236362046853236362F2
:1029400003689C6820252C439C600068FF23436239
:102950004A700020087030BD022030BD10B506F06E
:10296000F3F810BDF8B5054604462035287801284F
:102970001DD001202870022068702268CA20506291
:10298000226853205062FF2001300026FF27814239
:102990001CD121688A6882438A602068816801228C
:1029A000120391438160FFF749FA009009E0022089
:1029B000F8BDFFF743FA0099411A7D20C00081421B
:1029C0001BD82068C068C007F3D020E02068816869
:1029D0000122520291438160206881681201914373
:1029E0008160FFF72BFA00900DE0FFF727FA0099BE
:1029F000411A7D20C000814205D92068476203202A
:102A000068702E70F8BD2068C0688007EDD520681A
:102A10004762012068702E700020F8BD10B5006874
:102A20000B464068C021C94301400002000ECC049F
:102A3000D870E40E5C708C06A40E0904490F9C70DB
:102A40001970002A0AD103F0A7F9D870587803F05A
:102A5000A3F95870987803F09FF99870002010BD82
:102A600030B50B460168896A5960016809694904F3
:102A7000490C9960006804680F48214601408802AB
:102A80004D04800E18706D0E49065D70490E9970E8
:102A90006102490E40242140D970002A0AD103F076
:102AA0007BF91870587803F077F95870987803F02C
:102AB00073F99870002030BD7F7F7F0070B50400EF
:102AC00005D0254620356878002802D006E0012090
:102AD00070BD00202870204600F042F80220687087
:102AE0002168CA204862216853204862204603F0CA
:102AF00066F9FF210028206803D041620420687035
:102B0000E5E78268154B1A40826022689068636826
:102B1000A669184323693343184390602268E0682C
:102B200010612068026923891B041A43026120682E
:102B3000C26880239A43C2602068C26C92089200E7
:102B4000C264E269606902432068C36C1A43C264CC
:102B50002068416201206870002070BDBFFF8FFFB8
:102B600000B597B00420009000200A90FF200130AB
:102B700002906846FFF7A6FC002801D0FEF768FC2B
:102B800020200E90C0020F900EA8FFF7C5FA002873
:102B900001D0FEF75DFC084801690122920411434F
:102BA0000161002211460220FFF788F90220FFF799
:102BB0007BF917B000BD000040100240FEB506468C
:102BC0000446203630780B46012842D00120307070
:102BD0000220707020681D46002720358068002A7A
:102BE00039D0400655D5187803F0D6F8287803F088
:102BF000D3F819789878090408435978DA780902E3
:102C0000120411430843297809060843D969084387
:102C10005969084305469969586808430090216836
:102C2000CA204862216853204862FF205A6A013056
:102C3000802182424AD1226893688343936022684C
:102C4000D0680840FF388238D060FFF7F7F801906D
:102C500029E00220FEBD400600D4DF70187803F0A2
:102C6000A3F80204587803F09FF800020243987812
:102C700003F09AF80243D87800040243287803F05E
:102C800093F800060243D869024358690243154687
:102C9000C1E7DF70AAE7FFF7D1F80199411A7D205B
:102CA000C00081422AD82068C068C007F3D02068DD
:102CB000C56121680098486420688168FF2201325C
:102CC0001143816020688168120130E020688268C9
:102CD00001235B029A4382602068C2680A401D4952
:102CE0005118C160FFF7AAF801900EE0FFF7A6F8AF
:102CF0000199411A7D20C000814206D92168FF2038
:102D00004862032070703770FEBD2068C06880077D
:102D1000ECD5206805622168009888642068816885
:102D2000012252021143816020688168120111431F
:102D3000816009480268012149040A4302608268EF
:102D40000A4382602168FF2048620120707037705A
:102D50000020FEBD7FFDFFFF00040140F8B50546E1
:102D60000446203528780B46012815D0012028700C
:102D7000022068705878002A10D003F00DF8987877
:102D800003F00AF8D8789E7800040643587819783A
:102D900000024903084316E00220F8BDC10603D52E
:102DA000EF2108400A305870D87802F0FDFF060481
:102DB000587802F0F9FF00020643987802F0F4FF19
:102DC00006431878400306432168CA2048622168F8
:102DD00053204862204602F0F2FF0027002811D15C
:102DE00010480640206846602068C16880229143F0
:102DF000C1602068806880060CD4204600F08CF802
:102E0000002807D02168FF204862042068702F70D6
:102E10000120F8BD2168FF204862012068702F70F2
:102E20000020F8BD3FFFFF00F8B5064604462036F7
:102E300030780D4601280ED00120307002207070CD
:102E4000206800278068002A07D040061AD5287815
:102E500002F0A2FF17E00220F8BD400600D4EF7098
:102E6000287802F0A1FF0204687802F09DFF0002BA
:102E70000243A87802F098FF0243E8780004024376
:102E800000920BE0EF702978A8780904084369786C
:102E9000EA78090212041143084300902168CA200D
:102EA0004862216853204862204602F088FF0028CB
:102EB0001FD118490098084021680860206881687F
:102EC00001229204914381602969E86808432168DE
:102ED0008A68104388602068C16880229143C1607D
:102EE0002068806880060CD4204600F015F8002881
:102EF00007D02168FF2048620420707037700120DD
:102F0000F8BD2168FF2048620120707037700020F2
:102F1000F8BD00007F7F7F0070B504460068C1687F
:102F2000A0229143C160FEF789FF7D260546F60089
:102F300006E0FEF783FF401BB04201D9032070BDBD
:102F40002068C0688006F4D5002070BD70B504000C
:102F500006D025464035687C0026002802D005E0D2
:102F6000012070BD2E74204600F032F802206874F3
:102F700020680168402291430160A168606822696D
:102F80000843E16811430843616901220843A169CC
:102F9000520211400843E1690843216A0843A16ACB
:102FA000084321680860A0690421000C0840616A98
:102FB0000843216848602168E06A08612068C169A7
:102FC00092009143C161666501206874002070BD64
:102FD0007047F8B504460027684607802646403605
:102FE000707C012802D0707C22287ED100290CD070
:102FF000002A0AD0002B08D0307C012875D001208F
:103000003074707C012802D003E00120F8BD32202A
:1030100070746765A263A387E3872163A386E38651
:10302000A764E7640125A06A6D03A84207D1206860
:103030000168A94301602068016829430160206894
:103040000168490603D4016840221143016001214F
:10305000FF20E268C90205308A42616866D1002912
:1030600004D081420CD1E08E012809D1206B216867
:103070000088C860206B801C2063E08E401EE086C4
:10308000E08E002843D1A06AA84246D1206801689A
:1030900001221203114301603FE02068C068A16B68
:1030A0000880A06B801CA063B0E0002202212046B3
:1030B000069B03F0F3FE00287DD1206B2168008879
:1030C000C860206B801C2063E08E401EE086E08E8E
:1030D000002808D1A06AA84205D120680168012211
:1030E000120311430160002200E0CCE001212046E0
:1030F000069B03F0D3FE00287FD12068C068A16B37
:103100000880A06B801CA063E08F401EE087E08EEB
:103110000028CAD1606800287BD100220121204606
:10312000069B03F0BBFE002867D1B6E7002904D058
:1031300081420BD1E08E012808D1206B411C216314
:1031400021680078C860E08E401EE086E08E00288E
:1031500045D1A06AA84205D1206801680122120366
:1031600011430160002201212046069B03F096FED8
:10317000002842D12068C068A16B087046E0002298
:1031800002212046069B03F089FE002835D1206BE2
:10319000411C216321680078C860E08E401EE086F3
:1031A000E08E00280AD1A06AA84207D120680268F0
:1031B0000121090300E020E00A430260002201210E
:1031C0002046069B03F06AFE002816D12068C268DC
:1031D000A06B411CA1630270E08F401EE087E08E6F
:1031E0000028CCD16068002813D10022012120469C
:1031F000069B03F053FE002802D00320F8BD08E030
:103200002068C168A06B421CA2630170E08F401E61
:10321000E087A06AA8420FD1002201212046069B28
:1032200003F03CFE002802D0606D02210EE0206811
:10323000C068694608800888012280212046069BD4
:1032400003F02CFE002804D0606D20210843606547
:10325000D3E701207074A06AA84211D12068816868
:10326000C943C9060CD4616D02221143616501682E
:10327000A943016020680168294301603774C4E6EE
:1032800037740020BAE70220B8E7014660310A7AB5
:10329000012A0DD001220A7224224A7200680268B3
:1032A00002231A43026020204872002008727047EF
:1032B00002207047FEB5054604466035287A002690
:1032C0009446012811D001232B72242068722068B3
:1032D00002689A4302602768B86803221205904387
:1032E0000843B860002902D015E00220FEBD604608
:1032F0000091019021686A46928848681027B84377
:1033000010434860206841686A4609029279090AB8
:103310001206114341602068016819430160FEF7FD
:103320008DFD0949009103460121002289052046AF
:1033300005F084FE002801D0032601E020206872F9
:10334000002028723046FEBDFFFFFF0170B504006B
:1033500005D025466035687A002802D006E00120B5
:1033600070BD00202872204600F026F824206872E4
:1033700020680168490849000160606A002802D09D
:10338000204605F0ADFC204605F040FD0128E7D0C1
:10339000206841680922D202914341602068816817
:1033A0002A22914381602068016801221143016053
:1033B000204605F0FBFC70BD10B508F057FA10BDB3
:1033C00010B51248017800291ED10122027011485F
:1033D0000F49016000210164C161D307816143602D
:1033E00082638160C160016207234162C36302613D
:1033F000C1620422426101630748416B42151143D7
:1034000041630448FEF72CFA10BD0000880000203C
:1034100000240140F0040020001002407CB51E4949
:10342000064609780020002934D01C484168C94369
:103430000907FBD41A4C606B6515284360630021B3
:103440001848FEF769F91848009018480190694635
:103450001448FEF7B7F9A014019069460096114888
:10346000FEF7B0F90F48FEF73DFB0021C9430D48B8
:10347000FEF7D9FA0B48FEF7EFF90A4980B20A685D
:103480009368022633439360096803220A60616BE4
:10349000A94361637CBD00008800002000700040EB
:1034A00000100240F0040020FFFF070001100000A0
:1034B000014600200A0A00D00820084A114201D023
:1034C00004221043064A114201D002221043054A49
:1034D000114201D00121084370470000F0F00000C4
:1034E000CCCC0000AAAA000038B50B231B07C518D6
:1034F000114B0FD01C152D1B18D02D1B19D0A54218
:10350000DD6A05D108242543DD62DB6A234007E03C
:103510008024F8E7DC6A01252C43DC62DB6A2B405F
:10352000009311601146FEF7BBFB38BDDD6A022433
:10353000E9E7DD6A0424E6E70010024010B5FFF772
:10354000B7FF810002484058002800D0804710BDD6
:103550009C03002070B51C4615460E460846FFF732
:10356000A7FF0A49002C0DD080000C50304601F016
:1035700011FB044600222946FEF7A0FC2046FEF778
:1035800093FC70BD002280000A5070BD9C03002097
:1035900010B5D2B2FEF74BFC10BD000070B5002490
:1035A0001148FFF73BFF114D01000CD01048114AA4
:1035B000008B5043FCF79CFD80B20E492880884266
:1035C00003D9FE240DE000202880E120C0008642BF
:1035D00007D3301AFE2148434B210901FCF788FD2F
:1035E000C4B2204670BD0000000002445400002018
:1035F0006000F81FB80B000003494A690869496A6E
:1036000050404840704700004000F81F70B5114816
:10361000FFF704FF104C01001AD0208B0F4A5043D3
:10362000FCF766FD05460E48FFF7F8FE68430B49B8
:10363000FCF75EFD618B0522401A12035043E28BBA
:10364000511AFCF76BFD0F214902401880B270BD82
:103650000025E8E7000002446000F81FB80B0000F6
:10366000000004480F494B6A0A69D218120EC27151
:103670004B6A0A69D218120C82710A8A8B8CD21892
:10368000120A42710A7C8B8CD21802714A69120E9E
:10369000C2704A69120C82708A8A120A4270097DCD
:1036A000017070474000F81F10B50A4C6078002880
:1036B0000ED1FFF785FE08480068804700F0DCF96E
:1036C00000F090F808F07AF8FDF750FC01206070E7
:1036D00010BD00008800002018BB000870B5410E26
:1036E000C0017D220023FCF72DFD054600F072F895
:1036F000044600E000BF00F06DF8001BA842F9D3BB
:1037000070BD000070B505460C4600222048FFF74A
:10371000A7F9002229461E486668FFF77FF90022B4
:1037200021461B48FFF79CF96068B042F1D1E87868
:10373000184A01465043C01C8308880726D0164902
:1037400068783D220646504302463C3A7000801E8F
:10375000C1408807D10F8918800F4910081AC01876
:10376000A978401E08180D493C2248436178E1239E
:10377000514322781B015A438918A278101808185F
:10378000074A61688002511A401870BD0549D7E7A1
:10379000DC030020B5050000A0AA990080510100BB
:1037A000FF030000505544000320704701480068A3
:1037B000704700002804002000B587B0694605A8BE
:1037C000FFF7A0FF0249096807B0401A00BD0000DA
:1037D0002804002000B587B0694605A8FFF792FFCE
:1037E00007B000BD10B5084C207800280AD100F0C1
:1037F0004BF8FF2101310548FFF7B4F800F074F8E9
:103800000120207010BD00004E000020DC030020CD
:1038100010B50C4C0021042000F0F6FB21688868EC
:10382000C0040ED5C868C0050BD5C86880221040FA
:10383000FF388238C8600449900248612046FFF78B
:103840008DF810BDDC0300200004014070B5044673
:10385000FFF7B2FF211A0B4D0220285EC01C8142E7
:1038600001D9002100E00121042000F0CDFB00F08F
:10387000A3FB012802D10220285E241A204600F072
:103880003FF870BD4E00002010B51449144886B0B2
:10389000002412C01F210160846004611149446149
:1038A00041600838FFF70AF96946CC750120487570
:1038B00088750875002205A90948FFF74FFA00949A
:1038C000019404940022694605480394FFF7ACFA7A
:1038D0000348FFF725F806B010BD0000002800409F
:1038E000DC030020FF03000010B5044C2046211D1E
:1038F0001830FFF707FF206010BD000028040020EB
:10390000F0B587B0044614223F4901A8FCF787FCB4
:103910003D485038406E009000F07EF83B480299D8
:103920003B4A401AA105890D081887B2A10A6846CA
:103930008078534202E08918401C80B29942FAD242
:103940006A461579E122120102E0891A6D1CADB2B6
:103950009142FAD26A46547902E0641CA4B23C391E
:103960003C29FAD2927951188EB20121890203E0E2
:103970007A1A761C97B2B6B28F42F9D203E03C3E77
:10398000641CB6B2A4B23C2EF9D203E03C3C6D1CE0
:10399000A4B2ADB23C2CF9D203E0183D401CADB24C
:1039A00080B2182DF9D26946C978890769464A78E4
:1039B00027D01849491E515C814202D2FCF798FB7E
:1039C00008461249CA1B10492C394A600522520682
:1039D0008A618E704C700A460D70203210706846F5
:1039E000C079C8700020C861FF2248610132C860F8
:1039F0004A620861024608462438FFF7DFF807B03C
:103A0000F0BD04490C31D5E72C040020FF03000071
:103A100080AEFEFFA1BB000810B506480168C8686B
:103A200080221040FF388238C86051000148FEF7FC
:103A300099FF10BDDC03002010B57D2105F07BFB54
:103A40004906C009084310BD10B5410EC0017D22D2
:103A50000023FCF777FB10BD01B582B00020C04306
:103A60000090012301AA02A90248FFF7B2FA6846B2
:103A700080880EBD4404002010B51C481A4901601E
:103A80001C4A1B4B0021126803E05208491C0729FD
:103A900001D29A42F9D84A078B07D20FDB0F5201A5
:103AA0001B011A43C90700D008210A43C261002143
:103AB000816001614161FF22C16005328162426023
:103AC000012201625202826141620B48416B821401
:103AD000114341630548FFF739FA002801D0FDF78B
:103AE000B7FC00F045F810BD003001404404002050
:103AF00080969800440000200010024070B586B007
:103B000014216846FCF7A4FB05260125022436078C
:103B10006A468021304601950294FFF7E5FC0022B9
:103B200080213046FFF734FD6A464021304602943A
:103B3000FFF7DAFC002240213046FFF729FD6A46F4
:103B4000202130460294FFF7CFFC0022202130468E
:103B5000FFF71EFDA4036A46214630460295FFF793
:103B6000C3FC012221463046FFF712FD06B070BDAE
:103B700030B585B014216846FCF76AFB022001903D
:103B800002900320039000200524240704906A4635
:103B900020212046FFF7A8FC6A4640212046FFF777
:103BA000A3FC6A4680212046FFF79EFC012101917B
:103BB000CD0302916A4629462046FFF795FC012273
:103BC00029462046FFF7E4FC05B030BD00BFFDE705
:103BD000EFF3108172B6054805C8824201D001207A
:103BE00000E0002081F3108870470000500700209B
:103BF00010B504480021017102214171002100F03B
:103C00002FF910BD6400002010B50AA007F086FE51
:103C1000002000F0C7F80A490A4804F07FFF0A486C
:103C20000A4940684118074804F0E0FF01F07AFDB6
:103C300010BD00004A4F494E45440A0D00000000E7
:103C400025570008DC0400205400002012FDFFFF6F
:103C500070B5224D224A69602249E8600A60224A12
:103C60004A60224A8A6029460068083108600822B2
:103C70001C4800F035FA1B4C02200C342070686898
:103C800000782071204600F0DFFC07202070686873
:103C900080782071204600F0D7FC00202070207131
:103CA000204600F0D1FC2946012010314870686898
:103CB0000F4C41782846503001752046FDF7A4FC92
:103CC000002804D002F09CF800F014F870BD04F055
:103CD000D9FD11212046FDF787FC70BDB000002002
:103CE000C54B00081C0B0020C94B0008214C0008E4
:103CF000808F010870B5234D002029782E46103E94
:103D000086B0012928D0204C032121706060204614
:103D100000F09AFC04202070E8686060204600F003
:103D200093FC05202070284628306060204600F073
:103D30008BFC06202070284638306060204600F05A
:103D400083FC012020702071204600F07DFCF0688B
:103D50004069804706B070BD69460870094801ADEA
:103D6000801C01900E300290083003907068C0787B
:103D700008741ECD04481C381EC0684600F09AFD29
:103D8000E8E70000C0000020280B00200EB501214C
:103D90006846017000F0DCFB68460079012800D01D
:103DA00000200EBDFEB50646002469460C7068462C
:103DB00000F0CEFB69460879B04221D0114F651E54
:103DC000002E02D0022E1BD10CE0002818D108468C
:103DD00000F03AFC002803D1F868816900200EE069
:103DE0002C460DE0002800D02C4602200871084621
:103DF00000F02AFC0028F3D1F86881690220884786
:103E00002046FEBDB000002070B50446027901686E
:103E1000407907F09DF90BA007F080FD61790DA0B6
:103E200007F07CFD002505E02068415D0AA007F051
:103E300075FD6D1C2079A842F6DC05A007F06EFD2B
:103E400070BD0000526563656976652064617461C8
:103E50000A0D000025643A00253032780000000089
:103E600070B586B00E46044606F094FB0025ED437F
:103E7000002822D1207904A900F020FE024600216A
:103E80001548002A04D06A461170029191811FE002
:103E9000002E15D0012269460A7062790A712279D2
:103EA0008A812168029108226946CA73007D88735D
:103EB000684600F0B7FA002800D0284606B070BD6A
:103EC0006A4611706179117121799181216802919D
:103ED000007D9073ECE700000001002010B50B4856
:103EE0000168002904D000F014F800F03AF810BD81
:103EF0004068002804D000F013F800F033F810BD3B
:103F000000F006F800F02CF810BD0000C001002001
:103F1000704710B501210020FDF7ECFF10BD000037
:103F200010B5EFF3108472B6FFF7E8FD094840685A
:103F3000804709480168042211430160074801686D
:103F400020229143016084F3108801210846FDF787
:103F5000E9FF10BD18BB0008007000400048004099
:103F60007047704710B5EFF3108472B610480168BF
:103F700001221143016001684907FCD50168012253
:103F800012061143016001688901FCD5C168032252
:103F90001143C160C1680907890F0329FAD1FFF7EE
:103FA000E7FD04480068804784F3108810BD0000D6
:103FB0000010024018BB0008EFF3108172B60748EA
:103FC0000268002A01D0002005E04068002801D0E6
:103FD000012000E0022081F310887047C00100201A
:103FE00010B5EFF3108272B6064B00295C6803D05F
:103FF000012903D1044300E084435C6082F310880C
:1040000010BD0000C001002010B5EFF3108272B6A1
:10401000064B00291C6803D0012903D1044300E0AA
:1040200084431C6082F3108810BD0000C001002092
:1040300070B50446884200DD01460D46042A0CD0C6
:1040400004220021184602F0DDF8322803D2052CA4
:1040500000DC05242546284670BD022CFADC02242B
:10406000F8E70000F8B5174605460A461948069CC9
:10407000089E0799447183711C0AC4711C0C047258
:104080001B0E437281720B0AC3720B0C0373090E71
:104090004173D4B2C4731048FCF77EFE39460E4813
:1040A000FCF78AFE10220B490B48FCF78DFE2246D6
:1040B00029460948FCF788FE0749C81FFD38FCF768
:1040C000CDFD064C601CFCF7E4F8217800020843A3
:1040D0003060F8BD9C0100203C1400203813002003
:1040E000F8B50E46050017467ED028680028FBD09C
:1040F00068680028F8D0A8680028F5D0104602F0BB
:10410000B1F9002871D0764C00212666E56522467B
:1041100027741A3211706174A163217601266676C4
:10412000E1746165A1650B216A46117038466946E4
:1041300002F087F9002800D0012020750821684688
:1041400001706946207C02F07CF9664D05212870DB
:10415000684601706946207C02F073F968700C2192
:10416000684601706946207C02F06BF9E8600D2119
:10417000684601706946207C02F063F928610E21CF
:10418000684601706946207C02F05BF968610F2186
:10419000684601706946207C02F053F9A86110213D
:1041A000684601706946207C02F04BF9E8611321F2
:1041B000684601706946207C02F043F92F4620379B
:1041C00078701421684601706946207C02F039F944
:1041D00068621521684601706946207C02F031F959
:1041E00038721A21684601E076E077E0017069468E
:1041F000207C02F026F938731B216846017069465D
:10420000207C02F01EF978731C2168460170694613
:10421000207C02F016F928631D216846017069466A
:10422000207C02F00EF968630021207C02F013F973
:104230003E700A2206216A60284629723838426098
:104240000172E968C1602969016169694161A9690F
:104250008161E969C1612030067002F089FD28465C
:104260002149383004F05AFC7D212846C9003830F5
:1042700004F0BCFC28461D49683004F04FFC284679
:104280001B497C3004F04AFC28461A49903004F05F
:1042900045FC28461849CC3004F040FC04F02CFCC6
:1042A0006063284615494C30016015498160154905
:1042B0000161154941601549154DC160A9688847DC
:1042C000E869804706F08AFFA674296E3046884761
:1042D000686B80470020F8BD0320F8BD0A20F8BDB8
:1042E0003001002010120020054D0008B5560008CE
:1042F000F955000859560008C54C0008D15400086B
:10430000354F000809540008BD55000869540008DD
:1043100018BB0008F8B504461D4617460E460D4862
:10432000FCF73AFD39460B48FCF746FDF2B2214650
:104330000848FCF749FD0749C81FFD38FCF78EFC0B
:10434000054C601CFBF7A5FF21780002084328609C
:10435000F8BD00003C14002038130020FFB585B0E4
:104360000F46044607ADF02200211D480E9E06F0C0
:1043700063FC1B4A1021204605F092FB102200210D
:10438000684606F059FC012168460170062239464C
:104390006C46401C06F038FC02222946E01D06F05F
:1043A00033FC0F4A6846089905F050FB10220021A3
:1043B000684606F041FC0221684601700622394633
:1043C000601C06F021FC02222946E01D06F01CFCC0
:1043D000034A3146684605F039FB09B0F0BD0000DC
:1043E00048130020F8B517460E4605461C46F02235
:1043F00000210B4806F020FC094A1021384605F040
:104400004FFB074A2146284605F020FB102E06D315
:1044100021462846024A1031103005F017FBF8BD3E
:1044200048130020F0B5044687B002200490002015
:1044300006460190002C78D04248816BCA0701D112
:10444000C80602D5012007B0F0BD002069460872F9
:10445000014614223C4806F0EFFB3B480121417025
:10446000384841732278002A04D0012A0AD0032A4E
:1044700026D118E001736B461A7A0126D206D20EB5
:10448000403207E0E27B02736B461A7A0126D206BD
:10449000D20E80321A7222790192A26800920E2501
:1044A000A78965570CE001736B461A7AE0231A431B
:1044B0006B461A726268012600920A2527896557A1
:1044C00001216A46117521490691097B91751D48A4
:1044D00005A9007C01F0B5FFA84200D3054668B2EB
:1044E000002E1FD0174D2979002910D16946087375
:1044F00006980422007B887303A9287C02F02CFC18
:10450000002812D011496846007B203948703B468C
:1045100002A8009A019904F001F90490002806D03D
:104520000020687104988EE7FFE703208BE70648B8
:1045300021780170034801221A300178114301707B
:10454000F0E700003001002008130020F8110020DF
:10455000F8B500250446002818D03949277837488F
:104560000E463836027C3B0004F0FDFD1E12141787
:10457000191B1E2023252729303B394246484A4C27
:104580004E50525654585A5C5E6062640320F8BD27
:10459000407C00E0C07820714DE00079FBE7C06C02
:1045A00000E0006D606046E02648FBE725481030DB
:1045B000F8E7807CEFE7C07CEDE7192012E02049A6
:1045C0002039486C896CA160606034E01C49203956
:1045D00008467C30C96F40686160A0602BE01720FE
:1045E00000E0162069460870104601F02AFFD9E75E
:1045F000134820300078CEE7C868D3E70869D1E7D0
:104600004869CFE78869CDE7C869CBE77078C2E72A
:104610004878C0E73078BEE70878BCE7806AC1E731
:10462000C06ABFE7406ABDE74868BBE7087AB2E7FF
:10463000486BB7E702252846F8BD0000300100208E
:10464000D8110020B80E0020F0B5002489B007462C
:10465000002806D0934D288FC00704D0012009B050
:10466000F0BD0320FBE7914E3A78304620300290AF
:10467000407B03908B488C49007C130004F073FD51
:104680001E102124272A2D333C41F744819894A4FD
:10469000ABAEB1B4B7BAC9E5D6FAFDF7F4F3F2F7A9
:1046A00038796874002804D0012804D0022802D187
:1046B00002E0486B8047F3E00020687100F0CCFF17
:1046C000EEE03879E870EBE038792871E8E0786856
:1046D000E864E5E078682865E2E07968002972D04E
:1046E0001022734805E079680029F8D0704810223C
:1046F000103006F089FAD3E03879A874096E88473B
:10470000CEE03879E874CBE0397A6A4611710399C2
:104710005171062201A902F01FFB002853D0634803
:10472000BA682038796882644164687C022827D19D
:10473000E878002824D05D4F0298F03700970821D0
:104740004156327A7368287C01F065FE687D3870C6
:10475000706A786002983A46407B3874E87C7874D6
:104760000120F874B8742C323946287C01F0A9FE77
:1047700000287DD0B87CF16802F084FBF87CE873F7
:104780008EE0397A6A46117103995171062201A9A6
:1047900002F0E2FA00286BD04448BB6820387A68FF
:1047A0008021C2670B507BE079680691012102E00D
:1047B0007968069100216A46117706A901F027FC65
:1047C000002855D06CE053E03879411E0E294FD8AF
:1047D0000299087064E07868F06061E078683061A0
:1047E0005EE0786870615BE07868B06158E0786896
:1047F000F06155E03A7969460A71052201A902F093
:10480000ABFA002834D06846017928483830417026
:1048100046E039796A461171042201A902F09CFA36
:10482000002825D068460079707039E03A796946E9
:104830000A71082201A902F08FFA002818D06846F0
:1048400001791A48383001702AE039796A461171C5
:10485000072201A902F080FA002809D068460079F1
:1048600030701DE018E011E00AE006E002E016E01A
:10487000032415E07868A86212E07868E8620FE027
:104880000A48796838304160716009E00748397931
:1048900038300172317203E07868706300E00224FE
:1048A0002046DCE63001002018BB0008D8110020AB
:1048B000B80E0020F0B50446022085B00090002C10
:1048C00036D04748008FC00718D10C220021454838
:1048D00006F0B2F9434E01207070414D2078082750
:1048E0001A35002806D001285DD0022866D003289A
:1048F00050D16BE03A48018FC90602D5012005B0BE
:10490000F0BD6168002913D0A168002910D0E168CA
:1049100000290DD0217C00290AD06A461173304845
:104920001E2203A9007C02F017FA002802D00AE038
:104930000320E4E71F2168460174294804A9007C8C
:1049400001F07FFD2074287869463843287020786C
:104950003070234E60683064A0687064E068B064B2
:10496000207C707600203076087102F001FA307EEB
:104970006946401C088102A9307C01F024FB1A49D9
:10498000002348701A46194601A803F0C7FE00909C
:10499000002806D01249002048712878F7210840E5
:1049A00028700098ABE728780022384328702078D8
:1049B000307011460220FCF767FAE8E7307028787B
:1049C00038432870A08803F015FFE0E7307028789E
:1049D00038432870227BA088A16803F035FFD6E712
:1049E000300100201C130020D8110020FEB508AFB4
:1049F00070CF6F4670C700F001F8FEBDFFB50D46E1
:104A0000002681B01F460124F0223146294806F0D5
:104A100013F9284A1021039805F042F826480A990C
:104A200041718771390AC171390C0172390E4172B5
:104A30000B9981720B991F4F090AC1720B99090CCE
:104A400001730B99090E4173203F18E01A48194A67
:104A5000C473641C1146A4B2203904F0F7FF00208F
:104A60003118019A3B5C525C401C5A400C9B80B24E
:104A70005A541028F4D3103D1036ADB2F6B2102DB2
:104A8000E4D2002D13D00B4A0B481146C4732039D1
:104A900004F0DCFF002008E0019A3118525C3B5C16
:104AA0005A400C9B401C5A5480B2A842F4D305B023
:104AB000F0BD000048130020AC010020F3B52B48E6
:104AC00087B00E46427869460A710078284C08760D
:104AD000207A617A4018C5B2002E32D00021684693
:104AE000017221794172206B2049039038394A784C
:104AF000684602741D4F09784174183F397B8174F0
:104B000020463030009006AB01AA02A9207C01F0BB
:104B10004BFA397B68468175017941750921017528
:104B2000E07C002802D00A206946087505A9207C8F
:104B300001F087FCC0B27070A84205D3401B3070F2
:104B400006E0032009B0F0BD3070002525726572C3
:104B50006846042141562A46079804F0A1FA002825
:104B600001D00020EEE70820ECE700001012002042
:104B70003001002038B504466846054D04700B220C
:104B80006946287C02F0E8F8002800D02C7538BD72
:104B900030010020FF220132811A90420CD009DC42
:104BA00008280DD008DC012808D0022806D00428E7
:104BB00002D105E00F22120207207047052070473E
:104BC00006207047704700001CB504464078002856
:104BD0001BD105F0DFFC002801D005F0C9FC607B8B
:104BE000012812D1E078E02810D069464871207B76
:104BF0000871A06800900848E1890181217C8172D8
:104C00005038C0680169684688471CBD0349204682
:104C100005F0C6FC1CBD0000000100200C0B0020AC
:104C200010B50446007800280CD0012809D160781E
:104C3000002806D105F0AEFC002802D0204605F081
:104C40009FFC10BD6078002802D0FFF753F810BD1C
:104C50000248C0684069804710BD0000B0000020D5
:104C6000704700008307FF22DB0E9A408907090E78
:104C7000994000280BDA0007000F0838830808481D
:104C80009B001818C36993430B43C36170478308A3
:104C900004489B001B18186890430843186070472D
:104CA00000ED00E000E400E0BFF34F8F044903484B
:104CB000C860BFF34F8F00BFFDE700000400FA0596
:104CC00000ED00E010B50B4803F0DAFF0A48417927
:104CD000002905D001218173816B042291438163F6
:104CE000407C022805D1044810221A300178114373
:104CF000017010BDDC1200203001002010B505F05D
:104D000013FD10BDF8B50027874803F0B9FF874DA4
:104D1000874C2878C10673D5A16B4A0604D540227A
:104D2000914349084900A1637F490207D431002615
:104D3000002A01DBC20711D07B4AC0325378022B14
:104D400002D04B78022B09D1A36B5B085B00A363F5
:104D50002672637B537116710127966062793A431C
:104D6000714F503F002A31D1020702D4C10703D14D
:104D70002CE00A78002A06D03978A27A91420ED91E
:104D8000810712D41DE0227E8A724978002903D05F
:104D9000617E8A4210D214E0A662A6720CE08007FF
:104DA00003D42672206B401C2063A6726078002812
:104DB00002D1A06A401CA062A06B40084000A06322
:104DC00004E0EF210840287000F074FC2878800788
:104DD00017D55548C0300179012903D0617B227B6A
:104DE00091420ED9A67366716178002902D1A16A39
:104DF000491CA162617B4171A06B40084000A06327
:104E00004FE0A07B00284CD0208FC00649D4A67369
:104E1000607B217B884231D208282FD8401C6073E8
:104E2000C0070DD0202168460170397B3E4F81704C
:104E3000703F797841706946207C01F002FB787000
:104E400003F096FB002814D037480921C030417088
:104E50002672A16B49084900A16366710671617BE6
:104E6000417131497039497881706078002815D0D6
:104E700017E02878EF210840287012E00121207CFB
:104E800001F0E9FAA06B40084000A06326482672B2
:104E90006671C0300671617B4171E6E7A06A401C13
:104EA000A062A06B810702D502218843A06300287D
:104EB0000ED07D21C9001C4803F098FE1A4803F06B
:104EC000A7FE287880072ED5607C02281DD01EE022
:104ED0002878C00708D0E06D01681348C0308847C3
:104EE00028784008400028702878000708D5E06D31
:104EF00081680D48D43088472878F7210840287009
:104F00002878EF2108402870DBE700F0A5FB28781F
:104F1000400704D4E06D41680348A83088472878EA
:104F2000F92108402870F8BD481200204A010020ED
:104F300030010020FFB50646002097B00C461190C6
:104F40000146099005460C90FE48079010300E90DF
:104F5000002013901290FC4801711838C2811A9AEF
:104F60000274FA4AD27B4274C170817041718160CF
:104F700001734173817441610170F548406B804752
:104F8000F148683803F07CFE3078694608704109C2
:104F9000601E0290201FEF4F1491109001291CD029
:104FA00003297DD005297BD007297AD039460120F5
:104FB000F831487000F036FDE44810221A300178CC
:104FC00011430170E3480121503003F00FFEE14826
:104FD000503003F01DFE1BB0F0BDDC48C178002945
:104FE00003D0D949012018394EE1D8480299DA4D49
:104FF000826C89B26B1C701CFFF7F4F9684600786C
:105000002870109809AB81B2D048826C2846FFF70F
:1050100081F928192038417F027F09021143827FDC
:10502000C07F12040A43000609991043884249D1FF
:10503000C448C64E10300090C24BF28B691CB06C55
:10504000FFF78CF96879297900020843A9790904E6
:105050000143F164287AE97900020843697A090476
:105060000143A87A000608433065E87A4106490FF3
:1050700000077970000F3872287BB84D0007000FC9
:10508000286101D1012028617D21C90048432861A0
:1050900040186861B0480D3004906846113C01E04A
:1050A00015E096E1047504A9307C00F095FFA6494F
:1050B0000020143148700120F070A6481830407864
:1050C000687079E7A04807211430417074E7797B54
:1050D000684681739C489D4F183801796846417332
:1050E00009210173F87C002802D00A206946087360
:1050F00003A9387C01F0A5F921460D3909B2002930
:1051000000DA0021814200D96BE7B178707809029A
:105110000143F0788D4A00040843317909060143C0
:105120000691126D05209142884917D04D6A0CE016
:105130002A6806998A4207D101211391291D0791F6
:1051400010310E916F6A0AE0AD6A002DF0D10B218B
:105150007D481838417000F065FC3CE7CF6A315C4F
:105160006A461170401C0B91335C401C305C02029B
:105170000807000F08300A9030191A432038017FC1
:105180000C9B1943437F1B020B43817FC07F0904A3
:105190001943000608430C90D01B81B20122D203B0
:1051A00009A80D91914212D27F1801970290012116
:1051B0001098009181B23046069B079AFEF752FF85
:1051C00009990C9888421AD10120129017E009B26F
:1051D00001227918120489181591019102901098F2
:1051E0000122009281B23046069B079AFEF73AFFF1
:1051F00009990C98884202D10120159F1290112024
:1052000069460873514803A9007C01F01AF90D9909
:10521000884205D84C480A211838417047619AE7FE
:105220001298002877D04848002118384170139A06
:1052300082700B9A444BD206D20F42718160017387
:1052400047614248597001634172139800280CD09D
:105250001846022118380170696AB94203D1002941
:1052600001D0082176E76F621FE0149805280DD061
:10527000364835490022827118390A70C06AB8422E
:1052800011D100280FD00820487064E72F482E4A1B
:1052900001218171183A1170C06AB84203D1002807
:1052A00001D0012011902948C762274800780128C1
:1052B00002D10B98800602D52449002008720A9872
:1052C000201A001F002852DD0A9D0A986D1C611BE0
:1052D000091F305CC9B20F911B491839C8700028EA
:1052E0000B9819D0000707D01A980821C3B2681E7E
:1052F000C2B2304600F0B4FB01200090164C01977A
:1053000002947019069B0E9A0F99FFF76FFB119884
:10531000002825D04FE05AE0000702D0012011906C
:1053200049E00D4801210290019700917019069BF8
:10533000079A0F99FFF75AFB1A980021C3B2064843
:105340000F9A1CE0B80E0020081300203001002046
:1053500018BB0008F8110020D70F0020D81100203A
:10536000264884600F990173012141730CE00B986A
:10537000000706D01A980821C3B230460A9A00F0F6
:105380006FFB1198002816D10B98800606D51B4993
:105390000120183108711839887408E01749002075
:1053A000183108711648417B007B814203D91348AC
:1053B000143803F065FC124902221A3108781043B0
:1053C000FB221040119A920010430870F4E50C2162
:1053D000BEE6711C22460B4805F016FC0748032167
:1053E00001700021417007498160029901730448EE
:1053F00002211A3002780A430270DDE5F012002023
:1054000030010020D70F002070B5144C607C0228BA
:1054100003D01348406B804701E000F01DF91148AC
:105420000E4DE27B01461A35102614316379002AAD
:1054300005D00622002B00D042704A700AE00522F7
:10544000002B00D042704A70606D03F05BFBA16ED0
:10545000884202D328783043287070BD3001002084
:1054600018BB00080813002070B5164C607C022899
:1054700003D01548406B804701E000F0EDF8134879
:10548000104DE27B01461A35102614316379002A4B
:1054900008D00422002B00D042704A70607C0228A1
:1054A0000BD170BD0322002B00D042704A70606D9A
:1054B00003F028FBA16E8842F3D32878304328708C
:1054C00070BD00003001002018BB00080813002048
:1054D000FEB503F011FB364C0646607C022803D073
:1054E0003448406B804701E000F0B6F8304DA078BA
:1054F0001A35002700282AD02F48616E03F076FB6A
:105500002D4803F085FB607C02280ED02A48A16E4E
:10551000143003F06BFB2848143003F079FB607CF7
:10552000022802D06079002820D012206946087233
:1055300002A9207C00F085FFA16E41181E48503062
:1055400003F054FB1C48503003F062FB0EE01A4895
:1055500004217C304770143041702878002801D134
:1055600001202870C0B21021084328702878000755
:1055700004D5114890300078002815D0E775607D7B
:10558000A07569460870E07848700196207C00F0AC
:10559000ACFF66656079002805D107487C3047700C
:1055A000A07A401CA072FEBD0120E075E7E7000074
:1055B0003001002018BB00088C12002010B50B48E9
:1055C000407C022803D00A48406B804701E000F08D
:1055D00043F80849022048701431487003481022EB
:1055E0001A3001781143017010BD00003001002015
:1055F00018BB00080813002070B5144803F040FBE6
:10560000134C0021114DE173607D28352870284628
:10561000BC384278EA70407B2874E07C6874A974D6
:10562000E974607C022802D10A48806B8047074AEF
:10563000207C68321146403900F043FF0348B438FB
:10564000C168A87C01F01EFC70BD00008C12002017
:105650003001002018BB000870B5144803F010FB9F
:10566000124D134C2835607D2E462870F03E706A2E
:1056700068602846D038407B2874E07C687401203C
:10568000E874617C022900D00020084AA8745432D2
:1056900011462C39207C00F014FF002805D0A87C8E
:1056A000F16801F0EFFBE87CE07370BDA012002010
:1056B000300100201FB5194803F0E2FA184C102100
:1056C000A06B8843A06320461A300078000721D5DC
:1056D0001248A430007800281CD101F049FB207E3C
:1056E0006946401C888103A9207C00F06CFC0B49B2
:1056F000A039487000206946087121790246C90125
:105700000A4369460A7203460246009002A901A8AC
:1057100000F048F802F02CFF1FBD000078120020B6
:105720003001002010B502F0A9FF05480549406886
:105730004118054803F05AFA034803F069FA10BD0E
:105740005400002012FDFFFFDC040020F0B50646E7
:1057500000242046002E01D0002A1ED10020F0BDDA
:10576000355DAF1E3B0003F0FEFC09161416061251
:10577000140E16061600641C1554E4B2401CC0B288
:10578000335D135400E01554401CC0B203E0A41C68
:1057900000E0641CE4B2641CE4B28C42E0D3F0BDCF
:1057A00070470000F0B50C4687B084460021984849
:1057B0000C9D069181831E1E1746417100D1002564
:1057C000EAB202706146934D097829700121009177
:1057D00061460978490908D002293FD004293BD005
:1057E00007297DD0022007B0F0BD009904468183CF
:1057F000681C0822616C05F012FAA08B08220830A0
:1058000080B2A0832818216C05F009FAA08B08301B
:10581000A0838148C06980470146E083A08B06AB26
:105820002954401C80B2090A2954401CA083C1B2EB
:105830007848A26CFEF76EFDA08B06992954401C97
:1058400080B20A0A2A54401C80B20A0C2A54401C16
:1058500080B2090E2954D7E001214171C178002995
:1058600069D0012269460A7321786948CA096946E4
:105870004A736A4A006B049050780875107848752E
:1058800010462030007B8875614813463030009008
:10589000303803A9007C521C00F086FB810120787F
:1058A000BF22104008435A4920708979002905D049
:1058B000574A002191712021084320705448016DFE
:1058C00054480A0A417082700A0CC270090E0171B4
:1058D000217841714E49098D8171090AC17100E039
:1058E00088E04B49FF30097AFF30401848490825C5
:1058F0004A7A4A49823905F087F94548017A407A5F
:105900000818C1B24248002E01721FD00278002A46
:105910001CD0C279002A22D00F291DD820783D4AF8
:10592000030940181B010007000F03432370537144
:1059300000203B4C07E0072055E7235C53556D1CC6
:10594000401CEDB280B28842F7D308E0304800290D
:1059500005D0C279002A02D0314E017000272C4CAC
:1059600000202F4AE07180322D48FFF7EFFE607271
:10597000002801D00120E071002E14D021780029E8
:1059800011D0244847556D1CEDB2002F27D0A36AD3
:10599000002240190092019302901E4A236D103A92
:1059A0003046FFF72BF8207806AB2918A18300209A
:1059B0006E46A26A0DC6174A1648203A236DFEF7B6
:1059C00051FB144AA18B06985054030A5218537085
:1059D000030C000E9370D070091DA18316E0002205
:1059E0002272A36A401900920A4A01930290203A57
:1059F000236DD5E7002B09D00446002A06D0681C89
:105A0000314605F001F92078401CA0830020EAE629
:105A100030010020D80E002018BB0008D81100204B
:105A2000D610002010B50C484022816B11438163D1
:105A30004079002801D0FFF745F9074912221A31B1
:105A40000878104308700121044803F0CFF8034898
:105A500003F0DEF810BD00003001002048120020E5
:105A6000FFB505468BB0A84816460C46099024E1C0
:105A7000285D641C801EE4B2030003F074FB090679
:105A8000115E6AA1AED6EFEDEC00A049002048708F
:105A9000285D0872641CE0B22A5C4A72401C4AE02D
:105AA00000206946087708A90870694608720873DB
:105AB0002819401E0490301B401C08759448924FD2
:105AC00002798A750999203F0A7B69464A757A7876
:105AD000CA753A780A76099908AB0A7869464A760F
