:020000040800F2
:10000000601A0020D500000899710008015A000804
:1000100000000000000000000000000000000000E0
:10002000000000000000000000000000B79C000875
:100030000000000000000000A57D0008DDBC0008F5
:10004000E7000008E7000008F3830008E700000865
:10005000E70000083B1F00084B1F00085D1F000859
:10006000E7000008E7000008E7000008F1190008B1
:10007000E7000008E7000008E7000008E7000008C4
:10008000E7000008E7000008E700000800000000A3
:10009000E7000008E7000008E7000008E7000008A4
:1000A000E7000008E7000008E7000008E700000894
:1000B000E70000088D83000800000000E70000084A
:1000C0000348854600F0A8FD004800478DE700087A
:1000D000601A00200448804704480047FEE7FEE716
:1000E000FEE7FEE7FEE7FEE771BD0008C10000087D
:1000F00030B50B46014600202022012409E00D46C0
:10010000D5409D4205D31D469540491B2546954047
:1001100040191546521E002DF1DC30BD70B500248B
:100120002546002801DA01244042002901DA012590
:100130004942FFF7DDFFAC4200D04042002C00D026
:10014000494270BDF0B51FB40646002082B0054696
:100150004024019100901BE0019922460F46304651
:1001600000F024FC049A059B801A994110D3104694
:100170001946224600F00AFC361A8F4101972246A2
:1001800001200021009F00F001FC38184D41009033
:100190002046641E0028DFDC019B00982946324679
:1001A00007B0F0BDF0B51FB486B0002000900190FC
:1001B00002900698069980B204900798090C0204F0
:1001C0000014114307900027089D099806913E46A8
:1001D0003C4603900398A9B20204000C03900498D3
:1001E0002D0C154348430021224600F0CFFBC719D0
:1001F000714110340E46402CECDB3846029A00F078
:10020000C5FB009A019B801800905941029801910A
:10021000103002904028CCDB00980BB0F0BD0346B4
:100220000B439B0703D009E008C9121F08C0042A2A
:10023000FAD203E00B780370401C491C521EF9D21D
:100240007047D2B201E00270401C491EFBD27047D9
:100250000022F6E710B513460A4604461946FFF792
:10026000F0FF204610BD421C0178401C0029FBD144
:10027000801A704710B5002200E0521C835C8C5C31
:10028000A34201D1002BF8D1D8B2E1B2401A10BD7F
:1002900030B505460020034600E05B1C934205D2C2
:1002A000EC5CC85C201A01D1002CF6D130BD0321D2
:1002B000001D401E037812021A43491EF9D510464C
:1002C0007047F8B502464A40D40F42004B0052082E
:1002D0005B089A4202D20246084611464A0023D0E1
:1002E000C30D4A00DDB2120EAD1A202D35DA4902D7
:1002F0000126490AF6058A19002C00D05242202115
:100300004F1B1146B9402A411018C20D9A4221D004
:10031000002C17D0012D08DCDA05801AD20F8019C5
:10032000D207DBB200F06EFBF8BDDA05801A0123BC
:1003300040001B06C01880185A428018CA0F10438C
:10034000490007E04908C2071143DA05801A8019FD
:100350004008801800F04EFBF8BD61000122511AE0
:10036000001BF7E70122D2075140AAE70122D2077A
:100370005040A6E7024670B54A40D30FDB07400065
:100380002DD04A002AD0010E140E000212020919C3
:10039000400A520A8418E50104465443000A120A2E
:1003A0002E045043A4194219200CC543AA18120C5C
:1003B0000125AD03521C521912047F39240400D0C8
:1003C000521C104301D44000491EC2B20C06C009A1
:1003D0002018401C4008802A02D003E0002070BD95
:1003E00040084000002900DA0020184370BD70B5B5
:1003F00002464A40D50F40004A00ED074008520827
:10040000002814D0002A12D0C40DD30D41020120BF
:10041000C0055202490A520AE41A091812187D341A
:10042000914201D3641C00E04900002C01DA002055
:1004300070BD0023914201D3891A0343400849004B
:100440000028F7D100290AD0914202D10121C90721
:1004500005E0914201D2012101E00121C943E005FB
:10046000C018401900F0C6FA70BD0000F0B507468C
:100470000846584087B0C00F049048000E46590007
:1004800040084908BC1A884105D2384631461E4604
:1004900017460B4602465800400810434CD0300D1A
:1004A000039040055900400D490D0590401A0290F7
:1004B000402872DA18030121000B09050843019056
:1004C00004980092002805D00199524200208841EA
:1004D00000920190029840210A1A0199009800F0B8
:1004E00055FA05460C466B4607CB00F070FAC0196A
:1004F0007141039A0E0D0023D71756401A467A40D1
:10050000164344D0049A002A2DD0029A012A039A55
:1005100015DC1205C01A914101263605001C7141F7
:10052000D20F059ED2070093019202962A462346D7
:1005300000F0AEFA07B0F0BD38463146FAE71605CE
:10054000224A0F46B218C01AB74101210905001C02
:100550004F4100187F41114618187941E20F1043AE
:100560006D19644113E0E2076D0815436408C20782
:100570001443039A01261205C01A91413605001C46
:100580007141CE07400830434908C01851412A46FE
:10059000234600F070FACDE7FFE7049801224000FF
:1005A000C117121A00238B4104983146C417381A18
:1005B000A141EEE730B40124E407634030BC55E7C5
:1005C00030B40124E407614030BC4FE70000E0FF95
:1005D000F0B51FB488B00B990998002448400999D8
:1005E000C00F490049080991C0070B9900904900C4
:1005F00049080B9109990898A64608431CD00B9905
:100600000A98084318D0099801244000420D480078
:10061000410D099824050003000B204309900B9815
:100620000003000B20430B9050181C494018002277
:1006300001901446104605E0002001460DB0F0BDC3
:10064000032801DA034600E003239C46C11A0AAEE0
:100650000AE05F0008ADED5B4F00F75B7D430027CC
:10066000AA187C41491C5B1E6145F2DD410004ABC8
:100670005A522104120C0A43240C401C0828DFDBC8
:10068000019802900099704601910090059B049A90
:100690000799069800F0FCF9D0E700000DFCFFFF79
:1006A000F0B50C465C4085B0E40FE40703944C00C1
:1006B00000266408590094464908024602962243DF
:1006C00021D062460A431ED06200570D4A000E0335
:1006D0002303550D012402462C492405781B1B0BCE
:1006E000360B401823432643614600901C46501A9F
:1006F000B44103D30098401C009002E09218009887
:100700005B41002803DA0020014605B0F0BD00205F
:10071000012109050746864611E064461D46141B63
:10072000B54106D36546521BB341744607430C439B
:10073000A646CD0740084908284392185B41054664
:100740000D43EAD11046184313D060461946504075
:100750007140084306D06046101AB34106D2012208
:10076000002306E000220123DB0702E00122D2433E
:100770005310009874460105381C6141029C039D8A
:100780000019694100F077F9BFE70000FD030000A0
:1007900070B54B005B0803430BD04B005C0D00268B
:1007A00033466542B341D417AD1AA34102DB0020A2
:1007B000014670BD12053018514170BDC217C10FFE
:1007C000504010B54018CA079623002100F01AF9CE
:1007D00010BD10B500229623114600F013F910BD8C
:1007E0000EB5C217C10F5040CA0740180021054B73
:1007F0000293019200910A460B4600F049F903B0BA
:1008000000BD0000330400000EB50549029100212F
:1008100000910A460B46019100F03AF903B000BD81
:1008200033040000C20F410040020123400ADB05EF
:10083000D207090EC0187F2901DA002070479629D7
:1008400003DC9623591AC84001E096398840002AF3
:10085000F4D040427047410040020122400AD205D4
:10086000090E80187F2901DA00207047962903DCE1
:100870009622511AC8407047963988407047000048
:1008800070B5CD0F4A0009030123090B1B0519435D
:100890000B4BED070024520D9A4201DA002070BD87
:1008A000074B34339A4203DC9A1A00F07FF802E0D7
:1008B0000449511888402C43F1D0404270BD0000DB
:1008C000FF030000CDFBFFFF4A0009030123090BD2
:1008D0001B051943094B10B5520D9A4201DA00204D
:1008E00010BD064B34339A4203DC9A1A00F05EF8CE
:1008F00010BD03495118884010BD0000FF030000DF
:10090000CDFBFFFFC20FD207400040080BD0C10D46
:100910000723DB01C91840020905400A1143C20838
:1009200040071143704700200146704710B5002969
:1009300004DB0124E40740428C412146002B04DB08
:100940001C460123DB075242A341994200D1904249
:1009500010BD0000CB0FDB07490010B54908024667
:100960000A4307D00A0D07240903E401090B121BEF
:10097000002A01DC002010BDC900440F0C43C10057
:10098000E018D205801800F035F810BD10B5202A07
:1009900004DB0146203A9140002010BD9140202305
:1009A0009C1A0346E3401943904010BD10B5202A1D
:1009B00004DB0846203AD040002110BD0B46D3404E
:1009C000D0402024A21A91400843194610BD10B50A
:1009D000202A06DBCB170846203A1041C1170B43EB
:1009E00006E00B461341D0402024A21A9140084350
:1009F000194610BD002904DA401C490001D1400805
:100A00004000704770B40024050C05D11024000488
:100A100002D1002921D01124050E01D10002083491
:100A2000050F01D10001241D850F01D18000A41CF8
:100A3000002801DB4000641C002908D020252E1B63
:100A40000D46F540A14000D001212943084301068D
:100A50001B1B000ADB1D02D5002070BC7047DB05A4
:100A6000181880180029F8DA401C4900F5D170BC2C
:100A700040084000704710B5002B08DA0024401CE5
:100A8000614192185B411A4301D14008400010BDFA
:100A9000F0B51FB482B005460C0003D008460BF039
:100AA00029FF02E00BF026FF20300246009021468D
:100AB0002846FFF76BFF049B059A04460F46184330
:100AC0001143084314D0184610431BD0009840210E
:100AD0000A1A18460599FFF769FF05460E46009A5F
:100AE00005990498FFF752FF084305D0012004E060
:100AF0002046394607B0F0BD0020C11705430E431C
:100B00002C43374300990E986305401A7905E40A8F
:100B100000220C43FD0A0A3002D500200146E9E715
:100B20000105101969410C9C0D9D00196941FFF7E1
:100B3000A2FFDFE7F8B50546480040080C46284309
:100B400004D06000184A400D904201DD2846F8BDEF
:100B500015493539884210DC88420BDB290D20030A
:100B600008432903014305D0E00F1049C00741188D
:100B70000020F8BD00200146F8BD161A4020821B57
:100B800028462146FFF702FF0746009128462146E6
:100B90003246FFF70BFF3A46009BFFF76CFF3246E9
:100BA000FFF7F4FEF8BD0000330400000000F03F42
:100BB0004A0009030123090B1B0519430A4B10B511
:100BC000520D9A4202DA0020014610BD064B343322
:100BD0009A4203DC9A1AFFF7E9FE10BD034BD218C4
:100BE000FFF7D4FE10BD0000FF030000CDFBFFFFA8
:100BF00010B5002904DB0124E40740428C41214662
:100C0000002B04DB1C460123DB075242A3418B422D
:100C100000D1824210BD0000064C0125064E05E0C1
:100C2000E36807CC2B430C3C98471034B442F7D30D
:100C3000FFF74AFA6C0D01088C0D010870B58C188D
:100C40000578401C6B075B0F01D10378401C2A110B
:100C500006D10278401C03E006780E70401C491C47
:100C60005B1EF9D12B0705D40023521E0DD40B7047
:100C7000491CFAE70378401CCB1A921C03E01D784C
:100C80000D70491C5B1C521EF9D5A142D8D300201F
:100C900070BD000038B50446064805490068FFF7F6
:100CA00027FA604300E0401E00900028FBD138BDC9
:100CB00040420F0064000020F8B5044600688168D7
:100CC0008907890F012902D10168C90722D18168EA
:100CD000114A10261140012500290ED181682943AF
:100CE00081600120FFF7D6FF02F01CFA07460CE0F6
:100CF00002F018FAC01B0A2807D9A06D3043A0657E
:100D0000E06D2843E0650120F8BD20680068C0431D
:100D1000C007EDD10020F8BD17000080F0B589B004
:100D20000C4607461022002168460DF065FD694615
:100D3000224608460CF08BFA6846007887260106A2
:100D4000684600290FDA00214318425C5B785200A4
:100D5000DB091A434254491C0F29F5DBC17B0246CB
:100D6000490071400DE000214318425C5B7852005D
:100D7000DB091A434254491C0F29F5DBC17B0246AB
:100D80004900D173E21DF9325169102912D001785E
:100D900009061BD500214518435C6D785B00ED0901
:100DA0002B434354491C0F29F5DBC17B0346490003
:100DB000714019E000216218FF3201325378455C1E
:100DC000491C6B4053701029F5DB26E000214518C3
:100DD000435C6D785B00ED092B434354491C0F299C
:100DE000F5DBC17B03464900D973E11D55698023BA
:100DF000FA316B54002500E05D5453695B1C53616C
:100E0000102BF9D300216218FF3201325378455C70
:100E1000491C6B4053701029F5DB00216218104605
:100E2000FF32E0300132437C5278491C5340437416
:100E30001029F3DB21461022F13104A80DF0C4FC87
:100E40002246394604A80CF002FA10220021684616
:100E50000DF0D2FC09B0F0BD10B5044610220021FF
:100E6000F1300DF0C9FCFF20002115300151F022B6
:100E700020460DF0C1FC10BD0B4610B502461021F6
:100E800018460CF00FFA10BDF0B50446FF308BB0D9
:100E90000F4601300890E11D4069FA310091103988
:100EA00015460791002843D010210E1AAE4200D3F8
:100EB00016460099B2B2401839460DF085FC0898E4
:100EC000089940698019486110283AD3B54238D052
:100ED000002162181046FF32E0300132437C527824
:100EE000491C534043741029F3DB079922460846F6
:100EF0000CF0ADF9BF19AD1B1AE000202118E0314C
:100F00004A7C3B5C401C5A404A741028F6DB102295
:100F100002A807990DF058FC02A9224608460CF0D9
:100F200096F9102202A907980DF04EFC103D1037DB
:100F3000102DE2D8AAB2394600980DF045FC089869
:100F400045610BB0F0BD0000F7B523498022497A16
:100F5000214B511ACDB2197A5B7A8026F31A0A46D0
:100F6000DEB2871E491C0124C9B2761E3B000BF07D
:100F7000F0FC09060C060C120C06062B3000164B72
:100F8000AA4224D2154CA05403E0134BB24215DB05
:100F90001DE019720DE0104EAD1EAA4217DA0F4B7C
:100FA000985401985854491CC8B202991954401CCD
:100FB0003072002408480121C17108E0074CA05498
:100FC00001986054491CE4E7034BAA42F6D320463B
:100FD000FEBD0220FEBD000068010020621000205E
:100FE00010B586B014216846FFF732F90D48C26A81
:100FF00001210A43C262C06A0B4C084005901020D0
:101000000090002002900320019103906946204641
:1010100001F0BAFF01221021204602F07CF806B050
:1010200010BD00000010024000040050F0B585B073
:101030000DF084FE07F0E2F96749684C0878012753
:10104000002808D0012807D0032805D0022860D046
:1010500005287DD0A4E00F7061A00068019061A018
:10106000002600683546029000F0CAF903E0761CBD
:10107000B6B2642E16D07D20C0000090012301AAD4
:101080008021594802F062F90028F0D17D26F6004F
:10109000012301AA80215448009602F057F9002844
:1010A00003D006E000206070F0E767704FA00AF000
:1010B000E5FF6078002873D14B4802F029FB00F06F
:1010C000C1F903E06D1CADB2642D12D0022302AA57
:1010D00088214C48009602F039F90028F2D1022309
:1010E00002AA88214748009602F030F9002803D070
:1010F00007E000206070F2E70220607042A00AF072
:10110000BDFF607800284BD13E4802F001FB44A0AF
:1011100032E00020494D024603902021284601F08C
:10112000FAFF04F0E7FD0EF0B3F97D20C00003A93B
:1011300000910290012300220197C421404802F04F
:101140003DFA0EF0A5F93F4988420BD2277000E026
:1011500015E005F0CFF901222021284601F0DBFF40
:1011600039A009E0364802F0D3FA01F0FBF801F0AB
:1011700019F90AF027FE3DA00AF080FF10E00BF0FD
:101180007DFB0BF05DFB01F055F9FF20F53001F020
:10119000ECFD01F04FF942A00AF070FF0028FAD1EF
:1011A00045480078002806D0012807D0022808D03A
:1011B00003280BD108E001F055F807E001F08AF8A8
:1011C00004E001F027F801E001F05CF801F0AAF872
:1011D000FFF706FF05B0F0BDE60000206C00002020
:1011E000E7000000F32D0000BC03002020557365CC
:1011F0002053656E736F72206973205354483230E8
:101200000A0D000008040020202055736520536556
:101210006E736F722069732053544833310A0D0086
:1012200020204E6F20493243206465766963652033
:1012300064657465637465640A0D00000004005001
:101240008C0400200F270000202055736520536573
:101250006E736F72206973204C494441525F4C6930
:1012600074655F763348500A0D00000020205573E6
:10127000652053656E736F7220697320756C74728C
:1012800061736F6E69632064697374616E63652056
:101290006D6561737572656D656E740A0D00000091
:1012A00020205573652053656E736F72206973201B
:1012B00048583731310A0D00E7000020F8B5484E94
:1012C000044600222021304601F025FF0022102193
:1012D000304601F020FF04F039F8012003F076FFDA
:1012E000404D688001221021304601F014FF6888CB
:1012F0003D4E318848433D49FEF710FFFFF75EFA47
:101300002061012105200903000701F0FFFE206094
:10131000012000F081FB364F60603878012808D04A
:10132000032806D0022820D004282AD0052831D04E
:1013300050E06878002804D0012806D002280AD09E
:101340002AE02C48E061206226E008F0C9FA00900B
:1013500008F042FA04E008F0CDFB009008F048FBEA
:10136000014600982162E06116E02878012803D048
:101370000BF0A2F928810FE005F042F80A2148435A
:10138000F8E7022000F048FBA060032000F044FBD7
:10139000E06001E001F056F8387803281AD11648C9
:1013A00003F014FFA880A8883188104F48433946BD
:1013B000FEF7B4FEFFF702FA6061104803F006FF83
:1013C000E880E888318848433946FEF7A7FEFFF7F2
:1013D000F5F9A06101222021014801F09CFEF8BD31
:1013E000000400506C00002080000020FF0F00006F
:1013F000E600002000CCCC450200000410000010E4
:1014000010B50E480C4901600D4941600121C160D1
:10141000002101618161C1610162F0218160FE21D1
:10142000416101F0ADFE002801D000F0DFFD002198
:10143000024801F07DFE10BD00540040BC030020B6
:10144000563EA1101CB513A0006801901348124924
:101450000160134941600121C16000210161816186
:10146000C1610162F0218160FE21416101F088FECD
:10147000002801D000F0BAFD0021084801F058FE14
:101480007D20C0000090022301AA8821034801F0BA
:101490005DFF1CBD20320000005400400804002005
:1014A000563EA11001780448024A4368D1540121F4
:1014B0000170704717090020DC00002010B50348B8
:1014C0000DF0ACFF02490020087010BDA514000803
:1014D000DC00002010B51248017801290ED100214E
:1014E0000170104B42689C5C012C08D00D2C09D077
:1014F0000A2C07D07F2A0DD0521C426010BD4160DB
:10150000062009E0002AF9D09954416005480DF001
:1015100091FA10BD416004200CF06AFF10BD00007C
:10152000DC000020170900203EB50D4C6946E2782A
:101530000A70227D8A70C870606B0AF09FFC01906F
:10154000E06B0290E07D69464870207C07F0EAFD80
:10155000218CE06B4143081AA16D4018A0653EBD87
:1015600068010020FFB5044689B000200390089070
:10157000069021891646002915D0019062690492CF
:101580002069002A04D000290FD00A4692B20392A3
:10159000002900D00E46E168884215D3039A61689D
:1015A0008018081A11E00220E7E722686568135CDA
:1015B000471CAF4202D3451B6D1C00E03D46525D07
:1015C0001202921C9A18E1E70020019975180795FC
:1015D0000C994D43854201D2002102E00799FEF7A4
:1015E00087FDC8B20199884208D9217FCA0700D176
:1015F00006980690880701D5019800E00698002E0D
:101600006AD00499491908186168884264D800278B
:1016100098E0039808186168884200D3401A206156
:101620002189002911D121680E546168401C814232
:1016300000D8401A2268310A11546168401C814266
:1016400000D8401A6169891C616161680D1AB54250
:1016500000D33546B5420DD0B54202D2217F0029D4
:1016600008D0002D6AD0217FCA0730D021890029F7
:1016700013D019E039460A9A714389182268101864
:101680002A46FEF7CCFD606940196061079908950C
:10169000002089B2751B039140E02368FF22811E60
:1016A0005A542168401E0A54606940196061002044
:1016B00008902189354600292AD1206805702168C3
:1016C000280A487061690220891C616120E089074D
:1016D0001ED52189002902D000200DB0F0BD21685F
:1016E000821E8D542268290A431ED15439460A9A13
:1016F00071438918226810182A46FEF790FD606928
:10170000401960610895A069751B401CA061D4E771
:101710000199691889B2039100212161002D0DD032
:10172000089A0A993B468918226873431018591879
:101730002A46FEF774FD606940196061A069401C8B
:101740007F1CA0610C982169874200D261E7019853
:1017500008186168884200D3401A21684018BCE725
:1017600010B5029C01600021C160016141614260CD
:10177000816103810477A00703D5002B01D0481EA7
:1017800010BD002010BD0000F0B503890022002B21
:1017900009D0002300240C804469002C58D0028911
:1017A000002A02D00DE00223F4E7C268046846680C
:1017B000A55C571CB74200D3921B521CA25C1202BC
:1017C000AA1894B20C80027FD50729D0920727D49B
:1017D000204A944202D10289002A0AD0C4680269D0
:1017E00094421DD90289002A1AD045682C1B9442C4
:1017F00016D24468C2684569A21AAA1A4261002238
:10180000C2600289002A0AD10268012C157802D828
:101810006442641C00E00124125D1202AA180A80CE
:10182000C5684468EA18A24200D3121B06680F88F4
:1018300092194669FF18F61B466106D00988691897
:10184000C918A14200D3091BC1608169491E816189
:101850001046F0BDFFFF0000F0B503890022002B09
:101860000AD0002700230B804369002B42D0038954
:10187000C268002B02D00DE00227F3E70568446838
:10188000531CAE5CA342134600D31B1B5B1CEB5CDA
:101890001B02F3189CB20C80037FDD0723D09B074B
:1018A00021D4154B9C4202D10389002B0AD0C46875
:1018B00003699C4217D90389002B14D045682C1B5F
:1018C0009C4210D200221B041B0C0BD143680468FD
:1018D000012B02D85B425B1C00E00123E35C24780F
:1018E0001B021B190B80D1194268914200D3891A3F
:1018F00000680A181046F0BDFFFF0000FFB5002089
:1019000085B00090054606460190002477000698B1
:10191000C15B0120A04001422AD028190C2103906C
:10192000484307990958002922D0079941180820EF
:1019300002910856021100070117059840B207F0FE
:1019400016FE002814D00298407A01010898081861
:10195000C068002804D00198401CC0B2019007E084
:10196000009A0E99039888540098401CC0B20090C9
:10197000641CE4B2102CCAD31035761CEDB2F6B25A
:10198000482DC2D30F9901980870009809B0F0BD96
:1019900030B587B014216846FEF75AFC0320019049
:1019A0000020029003204003104C0090E06A0121C7
:1019B0000843E062E06A0840059005206946000798
:1019C00001F0E2FAE06A40084000E062606B012545
:1019D000AD052843606300F079FF00F087FF00F059
:1019E0007DFF606BA843606307B030BD001002400C
:1019F00010B50DF0B5FC10BD10B5046863608368C8
:101A0000102B036803D099600068C26010BD9A6013
:101A10000068C16010BD000070B5064600F0D8F93E
:101A20003146442000F0E0F9214D284601F09DF9AF
:101A3000304600F0CDF93146BE2000F0D5F93046F1
:101A400000F07CF90446304600F078F9052819D1F9
:101A5000502C17D1304600F0BBF93146442000F03D
:101A6000C3F9284601F081F9304600F0B1F931465A
:101A7000BE2000F0B9F9304600F060F90446304667
:101A800000F05CF9000200B2204308D5C043401CBE
:101A9000FEF7A6FE0022074BFEF79AFD05E0FEF7D3
:101AA0009FFE0322D243FEF773FEFEF753FF70BD85
:101AB000EE0200000000B0BF10B50023012219495A
:101AC00086B0012812D00524240702281FD003283D
:101AD0001BD1C86A1043C862C86A10400590081537
:101AE000009069460193029220460CE0CC6A0220E5
:101AF0000443CC62C96A019301400591082000901B
:101B000002926946084801F03FFA06B010BDC86A63
:101B10001043C862C86AC007C00F05900120400288
:101B2000DEE70000001002400004005010B5012262
:101B30001849022386B0012812D005242407022860
:101B40001ED003281AD1C86A1043C862C86A104060
:101B500005900815009069460393019220460BE01A
:101B6000C86A1843C862C86A6946184005900820C8
:101B7000009003930192084801F006FA06B010BDE8
:101B8000C86A1043C862C86AC007C00F0590012028
:101B90004002DFE7001002400004005070B500244E
:101BA000012806D005252D0702282AD003284ED06B
:101BB00074E00120FFF780FF394D04E0641CE4B2BB
:101BC000012000F0ABF90821284601F09FFA002817
:101BD00002D0642CF2D35FE0642C5DD2002404E0D8
:101BE000641CE4B2012000F099F90821284601F0B4
:101BF0008DFA002802D1F02CF2D34DE0F02C4BD21C
:101C00004CE00220FFF758FF0126760204E0641C36
:101C1000E4B2012000F082F93146284601F076FA5C
:101C2000002802D0642CF2D336E0642C34D2002495
:101C300004E0641CE4B2012000F070F9314628464B
:101C400001F064FA0028D9D1F02CF2D324E003206B
:101C5000FFF732FF0126B60204E0641CE4B2012063
:101C600000F05CF93146284601F050FA002802D015
:101C7000642CF2D310E0642C0ED2002404E0641C27
:101C8000E4B2012000F04AF93146284601F03EFA5C
:101C90000028B3D1F02CF2D3012070BD002070BD1C
:101CA0000004005070B5012806D00524240702283E
:101CB00013D003282BD025E00120FFF737FF1E4C5F
:101CC00000220821204601F026FA0A2000F026F919
:101CD0000120FFF7F1FE08210EE00220FFF726FFAA
:101CE00001256D0200222946204601F014FA0A203F
:101CF00000F014F9022018E0204601F007FA01284C
:101D000017D000222D2000F009F9104670BD0320E5
:101D1000FFF70CFF0125AD0200222946204601F005
:101D2000FAF90A2000F0FAF80320FFF7C5FE294669
:101D3000E2E70122E6E700000004005070B500254C
:101D400006462C463046FFF7ADFFA0402843641CF2
:101D5000E4B2C5B2082CF5D3284670BD70B51A4D53
:101D6000012814D005242407022825D0032822D1D5
:101D7000FFF7DCFE00220126B6023146204601F0C4
:101D8000CAF9284600F0CAF8012231460DE00120C8
:101D9000FFF7CCFE0D4C00220821204601F0BBF9D4
:101DA000284600F0BBF801220821204601F0B3F9D3
:101DB0000F2000F0B3F870BD0220FFF7B7FE00223D
:101DC00001267602D9E70000EE0200000004005070
:101DD00010B50446FFF7C2FF2046FFF7DFFE21469D
:101DE000CC2000F001F810BDF8B5044601291FD041
:101DF00005252D07022949D0032946D10320FFF7E5
:101E000095FE00260127BF02E007C00F64080028E6
:101E10006BD000223946284601F07DF9082000F0F9
:101E20007DF801223946284601F075F93A206AE02A
:101E30000120FFF77BFE384E0025E007C00F640845
:101E400000280ED000220821304601F064F9082055
:101E500000F064F801220821304601F05CF93A20D4
:101E60000DE000220821304601F055F9462000F02F
:101E700055F801220821304601F04DF9022000F00A
:101E80004DF86D1CEDB2082DD7D3F8BD0220FFF739
:101E90004DFE002601277F02E007C00F64080028DE
:101EA0000ED000223946284601F035F9082000F00E
:101EB00035F801223946284601F02DF93A200DE087
:101EC00000223946284601F026F9462000F026F87F
:101ED00001223946284601F01EF9022000F01EF8C2
:101EE000761CF6B2082ED7D3F8BD00223946284614
:101EF00001F011F9462000F011F801223946284678
:101F000001F009F9022000F009F8761CF6B2082E5B
:101F100000D279E7F8BD00000004005006E000217F
:101F2000491CC9B20429FBD3401E80B20028F6D157
:101F3000704710B503F0ACFA10BD10B5012001F0E8
:101F400017F8022001F014F810BD10B5042001F0BC
:101F50000FF8082001F00CF810BD000070B510203B
:101F600001F006F8202001F003F8402001F000F80D
:101F7000802000F0FDFFFF20013000F0F9FF01207C
:101F8000400200F0F5FF0120800200F0F1FF012087
:101F9000C00200F0EDFF0120000300F0E9FF012086
:101FA000400300F0E5FF0E4C6069400413D50125A5
:101FB000AD036561072001F02BFC0A48007800287A
:101FC00002D00949012008602846656100F0CCFF75
:101FD000072001F027FC0120C00300F0C9FF70BDFD
:101FE00000040140E700002088000020FEE7000018
:101FF00010B5084900224A6107494B684C15234334
:102000004B604B68082423434B60C009C001026049
:1020100010BD0000D80400200020024010B5214A65
:1020200000219069C305204804D541690223194362
:102030004161911593699B0505D5436901242343AB
:1020400043616302194393695B0505D5436908241D
:1020500023434361E301194393691B0505D5436994
:102060000424234343616302194393699B0405D508
:1020700043691024234343616302194393699B031B
:1020800004D5446920231C43446119439369DB034D
:1020900005D54369402423434361A0020143916174
:1020A00010BD000000200240D804002070B5054695
:1020B00001F038F80646184C0AE0681C08D0002DDC
:1020C00004D001F02FF8801BA84201D9032070BD75
:1020D000A069C007F1D1A069800701D50220A061E5
:1020E000A069C00511D4A06980050ED4A06940057F
:1020F0000BD4A069000508D4A069800405D4A069A8
:10210000800302D4A069C00303D5FFF787FF012035
:1021100070BD002070BD00000020024010B50446D4
:1021200000F08CFE0849002011C101200860074919
:10213000054800F01FFE002803D005A009F09EFF0F
:10214000FBE700F053FE10BDB0030020200000208C
:102150006572726F7220696E204572617365206FBF
:102160007065726174696F6E0A0D0000F8B51646ED
:102170000F460446002500F061FE0DE0A8003A5825
:102180002146022000F03CFE002803D005A009F003
:1021900075FFFBE7241D6D1CB542EFDB00F026FE4A
:1021A000F8BD00006572726F7220696E2057726907
:1021B0007465206F7065726174696F6E0A0D00003E
:1021C00070B50D46044600F039FE21462A4602202D
:1021D00000F016FE002803D003A009F04FFFFBE734
:1021E00000F004FE70BD00006572726F7220696EAF
:1021F000205772697465206F7065726174696F6EC3
:102200000A0D000001680248416040687047000004
:102210002000002000B587B014216846FEF718F8AA
:102220000D48C26A02210A43C262C06A6A46084077
:1022300005900A4801900020490302900091084847
:1022400003F02AF800220221072001F0F5FA072006
:1022500001F0E8FA07B000BD0010024000002110B4
:102260000004005000B585B014216846FDF7F0FF6A
:1022700001216A468903024803F00EF805B000BD4B
:102280000004005000B587B014216846FDF7E0FF58
:102290000D48C26A02210A43C262C06A6A46084007
:1022A00005900A48019000204903029000910848D7
:1022B00002F0F2FF00220221072001F0BDFA072000
:1022C00001F0B0FA07B000BD00100240000011108C
:1022D0000004005000B587B014216846FDF7B8FF30
:1022E0000D48C26A02210A43C262C06A6A460840B7
:1022F00005900A4801900020490302900091084887
:1023000002F0CAFF00220221072001F095FA0720FF
:1023100001F088FA07B000BD001002400000311043
:102320000004005000B587B014216846FDF790FF07
:102330000B48C16A01221143C162C06A11031040F7
:10234000009105900020019002200290032003904C
:1023500005206A46000702F09FFF07B000BD00009D
:102360000010024000B587B014216846FDF770FFE9
:102370000B48C26A02210A43C262C06A6A46084028
:102380008902009105900020019001200290032015
:1023900003900520000702F07FFF07B000BD00009A
:1023A0000010024000B587B014216846FDF750FFC9
:1023B0000A48C16A01221143C162C06A1103104078
:1023C00000910590002002900320019203906A463C
:1023D000034802F061FF07B000BD0000001002409A
:1023E000000400500649800009580648091803D027
:1023F000C14203D00020704701207047022070477F
:1024000070FB0008702FFCFF10B5094A0021CB00BB
:10241000D458844207D89B189B68834203D9C800CC
:102420008018007910BD491CC9B21529EFD3FEE709
:102430009CF5000810B503F0A3FA0149486010BDEF
:102440003800002070B503F09BFA0E4C0025206088
:10245000616888420DD0401AFEF7B0F9E168FDF7D7
:10246000C6FFFEF7DFF90849A06040180749884217
:1024700000D3A56006A0A16809F000FE0028F9D1EC
:1024800070BD0000380000208813000011270000F4
:1024900057656967687420697320256420670D0A91
:1024A00000000000F8B5054604464035287D0026AA
:1024B000012808D001202875206881688907890FC4
:1024C00001290ED101E00220F8BD0168C90708D03A
:1024D000A06D20210843A065012600202875304604
:1024E000F8BDA16DFF220132914302221143A16583
:1024F000C1688907890F0091C16889088900C16096
:102500002068816892071143816000F00BFE074646
:102510000EE000F007FEC01B0A2809D9A06D0221B9
:10252000884310210843A065002028750120F8BDCC
:10253000206880680028ECDB2068C168009A11439D
:10254000C160A06D80088000401CA065C5E7000048
:10255000F8B506460D464036317D01290DD00121E2
:10256000317501688A68520709D5816D20221143AF
:102570008165002030750120F8BD0220F8BD174BA1
:102580006A68D80547109A42154C8A6A2B6812D09F
:102590005B035B0B1A438A622968490305D5A1686E
:1025A0000143A1600A20FEF775FB2868800312D55D
:1025B000A06838430EE05B035B0B9A438A6229688C
:1025C000490302D5A1688143A1602868800302D530
:1025D000A068B843A06000203075F8BD011000006D
:1025E000002701400068006C7047000070B50400CF
:1025F00006D0A06D264600254036002802D006E011
:10260000012070BDE5653575204600F0D1F8A06D5C
:10261000C00603D421688868400705D5A06D102145
:102620000843A0653575EBE7A06DFF2201329043AA
:1026300002221043A06588688207920F5A48012A37
:1026400002D10A68D2072BD1032362689B079A4202
:1026500005D05B429A4202D05B009A4209D10A69D6
:10266000920092080A6121680A6963681A430A6144
:102670000CE00A69920092080A6181680F229204B4
:102680009143816081686268114381602168CA68F2
:1026900018239A43CA602168CA68A3681A43CA60AB
:1026A000816801225206914381608168228F52061F
:1026B0001143816020688168C90004D481680122C7
:1026C0001207114381602068C168384A1140C16017
:1026D0002169E068022923D000210843216A226B86
:1026E0004903520011430843616B0843A169890300
:1026F0000843E169C90308432168CA681043C860F8
:10270000A06A0146FF39C23905D0E16A0843216851
:10271000CA681043C860606A0121012802D00BE03A
:102720000421DAE7206A002823D0A06D202210437C
:10273000A065E06D0843E065206C012820681FD08B
:102740000169C90703D0016949084900016120688E
:102750004169C908C900416120684169E26B1143C0
:102760004161E565A06D80088000401CA0650020E7
:1027700070BD2068C26801231B041A43C260DBE7F6
:102780000269FF239B009A43026120680269636C1F
:10279000E66C1A43A36C33431A4302612068026952
:1027A0000A430261D3E70000002701401902FEFF3F
:1027B0007047F8B504464069254640350E4608285E
:1027C0000BD02068C068C00709D0A06D2021084345
:1027D000A065002028750120F8BD082700E00C271F
:1027E00000F0A0FC009011E0701C0FD0002E05D06E
:1027F00000F098FC0099401AB04207D9A06D04215E
:102800000843A065002028750320F8BD20680068F3
:102810003842E9D0A06D012149020843A065206833
:10282000C16809058A0F0C21002A1AD1226A002AE0
:1028300017D10268120714D5826853070122002BB2
:1028400008DB43688B434360A06D13029843104339
:10285000A06506E0A06D20231843A065E06D10433D
:10286000E065A069002801D1206801600020F8BD62
:1028700070B50446216800208968490721D425469F
:102880004035297D01291CD001212975E1690129E3
:1028900004D02046FEF710FA002811D1A16D0A4A93
:1028A0001140FF2201321143A1650021E165297524
:1028B00022681C21116021688A6804231A438A60F7
:1028C00070BD022070BD0000FEF1FFFF02484168AC
:1028D000490849004160704700580140024841687A
:1028E000042291434160704700580140024841680A
:1028F00002229143416070470058014070B50024A6
:10290000024620325179022903D00421C1630124F7
:102910003CE001680B680E25AB430B6001680B6857
:102920005B085B000B601A4B0168994201D10121E1
:1029300021E0174B1433994201D110211BE0144BB5
:102940002833994201D1891515E0114B3C33994246
:1029500001D189140FE00E4B5033994202D101216D
:10296000090408E00A4B6433994202D101210905A8
:1029700001E001210906064B083B59600121517114
:1029800000211171816B002900D08847204670BD5D
:1029900008000240F8B504469D4801689C4A9C4ED8
:1029A0009B4F0832206813041C363037904201D107
:1029B00008221EE0B04201D180221AE0B84202D1C2
:1029C0000122D20215E0924A4432904202D1012201
:1029D000D2030EE08E4A5832904201D11A4608E0E6
:1029E0008B4A6C32904202D10122D20501E00122D1
:1029F000D20625461140203500293BD00168090741
:102A000038D5016808229143016081492068083166
:102A1000884201D108201EE0B04201D180201AE096
:102A2000B84202D10120C00215E079494431884200
:102A300002D10120C0030EE075495831884201D10E
:102A4000184608E072496C31884202D10120C00565
:102A500001E00120C0066E494860E06B0121084397
:102A6000E0630420687100202871616B002901D0A7
:102A70002046884766480168654A20680832131571
:102A8000904201D104221EE0B04201D140221AE05E
:102A9000B84201D11A4616E05D4A4432904202D152
:102AA000012292030FE05A4A5832904202D1012289
:102AB000920408E0564A6C32904202D101229205FB
:102AC00001E001229206114238D00168490735D54C
:102AD0000168890603D4026804218A4302604C49D4
:102AE00020680831884201D104201EE0B04201D1A3
:102AF00040201AE0B84201D1184616E0444944315A
:102B0000884202D1012080030FE0414958318842B8
:102B100002D10120800408E03D496C31884202D195
:102B20000120800501E00120800639494860052028
:102B30006871216B002901D020468847344801681C
:102B4000334A206808325315904201D102221EE018
:102B5000B04201D120221AE0B84201D11A4616E053
:102B60002B4A4432904202D1012252030FE0284AFC
:102B70005832904202D10122520408E0244A6C32B9
:102B8000904202D10122520501E001225206114277
:102B90003CD00168890739D50168890603D40168EA
:102BA0000222914301601A4920680831884201D10C
:102BB00002201EE0B04201D120201AE0B84201D12B
:102BC000184616E012494431884202D101204003E0
:102BD0000FE00F495831884202D10120400408E03B
:102BE0000B496C31884202D10120400501E00120EF
:102BF000400607494860E06BE063012068710020EF
:102C00002871E16A002901D020468847F8BD0000FC
:102C10000000024070B5002805D0034620335979E2
:102C2000002902D003E0012070BD002119710221AA
:102C30005971046822683749C5680A408168466945
:102C4000294305693543294385692943C5692943D2
:102C5000056A2943114321602F492F4C02687831BE
:102C6000A24206D18A6A120912018A628A6A4068FF
:102C700049E0294C1434A24207D18A6AF024A243C5
:102C80008A628A6A406800013DE0234C2834A242EF
:102C900008D18A6A0F242402A2438A628A6A4068A1
:102CA000000230E01C4C3C34A24208D18A6A0F2456
:102CB0002403A2438A628A6A4068000323E0164C18
:102CC0005034A24208D18A6A0F242404A2438A62A3
:102CD0008A6A8088000416E00F4C6434A24208D14E
:102CE0008A6A0F242405A2438A628A6A80880005C2
:102CF00009E08A4209D18A6A0F242406A2438A6223
:102D00008A6A0079000602438A6201205871002015
:102D100070BD00000FC0FFFF08000240F8B5044678
:102D200020300579012D1ED001250571022646713E
:102D300020680768AF4307602046FEF75DFE206805
:102D40000168314301602068016804221143016079
:102D50002068016808221143016020680168294346
:102D600001600020F8BD0220F8BD01B50098FFF712
:102D7000E0F808BDF8B51A4E0546307C0F4601282C
:102D800007D0012030741748FFF790F9010002D0F6
:102D900021E00220F8BD0020C04338606C6814E0D8
:102DA0002046FFF725F90F48FFF780F901460E4846
:102DB000426808239A434260426843159A4342603E
:102DC000002901D03C6006E08034A8686A68C00130
:102DD0008018A042E4D8002030740846F8BD0000F6
:102DE000D804002050C3000000200240034841687E
:102DF0000222114341600020704700000020024081
:102E0000F8B50C4C1646207C0F46012808D001204E
:102E100020740948FFF74AF90025002802D006E08F
:102E20000220F8BD65613E600348FFF73FF9257455
:102E3000F8BD0000D804002050C3000009484168D4
:102E400089070CD54168C90703D00749C160074904
:102E5000C1600749016107490161002070470120F5
:102E60007047000000200240EFCDAB89050403024B
:102E7000BFAE9D8C16151413F0B5002362E001243B
:102E80009C4022460A405CD006685F000325BD4096
:102E90002E43AC460660DD08AD002D182E6AAE4606
:102EA0005D07EF0E0F25BD40AE4375462E62866866
:102EB0006546AE4386604568A5434560C46865467F
:102EC000AC43C4609D08214CAD002D19AF689C0730
:102ED000260F0F24B440A4463C4005273F07B842C4
:102EE00001D1002719E01A4FB84201D1012714E09F
:102EF000184FB84201D102270FE0174FB84201D155
:102F000003270AE0154FB84201D1042705E0144F0A
:102F1000B84201D1052700E00627B740A74210D1EB
:102F2000AE686446A643AE600E4C256895432560A6
:102F3000656895436560A5689543A560E568954318
:102F4000E5605B1C0A46DA4099D1F0BD0000014003
:102F50000004005000080050000C00500010005009
:102F6000001C00500004014010B502F0BFF910BD74
:102F700010B504494A69024202D04861FFF7F4FFE4
:102F800010BD000000040140F8B500230124A7E0B3
:102F900027469F403A4070D04D68022D01D0122D37
:102FA00014D1DD08AD002D1800952D6A5E07AC46E2
:102FB000F50E0F26AE46AE406546B543AC460E69EB
:102FC0007546AE4065462E43009D2E624D68012D2C
:102FD00005D0022D03D0112D01D0122D16D18568F8
:102FE0000326AC465D00AE46AE406546B543AC46F2
:102FF000CE687546AE4065462E43866046680D79BC
:10300000BE43ED06ED0F9D403543456006685F0009
:103010000325BD40AE46AE430D79B446AE07B60FAC
:10302000BE4065462E430660C6687546AE438D6851
:10303000BD403543C5604D68ED0050D52B4D6E6BDE
:1030400026436E639E082A4DB6007519AC46AD68DE
:103050009E07360F0F27B740BD4305273F07B842ED
:1030600001D100271AE0234FB84201D1012715E012
:10307000214FB84202D1022710E030E01F4FB84282
:1030800001D103270AE01E4FB84201D1042705E011
:103090001C4FB84201D1052700E00627B7402F4357
:1030A0006546AF60184D2E684F689643FF0300D504
:1030B00016432E606E684F689643BF0300D51643D3
:1030C0006E60AE684F689643FF0200D51643AE604F
:1030D000EE684F689643BF0200D51643EE605B1C56
:1030E0000A681546DD4000D052E7F8BD00100240E6
:1030F000000001400004005000080050000C005087
:1031000000100050001C00500004014000690840FD
:1031100000D001207047002A01D081617047816290
:1031200070470000014800687047000068000020F8
:1031300070B5024640325378202B1CD11378012BF6
:1031400019D00123137024245470046825689D430A
:103150002560046825681E03B5432560046825685A
:103160000D432560006801681943016020205070FC
:103170000020107070BD022070BD406C70470000D0
:1031800070B5040006D02546403568780026002832
:1031900002D005E0012070BD2E70204600F0D0FA6C
:1031A00024206870206801684908490001600F21E7
:1031B0006068090688432168086121688A680120DF
:1031C000C00382438A60E1680129A16808D02122F6
:1031D0009202114322689160E168022902D005E061
:1031E0000143F7E701212268C902516021684A685A
:1031F0000F4B1A434A602168CA688243CA606169FA
:1032000020690843A169090208432168C860216A4E
:10321000E0690843216808602068016801221143C1
:1032200001606664202068702663AE70002070BD67
:1032300000800002FFB5054604464035687881B03D
:1032400020287ED1287801287BD001202870FFF724
:1032500069FF0746012200901923D103204602F09E
:1032600099FC00283FD1222068701020A870002609
:10327000666403986062049860856663618D0920C6
:103280008002FF2903D9FF222285009034E0618D5E
:103290002185009036E02046029902F069FC36E074
:1032A00002F09CFC002803D0606C042847D01AE090
:1032B0002068416A606A421C62620170208D401E73
:1032C00080B22085618D491E618500281FD1608DE7
:1032D00000281CD000970022802120460A9B02F083
:1032E00059FC002802D0032005B0F0BD608DFF28F6
:1032F00005D9FF222285009601231B06CBE7608DAE
:1033000020850096208D0123C2B25B06C3E7608D45
:103310000A9900283A462046C2D102F09BFC0028B8
:10332000C2D121682020C86121684A68064B1A4032
:103330004A606870AE702E700020D5E701E0012071
:10334000D2E70220D0E7000000E800FEFFB5054606
:1033500004464035687881B020287ED1287801283D
:103360007BD001202870FFF7DDFE07460122009088
:103370001923D103204602F00DFC00283FD1212063
:1033800068701020A8700026666403986062049834
:1033900060856663618D01204003FF2903D9FF2208
:1033A0002285009034E0618D2185009036E0204632
:1033B000029902F0DDFB36E002F073FC002803D036
:1033C000606C042847D01AE0606A411C6162017891
:1033D00020688162608D401E6085208D401E000443
:1033E000000C20851FD1608D00281CD00097002282
:1033F000802120460A9B02F0CDFB002802D003204A
:1034000005B0F0BD608DFF2805D9FF22228500960A
:1034100001231B06CBE7608D20850096208D0123BC
:10342000C2B25B06C3E7608D0A9900283A4620467F
:10343000C2D102F00FFC0028C2D121682020C8614F
:1034400021684A68064B1A404A606870AE702E7058
:103450000020D5E701E00120D2E70220D0E70000FC
:1034600000E800FEFFB5054604464035687883B0A5
:10347000202873D10C98002871D00D9800286ED0A8
:10348000287801286AD001202870FFF74BFE0746F4
:10349000012200901923D103204602F07BFB002873
:1034A00076D1222068704020A870002666640C98AF
:1034B00060620D98608566630E980090019704A97C
:1034C0000EC9204602F0EAFA002804D0606C2E7083
:1034D000042860D05CE0618D09208002FF2905D9B5
:1034E000FF22228501231B06009006E0618D2185C5
:1034F0000090208D0123C2B25B062046049902F0A1
:1035000037FB00970022042120460E9B02F042FB6D
:1035100000283DD12068416A606A421C62620170E5
:10352000208D401E81B22185608D401E608500295E
:1035300021D1608D00281ED00097002280212046D6
:103540000E9B02F027FB002822D1608DFF2807D9AF
:10355000FF22228501231B06009608E02AE01AE0DC
:10356000608D20850096208D0123C2B25B06204627
:10357000049902F0FDFA608D0028C2D13A46204637
:103580000E9902F067FB002807D0606C042802D077
:10359000032007B0F0BD0120FBE721682020C861AF
:1035A00021684A68044B1A404A606870AE702E70F9
:1035B0000020EEE70220ECE700E800FEFFB505463C
:1035C00004464035687883B0202876D10C980028CE
:1035D00074D00D98002871D0287801286DD0012072
:1035E0002870FFF79FFD0746012200901923D103A1
:1035F000204602F0CFFA002853D1212068704020E5
:10360000A870002666640C9860620D9860856663F9
:103610000E980090019704A90EC9204602F073FA93
:10362000002804D0606C2E7004286AD039E0608DC8
:10363000FF2805D9FF22228501231B06009606E0FC
:10364000608D20850096208D0123C2B25B06204646
:10365000049902F08DFA3A4620460E9902F021FBB9
:10366000002803D0606C04284BD01AE0606A411C2B
:103670006162216800788862608D401E6085208DBF
:10368000401E0004000C208524D1608D002821D02C
:1036900000970022802120460E9B02F07BFA002832
:1036A00002D0032007B0F0BD608DFF2807D9FF22AC
:1036B000228501231B06009608E024E021E0608DAE
:1036C00020850096208D0123C2B25B062046049916
:1036D00002F04EFA608D0028BDD13A4620460E9980
:1036E00002F0B8FA0028BDD120682021C16120680D
:1036F0004268064B1A4042606970AE702E7000201E
:10370000D0E70120CEE70220CCE7000000E800FE71
:1037100010B50948826A012149050A438262826A1A
:103720008A438262054C40212046FFF7A5FB802199
:103730002046FFF7A1FB10BD00100240000400501E
:1037400030B58FB00820059040020A9005A800F01F
:10375000A1F91548C26A02210A43C262C26A0A403C
:103760000E92C26A0A43C262C26A0A400E92816B1A
:1037700001225205114381634020009012200190E4
:10378000002002900320094D01240390694604940F
:103790002846FFF7F9FB80200090694604942846EC
:1037A000FFF7F2FB0FB030BD0010024000040050E4
:1037B00002480168491C0160704700006800002051
:1037C00010B506480168022211430160032000F091
:1037D00007F800F007F8002010BD000000200240AC
:1037E0000020704710B50848816B020411438163C3
:1037F00000F036F800F02CF8044801680822114364
:10380000016000F01DF810BD0010024000200240D1
:10381000C106C90E012088400149086070470000B8
:1038200080E100E0C106C90E01208840014908601E
:103830007047000000E100E010B503F0AFFC10BDE0
:103840000248016802151143016070470070004092
:103850000248016842151143016070470070004042
:1038600002480168102291430160704700700040D7
:10387000094B1A689208920002431A6007480269CD
:1038800004239A430261012903D040BF20BF20BF17
:10389000704730BF704700000070004000ED00E04E
:1038A0000A4B1A689208920002431A60084803699A
:1038B000042213430361012906D040BF20BF20BF6B
:1038C000016991430161704730BFF9E70070004022
:1038D00000ED00E0F8B56649074601250020ED033C
:1038E000624B634A4031102F6FD011DC012F77D02B
:1038F000022F6CD0042F6BD0082F24D1C968032469
:10390000240321407BD0BD026C10A9427CD0A0E0F2
:103910000326584C3604202F0BD0402F35D0FF3FC4
:10392000012F10D1C968314069D07C04A1426BD00D
:1039300096E00B690969012731403F04B94203D180
:10394000990559E02846F8BD01256D04A94203D127
:103950009907F8D54848F8BDB142FCD111688903F0
:10396000F9D5116803200005014001200005091A5E
:1039700009D0091A05D0814201D14048F8BD20463E
:10398000F8BD3F48F8BD3F48F8BDC9680125AD0600
:10399000294006D0A942F7D191688907F4D53A4861
:1039A000F8BD11688901FBD5D068D1688002374D18
:1039B000000F2D5C0802810FD068491CC0030AD497
:1039C0001068C00605D5204606E045E008E023E083
:1039D00030E0184600E02E486843FCF789FBF8BD4C
:1039E000CC68A407A40F0CD0022C0DD0012C10D051
:1039F000032CF4D1096989050029A3DBF8BD16E081
:103A000002E000F0D1F9F9E711684907F6D5184648
:103A1000F4E700F0D9F9F1E7CC680C26344006D081
:103A2000082CF1D0042CF4D00C2CE3D0E6E700F005
:103A3000ABF9E3E7CC680326B6023440F7D00127A0
:103A4000FF02BC42E0D07A109442E2D0B442D1D01E
:103A5000D4E7A142DDD0D1E7916B4902E7D4CDE7AD
:103A6000012212049142D4D0C8E700000024F400DF
:103A70000010024000093D008890000020A10700CE
:103A800040420F0080841E00006CDC02C4F6000877
:103A900000127A00F8B5044600785E4D800672D5B3
:103AA0005C4E0027403EB06BC00004D4B06BA9054B
:103AB0000843B063012758480168C90511D401685B
:103AC000821511430160FFF72DFB009005E0FFF721
:103AD00029FB0099401A642837D84F480068C00570
:103AE000F5D532680321090560680A40014091421A
:103AF00008D08103890F032904D13168890301D5D6
:103B00000120F8BD2A69032109040A4022D0084097
:103B100090421FD0207880061CD528692A698843E6
:103B20000121C9040A432A612A698A432A6128615A
:103B3000C0050FD5FFF7F6FA009008E0FFF7F2FA9C
:103B40000099411A3548814201D90320F8BD2869FE
:103B50008005F3D561688803800F032805D132689A
:103B60000005824301400A433260286903226168EC
:103B70001204114008432861002F04D0B06B0121CA
:103B800009078843B0632078C00705D0E868A168BA
:103B9000800880000843E8602078800705D5E86841
:103BA0000C218843E1680843E8602078400706D587
:103BB000E86803218902884321690843E860207886
:103BC000000706D5E86803210903884361690843B3
:103BD000E8602088C00506D5E86803210904884309
:103BE000A1690843E8602078400606D5E86801210D
:103BF00089068843216A0843E8602078000606D5D4
:103C0000E868032189048843E1690843E8600020EB
:103C1000F8BD000040100240007000408813000012
:103C2000F8B5054653480E460068C007C00FB042BD
:103C30000AD25048016849084900314301600068D0
:103C4000C007C00FB0426FD128784B4C800705D514
:103C5000E068F0218843A9680843E0602878C0073D
:103C600052D06868022817D0032818D0216801288C
:103C700018D08905002957DAE168890889000143CD
:103C8000E160FFF74FFA69680746022912D003295D
:103C90001CD0012926D033E021688903EAE7216896
:103CA0008901E7E74907E5E7FFF73CFAC11B33481D
:103CB000814223D8E0680007800F0228F4D123E076
:103CC000FFF730FAC11B2D48814217D8E068000782
:103CD000800F0328F4D117E0FFF724FAC11B27480F
:103CE00081420BD8E0680007800F0128F4D10BE077
:103CF000FFF718FAC11B2148814201D90320F8BD02
:103D0000E0680007800FF3D11A480168C907C90F9E
:103D1000B1420BD90168490849003143016000688C
:103D2000C007C00FB04201D00120F8BD287840077D
:103D300006D5E068072109028843E9680843E06086
:103D40002878000707D5E0680721C9028843296958
:103D5000C9000843E06000F037F8E168084A090646
:103D6000090F515CC840074908600320FFF738FD80
:103D70000020F8BD0020024000100240881300001F
:103D8000B4F6000864000020044805490068C968CA
:103D9000044A4905490F515CC8407047640000203F
:103DA00000100240CDF60008044805490068C968C3
:103DB000044A8904490F515CC840704764000020E0
:103DC00000100240CDF6000810B5184AD1680C204A
:103DD000084004280BD0082810D00C2810D05068B8
:103DE0000004410F0120C003491C884010BD106829
:103DF000C00601D50E4810BD0E4810BD0E4810BDBE
:103E000088020E4B000F185C0902D368890F491C09
:103E1000DB0301D5084A05E01268D20601D5044A41
:103E200000E0044A5043FCF763F910BD0010024063
:103E300000093D000024F40000127A00C4F60008D6
:103E4000F8B504460078FF4DC0074CD0E86800077D
:103E5000800F022807D0E8680007800F032809D1E7
:103E6000E868C00306D5286880033CD56068002850
:103E700075D038E0012062680004824203D12968CD
:103E80000143296011E0052301211B0489049A42A2
:103E90002A6802D10A432A60F1E782432A602A682D
:103EA00002400092286888432860606800280DD08E
:103EB000FFF738F90646E44F04E0FFF733F9801BBB
:103EC000B8427DD828688003F7D50CE0FFF72AF9BF
:103ED0000646DD4F04E0FFF725F9801BB842F0D815
:103EE00028688003F7D42078800741D5E8681F2729
:103EF0000007800F3F02012807D0E8680007800F05
:103F0000032809D1E868C00306D42868400717D5FC
:103F1000E068012823D113E0E068002817D0296861
:103F20000922914301432960FFF7FCF8064604E0AB
:103F3000FFF7F8F8801B0228C3D828684007F7D598
:103F400068682169B84309020843686010E028687E
:103F5000400840002860FFF7E5F8064605E090E0DD
:103F6000FFF7E0F8801B0228ABD828684007F7D499
:103F70002078C00676D5E868B44E0007800F0BD0D5
:103F8000E06900285DD02868FF21013108432860DE
:103F9000FFF7C8F8074644E02868800502D5E069C5
:103FA00000286ED0606A69683140884212D904F0F6
:103FB000B5F90028AED16868616AB043084300E0F3
:103FC000E4E068606868218C0002000A0906084382
:103FD00068600FE06968B143014369606868218CDB
:103FE0000002000A090608436860606A04F096F956
:103FF00000288FD1606A410B0120C003491C884012
:10400000E968934A0906090F515CC8409149086064
:104010000320FFF7E5FB25E0FFF784F8C01B02282B
:104020008AD828688005F7D56868616AB043084374
:1040300068606868218C0002000A0906084368600D
:1040400010E02968FF20013081432960FFF76AF8FA
:10405000064604E0FFF766F8801B022884D828682B
:104060008005F7D420787C4E000723D560690028AE
:10407000306910D0012108433061FFF753F807463B
:1040800005E009E1FFF74EF8C01B02287ED8306931
:104090008007F7D50EE0400840003061FFF742F896
:1040A000074604E0FFF73EF8C01B02286ED83069CF
:1040B0008007F7D42078400761D5A86B0027C0009F
:1040C00005D4A86B012109070843A86301276348A9
:1040D0000168C90511D40168821511430160FFF719
:1040E00021F8009005E0FFF71DF80099401A6428B8
:1040F0004CD85A480068C005F5D5FF20A2680130A9
:10410000824203D131690143316111E00121890209
:10411000002A07D005231B029A4203D132690A43C1
:104120003261EFE73269824332613069884330613E
:10413000A06800280ED0FEF7F5FF009006E0FEF71D
:10414000F1FF0099411A404881421FD8306980052B
:10415000F5D50DE0FEF7E6FF009006E0FEF7E2FF82
:104160000099411A3848814210D830698005F5D449
:10417000002F04D0A96B012000078143A963207898
:10418000800630D53649A0694A1400E07DE0002859
:1041900016D0AB6801200343AB606B6B03436B63CA
:1041A000086A10430862FEF7BDFF064604E0FEF70A
:1041B000B9FF801B022868D8A8688007F7D512E0ED
:1041C000A86840084000A860086A90430862FEF7AB
:1041D000A9FF064604E0FEF7A5FF801B022854D87D
:1041E000A8688007F7D4A06A002853D0E9680907B7
:1041F000890F032950D0012636060228286805D0E9
:10420000B0432860FEF78EFF044640E0B0432860CC
:10421000FEF788FF074604E0FEF784FFC01B022874
:1042200033D828688001F7D4216BE06AEA68084334
:10423000616BFD231B049A4311430843E86028681F
:1042400030430FE0001002408813000000E000003F
:10425000B4F60008640000204010024000700040E6
:10426000000001402860FEF75DFF044604E0FEF711
:1042700059FF001B022808D828688001F7D509E0FB
:10428000FEF750FF001B022801D90320F8BD286863
:104290008001F5D40020F8BD0120F8BD30B50146FD
:1042A00020310A78012A15D001220A7002234B70AE
:1042B0000468CA23636204685323636203689C68CA
:1042C00020252C439C600068FF2343624A70002035
:1042D000087030BD022030BD10B507F0F1FD10BDF3
:1042E000F8B5054604462035287801281DD0012060
:1042F0002870022068702268CA2050622268532009
:104300005062FF2001300026FF2781421CD1216826
:104310008A6882438A60206881680122120391437F
:104320008160FEF7FFFE009009E00220F8BDFEF775
:10433000F9FE0099411A7D20C00081421BD82068F7
:10434000C068C007F3D020E02068816801225202D3
:104350009143816020688168120191438160FEF77A
:10436000E1FE00900DE0FEF7DDFE0099411A7D2090
:10437000C000814205D920684762032068702E7012
:10438000F8BD2068C0688007EDD52068476201202D
:1043900068702E700020F8BD10B500680B464068AC
:1043A000C021C94301400002000ECC04D870E40EC5
:1043B0005C708C06A40E0904490F9C701970002AC9
:1043C0000AD103F0E7FFD870587803F0E3FF587084
:1043D000987803F0DFFF9870002010BD30B50B46D1
:1043E0000168896A5960016809694904490C996042
:1043F000006804680F482146014088024D04800E81
:1044000018706D0E49065D70490E99706102490E73
:1044100040242140D970002A0AD103F0BBFF187054
:10442000587803F0B7FF5870987803F0B3FF98708E
:10443000002030BD7F7F7F0070B5040005D0254689
:1044400020356878002802D006E0012070BD0020E9
:104450002870204600F042F8022068702168CA20C7
:104460004862216853204862204603F0A6FFFF21DE
:104470000028206803D0416204206870E5E7826864
:10448000154B1A408260226890686368A6691843D9
:1044900023693343184390602268E0681061206804
:1044A000026923891B041A4302612068C2688023C1
:1044B0009A43C2602068C26C92089200C264E269AA
:1044C000606902432068C36C1A43C2642068416279
:1044D00001206870002070BDBFFF8FFF00B597B04E
:1044E0000420009000200A90FF20013002906846CE
:1044F000FFF7A6FC002801D0FDF778FD20200E90E4
:10450000C0020F900EA8FFF7C5FA002801D0FDF7F2
:104510006DFD0848016901229204114301610022E6
:1045200011460220FFF788F90220FFF77BF917B048
:1045300000BD000040100240FEB50646044620368D
:1045400030780B46012842D0012030700220707074
:1045500020681D46002720358068002A39D0400693
:1045600055D5187803F016FF287803F013FF197853
:104570009878090408435978DA780902120411433B
:104580000843297809060843D9690843596908434B
:10459000054699695868084300902168CA20486216
:1045A000216853204862FF205A6A013080218242EC
:1045B0004AD122689368834393602268D068084098
:1045C000FF388238D060FEF7ADFD019029E002206F
:1045D000FEBD400600D4DF70187803F0E3FE02044D
:1045E000587803F0DFFE00020243987803F0DAFE09
:1045F0000243D87800040243287803F0D3FE000673
:104600000243D8690243586902431546C1E7DF7087
:10461000AAE7FEF787FD0199411A7D20C00081427B
:104620002AD82068C068C007F3D02068C561216817
:104630000098486420688168FF220132114381603C
:1046400020688168120130E02068826801235B02E3
:104650009A4382602068C2680A401D495118C160AF
:10466000FEF760FD01900EE0FEF75CFD0199411A36
:104670007D20C000814206D92168FF2048620320C6
:1046800070703770FEBD2068C0688007ECD5206868
:1046900005622168009888642068816801225202BE
:1046A00011438160206881681201114381600948CB
:1046B0000268012149040A43026082680A43826059
:1046C0002168FF2048620120707037700020FEBD15
:1046D0007FFDFFFF00040140F8B505460446203584
:1046E00028780B46012815D0012028700220687018
:1046F0005878002A10D003F04DFE987803F04AFE57
:10470000D8789E7800040643587819780002490347
:10471000084316E00220F8BDC10603D5EF2108408A
:104720000A305870D87803F03DFE0604587803F03C
:1047300039FE00020643987803F034FE06431878E9
:10474000400306432168CA2048622168532048621A
:10475000204603F032FE0027002811D11048064001
:10476000206846602068C16880229143C16020684B
:10477000806880060CD4204600F08CF8002807D012
:104780002168FF204862042068702F700120F8BD66
:104790002168FF204862012068702F700020F8BD5A
:1047A0003FFFFF00F8B506460446203630780D4638
:1047B00001280ED001203070022070702068002780
:1047C0008068002A07D040061AD5287803F0E2FD59
:1047D00017E00220F8BD400600D4EF70287803F0FF
:1047E000E1FD0204687803F0DDFD00020243A878D1
:1047F00003F0D8FD0243E8780004024300920BE086
:10480000EF702978A878090408436978EA780902E2
:1048100012041143084300902168CA2048622168AD
:1048200053204862204603F0C8FD00281FD11849D4
:10483000009808402168086020688168012292047D
:10484000914381602969E868084321688A681043B8
:1048500088602068C16880229143C16020688068B8
:1048600080060CD4204600F015F8002807D02168F7
:10487000FF2048620420707037700120F8BD216865
:10488000FF2048620120707037700020F8BD0000E2
:104890007F7F7F0070B504460068C168A022914305
:1048A000C160FEF73FFC7D260546F60006E0FEF7F8
:1048B00039FC401BB04201D9032070BD2068C0689C
:1048C0008006F4D5002070BD70B5040006D02546E2
:1048D0004035687C0026002802D005E0012070BD2C
:1048E0002E74204600F032F80220687420680168B7
:1048F000402291430160A168606822690843E16831
:1049000011430843616901220843A1695202114021
:104910000843E1690843216A0843A16A0843216802
:104920000860A0690421000C0840616A08432168FE
:1049300048602168E06A08612068C169920091437B
:10494000C161666501206874002070BD7047F8B5CC
:10495000044600276846078026464036707C0128BA
:1049600002D0707C22287ED100290CD0002A0AD0E7
:10497000002B08D0307C012875D001203074707C69
:10498000012802D003E00120F8BD32207074676571
:10499000A263A387E3872163A386E386A764E76412
:1049A0000125A06A6D03A84207D120680168A943C8
:1049B0000160206801682943016020680168490698
:1049C00003D401684022114301600121FF20E26805
:1049D000C90205308A42616866D1002904D081424B
:1049E0000CD1E08E012809D1206B21680088C860B5
:1049F000206B801C2063E08E401EE086E08E002845
:104A000043D1A06AA84246D120680168012212035E
:104A1000114301603FE02068C068A16B0880A06B73
:104A2000801CA063B0E0002202212046069B05F016
:104A3000E9F800287DD1206B21680088C860206BD0
:104A4000801C2063E08E401EE086E08E002808D1A6
:104A5000A06AA84205D1206801680122120311430F
:104A60000160002200E0CCE001212046069B05F019
:104A7000C9F800287FD12068C068A16B0880A06BAE
:104A8000801CA063E08F401EE087E08E0028CAD122
:104A9000606800287BD1002201212046069B05F09A
:104AA000B1F8002867D1B6E7002904D081420BD1C4
:104AB000E08E012808D1206B411C21632168007819
:104AC000C860E08E401EE086E08E002845D1A06AD6
:104AD000A84205D120680168012212031143016038
:104AE000002201212046069B05F08CF8002842D1C7
:104AF0002068C068A16B087046E0002202212046B1
:104B0000069B05F07FF8002835D1206B411C2163FE
:104B100021680078C860E08E401EE086E08E0028A4
:104B20000AD1A06AA84207D12068026801210903BE
:104B300000E020E00A430260002201212046069B9B
:104B400005F060F8002816D12068C268A06B411CEF
:104B5000A1630270E08F401EE087E08E0028CCD178
:104B60006068002813D1002201212046069B05F031
:104B700049F8002802D00320F8BD08E02068C16889
:104B8000A06B421CA2630170E08F401EE087A06A08
:104B9000A8420FD1002201212046069B05F032F8E1
:104BA000002802D0606D02210EE02068C0686946CE
:104BB00008800888012280212046069B05F022F803
:104BC000002804D0606D202108436065D3E70120F0
:104BD0007074A06AA84211D120688168C943C906CF
:104BE0000CD4616D0222114361650168A943016023
:104BF00020680168294301603774C4E637740020D7
:104C0000BAE70220B8E770B5040005D02546203584
:104C1000687D002802D006E0012070BD00202875C4
:104C2000204600F00AF802206875211D206807F070
:104C3000EFF801206875002070BD704701466031B3
:104C40000A7A012A0DD001220A7224224A720068CF
:104C5000026802231A430260202048720020087272
:104C60007047022070470000FEB5054604466035D7
:104C7000287A00269446012811D001232B72242083
:104C80006872206802689A4302602768B868032245
:104C9000120590430843B860002902D015E00220B5
:104CA000FEBD60460091019021686A46928848687E
:104CB0001027B84310434860206841686A460902DB
:104CC0009279090A1206114341602068016819436C
:104CD0000160FEF727FA09490091034601210022ED
:104CE0008905204607F0B7FC002801D0032601E023
:104CF00020206872002028723046FEBDFFFFFF01B1
:104D000070477047F8B502680446D0691168060715
:104D1000360F07D1830605D58B0603D5204607F04D
:104D20000FFBF8BD95682023002E65D0EE07F60F27
:104D3000FF2721370F4037435ED0C70706D0CF0586
:104D400004D501271762E26E3A43E266820708D56E
:104D5000EA0706D0276802223A62E26E04273A4345
:104D6000E266420708D5EA0706D0256804222A62CF
:104D7000E26E02252A43E266020709D50A461A4076
:104D8000324305D0236808221A62E36E1343E366B8
:104D9000E26E002AC5D0800604D5880602D52046DA
:104DA00007F0CEFAE06E000703D420688068400662
:104DB0001CD5204607F0ACFA20688168490611D559
:104DC000826840218A438260606E00280AD01D49B3
:104DD0008163606EFDF792FD0028A2D0606E816B4A
:104DE0008847F8BD2046FFF78CFFF8BD2046FFF747
:104DF00088FF0020E066F8BD2646C7026036002F17
:104E00000ADA6D0208D50120000510627372B372D0
:104E10002046FFF775FFF8BD050605D50D0603D53D
:104E2000204607F0E5FBF8BD4006FCD54806FAD55C
:104E30002046146840218C431460737200F08EF990
:104E4000F8BD000079C2000870B5040005D0254601
:104E50006035687A002802D006E0012070BD00208D
:104E60002872204600F026F8242068722068016825
:104E7000490849000160606A002802D0204607F016
:104E800065F9204607F09CFA0128E7D020684168C0
:104E90000922D20291434160206881682A2291430D
:104EA000816020680168012211430160204607F0FB
:104EB000B3F970BDF0B5064600684049404C012585
:104EC00004278BB0884244D1E06A2843E062E06A5C
:104ED00028400990E06A2843E062E06A284009908F
:104EE000A06BA9040843A06324216846FBF7B0F92E
:104EF000E014049000976846FEF7CCFD206B284331
:104F00002063206B284009900AF058FA2E4C2D4857
:104F100020601020A0600020E0606061A06180211E
:104F2000E06121612062052060602046FDF772FE8D
:104F30003466012211460B20A662FEF77DFC0B2091
:104F4000FEF770FC012211461D20FEF775FC1D20A6
:104F50002FE01E4988422ED114216846FBF778F9CC
:104F6000E06A2843E062E06AC007C00F0590606B0A
:104F700001218903084360634811009002200190D9
:104F8000002002900320052424070390694604971B
:104F90002046FDF7F9FF0120800200906946049742
:104FA0002046FDF7F1FF012202211B20FEF744FC01
:104FB0001B20FEF737FC0BB0F0BD0000004800409E
:104FC0000010024080000240B80600200038014076
:104FD000F0B5034660339C7A202C44D100290BD0D5
:104FE000002A09D0012584682D03AC4206D1066948
:104FF000002E03D1CE0701D00120F0BD1E7A012E74
:1050000031D001261E724165014640310A834A8330
:10501000FF27AC4204D10269002A12D1134A0EE0E4
:105020007F22002C08D001252D07AC420AD104694B
:10503000002C04D03F2202E00469002C01D08A83B6
:1050400000E08F830021C16622229A7219720168E2
:105050008A6832438A6000680168FF222132114366
:1050600001600020F0BD0220F0BD0000FF01000043
:1050700010B504460F4A01680F4891420DD181686E
:10508000002905D0E06E002802D10B48401C88475B
:1050900009490122491C204608E0084A914207D1EB
:1050A000012101700A4604490548891CFFF790FF59
:1050B00010BD000000480040BC0000200038014046
:1050C00068070020F8B5054604466035687A202850
:1050D0003BD100290BD0002A09D00123A0681B0373
:1050E000984206D12069002803D1C80701D00120C9
:1050F000F8BD287A012828D00120287220464030A7
:10510000E164028242820026E66621206872216EF6
:105110000F48C862216E0F480863216E0E4848632D
:10512000206E134686632768E16C3A462832206E6B
:10513000FDF7F4FD2168402008622E722068816826
:105140008022114381600020F8BD0220F8BD0000DC
:10515000D7C2000807C300088DC200080248406893
:10516000002800D000477047BC00002070470000B6
:1051700010B51248017800291ED101220270114891
:105180000F49016000210164C161D307816143605F
:1051900082638160C160016207234162C36302616F
:1051A000C1620422426101630748416B4215114309
:1051B00041630448FDF71AFA10BD0000B800002052
:1051C0000024014058060020001002407CB51E4912
:1051D000064609780020002934D01C484168C9439C
:1051E0000907FBD41A4C606B6515284360630021E6
:1051F0001848FDF757F9184800901848019069467B
:105200001448FDF7A5F9A0140190694600961148CD
:10521000FDF79EF90F48FDF72BFB0021C9430D4810
:10522000FDF7C7FA0B48FDF7DDF90A4980B20A68B5
:105230009368022633439360096803220A60616B16
:10524000A94361637CBD0000B800002000700040ED
:105250000010024058060020FFFF07000110000068
:10526000014600200A0A00D00820084A114201D055
:1052700004221043064A114201D002221043054A7B
:10528000114201D00121084370470000F0F00000F6
:10529000CCCC0000AAAA000038B50B231B07C51808
:1052A000114B0FD01C152D1B18D02D1B19D0A5424A
:1052B000DD6A05D108242543DD62DB6A234007E06F
:1052C0008024F8E7DC6A01252C43DC62DB6A2B4092
:1052D000009311601146FDF757FE38BDDD6A0224C8
:1052E000E9E7DD6A0424E6E70010024010B5FFF7A5
:1052F000B7FF810002484058002800D0804710BD09
:10530000F004002070B51C4615460E460846FFF70F
:10531000A7FF0A49002C0DD080000C50304601F048
:10532000D5FE044600222946FEF786FA2046FEF7FF
:1053300079FA70BD002280000A5070BDF004002090
:1053400010B5D2B2FDF7E7FE10BD000070B5002425
:105350001148FFF73BFF114D01000CD01048114AD6
:10536000008B5043FAF7C4FE80B20E492880884271
:1053700003D9FE240DE000202880E120C0008642F1
:1053800007D3301AFE2148434B210901FAF7B0FE3A
:10539000C4B2204670BD000000000244800000201E
:1053A0006000F81FB80B000003494A690869496AA0
:1053B00050404840704700004000F81F70B5114849
:1053C000FFF704FF104C01001AD0208B0F4A504306
:1053D000FAF78EFE05460E48FFF7F8FE68430B49C4
:1053E000FAF786FE618B0522401A12035043E28BC6
:1053F000511AFAF793FE0F214902401880B270BD8E
:105400000025E8E7000002446000F81FB80B000028
:10541000000004480F494B6A0A69D218120EC27183
:105420004B6A0A69D218120C82710A8A8B8CD218C4
:10543000120A42710A7C8B8CD21802714A69120ED0
:10544000C2704A69120C82708A8A120A4270097DFF
:10545000017070474000F81F10B50B4C60780028B1
:1054600010D1FFF785FE09480068804700F0DEF99B
:1054700000F092F806F0F0FD09F0F0FFFBF7D6FD22
:105480000120607010BD0000B80000204CF600083C
:1054900070B5410EC0017D220023FAF753FE054688
:1054A00000F072F8044600E000BF00F06DF8001B49
:1054B000A842F9D370BD000070B505460C46002225
:1054C0002048FEF78BFF002229461E486668FEF73B
:1054D00063FF002221461B48FEF780FF6068B04250
:1054E000F1D1E878184A01465043C01C8308880768
:1054F00026D0164968783D220646504302463C3A7B
:105500007000801EC1408807D10F8918800F491094
:10551000081AC018A978401E08180D493C224843B3
:105520006178E123514322781B015A438918A278FC
:1055300010180818074A61688002511A401870BD97
:105540000549D7E730050020B5050000A0AA99005D
:1055500080510100FF0300005055440003207047B4
:1055600001480068704700007C05002000B587B046
:10557000694605A8FFF7A0FF0249096807B0401A6D
:1055800000BD00007C05002000B587B0694605A875
:10559000FFF792FF07B000BD10B5084C2078002837
:1055A0000AD100F04BF8FF2101310548FEF798FEC3
:1055B00000F074F80120207010BD0000760000207B
:1055C0003005002010B50C4C0021042000F004FF31
:1055D00021688868C0040ED5C868C0050BD5C868A6
:1055E00080221040FF388238C86004499002486128
:1055F0002046FEF771FE10BD30050020000401407A
:1056000070B50446FFF7B2FF211A0B4D0220285E49
:10561000C01C814201D9002100E00121042000F0DA
:10562000DBFE00F0B1FE012802D10220285E241A20
:10563000204600F03FF870BD7600002010B51449F8
:10564000144886B0002412C01F21016084600461E8
:105650001149446141600838FEF7EEFE6946CC7599
:105660000120487588750875002205A90948FFF7CB
:1056700033F8009401940494002269460548039489
:10568000FFF790F80348FEF709FE06B010BD0000D2
:105690000028004030050020FF03000010B5044C36
:1056A0002046211D1830FFF707FF206010BD0000C5
:1056B0007C050020F0B587B0044614223F4901A8BC
:1056C000FAF7ADFD3D485038406E009000F07EF88E
:1056D0003B4802993B4A401AA105890D081887B238
:1056E000A10A68468078534202E08918401C80B2C3
:1056F0009942FAD26A461579E122120102E0891A2A
:105700006D1CADB29142FAD26A46547902E0641C33
:10571000A4B23C393C29FAD2927951188EB20121B7
:10572000890203E07A1A761C97B2B6B28F42F9D298
:1057300003E03C3E641CB6B2A4B23C2EF9D203E0B6
:105740003C3C6D1CA4B2ADB23C2CF9D203E0183D38
:10575000401CADB280B2182DF9D26946C9788907CC
:1057600069464A7827D01849491E515C814202D2C5
:10577000FAF7BEFC08461249CA1B10492C394A6088
:10578000052252068A618E704C700A460D702032D6
:1057900010706846C079C8700020C861FF22486157
:1057A0000132C8604A620861024608462438FEF7A2
:1057B000C3FE07B0F0BD04490C31D5E780050020D9
:1057C000FF03000080AEFEFFD5F6000810B50648C6
:1057D0000168C86880221040FF388238C8605100D4
:1057E0000148FEF77DFD10BD3005002010B57D217C
:1057F00007F097F84906C009084310BD10B5410EDF
:10580000C0017D220023FAF79DFC10BD01B582B0D6
:105810000020C0430090012301AA02A90248FFF71B
:1058200096F8684680880EBD9805002010B51C4883
:105830001A4901601C4A1B4B0021126803E0520800
:10584000491C072901D29A42F9D84A078B07D20F7F
:10585000DB0F52011B011A43C90700D008210A437C
:10586000C2610021816001614161FF22C160053296
:1058700081624260012201625202826141620B48F0
:10588000416B8214114341630548FFF71DF800285E
:1058900001D0FCF7ABFB00F045F810BD0030014033
:1058A00098050020809698006400002000100240B7
:1058B00070B586B014216846FAF7CAFC05260125A2
:1058C000022436076A468021304601950294FFF78C
:1058D000E3FC002280213046FFF732FD6A4640217A
:1058E00030460294FFF7D8FC002240213046FFF7F3
:1058F00027FD6A46202130460294FFF7CDFC0022A6
:1059000020213046FFF71CFDA4036A46214630469D
:105910000295FFF7C1FC012221463046FFF710FD3A
:1059200006B070BD30B585B014216846FAF790FC1A
:1059300002200190029003200390002005242407F8
:1059400004906A4620212046FFF7A6FC6A464021C3
:105950002046FFF7A1FC6A4680212046FFF79CFC09
:1059600001210191CD0302916A4629462046FFF7A5
:1059700093FC012229462046FFF7E2FC05B030BD2A
:10598000F8B5012105200022C9020007FDF7C3FB7D
:1059900000240126194F360331463846FDF7B6FB81
:1059A0000028F9D1002501220527D6023F073146FC
:1059B0003846FDF7B0FB6400002231463846FDF75B
:1059C000AAFB71000D48FDF7A1FB012800D1641C62
:1059D0006D1CEDB2182DE6D301220526D50236073F
:1059E00029463046FDF797FB28034440002229460C
:1059F0003046FDF790FB2046F8BD00000004005043
:105A000000BFFDE701688A69D243920701D40022F2
:105A10008A6200688169C943C90703D0816901228C
:105A20001143816170470000F7B5044600680E46D7
:105A30008069C043C0062CD4202725464035206805
:105A40008069C04380060FD5701CF8D0002E05D0A9
:105A5000FDF768FB0299401AB042F0D96F70002040
:105A6000A87028700320FEBD21681020C86120683E
:105A7000C7612046FFF7C6FF20684168064A11400B
:105A80004160042060646F700020A87028700120BD
:105A9000FEBD0020FEBD000000E800FEF8B5044693
:105AA0000120164640031D46DAB20090079F0023EE
:105AB000204600F05DF83A462046069900F0F1F8DD
:105AC000002803D0606C04281BD018E02846F5B2EB
:105AD000012809D02168300A88623A462046069992
